:020000040000FA
:10000000021BC6022003FFFFFFFFFF02200BFFFFC2
:10001000FFFFFF022013FFFFFFFFFF02201BFFFF78
:10002000FFFFFF022023FFFFFFFFFF02202BFFFF48
:10003000FFFFFF021305FFFFFFFFFF02203BFFFF53
:10004000FFFFFF022043FFFFFFFFFF02204BFFFFE8
:10005000FFFFFF022053FFFFFFFFFF02205BFFFFB8
:10006000FFFFFF022063FFFFFFFFFF02206BFFFF88
:10007000FFFFFF022073FFFFFFFFFF02207BFFFF58
:10008000FFFFFF022083FFFFFFFFFF02208B002006
:10009000000090200000932000000100000000C834
:1000A00003000000000000000400FFFFFFFF00C28B
:1000B000010000002600FFFFFFFFFFFFFFFF04031A
:1000C00009042403540065007800610073002000D7
:1000D00049006E0073007400720075006D006500C9
:1000E0006E00740073002403540049002000430094
:1000F000430032003500330031002000550053002A
:100100004200200043004400430000035F005F0002
:100110003000580000000000000000000000000057
:1001200000000000000000000000000000000000CF
:10013000000000003031323334353637383941422F
:10014000434445467F18D418D418D418D418DC1862
:1001500074F71217BA1207A3700FA3A3E0700AA3D3
:10016000E064027002A3E060089005A47404020237
:10017000119005B6E02480600814602D14603A8068
:10018000E89005BAE070E29005B0E0600478018084
:100190000278009005BEE8F0A3E4F09005AFE060BF
:1001A000559005BEE04402804990059DE0640470CE
:1001B000B89005BEE4F0A3803C9005BAE0547FF50A
:1001C0000890059DE0640470A0E508C3940650996A
:1001D0009005BAE05480600C1202FBE06403700CDE
:1001E0007801800A1202EEE0640360F47800900562
:1001F000BEE8F0A3E4F09005A4E064046014900568
:10020000B174BEF0A37405F0A3E4F0A37402120865
:1002100002F07F02021A2674F71217BAE9FE90055F
:10022000BC1207A6701090059DE064046010900554
:10023000BA1207A660089005A474040202E89005AB
:10024000B6E0541F600814600D14602380E8900528
:10025000B8E06401600579000202EBEE9005AFF0B2
:1002600060047905800279067A001217B8807A90C6
:1002700005BAE0547FFA9005B8E070DAEAC3940654
:1002800050B4EA90620EF09005BAE05480602AEE15
:100290006004741080027440906211F0EE60047487
:1002A000038001E4C0E08A081202FBD0E0F0EE60B7
:1002B000047908802C79078028EE6004742080027D
:1002C0007480906214F0EE600474038001E4C0E076
:1002D0008A081202EED0E0F0EE6004790A8002791A
:1002E000091217B890620EE4F0790102021274A9A3
:1002F0002508F58274053400F5832274A42508F5D9
:100300008274053400F583227900120217E9700324
:100310001217A7227901120217E970031217B622E9
:10032000C082C0839005BA1207A67014A31207A654
:10033000700E9005B8E05480F8A3E0F9E849600732
:100340009005A47404801D9005B8E0906200F090C0
:10035000059D6009E06402700C74038007E064038B
:1003600070037402F0D083D0822274F51217BA9011
:1003700005B9E014600814601914604C806412130D
:100380009C120527A37B80121AEEA3F0A3E4F002CF
:1003900004DE9005B8E0FA79001213BE1205277B3F
:1003A00080E924020909EA3400FA121AEEFC19194C
:1003B000E0FAA3E92403090909EA3400FA121AEE63
:1003C000F9ECA3F0A3E980C69005B8E0F912142C6B
:1003D0009005B1EAF0A3EBF0A3E4120536A37B008D
:1003E00080A59005B1E4F0A3F0A3F0FA0204B27581
:1003F000090074037808121B91120540E493C0E0D1
:100400009005B9E0F8D0E06860030204B18A08758D
:10041000090074037808121B91120540A3E493C0ED
:10042000E09005B8E0F8D0E06860030204B18A0803
:1004300075090074037808121B91120558E493C0E3
:10044000E09005BBE0F8D0E06870668A08750900A6
:1004500074037808121B91120558A3E493C0E0902E
:1004600005BAE0F8D0E06870488A0875090074039E
:100470007808121B9112054CF988828983A3A3A3E3
:10048000A3E493F508740193F5099005B1E508F02C
:10049000A3E509F0A37480F088828983A3A3A3A3B2
:1004A000A3A3E493F8740193F99005B4E8F0A3E9E9
:1004B000F00A8A0890067A1206AC75830675827C6B
:1004C000E0C398F50AA3E099F50B7403780A121BB0
:1004D000B7C3E508950AE4950B50030203EF9005B6
:1004E000B1E0FCA3E0FDA3E0FEEC4D4E9005A4704E
:1004F000047404802CE0640460289005B41206ACF7
:100500007583057582BCC3E098A3E099500E9005F1
:10051000BC1206AC9005B4E8F0A3E9F09005A47411
:1005200001F07F04021A269005B1EAF0A3EBF0A3D4
:10053000748012053622F09005B1E0F9A3E0FA22AA
:100540001205442212054C8882F5832290067AE037
:100550002508F8A3E0350922120544A3A32274EF6D
:100560001217BA8A088B098A828B83A3A3A3A3E4F8
:1005700093602690067E1206ACE8FEE98007EE2422
:1005800004FEEF3400FF8E828F83E493F8740193AE
:10059000F9EA687002EB6970E5750C00804A9062B8
:1005A000147490F0741012069C70027940750A0160
:1005B000750B00E50E780A121B918E828F83A3A320
:1005C000A393550A6004E9D2E0F9E9906215F0EAD4
:1005D000906213F074A9250EF58274053400F5833A
:1005E000E4F090620EF0050C850882850983A3A3D0
:1005F000A3A3E493F8E50CC39840030206977A009E
:10060000790512132E8A0A8B0BEA450B60D8EA246F
:1006100002F8EB3400F9E8FCE9FD8C828D83E49369
:10062000540FF50E90620EF079008A828B83A3A39B
:10063000A3A3E4932407F510A3E4933400F5117405
:10064000037810121BB7AA108C828D8393A2E74007
:100650000302059E9062117448F0740812069C70A3
:10066000027940750A01750B00E50E780A121B919C
:100670008E828F83A3A393550A6004E9D2E0F9E93F
:10068000906212F0EA906210F0850E0A74A4250AB6
:10069000F58274050205DC7F0A021A26F0850A82BB
:1006A0008B83A3A3A3E4935403640122E0F8A3E0A3
:1006B000F922C082C0831207A37010A31207A6708C
:1006C0000AA3E064017002A3E060079005A474042B
:1006D000800C9005B1749EF0A374051207F8F00227
:1006E000036574F61217BA90059DE06402601490D9
:1006F00005BA1207A6700CA31207A670069005B9DA
:10070000E060099005A47404F00207917A00790171
:100710001217B89005B8E060637A00F91213BE8A28
:10072000088B09AE08AF09EE4F604990059D74042F
:10073000F09005B8E090059EF0750A008E828F83D8
:10074000A3A3A3A3E493F8E50AC398503D850A0840
:10075000120796E4F07A00790412132E8A828B83B2
:10076000A3A3A3E493F8120796E06870E812055E6D
:10077000050A80C89005A47404F0800E90059EF0D0
:1007800090059D7403F0F9120F5E7A00790212173A
:10079000B87F03021A26749F2508F5827405340079
:1007A000F583229005B8E0F8A3E0F9E8492274F651
:1007B0001217BA90059DE0640470199005B6E064C4
:1007C0008170111207A3700C9005BCE064017002E7
:1007D000A3E060079005A47404801A9005BAE02491
:1007E0009FF508A3E03405F5099005B1E508F0A3ED
:1007F000E5091207F8F08099F0A3E4F0A3041208C9
:100800000222F0A3E4F09005A4042274F71217BAB0
:1008100090059DE0640470109005B6E064017008D6
:100820009005BC1207A660089005A47404F08052DD
:100830009005B8E0FB9005BAE0FA90059EE0F91249
:1008400013F68A088B09AE08AF09EE4F60DA9005FF
:10085000BAE0FA79031217B89005B8E0C0E0900545
:10086000BAE0249FF8A3E03405F988828983D0E0B8
:10087000F0EEFAEFFB12055E9005BAE0FA79041289
:1008800017B802021274F81217BA74FF121B517EC5
:10089000008033900384E0F8851882851983E0682E
:1008A000700D900382E0644D7005120AD2E9FE904B
:1008B0000385E4F0900387F0851882851983E0F8BA
:1008C000900384E068F07901851882851983AA82F3
:1008D000AB831210D5E97003020983E0C0E09003F6
:1008E00087E0F8900385E0FAE82AF8E43400120C77
:1008F00086D0E0F0900387E0601114602014603E21
:1009000014604E14606414608A80AD851882851965
:1009100083E064FE70A29003877401809A90038440
:10092000E4F0851882851983E0900386F0C39480F3
:100930009003874004E40208B774020208B78518E0
:1009400082851983E0900382F09003877403020884
:10095000B7851882851983E0900383F0900386E0C1
:10096000601990038774040208B7900385E004F0CF
:10097000F8900386E06860030208B8900387740566
:100980000208B7EEF97401121B087F01021A2674DF
:10099000ED1217BA74FB121B517508047509007823
:1009A00008121B6B7402121C09120C73121B0885AF
:1009B0001882E0F47003A3E0F4600F8518828519B3
:1009C00083E0F8A3E0F9E8497003020AC674021252
:1009D0001C09E0687003A3E0697003020AA07508AF
:1009E000009005C07810121BD5800A9005C47810BD
:1009F000121B7C604A750A01750B00780A121B6B8A
:100A00007406121C09AC82AD8385100A85110BAAED
:100A10000AE50B5407FB8A0C85110D85120E851310
:100A20000F740B780C121B22A90C120C7D121B08E0
:100A3000E0F9AA08AB09120C928A088B0980089089
:100A400005C87810121BD59005CC7810121BA49005
:100A500005D07810121AB45092E4F9120C92E4F90D
:100A6000120C927402121C09EAF0A3EBF075080153
:100A70007509007808121B6B7402121C09AC82AD58
:100A8000837A247B081215D47402121B087508049B
:100A90007808121B6B7402121C09120C73121B08CB
:100AA000120C65121C09E0687003A3E069701785D9
:100AB0001882851983E0F47003A3E0F46008E84924
:100AC00060047901800279007405121B087F0C0212
:100AD0001A2674F31217BA74FC121B51900306E025
:100AE000FAA3E0F9EA2400F8F508E93408F50975F5
:100AF0000A017F007E00900383E014600C146040C4
:100B0000147003020B99020C16E5095401F9E84927
:100B10007011880C85090D7409780C121BB7A90C8B
:100B2000121638750C108E0D780C121B6B7C087D1C
:100B300003AA08AB091215D47402121B08020C1682
:100B4000880C85090D7409780C121BB7E50CC39449
:100B50007940040F020C16750A408E0B780A121B9E
:100B60006B7C097D03EAF50AE5095401F50B740273
:100B7000780A121B91AA0AAB0B74097808121BB7EA
:100B8000A908120C7D121B08900307E0A3F0900344
:100B900006E0A3F0750A43807D7508048E09780885
:100BA000121B6B7402121C09120C73121B087402C4
:100BB000121C09E0F8A3E0F9851882851983E06822
:100BC0007003A3E069603B120C65121C09E8F0A3F6
:100BD000E9F07508017808121B6B7402121C09AC4D
:100BE00082AD837A247B081215D47402121B087517
:100BF00008047808121B6B7402121C09120C731281
:100C00001B08120C65121C09E0687003A3E06970F0
:100C1000030E80027F07900305E0D2E7F0EFA3F018
:100C2000E50A900303F0744D650AF5087404250A7B
:100C3000FB7A038007120C83E062080AEAC39BA2D6
:100C4000D265D033EAF840ED120C83E508F0740168
:100C50002AF97A027B03121115EEF97404121B08AB
:100C60007F06021A26851882851983E0F8A3E0F929
:100C7000740222AC82AD837A907B00790412154F06
:100C80007402223395E0F9740228F582740339F571
:100C90008322C008C0097C088A088B09740F780871
:100CA000121BB7EAC333FAEB33FBE9A2E750047433
:100CB000014AFAE508A2E0500874216AFA74106B40
:100CC000FBE9C333F91CEC70CFD009D00822C082F5
:100CD000C0837A0079011213BE8A828B83A3A3A3F7
:100CE000A3A3A3A3E493A2E69005B05004740180EB
:100CF00001E4F09005AFE4F090620F7403F0E0A21D
:100D0000E750FB90620BE0D2E1F0D083D08222C0AA
:100D100082C08390059D7402F0A3E4F09005A4F0D6
:100D20007903120F5E75210075220080DD74F612C2
:100D300017BA90620EE0FEE4F0906211E0F50AA2AC
:100D4000E4501D7480F09005A47407F0E52145225D
:100D50006009852182852283121C1B9005A4E4F082
:100D6000E50AA2E2500B906211E4F09005A4F08035
:100D7000769005A4E064027057906216E0FF90053B
:100D8000B1121A66EFF97A207B62120F9674031281
:100D90001B088F089005B4120F33120F3EE0F8A322
:100DA000E0F9E8496004744080027448906211F0F0
:100DB000E8497014E5214522600985218285228356
:100DC000121C1B9005A4E4F0EE90620EF0020FDC02
:100DD000E064067009852182852283121C1B900520
:100DE000A4E06003020ECDE50AA2E050DB7508B670
:100DF000750905750A007808121B6779087A207B47
:100E000062120F967403121B087521007522009060
:100E100005B6E054E0601C24E07003020EA724E055
:100E2000606F24C0604524E07003020EB224E060CD
:100E30006B8030A3E014601C24FE601324FE600A63
:100E400024FC601524FE60168019120320806C12A9
:100E50000314806712030880621206E2805D1208A4
:100E60000B80589005A47404F08058A3E0600E2411
:100E7000FA600F24FE601024FE601180E61201501B
:100E8000803912036A80341206B2802F1207AE80B6
:100E90002A7521A37522171217A3801F7521A57526
:100EA00022171217A58014752140752217121740BA
:100EB000800975216E75221712176E9005A4E064E3
:100EC000047004746080027440906211F09005A474
:100ED000E06401704A750A029005B4C3E09420A34F
:100EE000E09400500A9005B4E0FF750A0A80027F82
:100EF000209005B1121A66EFF97A207B62120FBAC0
:100F00007403121B088F08120F3E120F33E50A906C
:100F10006211F0EFC394204003020DC8020DB4E04B
:100F200064056003020DC8852182852283121C1B83
:100F3000020DC8C3E09508F0A3E09400F0229005EC
:100F4000B1E0F9A3E0FAA3E0FBE92508F9EA3400EF
:100F5000FA9005B1E9F0A3EAF0A3EBF0A32274F74D
:100F60001217BA7800880874A52508F5827405124E
:100F70000F8A40F17800880874AA2508F582740564
:100F8000120F8A40F17F02021A263400F583E9F03D
:100F900008E8C394052274F61217BAEAFCEBFDE9DF
:100FA000F8740A121C09120FEC600D8C828D83E01C
:100FB000121B3B120FE170F3802274F61217BAEA8B
:100FC000FCEBFDE9F8740A121C09120FEC600D121B
:100FD0001AEE8C828D83F0120FE170F37F03021AF8
:100FE00026E9240109EA3400FA18E822E0F508A30A
:100FF000E0F509A3E0A908AA09FBE822C082C083A2
:10100000A823E8540460097823E654FBF6120D0F78
:10101000A823E8541060097823E654EFF6120D2D4A
:10102000A823E8A2E05005782354FCF690620EE075
:10103000FA7404F0906214E0A2E05042E5A8F8C20D
:10104000AF906216E0F9A3E0E9FBE8A2E792AF8077
:101050001F906228E0C0E0900391E0F8749228F5B8
:101060008274033400F583D0E0F0900391E004F043
:10107000EBFC74FF2C1B0470D8906214E4F0EA902F
:10108000620EF0E0FD7404F0906211E0A2E0403BDB
:10109000900493E0F8900492E068602F7A40900406
:1010A00092E0F8749428F58274043400F583E0909B
:1010B0006228F0900492E004F008900493E06860E5
:1010C000041AEA70D99062117401F0ED90620EF08A
:1010D000D083D0822274F81217BAE9FE7900801FFB
:1010E000900390E0FC74922CF58274033400F58335
:1010F000E08A828B83F0900390E0041211480990FB
:101100000390E0F8900391E0686005E9C39E40D049
:101110007F01021A26C082C08380228A828B83E0EC
:10112000C0E0900493E0FC74942CF58274043400C5
:10113000F583D0E0121148900493E004F0E9F874CC
:10114000FF28190470D58088F08A828B83A3AA8235
:10115000AB832212120112098FE9603112127AE96F
:10116000602B75AC00759A0053F4FEC29043FE01EB
:1011700090620FE4F0E0A2E740FB90000174CDF034
:10118000022000C2AF75C9AB75C95B80FE9005D463
:10119000780C121BD5794E1211EBD2AF850D099048
:1011A00005CC780C121BA4E5095440600AA28050BB
:1011B00004C2808002D280120FFC120885E960DC34
:1011C000C280D2919005D87808121BD5120FFC90DE
:1011D00005DC7808121BA4E5084509450A450B7093
:1011E000EBC2AF75C9AB75C95B80FE781075B60FE1
:1011F000E5B4A2E750FAE5BBC39940F118E870EDF9
:1012000022C082C08353BEFBE59DA2E650FA00785F
:10121000F8790100E824FF18E934FFF9E84970F390
:1012200075C6807480659E70FA43BE0490627074C7
:1012300008F0D28043FD01C29143FE02794A1211A7
:10124000EB90000174F5F07403F5D575D488900522
:10125000E0121BFD900594121BF1900598E4F0A399
:10126000F0A37408F0120CCE7AFF7BFF12164F53D6
:10127000F4FED29043FE010210D074F11217BA743A
:10128000FF121B519005E4780C121BD57E00D2AFE3
:101290008004C291C280120FFC79018518828519E1
:1012A00083AA82AB831210D5E96012E064F860343F
:1012B000E0640770089005D4780C121BD5A29250F8
:1012C00023A293501E850C08850D09850E0A850FF3
:1012D0000B9005DC780C121BA4E5084509450A456E
:1012E0000B70130EC2AFD280C291EEF97401121BC3
:1012F000087F08021A26850D09E50954207093D24B
:1013000080D2918091C0E074F2121820900001E028
:1013100064CD7005122033800BE064F57005121661
:101320009A8001007F010218DCD083D08222C08223
:10133000C083E9FCEAFD7A007B00800790059CE011
:1013400012138190059BE0F8A3E0F9900678E0681D
:101350007003A3E069601C1213756C700D90059BFF
:10136000E0FAA3E0FB12138180091213756D70CCB3
:10137000ED60C980B490059CE0F5838882A3E49376
:1013800022F5838882E493F890059BE028F8A3E097
:101390003400F990059BE8F0A3E9F022C082C083F5
:1013A0001213AD7A00790112132E021329900676DA
:1013B000E0F8A3E0F990059BE8F0A3E9F02274F7C8
:1013C0001217BAE9FEEAFF1213AD7A00790212137E
:1013D0002EEA4B601CEE60108A828B83A3A3A3A32A
:1013E000A3E4936E70E48009EFF874FF281F047083
:1013F000D97F02021A2674F51217BAEAFF8B087A0F
:10140000001213BE7A02790412132EEA4B60188A76
:10141000828B83A3A3E4936F70EA8A828B83A3A356
:10142000A3E493650870DD7F04021A2674F712178F
:10143000BA74F0121B51E97A007B00600C14601042
:101440001460141460180215377AF07B0502153702
:101450007AF47B050215377A187B06021537900659
:101460003CE060030215337408121C09AC82AD83A2
:101470007583057582E87408121A93750808F509D2
:101480007808121B6B7402121C09AC82AD837AE8D7
:101490007B07797F12154F7402121B087808121B04
:1014A0006B740A121C09AC82AD837402121C09AA67
:1014B00082AB831219347402121B088B09EA4509A6
:1014C000701D7509007808121B6B7C0C7D78740206
:1014D000121C09AA82AB831219E07402121B087C49
:1014E000287D008D08851882851983E5822508F5F9
:1014F00082E5833400F583E0FF8C08743C2508F80E
:1015000074063400F9EF12153F88828983F0EFC426
:1015100012153FC0E0E824FEF582E934FFF583D0E0
:10152000E0F00D74FC2CFCEDC3940840B690063C32
:10153000742AF07A3C7B067410121B080213F154D3
:101540000FFA74662AF58274063400F583E022747B
:10155000F51217BA8908740B121C09E0FEA3E0FF0C
:10156000740F5508F50A750B00740B780A121B915D
:10157000EA2400F8EB3480F9E82400E9350BF9E5BA
:10158000C7F509A2AFE433F50AC2AFE508C4540FAA
:10159000FAE5C754F84AF5C7801C88828983E08C35
:1015A000828D83F088828983A3A882A9838C828D0F
:1015B00083A3AC82AD83EEFAEFFBEA24FF1EEB348B
:1015C000FFFFEA4B70D48509C7E50AA2E092AF7F1E
:1015D00004021A2674F71217BA7409121C09E0F5EE
:1015E00008A3E0F509ED900388F0ECA3F0A3746282
:1015F000F0A37473F0A3E0541FF0E508333354FCF8
:10160000A3F074067808121BB7E50890038CF090DD
:10161000038E7412F0A37442F075D1FE75D601EA00
:10162000906271F0EBA3F0906270E0D2E1F0E0A282
:10163000E740FB7F02021A26C082C083E9C33390D1
:101640006272F0906270E0D2E0F0D083D0822274B7
:10165000F71217BA7523007524007525008A268BAA
:1016600027EA90620BF08A088B0974047808121B31
:10167000B7E508906207F08A088B097409780812A8
:101680001BB7E508543E906209F0758B00C2E84331
:10169000AC20439A027F02021A2674F71217BAE5A9
:1016A0009DA2E650FA906206E0FAA2E25035A82622
:1016B000E890620BF0F50885270974047808121B7E
:1016C000B7E508906207F085260885270974097830
:1016D00008121BB7E508543E906209F0906201E0E1
:1016E000D2E0F07823EA46F6906202E0F508750948
:1016F0000074047808121B917823E50846F608E583
:101700000946F6906204E0F5087509007409780846
:10171000121B917824E50946F6EAA2E050037525EC
:101720000174065A6003752500E58BA2E550067525
:101730008BDF7525001217B9758B00C2E80216956C
:10174000C082C0839005B7E06422700A9005A4E0CF
:10175000701A74028015E064209005A4700BE0708C
:101760000B1217959005A480E97404F08043C082A1
:10177000C0839005B7E064219005A47013E0701356
:10178000121795A37407F0A3E4F09005A404800257
:101790007404F0801C9005B17494F0A37405F0A358
:1017A000E4F02280028000C082C0839005A474040B
:1017B000F0D083D0822280EF22222518C582C0E09B
:1017C000E51934FFC583C0E0E518C3958224F910FC
:1017D000AF0885831985821880088583198582184A
:1017E000D2AFCEF0A3E520F0A37808E608F0A3DEA0
:1017F000FAEFF0A3E58124FBF8E608F0A3E608F091
:10180000A30808E608F0A3E608F0A315811581D027
:10181000E0FED0E0F815811581E8C0E0EEC0E022DE
:10182000C0D02518C582C0E0E51934FFC583C0E0EB
:10183000E518C3958224F310AF08858319858218B3
:101840008008858319858218D2AFC8F0A3E9F0A378
:10185000EAF0A3EBF0A37908E709F0A3D8FAECF0DB
:10186000A3EDF0A3EEF0A3EFF0A3D0E0F0A3D0E05F
:10187000F0A3D0E0F0A3E520F0A3E5F0F0A322125E
:10188000010002020000205104A816090001020311
:10189000010902430002010080190904000001024D
:1018A00002010005240010010424020205240600A0
:1018B00001052401000107058203400040090401DD
:1018C00000020A000000070584024000000705042A
:1018D000024000009A180000BD1800008519838599
:1018E0001882E0C0E0A3E0F9A3E0FAA3E0FBA3784C
:1018F00008E0F608A3DFFAE0FCA3E0FDA3E0FEA306
:10190000E0FFA3E0C0E0A3E0C0E0A3E0F5D0A3E0E7
:10191000F520A3E0A3F5F010AF08858319858218A0
:101920008008858319858218D2AFD082D083D0E019
:10193000F8D0E03274F81217BA7408121C09E0F8F3
:10194000A3E08015A3AA82AB838C828D83A3AC8293
:10195000AD83E824FF18E934FFF9E84960238A825F
:101960008B83E0FE8C828D83E06E8A828B8360D4D1
:10197000E0F88C828D83E0FAE8C39AFA95E0FB8068
:10198000047A007B007F01021A26121C18B900039A
:101990000219DAE479217807B800028004F709D83F
:1019A000FCE490030278BF79038002F0A3D8FCD94D
:1019B000FA9005C0AA82AB8390008E78C37901802B
:1019C00015E493A3AC82AD838A828B83F0A3AA82B1
:1019D000AB838C828D83D8E9D9E7121153121C1383
:1019E00074F71217BA7409121C09E0FEA3E0FFEAAB
:1019F000F8EBF980188C828D83E088828983F0A3CC
:101A0000A882A9838C828D83A3AC82AD838E088F3C
:101A100009E50824FF1EE50934FFFFE508450970C4
:101A2000D47F02021A26851983851882E0A3FEE07E
:101A3000A3F5207808E0A3F608DFFAE0A3FFE0A30F
:101A4000C0E0E0A3C0E0E0A3C0E0E0A3C0E010AFCE
:101A5000088582188583198008858218858319D2A4
:101A6000AFD083D0822274038000CCC0E0EDC0E010
:101A7000E518C39CCCAD1950011D10AF068C188D14
:101A80001980068C188D19D2AF121A93D0E0FDD0B0
:101A9000E0FC22CAC0E0E0A3C582CCC582C583CDEC
:101AA000C583F0A3C582CCC582C583CDC583DAE6E4
:101AB000D0E0CA22C008C3E096F50808A3E0964229
:101AC0000808A3E096420808A3E09645087001D3F1
:101AD000D008222518F58210AF08F5184002151914
:101AE0008008F51840021519D2AF85198322BB0171
:101AF00002E722C082C08389828A83BB0003E08020
:101B000002E493D083D08222C0D0251810AF08F50C
:101B100018500205198008F51850020519D2AFD0E7
:101B2000D0226016080808C6C313C618C613C61804
:101B3000C613C618C613C6D5E0EA22BB000EC08283
:101B4000C0838A838982F0D083D08222BB0101F7CF
:101B500022251810AF08F518400215198008F5184D
:101B600040021519D2AF227403800474028000C0B1
:101B7000E0F404121AD3D0E0121BE422E0667010E5
:101B800008A3E066700A08A3E066700408A3E06694
:101B900022700422600D18C6C333C608C633C6D5EA
:101BA000E0F41822E026F608A3E036F608A3E036B3
:101BB000F608A3E036F622600C08C6C313C618C6A2
:101BC00013C6D5E0F42275D00075814075180275F2
:101BD000190302198AE0F608A3E0F608A3E0F60864
:101BE000A3E0F622CAC0E0E6F0A308DAFAD0E0FAF1
:101BF00022EAF0A3EBF0A3ECF0A3EDF022E0FAA3CD
:101C0000E0FBA3E0FCA3E0FD222518F582E43519F2
:101C1000F5832200000080FB790122E473FFFFFFBF
:101C2000FFFFFFFFFFFFFFFFFFFFFFFFFFFFFFFFC4
:101C3000FFFFFFFFFFFFFFFFFFFFFFFFFFFFFFFFB4
:101C4000FFFFFFFFFFFFFFFFFFFFFFFFFFFFFFFFA4
:101C5000FFFFFFFFFFFFFFFFFFFFFFFFFFFFFFFF94
:10200000022C28022233FFFFFFFFFFFFFFFFFFFF2D
:10201000FFFFFFFFFFFFFFFFFFFFFFFFFFFFFFFFD0
:10202000FFFFFFFFFFFFFFFFFFFFFF0229CCFFFFC6
:10203000FFFFFF022256FFFFFFFFFFFFFFFFFFFF33
:10204000FFFFFFFFFFFFFFFFFFFFFFFFFFFFFFFFA0
:10205000FFFFFF022161FFFFFFFFFFFFFFFFFFFF09
:10206000FFFFFFFFFFFFFFFFFFFFFF0228E6FFFF6D
:10207000FFFFFFFFFFFFFFFFFFFFFF0227ADFFFF97
:10208000FFFFFF0221C801FFFFFFFFFFFFFFFFFF70
:10209000102010200101FF01010503010F10FEFFB8
:1020A0004037403740374037EA35E4354037194D3F
:1020B00000000000A14E000000000C0000000C0019
:1020C000010000DA39000000002C39FA3A74396A4C
:1020D0003A000062390000FF0101001A0700000009
:1020E000E803920703E80364006400B801020200F9
:1020F0000800000502070401051E02051E020A0A67
:1021000003B80B02803E010201FFFF0A01E0020258
:1021100006FFFF00035F005F003000580000000072
:1021200000000000000000000000000000000000AF
:1021300000000000000000000000000000CE252389
:10214000262326232623262B26FF000810E8030A31
:102150000901000500014081013E810A0911351283
:1021600000C0E074F212256FA2AFE433FED2AFE5F7
:10217000A7FFE5A1F5085F541060061243F475A1AE
:10218000EFE5085F540860081243FA75A1F7802B49
:10219000EFA2E0C0D0E508A2E092F0122B65158115
:1021A00082F05017906198E0F8900B1CE0C398A261
:1021B000D265D0335002E8F075A1FE751A00EEA288
:1021C000E092AF7F0102262BC0E074F212256FA2CD
:1021D000AFE433FED2AF9061A4E0F8759B00E591C7
:1021E00058540860087591F712443C802AE59158CC
:1021F000541060087591EF124442801BE8A2E0C0C1
:10220000D0E591A2E092F0122B65158182F0500783
:10221000E0C2E0F01245929061A3E0F8E5E958547D
:1022200004600E12456875E9FB906193E0A2E640F8
:10223000F28088C0E074F212256FA2AFE433FED2C0
:10224000AF9061A5E0F8E5BF585404600675BFFB88
:102250001245AA0221BBC0E074F112256FE59DA2D0
:10226000E650FA906206E0FAA2E25035A82CE89017
:10227000620BF0F508852D0974047808122C47E5E7
:1022800008906207F0852C08852D097409780812DA
:102290002C47E508543E906209F0906201E0D2E0DC
:1022A000F07829EA46F6906202E0F50875090074B4
:1022B000047808122B3F7829E50846F608E5094618
:1022C000F6906204E0F50875090074097808122B8D
:1022D0003F782AE50946F6EAA2E05003752B01741F
:1022E000065A6003752B00E58BA2E55006758BDF5F
:1022F000752B0012474E758B00C2E87F0202262B19
:10230000C3E498F8E499F91223418026C3E49AFAC9
:10231000E49BFBE920E7E9122341E498F8E499F90A
:1023200022C3E498F8E499F9122341E498F8E49977
:10233000F9C3E49AFAE49BFB22EB20E7CFE920E71C
:10234000E0B90010BB0008E88AF084F8AAF022E4A3
:10235000FBC8FA22EB70227B10C833C8C933C933DB
:102360005007C39AC3DBF280069A50012ADBEAC801
:1023700033F4C8C933F4C9FA2275F008E4C833C885
:10238000C933C933C99AC99B5004C92AC93BD5F07E
:10239000ECFBC833F4C8E4C9FA22080808EAC0E034
:1023A000EBC0E086F0E7A4FA180986F0E7A42AFA61
:1023B000180986F0E7A42AFA180986F0E7A42AFA91
:1023C0001986F0E7A4FBE5F02AFA190886F0E7A4DD
:1023D0002BFBE5F03AFA190886F0E7A42BFBE5F0B1
:1023E0003AFA18180986F0E7A4C5F02BFBE43AFA8C
:1023F0001908E7C5F0C6A426F6E5F03BFBE43AFA77
:102400001886F0E7A4F6E5F00826F6E43B08F6E4C3
:102410003A08F6D0E0FBD0E0FA22122C8AB9000389
:1024200002247DE47921780DB800028004F709D8F0
:10243000FCE49004D178AA790D8002F0A3D8FCD9ED
:10244000FA781A9020867A01BA00028007E493A3F2
:10245000F608DAF990117AAA82AB8390209478CEAC
:1024600079018015E493A3AC82AD838A828B83F0DB
:10247000A3AA82AB838C828D83D8E9D9E7758200C9
:1024800075839174061229AE75828675834B74002C
:102490001229AEE4CFC0E0E4CEC0E0E4CDC0E0E479
:1024A000CCC0E075F020C3E633F608E633F608E664
:1024B00033F608E633F6181818EC33FCED33FDEE6E
:1024C00033FEEF33FFC3EC9709ED9709EE9709EF61
:1024D00097191919400FFFEC97FC09ED97FD09EECC
:1024E00097FE191906D5F0BEECF709EDF709EEF7DE
:1024F00009EFF7191919D0E0FCD0E0FDD0E0FED0CB
:10250000E0FF222518C582C0E0E51934FFC583C06D
:10251000E0E518C3958224F810AF088583198582F9
:10252000188008858319858218D2AFCEF0A3E520E4
:10253000F0A37808E608F0A3DEFAEFF0A3E5812423
:10254000FAF8E608F0A3E608F0A3E608F0A3080806
:10255000E608F0A3E608F0A315811581D0E0FED0CF
:10256000E0F8158115811581E8C0E0EEC0E022C0D9
:10257000D02518C582C0E0E51934FFC583C0E0E569
:1025800018C3958224F310AF0885831985821880BB
:1025900008858319858218D2AFC8F0A3E9F0A3EAB1
:1025A000F0A3EBF0A37908E709F0A3D8FAECF0A3C5
:1025B000EDF0A3EEF0A3EFF0A3D0E0F0A3D0E0F0B5
:1025C000A3D0E0F0A3E520F0A3E5F0F0A3221201F0
:1025D0000002020000205104A816090001020301B4
:1025E00009024300020100801909040000010202EF
:1025F0000100052400100104240202052406000144
:102600000524010001070582034000400904010080
:10261000020A0000000705840240000007050402CA
:10262000400000E92500000C26000085198385186C
:1026300082E0C0E0A3E0F9A3E0FAA3E0FBA37808FE
:10264000E0F608A3DFFAE0FCA3E0FDA3E0FEA3E0D0
:10265000FFA3E0C0E0A3E0C0E0A3E0F5D0A3E0F575
:1026600020A3E0A3F5F010AF0885831985821880B8
:1026700008858319858218D2AFD082D083D0E0F844
:10268000D0E0321075F0108E218F2285822685834E
:1026900025851882851983E0CEA3E0CF8526828523
:1026A0002583EBC9EAC8EDCBECCAC3E833C8E933EC
:1026B000C9EA33CAEB33CBC3EA9EF524EB9FF5237B
:1026C000B35004AB23AA24EC33CCED33CDD5F0DAF0
:1026D000AE21AF2222D083D082ECC0E0EDC0E0E496
:1026E00093A3FCE493A3FDED4C600D1227F0EC24C2
:1026F000FFFCED34FFFD80EFE493A3FCE493A3FD26
:10270000ED4C600D122891EC24FFFCED34FFFD80B0
:10271000EFD0E0FDD0E0FCE493A3C0E0E493C0E0A0
:1027200022D083D082E9C0E0E493A3C386F0C5F051
:1027300095F0F908E493A386F0C5F095F0700BE4EA
:1027400093A3C3994005E9048002A3E475F002A4B1
:102750002582F582E5F03583F583D0E0F9E493A393
:10276000C0E0E493C0E022851983851882E0A3FECF
:10277000E0A3F5207808E0A3F608DFFAE0A3FFE085
:10278000A3C0E0E0A3C0E0E0A3C0E0E0A3C0E0E0BD
:10279000A3C0E010AF088582188583198008858260
:1027A00018858319D2AFD083D0820229B4C0E074D7
:1027B000F212256FA2AFE433FED2AFE58AA2E25057
:1027C000079008DCE0D2E0F0E58AA2E35007900829
:1027D000DCE0D2E1F0758A00C2EB7A017B00900860
:1027E000D8E0F9123C4AEEA2E092AF7F0102262B1C
:1027F000C0E0C3E49396087401939618400FE493E5
:1028000066700808740193661870007019A3A3C35A
:10281000E49396087401939618A3A3400DD0E0D0DA
:10282000E0D0E0022711A3A3A3A3A3A3D0E02274C6
:102830000480087403800474028000CCC0E0EDC002
:10284000E0E518C39CCCAD1950011D10AF068C18E3
:102850008D1980068C188D19D2AF122930D0E0FD69
:10286000D0E0FC2274028000CCC0E0EDC0E0E518AE
:10287000C39CCCAD1950011D10AF068C188D19806A
:10288000068C188D19D2AF12290ED0E0FDD0E0FCD5
:1028900022C0E0C0F088F0E49366700808740193E9
:1028A00066187000A8F0A3A3700BD0F0D0E0D0E0C1
:1028B000D0E0022711A3A3D0F0D0E022D083D082B1
:1028C000CCC0E0E493A360061229511470FAE4939B
:1028D000A36006122A991470FAD0E0FCE493A3C016
:1028E000E0E493C0E022C0E074F212256F75890025
:1028F000C2C5901172E0700E7A007B10900696E0CF
:10290000F9123C4A8003124A0C7F0102262BCAC0EE
:10291000E0E493A3C582CCC582C583CDC583F0A373
:10292000C582CCC582C583CDC583DAE5D0E0CA2295
:10293000CAC0E0E0A3C582CCC582C583CDC583F003
:10294000A3C582CCC582C583CDC583DAE6D0E0CAF3
:1029500022C0E0E493A3D39C5010E493A3C39C4013
:102960000AD0E0D0E0D0E00228D9A3A3A3D0E0228F
:102970007009080808226016181818C6C333C6085C
:10298000C633C608C633C608C633C6D5E0EA22C079
:1029900008C3E096F50808A3E096420808A3E0966D
:1029A000420808A3E09645087001D3D00822C09FD2
:1029B000F59FE473D09F22D083D082C09FE493C060
:1029C000E0740193C0E0740293F59F22C0E0C0D090
:1029D000E8C0E0E5A8D2AFC2C7751A00A2E792AF7F
:1029E000D0E0F8D0D0D0E0322518F58210AF08F54D
:1029F00018400215198008F51840021519D2AF8544
:102A00001983227404800A7403800674028002749D
:102A100001C0E0F4041229E8D0E0122C6522BB01C9
:102A200002E722C082C08389828A83BB0003E080E0
:102A300002E493D083D08222C0D0251810AF08F5CD
:102A400018500205198008F51850020519D2AFD0A8
:102A5000D0226016080808C6C313C618C613C618C5
:102A6000C613C618C613C6D5E0EA22C3E0C696F65A
:102A700008A3E0C696F608A3E0C696F608A3E0C64B
:102A800096F622BB000EC082C0838A838982F0D072
:102A900083D08222BB0101F722C0E0E493A36C70D3
:102AA00009D0E0D0E0D0E00228D9A3A3D0E02225CD
:102AB0001810AF08F518400215198008F5184002E3
:102AC0001519D2AF22E066701008A3E066700A08FC
:102AD000A3E066700408A3E06622C3E09608A3E0C2
:102AE0009608A3E09608A3E096A2D265D03322E729
:102AF0006670100809E766700A0809E7667004083E
:102B000009E76622C3E096F008A3E096F008A3E088
:102B100096F008A3E096F022C3E697F60809E69738
:102B2000F60809E697F60809E697F622E026F00887
:102B3000A3E036F008A3E036F008A3E036F02270F8
:102B40000422600D18C6C333C608C633C6D5E0F4E8
:102B50001822E657F60809E657F60809E657F60878
:102B600009E657F622C0E0E8C0E0E58124FCF8E67B
:102B7000A2E7D0E0F8D0E022E056F608A3E056F64F
:102B800008A3E056F608A3E056F622E647F6080941
:102B9000E647F60809E647F60809E647F622E6277B
:102BA000F60809E637F60809E637F60809E637F6C3
:102BB00022E026F608A3E036F608A3E036F608A3DE
:102BC000E036F622E056F008A3E056F008A3E056FF
:102BD000F008A3E056F022E4C396F608E496F6085F
:102BE000E496F608E496F622C6F4C608C6F4C608CB
:102BF000C6F4C608C6F4C622600D08C6A2E713C60E
:102C000018C613C6D5E0F322C3E7960809E796086D
:102C100009E7960809E79622C3E09608A3E096081C
:102C2000A3E09608A3E0962275D000758140751840
:102C3000D17519040002241AE0F608A3E0F608A3EF
:102C4000E0F608A3E0F622600C08C6C313C618C657
:102C500013C6D5E0F422E6F008A3E6F008A3E6F0F8
:102C600008A3E6F022CAC0E0E6F0A308DAFAD0E052
:102C7000FA22E0FAA3E0FBA3E0FCA3E0FD22EAF0E5
:102C8000A3EBF0A3ECF0A3EDF022E5C754F8440168
:102C9000F5C77901222518F582E43519F58322C29A
:102CA000AF75D69F020000221229B77FA602122913
:102CB000B7B6A8021229B759A9021229B7D2A90298
:102CC0001229B73FAB021229B74FAB021229B766E0
:102CD000AB021229B78CAB021229B7BFAB02122983
:102CE000B7F3AB021229B7B5AD021229B76AAE022B
:102CF0001229B7E6AE021229B73DAF021229B79CDE
:102D0000AF021229B7FAAF021229B723B002122973
:102D1000B793B0021229B7ECB0021229B765B1021D
:102D20001229B7BAB3021229B774B5021229B72013
:102D3000B6021229B767B7021229B705BA021229DB
:102D4000B70BBD021229B718BD021229B7A6BD02E2
:102D50001229B758BE021229B7A0BE021229B70025
:102D6000BF021229B71CBF021229B750BF02122995
:102D7000B785BF021229B75EC0021229B713C1027C
:102D80001229B768C3021229B7B5C4021229B7586D
:102D9000C5021229B7E5C5021229B7FFC5021229DB
:102DA000B758C6021229B70AC7021229B7DCC702F0
:102DB0001229B797C9021229B721CA021229B7608E
:102DC000CA021229B7F5CB021229B729CC0212295F
:102DD000B7A4CC021229B77ECD021229B745CE0284
:102DE0001229B78ACE021229B7A2CE021229B73908
:102DF000CF021229B7AAD1021229B7BFD3021229D2
:102E0000B7DDD3021229B7FBD3021229B7D5D402FA
:102E10001229B7F3D7021229B70080031229B73558
:102E200080031229B75D80031229B7968003122907
:102E3000B7A880031229B7FA80031229B75B810370
:102E40001229B7E581031229B78982031229B7D164
:102E500082031229B70B83031229B728830312298F
:102E6000B74D83031229B79F83031229B7B8830391
:102E70001229B7DE83031229B7FD83031229B7385D
:102E800084031229B77C84031229B7A3840312296F
:102E9000B7F484031229B7A485031229B75C86030B
:102EA0001229B72487031229B7E487031229B72808
:102EB00088031229B74D88031229B7908803122975
:102EC000B7DD88031229B7538A031229B7D98A03B9
:102ED0001229B7F78A031229B7218B031229B73BAE
:102EE0008B031229B74A8B031229B7558B0312297A
:102EF000B7158C031229B76E8C031229B7308D03D6
:102F00001229B7388D031229B7B08D031229B7FFE4
:102F10008D031229B76C8E031229B7828E031229F2
:102F2000B7778F031229B70D90031229B779900351
:102F30001229B7A491031229B7C991031229B7DA4C
:102F400091031229B75F92031229B7EE9203122957
:102F5000B74693031229B70A94031229B729940399
:102F60001229B73895031229B75695031229B76865
:102F700095031229B7BB95031229B7CA95031229E5
:102F8000B75296031229B78F96031229B79C96035E
:102F90001229B71A98031229B77999031229B792FF
:102FA00099031229B7DB9A031229B76D9B031229E3
:102FB000B7A49C031229B7DD9C031229B7299D03EE
:102FC0001229B73C9E031229B760A0031229B76BE0
:102FD000A0031229B776A0031229B781A0031229F2
:102FE000B78BA0031229B796A0031229B7B0A0038C
:102FF0001229B7BAA0031229B7C4A0031229B7CF68
:10300000A0031229B7DAA0031229B702A1031229DB
:10301000B75DA1031229B767A1031229B78BA103DA
:103020001229B7AFA1031229B70DA2031229B75174
:10303000A2031229B76DA2031229B7E4A203122931
:10304000B71CA3031229B768A3031229B7C5A303AA
:103050001229B77FA4031229B763A6031229B7BCAC
:10306000A6031229B7ECA7031229B712A803122945
:10307000B78CA9031229B717AD031229B7E9AE031C
:103080001229B7B2B0031229B75FB1031229B7D31F
:10309000B2031229B772B3031229B7BFB3031229BF
:1030A000B729B4031229B738B4031229B7B8B60345
:1030B0001229B7DDB7031229B771B9031229B7DE98
:1030C000B9031229B7BDBA031229B7E0BB0312290D
:1030D000B748BD031229B767BD031229B7BCBD03AA
:1030E0001229B7C1BE031229B7E9BE031229B7419D
:1030F000BF031229B720C0031229B764C0031229E5
:10310000B7AFC0031229B71AC1031229B75FC203B0
:103110001229B7C3C2031229B711C4031229B77801
:10312000C6031229B7A9C6031229B761C803122919
:10313000B7B6C8031229B7C8C9031229B765CA03AD
:103140001229B7BECA031229B771CB031229B713CC
:10315000CC031229B7B3CC031229B758CD031229D7
:10316000B74381011229B78C81011229B704840168
:103170001229B74384011229B78D84011229B7CBD4
:1031800085011229B72A86011229B75E8601122904
:10319000B79C86011229B71088011229B7D38A017A
:1031A0001229B7068C011229B7B98C011229B76808
:1031B00095011229B7FD95011229B7E4980112294A
:1031C000B7139A011229B7749A011229B7909B017B
:1031D0001229B7D69C011229B7B59D011229B79AB9
:1031E0009F011229B7ABA1011229B703A20112292D
:1031F000B7D5A2011229B78CA3011229B796A30152
:103200001229B7C4A3011229B781A4011229B75802
:10321000A5011229B71FA6011229B7BAA6011229C2
:10322000B724A7011229B742A7011229B76BA7013A
:103230001229B78DA7011229B7E3A9011229B7BB3B
:10324000AA011229B7FFAA011229B767AB011229F7
:10325000B71FAC011229B751AC011229B795AC01C7
:103260001229B7CBAC011229B717AD011229B76CDF
:10327000AD011229B771AD011229B7C4AD011229F0
:10328000B7E9AD011229B7F9AE011229B771AF0143
:103290001229B7CDAF011229B759B0011229B7478A
:1032A000B3011229B72BB4011229B7C2B5011229F3
:1032B000B7F8B7011229B7A6B8011229B756B90154
:1032C0001229B797BB011229B73ABC011229B7815D
:1032D000BC011229B72DBE011229B741BE01122926
:1032E000B74BBE011229B773BE011229B77FBE01C9
:1032F0001229B79EBE011229B7E8C0011229B71DD5
:10330000C1011229B727C1011229B731C101122900
:10331000B78CC1011229B7E8C1011229B7FCC2015B
:103320001229B75DC3011229B7ACC4011229B7F045
:10333000C4011229B798C5011229B77BC601122909
:10334000B726C7011229B772C8011229B770C9017F
:103350001229B716CA011229B7A6CA011229B7BD88
:10336000CA011229B7F4CA011229B7FECA011229EB
:10337000B708CB011229B713CB011229B731CB0102
:103380001229B775CB011229B7D2CB011229B7F791
:10339000CB011229B711CC011229B7A3CC011229F4
:1033A000B7CDCD011229B744CE011229B72BCF01D9
:1033B0001229B761CF011229B7D5CF011229B75011
:1033C000D0011229B754D1011229B74AD2011229CA
:1033D000B7F9D2011229B70CD4011229B7A8D40128
:1033E0001229B72AD5011229B708D6011229B740E8
:1033F000D6011229B798D6011229B761D70112292F
:10340000B782D7011229B709D8011229B72DD801DF
:103410001229B74FD8011229B798D8011229B7AE8F
:10342000DA011229B791DB011229B742DC01122916
:10343000B778DE011229B7C8DE011229B708DF010B
:103440001229B74ADF011229B7A4DF011229B7D226
:10345000DF011229B7F6DF011229B749E00112296D
:10346000B777E0011229B7B0E0011229B70FE101E7
:103470001229B77CE1011229B7E1E2011229B70450
:10348000E5011229B76DE5011229B796E501122968
:10349000B721E6011229B78DE6011229B7D8E60156
:1034A0001229B7FCE6011229B720E7011229B77BE0
:1034B000E7011229B796E7011229B74FE80112294F
:1034C000B789E8011229B735CC051229B76DCC05AB
:1034D0001229B78ECC051229B7D0CC051229B736E0
:1034E000CD051229B740CD051229B750CD051229B7
:1034F000B785CD051229B7CED0051229B778D205E8
:103500001229B778D4051229B77C80041229B7C2D2
:1035100080041229B7A281041229B7A482041229B7
:10352000B7A783041229B73385041229B7918504FC
:103530001229B74E86041229B76C87041229B7DD09
:1035400087041229B71988041229B7678804122939
:10355000B77188041229B7B588041229B7118904F4
:103560001229B7AC89041229B7298A041229B7F89D
:103570008A041229B7918B041229B7B18B0412293E
:10358000B7E78B041229B7188C041229B7D98C0419
:103590001229B7E98C041229B73D8D041229B758B6
:1035A0008D041229B76A8D041229B7738D0412296C
:1035B000B7CD8D041229B7298E041229B7758E0450
:1035C0001229B7908E041229B7C18E041229B7DED2
:1035D0008E041229B7EA8E041229B75E90041229CC
:1035E000B77790041229B7DE90041229B7F190043E
:1035F0001229B7FF90041229B7B391041229B79783
:1036000092041229B79D93041229B7279404122912
:10361000B73194041229B79E94041229B7B59404C3
:103620001229B7E794041229B72095041229B74A42
:1036300095041229B7AB95041229B7CB950412292A
:10364000B7E995041229B72F96041229B7559704A4
:103650001229B7A297041229B7D197041229B747A4
:1036600098041229B76F98041229B7A89804122950
:10367000B7B698041229B70E99041229B75D9904B8
:103680001229B79C99041229B7CC99041229B7F8CA
:1036900099041229B7039A041229B7219A0412290E
:1036A000B7E39A041229B7ED9A041229B7289B04AC
:1036B0001229B73E9B041229B7479B041229B79CD5
:1036C0009B041229B7B09B041229B7AD9C041229A0
:1036D000B7C09C041229B7D79C041229B7EC9C04EC
:1036E0001229B78E9D041229B7119E041229B7CF53
:1036F0009E041229B7DA9E041229B706A0041229E3
:10370000B722A0041229B774A0041229B7B3A004E9
:103710001229B7C8A0041229B72AA1041229B7B9DF
:10372000A1041229B704A2041229B755A40412292E
:10373000B7D3A4041229B748A5041229B76AA7046D
:103740001229B782A7041229B785A7041229B791B5
:10375000A7041229B7A5A7041229B7ADA7041229F7
:10376000B7E0A7041229B790A8041229B706A90444
:103770001229B779A9041229B72DAA041229B7E290
:10378000AA041229B701AB041229B7A1AB0412296C
:10379000B7ADAB041229B7D8AB041229B7DBAB0421
:1037A0001229B70AAC041229B71FAC041229B78931
:1037B000AC041229B7B1AD041229B789AE0412299D
:1037C000B714AF041229B72DB0041229B7EAB00418
:1037D0001229B723B1041229B754B1041229B71220
:1037E000B2041229B742B2041229B71DB304122938
:1037F000B7B6B3041229B741B4041229B7F2B4041E
:103800001229B775B5041229B7A7B5041229B7E86C
:10381000B5041229B71DB6041229B776AD051229D1
:10382000B7DBAD051229B713AE051229B762AE0595
:103830001229B784B0051229B767B2051229B70655
:10384000B6051229B7A4B6051229B7D9B6051229AB
:10385000B7FBB6051229B760B7051229B796B705A9
:103860001229B7BEB7051229B7E1B7051229B70E5D
:10387000B8051229B761B8051229B7ADB8051229E4
:10388000B764A1051229B7E5A1051229B71BA20546
:103890001229B782A2051229B7F5A3051229B7117B
:1038A000A4051229B756A4051229B7E4A4051229C4
:1038B000B73DA5051229B771A6051229B73FA7057F
:1038C0001229B7B7A7051229B733A8051229B7756A
:1038D000A8051229B7B6A8051229B7EAA905122921
:1038E000B7E8AA051229B713AB051229B75EAB05D5
:1038F0001229B7A5AB051229B737AC051229B7F0C5
:10390000AC051229B7F488061229B70589061229D1
:10391000B75689061229B79B89061229B74A8A0623
:103920001229B7848A061229B75DEF031229B7F26C
:10393000EF031229B7A0F0031229B72BF1031229C4
:10394000B70BF4031229B7BAF5031229B771F603BE
:103950001229B7C6F6031229B7A7F9031229B73FF0
:10396000FB031229B727B5061229B74FB50612294E
:10397000B746B6061229B7CEF9021229B753FA0292
:103980001229B76AFA021229B7DFFA021229B73FE1
:10399000FB021229B768FB021229B7E5FB021229C4
:1039A000B781FC021229B7E8FC021229B750FD02C8
:1039B0001229B777FD021229B7B0FD021229B7CE3E
:1039C000FD021229B7F7FD021229B725FE021229BE
:1039D000B76BFE021229B7D1FE021229B7E5B8056E
:1039E0001229B78CB9051229B7ACB9051229B7D37A
:1039F000B9051229B7E7B9051229B73FBA05122947
:103A0000B76FBA051229B7F0BB051229B796BC05E6
:103A10001229B778BD051229B7C9BD051229B70CFF
:103A2000BE051229B74FBE051229B7B5BE0512292A
:103A3000B7D6BE051229B762BF051229B78ABF05DE
:103A40001229B7FEBF051229B7ACC1051229B786E6
:103A5000C2051229B7E0C2051229B717AC06122910
:103A6000B721AC061229B742AC061229B74E94050D
:103A70001229B70C97051229B74798051229B726BE
:103A80009A051229B7739A051229B7279B0512299F
:103A9000B7689B051229B7989B051229B72F9C057B
:103AA0001229B7C99C051229B73C9D051229B7B642
:103AB0009D051229B7B89D051229B7BA9D0512298F
:103AC000B7BC9D051229B7E79D051229B7E99D05E9
:103AD0001229B7029E051229B74F9E051229B780F9
:103AE0009E051229B7F99E051229B710A0051229C3
:103AF000B7E5A0051229B7D4EA041229B7F1EA0400
:103B00001229B743EC041229B76EEC041229B7DF6F
:103B1000EC041229B703ED041229B723ED0412298E
:103B2000B76DED041229B797ED041229B7BAEE0468
:103B30001229B7F0EE041229B71FEF041229B7615A
:103B4000EF041229B70BF0041229B72BF004122945
:103B5000B780F1041229B702F2041229B736A10284
:103B60001229B7C9F3041229B739F4041229B78A04
:103B7000F4041229B7BCF4041229B71EF504122963
:103B8000B789F5041229B7D3F5041229B709F70448
:103B90001229B73EF7041229B7A5F7041229B76D09
:103BA000F8041229B795F8041229B73DFA0412292E
:103BB000B7BEFA041229B7F1FA041229B72DFB0493
:103BC0001229B7A4A5021229B7D2FB041229B7966D
:103BD000FC041229B740FD041229B7E1FD041229A3
:103BE000B780FE041229B7FFFE041229B753EC0573
:103BF0001229B79FEC051229B70DED051229B72E32
:103C0000ED051229B745ED051229B7F5ED05122985
:103C1000B7FEED051229B751EE051229B77AEE0568
:103C20001229B7E1EE051229B772EF051229B7B4D0
:103C3000EF051229B7FEEF051229B75DF00512292D
:103C4000B789F0051229B71AF1051229B759F105FC
:103C50001229B798F1051229B7CDF1051229B7DF5E
:103C6000F1051229B7F1F1051229B724F20512293D
:103C7000B764F2051229B70080061229B7D380066F
:103C80001229B7ED80061229B7FE80061229B71354
:103C900083061229B73283061229B75DAE061229B0
:103CA000B793AE061229B7DCAE061229B72CB006C0
:103CB0001229B70080051229B73F81051229B77B69
:103CC00081051229B73A83051229B76383051229A2
:103CD000B7F685051229B73A86051229B7C38705B5
:103CE0001229B75B88051229B7C388051229B76462
:103CF00089051229B7A689051229B7E6890512296F
:103D0000B7718B051229B7E18C051229B7068F050B
:103D10001229B7348F051229B75B8F051229B764B2
:103D20008F051229B7BF8F051229B75290051229A6
:103D3000B77093051229B7F193051229B772C2061D
:103D40001229B788C2061229B792C2061229B7E211
:103D5000C2061229B7B994061229B7CC94061229C3
:103D6000B76995061229B7A595061229B7BC95061D
:103D70001229B7E195061229B72396061229B754DE
:103D800096061229B78F96061229B70998061229A6
:103D9000B74A98061229B73DBA061229B797BA064C
:103DA0001229B7F0BA061229B7D4C1061229B716DC
:103DB000C2061229B758C2061229B768C2061229CC
:103DC000B7D3E8011229B72BE9011229B7ADE901F0
:103DD0001229B7B0EA011229B74FEB011229B72116
:103DE000EC011229B736EC011229B780EC01122937
:103DF000B7CFEC011229B718ED011229B72BED014D
:103E00001229B780ED011229B7D9ED011229B7EDBA
:103E1000ED011229B7EDEF011229B7EEF0011229D9
:103E2000B729F1011229B77DF1011229B78AF301EF
:103E30001229B71AF4011229B7A7F4011229B7B64B
:103E4000F4011229B7C9F4011229B718F501122992
:103E5000B72EF5011229B745F5011229B774F501FE
:103E60001229B785F5011229B7A5F5011229B7B0B6
:103E7000F5011229B734F6011229B78EF60112297D
:103E8000B7E9F6011229B70EF8011229B730F80187
:103E90001229B7BEFA011229B7F3FA011229B77E27
:103EA000FB011229B7F6FB011229B719FC011229EF
:103EB000B755FC011229B7BDFC011229B772FD01EB
:103EC0001229B7A6FD011229B7B0FD011229B7B317
:103ED000FD011229B7C3FD011229B740FE011229C5
:103EE000B768FE011229B78AFE011229B7B6FE0192
:103EF0001229B7F1FE011229B700FF011229B70BF1
:103F0000FF011229B74CFF011229B75FFF011229E7
:103F1000B786FF011229B776BD061229B787BD06FD
:103F20001229B70FBE061229B70FE5051229B75E91
:103F3000E5051229B700E7051229B7BCE8051229E3
:103F4000B704E9051229B7ECE9051229B71DEB05FD
:103F50001229B73FEB051229B79BEB051229B71FB2
:103F6000EC051229B71C51001229B74A5100122939
:103F7000B79552001229B7DC52001229B72E530010
:103F80001229B7AA53001229B71354001229B75F98
:103F900054001229B7E154001229B787550012299D
:103FA000B70F56001229B75156001229B78E5A0082
:103FB0001229B7115C001229B7505C001229B7A171
:103FC0005C001229B7C75F001229B752600012299E
:103FD000B72962001229B76B63001229B789640000
:103FE0001229B7FB64001229B7C765001229B72D43
:103FF00066001229B74166001229B7F5660012293A
:10400000B72A68001229B7686A001229B7E86C005D
:104010001229B79D6D001229B7B96E001229B71089
:1040200072001229B72072001229B7817300122979
:10403000B70D74001229B73F75001229B7D175006A
:104040001229B7CE76001229B75B77001229B72C58
:10405000D1041229B7E2D1041229B754D20412298B
:10406000B763D2041229B7DDD2041229B74CD304A6
:104070001229B753D4041229B77CD4041229B71CCF
:10408000D5041229B76AD5041229B7E1D50412293B
:10409000B7D3D8041229B7A8D9041229B715DA045E
:1040A0001229B795DB041229B749DC041229B7F7A6
:1040B000DC041229B752DD041229B7BDDD04122930
:1040C000B7BDDE041229B7A5DF041229B7E9DF0462
:1040D0001229B716E0041229B73EE0041229B7737B
:1040E000E0041229B7FCE0041229B75AE2041229AD
:1040F000B727E4041229B73EE5041229B77BE6048A
:104100001229B78EE7041229B727E8041229B799B4
:10411000E8041229B761E9041229B711D80212295B
:10412000B786D8021229B7F8D8021229B74CD9029B
:104130001229B7E7D9021229B710DB021229B758A2
:10414000DB021229B7BDDB021229B7F1DB0212290B
:10415000B793DC021229B70ADD021229B797DD02F4
:104160001229B782DE021229B7E9DE021229B7EA64
:10417000DF021229B71CE1021229B79EE1021229BF
:10418000B774E2021229B7A3E2021229B7D1E20200
:104190001229B730E3021229B753E3021229B709F3
:1041A000E4021229B71DE4021229B740E4021229E1
:1041B000B75EE4021229B786E4021229B7A7E40227
:1041C0001229B7CEE4021229B7E6E4021229B7A3F6
:1041D000E5021229B7C6E6021229B779E7021229C9
:1041E000B707E9021229B756E9021229B77AE9029C
:1041F0001229B720EA021229B746EA021229B78C1F
:10420000EB021229B7B0EB021229B735EC021229E2
:10421000B78DEC021229B7DBEC021229B760ED0270
:104220001229B7A4ED021229B742EE021229B709EA
:10423000F0021229B7B7F0021229B716F2021229BA
:10424000B743F3021229B7D5F4021229B704F502D5
:104250001229B7DEF5021229B7AEF6021229B70706
:10426000F7021229B71FF7021229B70FF802122915
:10427000B71DF9021229B7079F061229B7429F06F8
:104280001229B7FC9F061229B762A0061229B7D3DC
:10429000A0061229B767A1061229B77F9106122935
:1042A000B7E192061229B768BE061229B779BE0691
:1042B0001229B719BF061229B7F6FF021229B7E56E
:1042C000FF021229B792C0061229B7A2C00612290E
:1042D000B7BAC0061229B727C1061229B774BC069F
:1042E0001229B7F9BC061229B75DBD061229B7E736
:1042F000BF061229B7EABF061229B723C006122942
:10430000B774C0061229B786C0061229B789C0063D
:104310001229B7398D061229B7478D061229B7C160
:104320008D061229B7998E061229B72490061229F4
:10433000B78990061229B7EC90061229B7F87F00CA
:104340001229B78FB0061229B7AAB1061229B72EC3
:10435000B2061229B7FDA1061229B79BA20612299F
:10436000B7E2A2061229B725A3061229B7E8A306C9
:104370001229B71CA4061229B74BA4061229B75E4E
:10438000A4061229B773A4061229B77CA406122921
:10439000B78DF2051229B7E2F2051229B7DEF4054E
:1043A0001229B710F5051229B732F5051229B74BB6
:1043B000F5051229B764F5051229B76EF60512291D
:1043C000B709F7051229B7CAB3061229B7EFB30622
:1043D0001229B7FFB3061229B732B4061229B76300
:1043E000B4061229B791B4061229B7A2B40612294D
:1043F000B704B5061229B713B5061229B71DB506BD
:104400001229B7BEA4061229B7E4A4061229B721BF
:10441000A5061229B730A5061229B74FA5061229FD
:10442000B7B7A5061229B7C0A5061229B71FA60659
:104430001229B743A6061229B702A7061229B70FF9
:10444000A7061229B720A7061229B7D6C306122934
:10445000B7F3C3061229B78B84061229B7DF840687
:104460001229B73F86061229B74C86061229B75F74
:1044700086061229B77E86061229B7948606122967
:10448000B7A886061229B72B87061229B78E87068A
:104490001229B70988061229B77788061229B7D5D5
:1044A00088061229B7E588061229B73BC1061229EA
:1044B000B75FC1061229B787C1061229B7AFC10677
:1044C0001229B74EA7061229B775A7061229B79663
:1044D000A7061229B7FBA7061229B7B4A906122905
:1044E000B7CDA9061229B7D9A9061229B7EDA90691
:1044F0001229B70BAA061229B715AA061229B71F47
:10450000AA061229B732AA061229B783AA061229C7
:10451000B7BCAA061229B7EBAA061229B739AB060F
:104520001229B788AB061229B7A3AB061229B7AD7B
:10453000AB061229B7BEAB061229B704AC06122986
:10454000B788FF021229B7D9FF021229B7F4C205B2
:104550001229B720C3051229B73CC3051229B74F4A
:10456000C3051229B765C3051229B7D1C30512299E
:10457000B704C4051229B733C8051229B759C905AC
:104580001229B78CC9051229B7D8C9051229B71144
:10459000CB051229B739CB051229B74ECB05122905
:1045A000B75ECB051229B7A2CB051229B7F7CB0509
:1045B0001229B707CC051229B70AB9061229B7255F
:1045C000B9061229B74EB9061229B768B9061229D9
:1045D000B78DB9061229B7ACB9061229B7C4B90606
:1045E0001229B7F2B9061229B70CBA061229B73345
:1045F000BF061229B779BF061229B75798061229A4
:10460000B75E98061229B76A99061229B79A9906D1
:104610001229B7C099061229B7E399061229B705DE
:104620009A061229B73F9A061229B7A59A061229A7
:10463000B7DE9A061229B72A9B061229B7579B069E
:104640001229B7779B061229B777B6061229B799B0
:10465000B6061229B7C0B7061229B7C3B706122982
:10466000B761BB061229B7D3BB061229B711BC0626
:104670001229B752BC061229B7F377001229B7F9ED
:1046800077001229B73F78001229B7287A0012293B
:10469000B75E7A001229B7B87A001229B79A7B0060
:1046A0001229B7DF7B001229B7127C001229B79CB0
:1046B0007C001229B7B67C001229B7427E0012296D
:1046C000B7407F001229B7897F001229B72AD50584
:1046D0001229B740D5051229B7D5D5051229B7D16A
:1046E000D6051229B7D5D7051229B77AD8051229C8
:1046F000B7BED8051229B73BD9051229B79CD905F1
:104700001229B7ACD9051229B7D3D9051229B72573
:10471000DA051229B7B2DB051229B7B7DB05122972
:10472000B7D9DB051229B70BC3061229B739C3065F
:104730001229B76EC3061229B770C3061229B772C1
:10474000C3061229B783C3061229B785C3061229E7
:10475000B788C3061229B738B2061229B7A6B2061F
:104760001229B7C8B2061229B700B3061229B73604
:10477000B3061229B7D79B061229B71A9C0612292D
:10478000B7389C061229B7699E061229B7A19E0662
:104790001229B7C59E061229B78BC3061229B7C5C1
:1047A000DD051229B78CDE051229B77DDF05122938
:1047B000B78EDF051229B79FDF051229B7EBDF059A
:1047C0001229B7DFE1051229B73CE3051229B76CBE
:1047D000E3051229B738E4051229B795E405122933
:1047E000B7A4CD031229B72DCE031229B7A3CE0348
:1047F0001229B729CF031229B72CD1031229B72CBC
:10480000D3031229B73DD4031229B7F6D4031229D2
:10481000B7B8D9031229B7A8DA031229B73EDB03C8
:104820001229B76DDB031229B739DC031229B74F00
:10483000DC031229B772DC031229B7ECDC0312295E
:10484000B70BDD031229B759DE031229B7F9DE03CE
:104850001229B740DF031229B7B2DF031229B71EAE
:10486000E0031229B782E0031229B740E1031229BD
:10487000B7B7E1031229B7F3E1031229B75BE203EB
:104880001229B759E3031229B7EBE4031229B798A9
:10489000E5031229B7B9E5031229B7A0E7031229E6
:1048A000B743E9031229B73FEA031229B786EE039B
:1048B0001229B77BB6041229B716B7041229B7AB71
:1048C000B7041229B7ACB8041229B791B904122958
:1048D000B703BA041229B74CBA041229B7EFBA04C5
:1048E0001229B7BABB041229B70ABC041229B75857
:1048F000BC041229B721BD041229B766BF041229CE
:10490000B71BC0041229B7FEC2041229B7EAC304B8
:104910001229B78DC5041229B7AAC6041229B7589F
:10492000C7041229B722C9041229B787CB04122958
:10493000B7B2CB041229B7DACB041229B7E6CC04FC
:104940001229B758CD041229B79BCD041229B7CC30
:10495000CD041229B78ACE041229B745D0041229F2
:10496000B7EEFB051229B714FC051229B763FC0545
:104970001229B77FFC051229B7B0FC051229B7C070
:10498000FC051229B7CDFC051229B7DAFC0512295E
:10499000B7C6FD051229B704FE051229B70EFE059C
:1049A0001229B71BFE051229B726FF051229B738B1
:1049B000FF051229B743FF051229B755FF05122934
:1049C000B75EFF051229B768FF051229B7DDFF059D
:1049D0001229B748F7051229B768FB051229B784D1
:1049E000FB051229B789FC031229B79FFC03122982
:1049F000B749FE031229B773FE031229B7BBFE03A2
:104A00001229B7BBFF031229B7C6B7061229B7D9B7
:104A1000FF011229B7C27F001229B7F4A0021229A0
:104A2000B7CCA0021229B748A0021229B7F99E02FA
:104A30001229B7609E021229B7C39D021229B7B985
:104A40009C021229B7769C021229B7449C021229B3
:104A5000B7819B021229B7AC99021229B759990262
:104A60001229B72B99021229B72899021229B7A641
:104A700097021229B7A796021229B7719502122937
:104A8000B7B594021229B72B94021229B7319302B9
:104A90001229B78D92021229B7D491021229B79721
:104AA00091021229B7F590021229B76490021229D7
:104AB000B779A5021229B731A5021229B778A30246
:104AC0001229B7F8A2021229B7D0A2021229B753AD
:104AD00090021229B7C08F021229B7568F021229ED
:104AE000B7FD8E021229B7A4A2021229B78B8E023B
:104AF0001229B7568E021229B7F78D021229B7C6AE
:104B00008D021229B780A2021229B746FB0412298E
:104B1000B78E8A021229B7488A021229B73C8A0244
:104B20001229B79C89021229B7DC88021229B74BD7
:104B300086021229B7DC83021229B79A830212294E
:104B4000B76E82021229B72382021229B75F81024F
:104B50001229B73281021229B76A80021229B73AA4
:104B600080021229B70080021229B7EAFF03122936
:104B7000B7EEFF031229B7C0A1021229B7ECFF0359
:104B80001229B7F9F20400000080FBE4738F0001E2
:104B900000AD0887000100AC0824000200CB1125FD
:104BA000000200CD1126000200CF1127000200D123
:104BB0001128000100D31129000100D41184000440
:104BC00000D51186000100D9112A000100DA112B4D
:104BD000000100DB112C000100DF112D00080098FE
:104BE000082E000100E0112F000100E1113000014A
:104BF00000E21131000100E31132000100A008338E
:104C0000000100A10834000100E41136000100A2F7
:104C10000838000100E51139000100DE11830002AF
:104C200000EF1163000100AB0864000100DC1165B6
:104C3000000100DD116D000100EE116E0002009612
:104C40000843000100E61144000200E7114500019D
:104C500000E91146000200EA1147000800A30848D5
:104C6000000100EC114B000100ED1104000100F106
:104C700011A1000100F31137000100F211880001B9
:104C800000AE0800000000000000013636010100FF
:104C900001020100010301000104010606050200F2
:104CA00000070100340801000F090401010D010093
:104CB000FF0E08000017020000190100FF1A010092
:104CC000011B0100FE1C0100081D0200001F010065
:104CD0000120010001210200002301000F24020035
:104CE000002601000127010008280200FF2A010018
:104CF000072B0102402C0100002D0100012E0100B4
:104D0000012F0100FF30010B1C310800003A0100A7
:104D1000083B01000F2F010000030071003001600B
:104D20000011007000310220035004800010006167
:104D30000000001400630073007200620043000072
:104D40000013000600000000000400120000000034
:104D5000000000000004000400370037003C02445B
:104D60000000000000000000006500000035008128
:104D70000000000500000083000000010171010136
:104D80000101011101010131010101010180011045
:104D90000161013B00140063017301720162014370
:104DA000010001130106013D01350004011201005B
:104DB0000100010001000104010401330133013C41
:104DC0000144013201360000010001650100013596
:104DD00000810100010501820183010001030471CA
:104DE00004020460041104700402040204010402B9
:104DF0000410046104000414046304730472046264
:104E00000443040004130406040004000404041210
:104E100004000400040004000451046400000400C1
:104E200004000444040004000400040004650400B9
:104E300004350481046400050400048304000403B1
:104E400002710230016002110270020102020202CC
:104E5000028002100261023A004100630273027292
:104E60000262024302000213023800000200020440
:104E700002120200020002000200020402040237D1
:104E80000037003C024402000239000002000265C3
:104E90000200023502810200020502820283020042
:104EA0000201037103010301030103010301032252
:104EB00003020301031003000300030003000300C7
:104EC000030003000342030003240306030003005E
:104ED000030403120325032303250323030403040C
:104EE0000300030003000344030003000323030043
:104EF000036503210035038103000305030003005C
:104F0000030003000088401300FE3F0100884002B8
:104F100000863F03008C3F0400923F0500983F0647
:104F200000A43F3000C23F3100BC3F3200CE3F33CF
:104F300000D43F3500DA3F3400E03F3600E63F1151
:104F400000F23F1400F83F1500B63FFFFF000036A7
:104F5000000100060000000F00000000000000003B
:104F6000000000000003FFFF00000403FFFF00003B
:104F7000FFFF0FF4010005C4040320000100000B33
:104F8000000000000000000003010F744892487AFE
:104F900048AA48804898488048A4488648AA48803B
:104FA00048984800000000000000000000000000D9
:104FB000000000000000008C48AA4800000000002B
:104FC00000000001B23106E83108E2310B00321076
:104FD00022310A183202B83105D63107BE310C949D
:104FE000310DA631FF000003EAF5E5D5D5C5B5A51D
:104FF00095958585757565655555454535352525E1
:10500000151505443674364A3650366E3662365CAF
:10501000367A3680368636923656363E3638360002
:10502000160F00000B150B020002220F32000006C3
:1050300001030507090B0D0F00020406080A0C0DF9
:1050400000000000000000008967452301EFCDABA0
:105050005A6967426565416C6C69616E6365303998
:105060004037523758370E365E3708361436AC376D
:10507000CA37D037B237BE37B837483542357E35B4
:10508000843578353035303017181921301B1D1F05
:105090003000034948424D181725050230301618D4
:1050A0001920231A1C1E3000011916181616152374
:1050B00003000C0E020B040B0A0708000F00383C1B
:1050C0003E363B3B352B432C943764376A37763773
:1050D000703768368C36C43798369E360204020123
:1050E000010101090254355A354E358A3560357251
:1050F0003500BE040A15000E0004007F0000000009
:105100000028000C00E8030C0A030809000400084A
:10511000FF1E1E09030401100C080F05C082C08386
:1051200090078AE4F0A3F07CD57D047A067B071211
:105130004670122F309008ACE0700479008002793C
:1051400001124B62122F3602663A74F5122503746F
:10515000F5122AAFE9FF8A08EBFEEF705E74026574
:1051600008703E90071D7408F0750A00780A122A2C
:105170000FECF50A780A122A0FEEF50A780A122ABD
:105180000F9011D512282F9011D9E0F97CA37D083A
:105190009011EF126216122F5A7407122A38025217
:1051A0006C74016508600302527190071D7408F069
:1051B0007B00EEFAF9122F9602526C74016F6008B0
:1051C00074026F6003025271EA600674036508702E
:1051D0005490071D740212528B122C72122F48E940
:1051E000F8900722E0A2E34019E8701690078EE0DD
:1051F00004F06404700C9080E2122C729011D512AD
:105200002C7E74036508706690078FE0F97401299D
:10521000F0E9C3940540579080E2122C729011D5AA
:10522000122C7E804974016508704674016F9007E6
:105230001D702E740AF07401122C95E4F0740212A1
:105240002C957403F090811E122C727404122C950C
:10525000122C7E7408122C95E41260421231C48024
:1052600020740A12528B122C72122F7EE9F8E86019
:10527000107CE87D037A017B0090071AE0F9123D6B
:105280006A740B122A387F03022767F09011D9E065
:10529000F99011D52274F6122503E9FFEAFE7AD1BE
:1052A000F9123C26EA4B702A7A027B00123C0EEA85
:1052B0004B700E7A107B0090071AE0F9123C4A807E
:1052C000188A828B8374D1F0EFA3F0EEF9123C1AA6
:1052D0008007EF8A828B83A3F002545A74F7122559
:1052E00003890890067FE0FEA3E080248E828F83EE
:1052F000A3A3125F5160128E828F83A3A3125A5B05
:10530000125F51FAA908123F6E8E828F8312770BBB
:10531000FFEE4F70D7900696E0FAA908123F6E1282
:1053200032D89006EE125C4A1232D202752F74F116
:10533000122503890A8C08740F122C9512620274CC
:1053400011122C95125A43750900750E00804AE51A
:105350000B1253FBF50CA3E0F50DE50EC333FEE491
:1053600033FFEA2EF582EB3FF583E0650C7004A372
:10537000E0650D7019E509C333FEE433FFEC2EF54B
:1053800082ED3FF583E50CF0A3E50DF00509050B73
:10539000E50BC3950840B8050EE50EC3950A500508
:1053A000750B0080EBA90902681474F412250389B7
:1053B0000B740C122C95126202750A008002050A09
:1053C000E50AC3950B502F7D0080010DEDC39C5065
:1053D000EDE50AC333FEE433FFEA2EF582EB3F121C
:1053E000540BF509ED1253FB65087004A3E0650941
:1053F00070D9790180027900026A5EC333FEE4331A
:10540000FFE82EF582E93FF583E022F583E0F50819
:10541000A3E02274F61225031254A17003A3E06DD9
:1054200070177508207509077808122A0BEEFA1212
:10543000408E7402122A38801A7508027509807825
:1054400008122A0B8C088D097808122A0B1254CDE9
:10545000122A3880057402122A387F0202276774E4
:10546000F61225031254A17003A3E06D701775089E
:105470002D7509077808122A0BEEFA12409474026F
:10548000122A38801A7508037509807808122A0BC9
:105490008C088D097808122A0B1254CD122A3880F4
:1054A000B9EAFEEBFF1254B9FAA3E0F9EA2400FCD2
:1054B000E439FD9006EEE06C22EE2413F582EF1243
:1054C0005FA7E0F8A3E0F988828983E022EE1275F5
:1054D00004EF127658FD7C801266E21240B274042A
:1054E0002274F612250374FE122AAFEAFEEBFF8542
:1054F0001882851983E4F0A3F0126821FA88828962
:1055000083A3A3E0F97509007508006005C394F151
:10551000400575088280439006EEE06A7003A3E0C0
:105520006B7020851882851983AA82AB8312384E4E
:10553000E9F509851882851983126CCE701C7508EF
:105540008380179008ACE0600464017005750881E1
:105550008008E064027003750880851882851983CD
:10556000125A43A908EEFAEFFB12409AE5096014BB
:10557000851882851983126CCE6009851882851979
:1055800083126D8602545574F2122503EAFEEBFF76
:10559000750A00750B001255FB1232D8EA650870C7
:1055A00003EB65097012123860E914F50A79017A83
:1055B000567B071238668003750B801274CCF50C8D
:1055C000780C122A0F750C56750D07780C122A0BE1
:1055D000780A122A0F7808122A0BE50BF5087808CA
:1055E000122A0F1264EFF582EF1263677A057B804F
:1055F0001240A07407122A380262241274DA12626E
:105600000688828983127748F508E439F5092274FF
:10561000F6122503E9FE7F00802F8A828B831254C5
:105620000DF9E5082400E439F509EF33F8E433F91E
:10563000EC28F582ED39F583E508F0A3E509F0EAF9
:1056400024020A0AEB3400FB0FEFC39E40CC025445
:105650005A74E812250374FB122AAF8A168B178539
:105660001882851983E4F07403122C95E4F0A3F0FA
:1056700004122C95E4F012733EF50AA3E0F50B85B5
:105680000A82F583127744FEE439FF850A82850B8E
:1056900083A3A3E0FA850A82850B83A3A3A3E0F981
:1056A000EAF508E439F509E50A2404F50AE50B34BE
:1056B00000F50BEEFAEFFB12337AE96401702C125D
:1056C000717C122A0FE4F508F5097808122A0B7884
:1056D00008122A0F9006EE122837750880780812F3
:1056E0002A0F125A63122A38025A31EEFAEFFB12CD
:1056F000337AE9700C9006EEE06E7003A3E06F70F1
:10570000BE125A498814602EC333FAE433FB123CAC
:10571000A47403122C95125C4A7403122C95126C1B
:10572000CE60137403122C95125A3BA914123F9E9B
:105730008A0A8B0B8003751400125A49880F602A5D
:10574000C333FAE433FB123CA47401122C95125CAF
:105750004A7401122C95126CCE600F7401122C95B4
:10576000125A3BA90F123F9E8003750F0090067FCF
:10577000805D850A82850B83A3A3A3A3A3A3A3A310
:10578000E4F0A3F0AA0AAB0B851282851383A3A3CE
:10579000125A59125F51F9123C1A851082851183F1
:1057A000E0C0E0851882851983E0F8745628F582F8
:1057B0007407127707D0E0126A6304F0E515A2E0DF
:1057C0005007AA10AB11123CAA851282851383E000
:1057D000F512A3E0F513E512451370030259A985EC
:1057E0001282851383A3A3125F5160DD8512828527
:1057F0001383A3A3A3A3A3A3A3A3E0A2E050CA85FA
:105800001282851383A3A3A3A3126CCE8512828573
:105810001383A3A3601F125F51FA79018512828559
:105820001383A3A3A3A3125F56124B8B8A108B1171
:10583000751501800F125A59A3A3E0F510A3E0F5E6
:1058400011751500E510451170030257BC851082D3
:10585000851183A3E065087004A3E0650960030275
:1058600057BC851082851183A3A3A3A3A3A3A3126E
:105870002837851082851183A3A3A3A3A3A3E0FCEB
:105880007405122C95126216A914123F807402122C
:105890002A38E9703C851082851183A3A3A3A3A3B2
:1058A000A3A3A3A3A3122837851082851183A3A3E2
:1058B000A3A3A3A3A3A3A3E0FC7403122C951262D9
:1058C00016A90F123F807402122A38E9700302579A
:1058D000BCE50F2514C333240AFA7B00123C0E8A60
:1058E0000A8B0BEA450B700302579A8A828B8374EA
:1058F000D2F0851682851783A3A31262028A828B57
:105900008312604A8A828B83A3A3A3A3E514127730
:105910004EE50FF0E5146038EA2405FAEB3400FB9D
:10592000E50A240AF8E50B3400F98A828B831260B9
:105930004C7403122C95125A81122A07E514C333B2
:10594000FCE433FD8A828B83126E82122A38800D2A
:105950008A828B83A3A3A3A3A3E4F0A3F0E50F7033
:1059600003025772E514C333F8E433F9E50A28F863
:10597000E50B39F9E8240AFAE93400FB850A828547
:105980000B83A3A3A3A3A3A3A3A3125C4A74011232
:105990002C95125A81122A07E50FC333FCE433FD1C
:1059A0001275A8122A38025784851882851983E057
:1059B000602712717C122A0F75085675090778083E
:1059C000122A0B7403122C95127186122A0F90065C
:1059D000EE1228377508008029EEFAEFFB12337AB1
:1059E000E9702A12717C122A0F750856750907781A
:1059F00008122A0B7508007808122A0F9006EE127A
:105A000028377808122A0F125A63122A38740312A0
:105A10002C95126CCE60087403122C95126D86744E
:105A200001122C95126CCE60087401122C95126D27
:105A3000867405122A387F10022767125A43AA0A71
:105A4000AB0B22E0FCA3E0FD22850A82850B83E0FC
:105A5000F8A385820A85830B22E0F8A3E0F583880A
:105A600082A322E5162402FCE5173400FDE5161298
:105A70006484E5171266EF7A067B801240A07407F3
:105A800022E0F50CA3E0F50D750E00780C2274F4FD
:105A900012250374F4122AAF8A088B09ECFEEDFF7D
:105AA000740B122C957403F0122C95AA82AB8312FE
:105AB00046701232D2EAFCEBFD7403122C95AA82D6
:105AC000AB8312466AE9600A125BDB6010E0640196
:105AD000600B8518828519837484025B938E828F94
:105AE00083A3A3A3A3A3A3A3A3E06017C394F1502C
:105AF00012125BDB7018EE24141274CF6005C3948D
:105B0000F1400B8518828519837482025B93E50846
:105B1000240CF582E5091274D264217002A3E070AE
:105B20004F851882851983748CF0125BCE122A0F70
:105B3000125BEA124AF67401122A38E97056851887
:105B400082851983E4F0123EF0125BDB704674012B
:105B5000122C95AC82AD83127680FB124AD8E97084
:105B6000337D007C007900127680FB12405E802439
:105B7000125BCE122A0F125BEA124AF07401122A4B
:105B800038E98518828519837007E4F0123EF080A9
:105B9000037488F0127502E509125BD3122A0F74A0
:105BA00001122C9585820A85830B780A122A0BE54F
:105BB00008240CF582E509125BE14480F50B780AB4
:105BC000122A0B1265A7122A38740C026A5BEE12B5
:105BD00061F6EF127658F50A780A22125C9C64038B
:105BE00022125FA3E0F50AA3E022EE240BFCEF34BF
:105BF00000FD8E828F83A3A3A3A3A3A3A3A3A312B9
:105C0000621A8E828F83A3A3A3A3A3A3A3A3E0F905
:105C100022C082C08374F3122AAF8518828519834B
:105C2000E4F004122C95125C4A7403122C95AA829B
:105C3000AB83122E64851882851983AA82AB8312E6
:105C40002EA0740D122A3802663AEAF0A3EBF02275
:105C500074F6122503125C8C1273FF900728E0582B
:105C6000F508A3E059F509E5084509601C78081214
:105C70002A0B9006EE1228371274CCFD7C001266B7
:105C8000DE1240AC7404122A3802545AEAFEEBFFCA
:105C9000125C9CF8A3E0F988828983221274DEE00A
:105CA0002274EA12250374DB122AAF8A148B15754D
:105CB0001200751300125F4BF50E8518828519834B
:105CC000AC82AD837A007B00799C122FA87A04798C
:105CD00000122EB2EAF50C851882851983E0250C96
:105CE000F0F8E50EC3984003025ED3E0C3950EF5CD
:105CF00009C394044003750903E50975F01AA4FA71
:105D0000ABF0123CA48A128B13EA45137003025EB7
:105D1000D6750D00AE12AF13850E08025DA8125F96
:105D20002A850A82850B83A3A3A3A3E07039850A81
:105D300082850B83126CCE70121261EF1274C6EE64
:105D40002418F582EF127707E48016125F42F09074
:105D50000560E014C0E0EE2418F582EF127707D05A
:105D6000E0125F93E4803E900560E004C0E0EE2422
:105D700018F582EF127707D0E0125F8BC39403EE21
:105D80004003025E381261F01277077402125F8BD3
:105D900064016003025E45125F23127707E4F0EEB0
:105DA0002416125F45125F5FE50DC395094003029B
:105DB0005E69E508C3950C4003025E4EA908122FE8
:105DC000248A0A8B0B050890054D125F6B850A82A9
:105DD000850B83126202125F1C1273F2125FAC8594
:105DE0000A82850B83A3A3A3A3A3A3A3A3A3A3E0D6
:105DF000C0E0EE2419F582EF127707D0E0F07401CD
:105E0000122C95E41273791262027402122C95120C
:105E1000604C7401122C95AA82AB83122E8EE96419
:105E2000016003025D1E7404122C95AC82AD83EEFA
:105E3000240A125F3C025D21125F43125F8B6403F0
:105E40007003025D97EE2415125F45025D9EE50C1E
:105E5000C3950E40057508008016E50EC3950CF538
:105E600008800D125F42125F5FE50DC39509506611
:105E7000740E122C95AC82AD8385080AAA0A7B00A9
