:020000040000FA
:10000000020D9E022003FFFFFFFFFF02200BFFFFF8
:10001000FFFFFF020523FFFFFFFFFF02201BFFFF83
:10002000FFFFFF022023FFFFFFFFFF02202BFFFF48
:10003000FFFFFF022033FFFFFFFFFF020577FFFFF7
:10004000FFFFFF022043FFFFFFFFFF02204BFFFFE8
:10005000FFFFFF022053FFFFFFFFFF02205BFFFFB8
:10006000FFFFFF022063FFFFFFFFFF02206BFFFF88
:10007000FFFFFF022073FFFFFFFFFF02207BFFFF58
:10008000FFFFFF022083FFFFFFFFFF02208B002006
:10009000000090200000932000000100000000C834
:1000A0000300380000000000260000000000FFFFF1
:1000B000FFFF0000040074F8120B1B780079008029
:1000C0001A74922EF58274031201F4900412120134
:1000D000FE4005900412E4F01201EB900412E0FEE1
:1000E000A3E06E6007C3E89CE99D40D5806D74F87D
:1000F000120B1B120153C398120153FEE8500B124E
:1001000002CB700B7800790080141202E050F57A6F
:10011000007B00803CE004F0439A041201EBC3E84A
:100120009CE99D50288A828B83E0C0E0900497E090
:10013000FE74162E120308D0E01202BC900498E45C
:10014000F0900497E0C3947F40CBE480CAE8FAE9DA
:10015000FB800C900496E0F8A3E022E8FAE9FB7F2C
:1001600001020C8074F8120B1B7800790090051BBB
:10017000E0705AA3E0705675F900C28FC284A28362
:1001800040FCA28F4004A28350F8E5F9C28FA283FD
:100190005004D2848037C0E0E0FE749B2EF5827458
:1001A0000412030CD0E0F090051C1202F440D3E4DA
:1001B000F080CF749B2EF58274041201F490051B1D
:1001C0001201FE400590051BE4F01201EB90051BA7
:1001D000E0FEA3E06E6007C3E89CE99D40D5E849D6
:1001E0007006E4F090051BF002015BE8240108E9C9
:1001F0003400F92212030CE08A828B83F022E0049F
:100200001202C0C394802274F8120B1B90059D1239
:100210000156C39890059D120156FEE85007120240
:10022000CB700B80051202E04004EC4D70077A00A1
:100230007B000202B98A828B83E0F5F9A3AA82AB24
:1002400083780179008006E004F01201EBC3E89C9A
:10025000E99D50278A828B83E0C0E090059EE0FEF6
:10026000741D2EF582740512030CD0E01202BC90AE
:10027000059EE0C3947F40CFE480CEC28FA283402E
:10028000FCC284A28F4004A28350F890059D120204
:10029000FBE0F5F9C28F90059DE0FAA3E06A9005B6
:1002A0009D70051202FB80051202F44002E4F0A2E8
:1002B0008350D0D284E8FAE9FB02015F1202C02227
:1002C000F08A828B83A3AA82AB8322C39EF895E037
:1002D000F91202D522E824FF18E934FFF9E849228F
:1002E000C39EF895E0F9E8247FF8E93400F9C3E803
:1002F0009CE99D22E004F0C3948022E0FA741D2A58
:10030000F582740512030C22F58274043400F5831F
:100310002274FF120D2D1203FA1206D8E97003029F
:1003200003D77E00900390E06401700DC2849003B7
:10033000917401F09005B38005D2AF9005B77808AD
:10034000120D8F7C017D00851882851983AA82ABEE
:10035000831204DF8B0DEA450D6012E064F8602C17
:10036000E0640770089005BB7808120D8F85080CB3
:1003700085090D850A0E850B0F9005BF7808120DB3
:100380006BE50C450D450E450F70B80E900390E0DF
:1003900064017009D284900391E4F08002C2AFEE50
:1003A000A2E05033900390E06401700C75F800C235
:1003B000AB539AF7D2EA800C758600C2AAC28B535F
:1003C0009AFBC2E990000174CDF0022000C2AF7523
:1003D000C9AB75C95B80FE1204A4C2AF75C9AB7509
:1003E000C95B80FE781075B60FE5B4A2E750FAE558
:1003F000BBC39940F118E870ED22C082C083A2927D
:1004000050047A0080027A8053BEFBE59DA2E6503C
:10041000FA0078F87901001202D570FA8AC6E59ED2
:100420006A70FB43BE049062707408F0794A12034C
:10043000E490000174F5F07403F5D575D488A2A09A
:10044000E433900390F0A2E05029D28453F3F753A1
:10045000F3EF53FDF743FD10538FF753F7DF43FCE2
:100460002043F10253F5DF75F82043F4F0D2FED2B9
:10047000AB802C53FF3F85FFFF53F1FE43F30C533A
:10048000F2F375868075C480900499E4F0A3F0754A
:10049000C2D875C50B75C402438640D2AAD2E9D032
:1004A00083D0822274F5120B1B794E1203E4900361
:1004B00090E07002D2AF1205C8E960FAE0701B90BC
:1004C00005C37808120D8F009005BF7808120D6BD8
:1004D000E5084509450A450B70ED7F04020C80C014
:1004E00082C083900390E070051200B6801E9003D6
:1004F00091E06015A28F500DE5F98A828B83F07A26
:10050000017B0080077A0080F81201648091C0822C
:10051000C083900390E070051200EE800312020782
:1005200002049FC0E074F2120B81900001E064CDE0
:100530007005122013803BE064F57035E5C1C0E022
:10054000900413E0F8749228F582740312030CD01F
:10055000E0F0900412120156687006E595900415BB
:10056000F09004131202F44002E4F0A374C6F08089
:1005700001007F01020BE0C0E074F1120B819000DA
:1005800001E064CD700512203B8038E064F57032E4
:10059000120153687009539AFBA37401F08024C2BE
:1005A000E9900496E0F50874012508F07416250812
:1005B000120308E0F5C1900496E0C394804004E47F
:1005C00080DA007F02020BE074F7120B1B74FF123B
:1005D0000D2D7E008033900384E0F8851882851904
:1005E00083E068700D900382E0644D700512081B73
:1005F000E9FE900385E4F0900387F0851882851961
:1006000083E0F8900384E068F07C017D0085188227
:10061000851983AA82AB831204DF8B09EA4509702E
:10062000030206CCE0C0E0900387E0F8900385E089
:10063000FAE82AF8E434001209D3D0E0F0900387F6
:10064000E0601114602014603E14604E1460641465
:10065000608480A7851882851983E064FE709C9071
:10066000038774018094900384E4F08518828519CF
:1006700083E0900386F0C394809003874004E402F3
:1006800005FA74020205FA851882851983E0900341
:1006900082F090038774030205FA85188285198316
:1006A000E0900383F0900386E06019900387740460
:1006B0000205FA900385E004F0F8900386E0686094
:1006C000030205FB90038774050205FAEEF9740135
:1006D000120CFA7F02020C8074ED120B1B74FB12D9
:1006E0000D2D7508047509007808120D7E7402122C
:1006F0000DC91209C0120CFA851882E0F47003A328
:10070000E0F4600F851882851983E0F8A3E0F9E82A
:1007100049700302080F7402120DC9E0687003A348
:10072000E06970030207E975080090059F781012D0
:100730000D8F800A9005A37810120D43604A750A48
:1007400001750B00780A120D7E7406120DC9AC8279
:10075000AD8385100A85110BAA0AE50B5407FB8AA5
:100760000C85110D85120E85130F740B780C120D6C
:1007700014A90C1209CA120CFAE0F9AA08AB091262
:1007800009DF8A088B0980089005A77810120D8F61
:100790009005AB7810120D6B9005AF7810120CC05D
:1007A0005092E4F91209DFE4F91209DF7402120D24
:1007B000C9EAF0A3EBF07508017509007808120D7D
:1007C0007E7402120DC9AC82AD837A247B08120AB2
:1007D000A07402120CFA7508047808120D7E7402D7
:1007E000120DC91209C0120CFA1209B2120DC9E099
:1007F000687003A3E0697017851882851983E0F497
:100800007003A3E0F46008E849600479018002798C
:10081000007405120CFA7F0C020C8074F3120B1B8F
:1008200074FC120D2D900306E0FAA3E0F9EA24000F
:10083000F8F508E93408F509750A017F007E009093
:100840000383E014600C1460401470030208E20299
:10085000095FE5095401F9E8497011880C85090D13
:100860007409780C120DADA90C120B04750C108EC6
:100870000D780C120D7E7C087D03AA08AB09120AC4
:10088000A07402120CFA02095F880C85090D740924
:10089000780C120DADE50CC3947940040F02095F8A
:1008A000750A408E0B780A120D7E7C097D03EAF5ED
:1008B0000AE5095401F50B7402780A120D58AA0AC8
:1008C000AB0B74097808120DADA9081209CA120CF5
:1008D000FA900307E0A3F0900306E0A3F0750A4343
:1008E000807D7508048E097808120D7E7402120D41
:1008F000C91209C0120CFA7402120DC9E0F8A3E083
:10090000F9851882851983E0687003A3E069603B6C
:100910001209B2120DC9E8F0A3E9F07508017808D0
:10092000120D7E7402120DC9AC82AD837A247B084D
:10093000120AA07402120CFA7508047808120D7ECF
:100940007402120DC91209C0120CFA1209B2120D6A
:10095000C9E0687003A3E06970030E80027F07900E
:100960000305E0D2E7F0EFA3F0E50A900303F0748B
:100970004D650AF5087404250AFB7A0380071209FD
:10098000D0E062080AEAC39BA2D265D033EAF840FD
:10099000ED1209D0E508F074012AFC3395E0FD7AE8
:1009A000027B0312050EEEF97404120CFA7F0602A4
:1009B0000C80851882851983E0F8A3E0F97402227F
:1009C000AC82AD837A907B007904120A1B740222F8
:1009D0003395E0F9740228F582740339F58322C057
:1009E00008C0097C088A088B09740F7808120DADBD
:1009F000EAC333FAEB33FBE9A2E7500474014AFA85
:100A0000E508A2E0500874216AFA74106BFBE9C390
:100A100033F91CEC70CFD009D0082274F5120B1BEF
:100A20008908740B120DC9E0FEA3E0FF740F55088E
:100A3000F50A750B00740B780A120D58EA2400F8B9
:100A4000EB3480F9E82400E9350BF9E5C7F509A294
:100A5000AFE433F50AC2AFE508C4540FFAE5C75452
:100A6000F84AF5C7801C88828983E08C828D83F0E8
:100A700088828983A3A882A9838C828D83A3AC8278
:100A8000AD83EEFAEFFBEA24FF1EEB34FFFFEA4BE7
:100A900070D48509C7E50AA2E092AF7F04020C80FA
:100AA00074F7120B1B7409120DC9E0F508A3E0F5E9
:100AB00009ED900388F0ECA3F0A37462F0A37473C3
:100AC000F0A3E0541FF0E508333354FCA3F07406A0
:100AD0007808120DADE50890038CF090038E741227
:100AE000F0A37442F075D1FE75D601EA906271F000
:100AF000EBA3F0906270E0D2E1F0E0A2E740FB7F70
:100B000002020C80C082C083E9C333906272F0900D
:100B10006270E0D2E0F0D083D082222518C582C076
:100B2000E0E51934FFC583C0E0E518C3958224F9D8
:100B300010AF0885831985821880088583198582FE
:100B400018D2AFCEF0A3E520F0A37808E608F0A312
:100B5000DEFAEFF0A3E58124FBF8E608F0A3E6084F
:100B6000F0A30808E608F0A3E608F0A315811581B4
:100B7000D0E0FED0E0F815811581E8C0E0EEC0E0DD
:100B800022C0D02518C582C0E0E51934FFC583C056
:100B9000E0E518C3958224F310AF08858319858298
:100BA000188008858319858218D2AFC8F0A3E9F0B0
:100BB000A3EAF0A3EBF0A37908E709F0A3D8FAECD5
:100BC000F0A3EDF0A3EEF0A3EFF0A3D0E0F0A3D0FC
:100BD000E0F0A3D0E0F0A3E520F0A3E5F0F0A3223D
:100BE000851983851882E0C0E0A3E0F9A3E0FAA3A9
:100BF000E0FBA37808E0F608A3DFFAE0FCA3E0FD41
:100C0000A3E0FEA3E0FFA3E0C0E0A3E0C0E0A3E018
:100C1000F5D0A3E0F520A3E0A3F5F010AF0885839D
:100C2000198582188008858319858218D2AFD082F1
:100C3000D083D0E0F8D0E032120DD8B90003020C16
:100C40007AE4900302789E79038002F0A3D8FCD95D
:100C5000FA90059FAA82AB8390008E782979018053
:100C600015E493A3AC82AD838A828B83F0A3AA821E
:100C7000AB838C828D83D8E9D9E7120311120DD38F
:100C8000851983851882E0A3FEE0A3F5207808E0AB
:100C9000A3F608DFFAE0A3FFE0A3C0E0E0A3C0E012
:100CA000E0A3C0E0E0A3C0E010AF08858218858310
:100CB000198008858218858319D2AFD083D082220B
:100CC000C008C3E096F50808A3E096420808A3E030
:100CD00096420808A3E09645087001D3D008222563
:100CE00018F58210AF08F518400215198008F5189C
:100CF00040021519D2AF85198322C0D0251810AF34
:100D000008F518500205198008F51850020519D287
:100D1000AFD0D0226016080808C6C313C618C61381
:100D2000C618C613C618C613C6D5E0EA2225181081
:100D3000AF08F518400215198008F518400215197A
:100D4000D2AF22E066701008A3E066700A08A3E044
:100D500066700408A3E06622700422600D18C6C302
:100D600033C608C633C6D5E0F41822E026F608A339
:100D7000E036F608A3E036F608A3E036F622740261
:100D80008000C0E0F404120CDFD0E0120DBC22E0C1
:100D9000F608A3E0F608A3E0F608A3E0F62275D073
:100DA00000758140751802751903020C38600C0833
:100DB000C6C313C618C613C6D5E0F422CAC0E0E6FF
:100DC000F0A308DAFAD0E0FA222518F582E4351902
:100DD000F5832200000080FB790122FFFFFFFFFF67
:100DE000FFFFFFFFFFFFFFFFFFFFFFFFFFFFFFFF13
:100DF000FFFFFFFFFFFFFFFFFFFFFFFFFFFFFFFF03
:100E0000FFFFFFFFFFFFFFFFFFFFFFFFFFFFFFFFF2
:100E1000FFFFFFFFFFFFFFFFFFFFFFFFFFFFFFFFE2
:10200000022AAA0221E3FFFFFFFFFFFFFFFFFFFFFE
:10201000FFFFFFFFFFFFFFFFFFFFFFFFFFFFFFFFD0
:10202000FFFFFFFFFFFFFFFFFFFFFF022864FFFF2F
:10203000FFFFFFFFFFFFFFFFFFFFFFFFFFFFFFFFB0
:10204000FFFFFF022649FFFFFFFFFFFFFFFFFFFF2C
:10205000FFFFFF022111FFFFFFFFFFFFFFFFFFFF59
:10206000FFFFFFFFFFFFFFFFFFFFFF02277EFFFFD6
:10207000FFFFFFFFFFFFFFFFFFFFFFFFFFFFFFFF70
:10208000FFFFFF02217801FFFFFFFFFFFFFFFFFFC0
:10209000102010200101FF01010503010F10FEFFB8
:1020A00072347234723472341C33163372343347E0
:1020B000000000009547000000000C0000000C002C
:1020C0000100000C37000000005E361A38A6369C6E
:1020D00037000094360000FF0101000E07000000E9
:1020E0008607E80364006400B801020200080000EB
:1020F00005020701051E02051E020A0A03B80B02AB
:10210000803E010201FFFF0A01E0020206FFFFE834
:1021100003C0E074F2122467A2AFE433FED2AFE54D
:10212000A7FFE5A1F5085F54106006123FAC75A14A
:10213000EFE5085F54086008123FB275A1F7802BE5
:10214000EFA2E0C0D0E508A2E092F01229E71581E5
:1021500082F05017906198E0F8900C39E0C398A293
:10216000D265D0335002E8F075A1FE751A00EEA2D8
:10217000E092AF7F010224C6C0E074F2122467A28D
:10218000AFE433FED2AF9061A4E0F8759B00E59117
:1021900058540860087591F7123FF4802AE5915869
:1021A000541060087591EF123FFA801BE8A2E0C05E
:1021B000D0E591A2E092F01229E7158182F0500754
:1021C000E0C2E0F012414A9061A3E0F8E5E958541A
:1021D00004600E12412075E9FB906193E0A2E64095
:1021E000F28088C0E074F2122467A2AFE433FED21A
:1021F000AF9061A5E0F8E5BF585404600675BFFBD9
:1022000012416202216BC3E498F8E499F912224763
:102210008026C3E49AFAE49BFBE920E7E91222470F
:10222000E498F8E499F922C3E498F8E499F91222C1
:1022300047E498F8E499F9C3E49AFAE49BFB22EBAB
:1022400020E7CFE920E7E0B90010BB0008E88AF0FA
:1022500084F8AAF022E4FBC8FA22EB70227B10C8B3
:1022600033C8C933C9335007C39AC3DBF280069A17
:1022700050012ADBEAC833F4C8C933F4C9FA22751D
:10228000F008E4C833C8C933C933C99AC99B50049C
:10229000C92AC93BD5F0ECFBC833F4C8E4C9FA221B
:1022A000080808EAC0E0EBC0E086F0E7A4FA1809E5
:1022B00086F0E7A42AFA180986F0E7A42AFA180992
:1022C00086F0E7A42AFA1986F0E7A4FBE5F02AFADB
:1022D000190886F0E7A42BFBE5F03AFA190886F016
:1022E000E7A42BFBE5F03AFA18180986F0E7A4C535
:1022F000F02BFBE43AFA1908E7C5F0C6A426F6E588
:10230000F03BFBE43AFA1886F0E7A4F6E5F008267D
:10231000F6E43B08F6E43A08F6D0E0FBD0E0FA2217
:10232000E4CFC0E0E4CEC0E0E4CDC0E0E4CCC0E067
:1023300075F020C3E633F608E633F608E633F60810
:10234000E633F6181818EC33FCED33FDEE33FEEFF0
:1023500033FFC3EC9709ED9709EE9709EF97191929
:1023600019400FFFEC97FC09ED97FD09EE97FE1958
:102370001906D5F0BEECF709EDF709EEF709EFF70E
:10238000191919D0E0FCD0E0FDD0E0FED0E0FF222A
:102390002518C582C0E0E51934FFC583C0E0E51803
:1023A000C3958224F810AF088583198582188008A8
:1023B000858319858218D2AFCEF0A3E520F0A378EB
:1023C00008E608F0A3DEFAEFF0A3E58124FAF8E6C8
:1023D00008F0A3E608F0A3E608F0A30808E608F072
:1023E000A3E608F0A315811581D0E0FED0E0F81532
:1023F0008115811581E8C0E0EEC0E022122B0CB9F6
:102400000003022451E49004D17895790F8002F002
:10241000A3D8FCD9FA781A9020867A01BA000280F3
:1024200007E493A3F608DAF9901365AA82AB8390C8
:102430002094787E79018015E493A3AC82AD838AE1
:10244000828B83F0A3AA82AB838C828D83D8E9D957
:10245000E77582B975838774051228467582A07561
:1024600083457400122846C0D02518C582C0E0E517
:102470001934FFC583C0E0E518C3958224F310AF7B
:10248000088583198582188008858319858218D26A
:10249000AFC8F0A3E9F0A3EAF0A3EBF0A37908E753
:1024A00009F0A3D8FAECF0A3EDF0A3EEF0A3EFF05F
:1024B000A3D0E0F0A3D0E0F0A3D0E0F0A3E520F0BB
:1024C000A3E5F0F0A322851983851882E0C0E0A37C
:1024D000E0F9A3E0FAA3E0FBA37808E0F608A3DFA5
:1024E000FAE0FCA3E0FDA3E0FEA3E0FFA3E0C0E070
:1024F000A3E0C0E0A3E0F5D0A3E0F520A3E0A3F5BE
:10250000F010AF08858319858218800885831985A6
:102510008218D2AFD082D083D0E0F8D0E0320E0063
:1025200075F0108E218F228582268583258518825D
:10253000851983E0CEA3E0CF852682852583EBC96C
:10254000EAC8EDCBECCAC3E833C8E933C9EA33CAF9
:10255000EB33CBC3EA9EF524EB9FF523B35004ABDA
:1025600023AA24EC33CCED33CDD5F0DAAE21AF2263
:1025700022D083D082ECC0E0EDC0E0E493A3FCE481
:1025800093A3FDED4C600D12268CEC24FFFCED3482
:10259000FFFD80EFE493A3FCE493A3FDED4C600DFD
:1025A000122729EC24FFFCED34FFFD80EFD0E0FD85
:1025B000D0E0FCE493A3C0E0E493C0E0228519835B
:1025C000851882E0A3FEE0A3F5207808E0A3F608D2
:1025D000DFFAE0A3FFE0A3C0E0E0A3C0E0E0A3C017
:1025E000E0E0A3C0E0E0A3C0E010AF08858218855A
:1025F00083198008858218858319D2AFD083D08251
:1026000002284CD083D082E9C0E0E493A3C386F0D3
:10261000C5F095F0F908E493A386F0C5F095F07045
:102620000BE493A3C3994005E9048002A3E475F089
:1026300002A42582F582E5F03583F583D0E0F9E444
:1026400093A3C0E0E493C0E022C0E074F2122467D8
:10265000A2AFE433FED2AFC2C090125DE0700BE5D2
:10266000D1A2E4501D123F108018E5D1A2E350061C
:1026700075D1F7123EE6E5D1A2E4500675D1EF120E
:102680003EECEEA2E092AF7F010224C6C0E0C3E4BC
:102690009396087401939618400FE49366700808A7
:1026A000740193661870007019A3A3C3E49396088D
:1026B0007401939618A3A3400DD0E0D0E0D0E002BF
:1026C00025ADA3A3A3A3A3A3D0E022740480047424
:1026D000028000CCC0E0EDC0E0E518C39CCCAD1991
:1026E00050011D10AF068C188D1980068C188D199D
:1026F000D2AF1227C8D0E0FDD0E0FC2274028000E7
:10270000CCC0E0EDC0E0E518C39CCCAD1950011D74
:1027100010AF068C188D1980068C188D19D2AF1247
:1027200027A6D0E0FDD0E0FC22C0E0C0F088F0E4B5
:10273000936670080874019366187000A8F0A3A34C
:10274000700BD0F0D0E0D0E0D0E00225ADA3A3D054
:10275000F0D0E022D083D082CCC0E0E493A3600626
:102760001228081470FAE493A36006122931147039
:10277000FAD0E0FCE493A3C0E0E493C0E022C0E020
:1027800074F2122467758900C2C590125DE0700E64
:102790007A007B1090068CE0F912396A80031244AB
:1027A0002C7F010224C6CAC0E0E493A3C582CCC535
:1027B00082C583CDC583F0A3C582CCC582C583CD38
:1027C000C583DAE5D0E0CA22CAC0E0E0A3C582CC66
:1027D000C582C583CDC583F0A3C582CCC582C58320
:1027E000CDC583DAE6D0E0CA22C008C3E096F5087A
:1027F00008A3E096420808A3E096420808A3E096E2
:1028000045087001D3D00822C0E0E493A3D39C50C4
:1028100010E493A3C39C400AD0E0D0E0D0E00227AC
:1028200071A3A3A3D0E0227009080808226016183B
:102830001818C6C333C608C633C608C633C608C68A
:1028400033C6D5E0EA22C09FF59FE473D09F22D023
:1028500083D082C09FE493C0E0740193C0E074020F
:1028600093F59F22C0E0C0D0E8C0E0E5A8D2AFC297
:10287000C7751A00A2E792AFD0E0F8D0D0D0E0320E
:102880002518F58210AF08F518400215198008F5D3
:102890001840021519D2AF851983227404800A7476
:1028A000038006740280027401C0E0F404122880E0
:1028B000D0E0122AE722BB0102E722C082C083894E
:1028C000828A83BB0003E08002E493D083D082221B
:1028D000C0D0251810AF08F518500205198008F56A
:1028E0001850020519D2AFD0D0226016080808C6C9
:1028F000C313C618C613C618C613C618C613C6D542
:10290000E0EA22C3E0C696F608A3E0C696F608A35E
:10291000E0C696F608A3E0C696F622251810AF0882
:10292000F518400215198008F51840021519D2AFA4
:1029300022C0E0E493A36C7009D0E0D0E0D0E002C4
:102940002771A3A3D0E022C3E09608A3E09608A3D2
:10295000E09608A3E096A2D265D03322E06670101C
:1029600008A3E066700A08A3E066700408A3E066A6
:1029700022E76670100809E766700A0809E76670C2
:10298000040809E76622C3E697F60809E697F60801
:1029900009E697F60809E697F622C3E096F008A341
:1029A000E096F008A3E096F008A3E096F022E62770
:1029B000F60809E637F60809E637F60809E637F6B5
:1029C00022E026F608A3E036F608A3E036F608A3D0
:1029D000E036F622E026F008A3E036F008A3E03661
:1029E000F008A3E036F022C0E0E8C0E0E58124FC76
:1029F000F8E6A2E7D0E0F8D0E022700422600D18DB
:102A0000C6C333C608C633C6D5E0F41822E657F667
:102A10000809E657F60809E657F60809E657F622C8
:102A2000E056F608A3E056F608A3E056F608A3E041
:102A300056F622E056F008A3E056F008A3E056F060
:102A400008A3E056F022E647F60809E647F608092B
:102A5000E647F60809E647F622E4C396F608E49648
:102A6000F608E496F608E496F622C3E7960809E726
:102A7000960809E7960809E79622C6F4C608C6F440
:102A8000C608C6F4C608C6F4C622600D08C6A2E78A
:102A900013C618C613C6D5E0F322C3E09608A3E018
:102AA0009608A3E09608A3E0962275D000758140B1
:102AB0007518D1751904000223FCE0F608A3E0F6AE
:102AC00008A3E0F608A3E0F622600C08C6C313C60C
:102AD00018C613C6D5E0F422E6F008A3E6F008A372
:102AE000E6F008A3E6F022CAC0E0E6F0A308DAFAAE
:102AF000D0E0FA22E0FAA3E0FBA3E0FCA3E0FD2291
:102B0000EAF0A3EBF0A3ECF0A3EDF022E5C754F854
:102B10004401F5C77901222518F582E43519F583BA
:102B200022C2AF75D69F0200002212284F0C7600F9
:102B300012284F40760012284F75760012284F4E0B
:102B4000770012284F03780012284F587A00122875
:102B50004FA57B0012284F487C0012284F3B7D0078
:102B600012284F7A7D0012284F707F0012284F8E56
:102B70007F0012284FB57F0012284F0080021228D4
:102B80004F35800212284F5D800212284F96800236
:102B900012284FA8800212284FFA800212284F5B99
:102BA000810212284FE5810212284F8982021228E1
:102BB0004FD1820212284F0B830212284F28830222
:102BC00012284F4D830212284F9F830212284FB8BC
:102BD000830212284FDE830212284F198402122822
:102BE0004F5D840212284F84840212284FD584023C
:102BF00012284F85850212284F3D860212284F0564
:102C0000870212284FC5870212284F09880212280E
:102C10004F2E880212284F71880212284FBE880258
:102C200012284F348A0212284FBA8A0212284FD82B
:102C30008A0212284F028B0212284F1C8B02122884
:102C40004F2B8B0212284F368B0212284FF68B0225
:102C500012284F4F8C0212284F118D0212284F1943
:102C60008D0212284F9D8D0212284F0A8E021228C3
:102C70004F208E0212284F158F0212284FAB8F0261
:102C800012284F17900212284F42910212284F67C4
:102C9000910212284F78910212284FFD91021228BA
:102CA0004F8C920212284FE4920212284FA89302EE
:102CB00012284FC7930212284FD6940212284FF4BD
:102CC000940212284F06950212284F599502122895
:102CD0004F68950212284FF0950212284F2D960248
:102CE00012284F3A960212284FB8970212284F170F
:102CF000990212284F30990212284F799A0212280D
:102D00004F0B9B0212284F429C0212284F7B9C02C1
:102D100012284FC79C0212284FDA9D0212284FFE3C
:102D20009F0212284F09A00212284F14A002122855
:102D30004F1FA00212284F29A00212284F34A002D0
:102D400012284F4EA00212284F58A00212284F629C
:102D5000A00212284F6DA00212284F78A00212285C
:102D60004FA0A00212284FFBA00212284F05A1027B
:102D700012284F29A10212284F4DA10212284FAB51
:102D8000A10212284FEFA10212284F0BA202122813
:102D90004F82A20212284FBAA20212284F06A302A3
:102DA00012284F63A30212284F1DA40212284F01BC
:102DB000A60212284F5AA60212284F8AA7021228EA
:102DC0004FB0A70212284F2AA90212284FB5AC0211
:102DD00012284F87AE0212284F50B00212284FFD22
:102DE000B00212284F71B20212284F10B3021228FB
:102DF0004F5DB30212284FC7B30212284FD6B30259
:102E000012284F56B60212284F7BB70212284F0FD6
:102E1000B90212284F7CB90212284F5BBA0212285D
:102E20004F7EBB0212284FE6BC0212284F05BD029E
:102E300012284F5ABD0212284F5FBE0212284F8738
:102E4000BE0212284FDFBE0212284FBEBF02122858
:102E50004F02C00212284F4DC00212284FB8C002C4
:102E600012284FFDC10212284F61C20212284FAF33
:102E7000C30212284F16C60212284F47C602122854
:102E80004FFFC70212284F54C80212284F66C902CA
:102E900012284F03CA0212284F5CCA0212284F0F91
:102EA000CB0212284FB1CB0212284F51CC0212286C
:102EB0004FF6CC0212284FCD800112284F16810107
:102EC00012284F8E830112284FCD830112284F17ED
:102ED000840112284F55850112284FB4850112280C
:102EE0004FE8850112284F26860112284F9A870144
:102EF00012284F5D8A0112284F908B0112284F43F0
:102F00008C0112284FF2940112284F879501122844
:102F10004F6E980112284F9D990112284FFE99017A
:102F200012284F1A9B0112284F609C0112284F3F14
:102F30009D0112284F249F0112284F35A10112280C
:102F40004F8DA10112284F5FA20112284F16A30135
:102F500012284F20A30112284F4EA30112284F0B15
:102F6000A40112284FE2A40112284FA9A50112289A
:102F70004F44A60112284FAEA60112284FCCA6013D
:102F800012284FF5A60112284F17A70112284F6DDE
:102F9000A90112284F45AA0112284F89AA01122817
:102FA0004FF1AA0112284FA9AB0112284FDBAB0148
:102FB00012284F1FAC0112284F55AC0112284FA107
:102FC000AC0112284FF6AC0112284FFBAC011228BD
:102FD0004F4EAD0112284F73AD0112284F83AE0141
:102FE00012284FFBAE0112284F57AF0112284FE3B2
:102FF000AF0112284FD1B20112284FB5B3011228E8
:103000004F4CB50112284F82B70112284F30B8013A
:1030100012284FE0B80112284F21BB0112284FC4DB
:10302000BB0112284F0BBC0112284FB7BD0112285B
:103030004FCBBD0112284FD5BD0112284FFDBD0158
:1030400012284F09BE0112284F28BE0112284F72C4
:10305000C00112284FA7C00112284FB1C001122889
:103060004FBBC00112284F16C10112284F72C10177
:1030700012284F86C20112284FE7C20112284F368C
:10308000C40112284F7AC40112284F22C501122808
:103090004F05C60112284FB0C60112284FFCC701C8
:1030A00012284FFAC80112284FA0C90112284F3028
:1030B000CA0112284F47CA0112284F7ECA0112289E
:1030C0004F88CA0112284F92CA0112284F9DCA0187
:1030D00012284FBBCA0112284FFFCA0112284F5CA9
:1030E000CB0112284F81CB0112284F9BCB01122814
:1030F0004F2DCC0112284F57CD0112284FCECD01B4
:1031000012284FB5CE0112284FEBCE0112284F5F87
:10311000CF0112284FDACF0112284FDED00112283A
:103120004FD4D10112284F83D20112284F96D301D8
:1031300012284F32D40112284FB4D40112284F92D2
:10314000D50112284FCAD50112284F22D6011228C4
:103150004FEBD60112284F0CD70112284F93D701FD
:1031600012284FB7D70112284FD9D70112284F2262
:10317000D80112284F38DA0112284F1BDB01122820
:103180004FCCDB0112284F02DE0112284F52DE0124
:1031900012284F92DE0112284FD4DE0112284F2E42
:1031A000DF0112284F5CDF0112284F80DF01122857
:1031B0004FD3DF0112284F01E00112284F3AE001FE
:1031C00012284F99E00112284F06E10112284F6B97
:1031D000E20112284F8EE40112284FF7E401122871
:1031E0004F20E50112284FABE50112284F17E601E9
:1031F00012284F62E60112284F86E60112284FAAD4
:10320000E60112284F05E70112284F20E701122896
:103210004FD9E70112284F30A70512284F68A7059C
:1032200012284FAAA70512284F10A80512284F1AD6
:10323000A80512284F2AA80512284F7C80031228BF
:103240004FC2800312284FA2810312284FA4820389
:1032500012284FA7830312284F33850312284F915A
:10326000850312284F4E860312284F6C87031228BD
:103270004FDD870312284F19880312284F678803F0
:1032800012284F71880312284FB5880312284F1156
:10329000890312284FAC890312284F298A03122868
:1032A0004FF88A0312284F918B0312284FB18B03DA
:1032B00012284FE78B0312284F188C0312284FD97E
:1032C0008C0312284FE98C0312284F3D8D031228DE
:1032D0004F588D0312284F6A8D0312284F738D03A8
:1032E00012284FCD8D0312284F298E0312284F75B7
:1032F0008E0312284F908E0312284FC18E0312287E
:103300004FDE8E0312284FEA8E0312284F5E900381
:1033100012284F77900312284FDE900312284FF1A6
:10332000900312284FFF900312284FB391031228E5
:103330004F97920312284F9D930312284F2794030F
:1033400012284F31940312284F9E940312284FB530
:10335000940312284FE7940312284F209503122854
:103360004F4A950312284FAB950312284FCB950374
:1033700012284FE9950312284F2F960312284F5514
:10338000970312284FA2970312284FD197031228B0
:103390004F47980312284F6F980312284FA898039D
:1033A00012284FB6980312284F0E990312284F5D2A
:1033B000990312284F9C990312284FCC9903122885
:1033C0004FF8990312284F039A0312284F219A03AA
:1033D00012284FE39A0312284FED9A0312284F2820
:1033E0009B0312284F3E9B0312284F479B03122832
:1033F0004F9C9B0312284FB09B0312284FAD9C0398
:1034000012284FC09C0312284FD79C0312284FEC60
:103410009C0312284F8E9D0312284F119E031228E1
:103420004FCF9E0312284FDA9E0312284F06A003A7
:1034300012284F22A00312284F74A00312284FB362
:10344000A00312284FC8A00312284F2AA103122854
:103450004FB9A10312284F04A20312284F55A40309
:1034600012284FD3A40312284F48A50312284F6AED
:10347000A70312284F82A70312284F85A7031228FB
:103480004F91A70312284FA5A70312284FADA703FA
:1034900012284FE0A70312284F90A80312284F06C6
:1034A000A90312284F79A90312284F2DAA03122825
:1034B0004FE2AA0312284F01AB0312284FA1AB031E
:1034C00012284FADAB0312284FD8AB0312284FDBA5
:1034D000AB0312284F0AAC0312284F1FAC0312286B
:1034E0004F89AC0312284FB1AD0312284F89AE03A8
:1034F00012284F14AF0312284F2DB00312284FEAA1
:10350000B00312284F23B10312284F54B1031228DD
:103510004F12B20312284F42B20312284F1DB303B9
:1035200012284FB6B30312284F41B40312284FF2AA
:10353000B40312284F75B50312284FA7B5031228FC
:103540004FE8B50312284F1DB60312284F3E9904C9
:1035500012284FA3990412284FDB990412284F2AEE
:103560009A0412284F4C9C0412284F2F9E041228B4
:103570004FCEA10412284F6CA20412284FA1A2041E
:1035800012284FC3A20412284F28A30412284F5E0A
:10359000A30412284F86A30412284FA9A3041228BB
:1035A0004FD6A30412284F29A40412284F75A4044F
:1035B00012284F2C8D0412284FAD8D0412284FE392
:1035C0008D0412284F4A8E0412284FBD8F041228F2
:1035D0004FD98F0412284F1E900412284FAC90042C
:1035E00012284F05910412284F39920412284F07D0
:1035F000930412284F7F930412284FFB9304122840
:103600004F3D940412284F7E940412284FB2950423
:1036100012284FB0960412284FDB960412284F262A
:10362000970412284F6D970412284FFF9704122811
:103630004FB8980412284F22F80412284F33F80488
:1036400012284F84F80412284FC9F80412284F7822
:10365000F90412284FB2F90412284F0080041228EE
:103660004F95800412284F43810412284FCE8104C5
:1036700012284FAE840412284F5D860412284F147E
:10368000870412284F69870412284F4A8A04122897
:103690004FE28B0412284F4FA30512284F77A30542
:1036A00012284F6EA40512284FD3D50412284F5864
:1036B000D60412284F6FD60412284FE4D6041228DD
:1036C0004F44D70412284F6DD70412284FEAD7046D
:1036D00012284F86D80412284FEDD80412284F55CF
:1036E000D90412284F7CD90412284FB5D9041228C6
:1036F0004FD3D90412284FFCD90412284F2ADA04D8
:1037000012284F70DA0412284FD6DA0412284FF428
:10371000F30212284F9BF40212284FBBF402122826
:103720004FE2F40212284FF6F40212284F52F5022B
:1037300012284F82F50212284F03F70212284FA9D0
:10374000F70212284F87F80212284FD8F8021228E1
:103750004F1CF90212284F5FF90212284FCCF902D0
:1037600012284FEDF90212284F79FA0212284F2938
:10377000FC0212284F9DFC0212284F4BFE02122819
:103780004F25FF0212284F7FFF0212284FB89B05DA
:1037900012284FC29B0512284FE39B0512284FADFC
:1037A000A40412284F03A70412284F3EA80412288D
:1037B0004F746C0012284F56AA0412284F23AB04F2
:1037C00012284F64AB0412284F94AB0412284F55B3
:1037D000AC0412284FC8AC0412284FCAAC041228FB
:1037E0004FCCAC0412284FCEAC0412284FF9AC04D5
:1037F00012284FFBAC0412284F14AD0412284F615D
:10380000AD0412284F97AD0412284F10AE041228B1
:103810004FF0750012284F13E80112284F30E801CD
:1038200012284F82E90112284FADE90112284F1EDC
:10383000EA0112284F42EA0112284F62EA011228D7
:103840004FACEA0112284FD6EA0112284FF9EB01DA
:1038500012284F2FEC0112284F5EEC0112284FA0C6
:10386000EC0112284F4AED0112284F6AED0112288F
:103870004FBFEE0112284F41EF0112284F38F001DF
:1038800012284F08F10112284F78F10112284FC970
:10389000F10112284FFBF10112284F5DF2011228AD
:1038A0004FC8F20112284F12F30112284F48F401B9
:1038B00012284F7DF40112284FE4F40112284FAC76
:1038C000F50112284FD4F50112284F7CF701122878
:1038D0004FFDF70112284F30F80112284F6CF80104
:1038E00012284F85F80112284F11F90112284FD5DF
:1038F000F90112284F7FFA0112284F20FB011228EC
:103900004FBFFB0112284F3EFC0112284F99CF04F4
:1039100012284FE5CF0412284F53D00412284F74B9
:10392000D00412284F8BD00412284F3BD104122808
:103930004F44D10412284F97D10412284FC0D1040C
:1039400012284F27D20412284FB8D20412284FFA57
:10395000D20412284F44D30412284FA3D3041228B0
:103960004FCFD30412284F60D40412284F9FD404A1
:1039700012284FDED40412284F13D50412284F25E5
:10398000D50412284F37D50412284F6AD5041228BF
:103990004FAAD50412284F9DEA0412284F70EB0459
:1039A00012284F8AEB0412284F9BEB0412284FB0C9
:1039B000ED0412284FCFED0412284FFE9D0512286A
:1039C0004F349E0512284F7D9E0512284FCD9F052E
:1039D00012284F23D00312284F62D10312284F9E82
:1039E000D10312284F5DD30312284F86D303122828
:1039F0004F19D60312284F5DD60312284FE6D7037E
:103A000012284F7ED80312284FE6D80312284F877A
:103A1000D90312284FC9D90312284F09DA031228F3
:103A20004F94DB0312284F04DD0312284F29DF03D4
:103A300012284F57DF0312284F7EDF0312284F87CB
:103A4000DF0312284FE2DF0312284F75E00312282C
:103A50004F93E30312284F14E40312284FA3B00539
:103A600012284FB9B00512284FC3B00512284F13C2
:103A7000B10512284F708B0512284F838B05122831
:103A80004F208C0512284F5C8C0512284F738C0533
:103A900012284F988C0512284FDA8C0512284F0BEC
:103AA0008D0512284F468D0512284FC08E0512280D
:103AB0004F018F0512284F9FA90512284FF4A90521
:103AC00012284F4DAA0512284F54AF0512284FA7B0
:103AD000AF0512284FE9AF0512284FF9AF0512289C
:103AE0004F71E40312284FC6E40312284FCBE503BD
:103AF00012284F9BE60312284FB0E60312284FFA14
:103B0000E60312284F49E70312284F5CE703122807
:103B10004F9DE70312284FF6E70312284FD5E9031C
:103B200012284FDCEA0312284F17EB0312284F2B01
:103B3000ED0312284F3AED0312284F89ED031228A6
:103B40004F9FED0312284FACED0312284FE5ED0314
:103B500012284FF6ED0312284F16EE0312284F21BC
:103B6000EE0312284F7AEE0312284FD4EE031228E8
:103B70004F2FEF0312284F54F00312284F6DF0031C
:103B800012284FF5F20312284F21F30312284FA1F8
:103B9000F30312284F19F40312284F25F4031228B7
:103BA0004F61F40312284FC9F40312284FABF503F9
:103BB00012284FDFF50312284FE9F50312284FECC6
:103BC000F50312284FFBF50312284F78F60312284D
:103BD0004F93F60312284FB5F60312284FE1F60370
:103BE00012284F1CF70312284F2BF70312284F36C9
:103BF000F70312284F72F70312284F85F703122894
:103C00004FACF70312284FD3AC0512284FE4AC0594
:103C100012284F6CAD0512284FE8C10412284F3707
:103C2000C20412284FD9C30412284F95C504122884
:103C30004FDDC50412284FC5C60412284FF6C7042D
:103C400012284F18C80412284F74C80412284FF8BD
:103C5000C80412284F42CD0212284F70CD021228FC
:103C60004FBBCE0212284F02CF0212284F54CF0270
:103C700012284FD0CF0212284F39D00212284F8578
:103C8000D00212284F06D10212284FACD1021228BE
:103C90004F34D20212284F76D20212284FB3D602E6
:103CA00012284F37D80212284F76D80212284FBA5E
:103CB000D80212284FC6DB0212284F51DC0212280C
:103CC0004F28DE0212284F6ADF0212284F88E002D6
:103CD00012284FFAE00212284FC6E10212284F3292
:103CE000E20212284F35E20212284FE9E2021228BE
:103CF0004F1EE40212284F5CE60212284FDCE80255
:103D000012284F95E90212284FB1EA0212284F08F3
:103D1000EE0212284F18EE0212284F79EF021228F5
:103D20004F06F00212284F35F10212284FC9F10256
:103D300012284FC4F20212284F5CF30212284F7B64
:103D4000B60312284F31B70312284FA3B703122826
:103D50004FB2B70312284F2CB80312284F9BB80359
:103D600012284FA2B90312284FCBB90312284F6B68
:103D7000BA0312284FB9BA0312284F30BB031228D6
:103D80004F22BE0312284FF7BE0312284F64BF0311
:103D900012284FE4C00312284F98C10312284F463F
:103DA000C20312284FA1C20312284F0CC3031228CA
:103DB0004F0CC40312284FF4C40312284F38C50314
:103DC00012284F65C50312284F8DC50312284FC214
:103DD000C50312284F4BC60312284FA9C703122848
:103DE0004F76C90312284F8DCA0312284FCACB033E
:103DF00012284FDDCC0312284F76CD0312284FE84E
:103E0000CD0312284FB0CE0312284F54920512282A
:103E10004F78920512284F9E920512284FA39205C3
:103E200012284FF7920512284FE8930512284F5A8F
:103E3000990512284F8B990512284F459A0512288B
:103E40004FAB9A0512284F1C9B0512284F36880548
:103E500012284F98890512284FC5AD0512284FD654
:103E6000AD0512284F76AE0512284FEC7F001228C0
:103E70004FE6FF0112284F3CB10512284F4CB10507
:103E800012284F61B10512284FB2B10512284FD147
:103E9000AB0512284F56AC0512284FBAAC051228B4
:103EA0004FD8FF0312284FDBFF0312284FD37F00A8
:103EB00012284FE37F0012284FE67F0012284FE9B7
:103EC0007F0012284FF87F0012284F30A0051228DB
:103ED0004F6BA10512284FEFA10512284FC1B10564
:103EE00012284FCAB10512284FD3B10512284FE14D
:103EF000B10512284F8DDB0412284FF9DB0412287C
:103F00004FC0DC0412284FCADD0412284FACDF0476
:103F100012284F07E00412284F5CE00412284F6D6E
:103F2000E00412284F7FE00412284FE9E004122831
:103F30004FFDE00412284F08E10412284F16E10457
:103F400012284F28E10412284F3CE10412284F9117
:103F5000E10412284F8DE30412284FBFE304122816
:103F60004FE1E30412284FFAE30412284F13E4044C
:103F700012284F1DE50412284FB8E50412284FF20D
:103F8000A10512284F17A20512284F27A2051228B3
:103F90004F5AA20512284F8BA20512284FB9A2052D
:103FA00012284FCAA20512284F2CA30512284F3BF6
:103FB000A30512284F45A30512284F1AFD01122808
:103FC0004F40FD0112284F7DFD0112284F8CFD014D
:103FD00012284FABFD0112284F13FE0112284F1C6F
:103FE000FE0112284F7BFE0112284F9FFE0112286E
:103FF0004F5EFF0112284F6BFF0112284F7CFF011B
:1040000012284FAAFF0112284FC7FF0112284FACF8
:10401000F30412284F00F40412284F6DF5041228FF
:104020004F7AF50412284F8DF50412284FACF50491
:1040300012284FC2F50412284FD6F50412284F5902
:10404000F60412284FBCF60412284F37F704122842
:104050004FA5F70412284F03F80412284F13F80451
:1040600012284F0AB00512284F2EB00512284F56BD
:10407000B00512284F7EB00512284F9994051228DA
:104080004FC0940512284FE1940512284F4695051C
:1040900012284FFF960512284F18970512284F2413
:1040A000970512284F38970512284F569705122862
:1040B0004F60970512284F6A970512284F7D970584
:1040C00012284FCE970512284F07980512284F3611
:1040D000980512284F84980512284FD39805122866
:1040E0004FEE980512284FF8980512284F099905A8
:1040F00012284F4F990512284F93FF0212284FE4C0
:10410000FF0212284F0CB00412284F38B0041228B6
:104110004F54B00412284F67B00412284F7DB004EA
:1041200012284FE9B00412284F1CB10412284F4B3B
:10413000B50412284F71B60412284FA4B6041228F1
:104140004FF0B60412284F29B80412284F51B80472
:1041500012284F66B80412284F76B80412284FBAB6
:10416000B80412284F0FB90412284F1FB90412289F
:104170004F6CA80512284F87A80512284FB0A80534
:1041800012284FCAA80512284FEFA80512284F0E73
:10419000A90512284F26A90512284F54A90512284F
:1041A0004F6EA90512284F90AE0512284FE6AE05B6
:1041B00012284F67FC0412284F6EFC0412284F7A15
:1041C000FD0412284FAAFD0412284FD0FD04122826
:1041D0004FF3FD0412284F15FE0412284F4FFE0422
:1041E00012284FB5FE0412284FEEFE0412284F3A53
:1041F000FF0412284F67FF0412284F87FF0412287C
:104200004F9FA40512284FC1A40512284FE6A5050B
:1042100012284FE9A50512284FBEAA0512284F30D3
:10422000AB0512284F6EAB0512284FAFAB05122815
:104230004FDCF70312284FE2F70312284F28F80348
:1042400012284F11FA0312284F47FA0312284FA1E0
:10425000FA0312284F83FB0312284FC8FB031228CE
:104260004FFBFB0312284F85FC0312284F9FFC03D2
:1042700012284F2BFE0312284F29FF0312284F72DA
:10428000FF0312284F4DB90412284F63B9041228B6
:104290004FF8B90412284FF4BA0412284FF8BB049F
:1042A00012284F9DBC0412284FE1BC0412284F5E17
:1042B000BD0412284FBFBD0412284FCFBD041228E1
:1042C0004FF6BD0412284F48BE0412284FD5BF0434
:1042D00012284FDABF0412284FFCBF0412284F33B4
:1042E000C90412284FB9C90412284FAFCB041228B1
:1042F0004F45CC0412284F70CC0412284F3CCD04FB
:1043000012284FB6CD0412284FDBCD0412284F7B64
:10431000CE0412284FC2CE0412284F28EF041228D0
:104320004F29F00412284FB9F10412284FE4F10488
:1043300012284FF0F20412284F62F30412284F00A3
:10434000800512284F26800512284F7580051228F7
:104350004F91800512284FC2800512284FD2800548
:1043600012284FDF800512284FEC800512284FD805
:10437000810512284F16820512284F208205122827
:104380004F2D820512284F38830512284F4A830586
:1043900012284F55830512284F67830512284F7046
:1043A000830512284F7A830512284FEF83051228C0
:1043B0004FF7E50412284F17EA0412284F33EA0496
:1043C00012284FF9830512284F0F840512284FB188
:1043D000850512284FFC850512284F67860512288F
:1043E0004F59870512284F88870512284F9A87054D
:1043F00012284FECA50512284F0E8F0512284F6A80
:104400008F0512284FAA8F0512284F9B900512285E
:104410004FBF900512284FD4900512284FF49005F5
:1044200012284F2B910512284F3C910512284F530B
:10443000910512284F78910512284F0292051228F3
:104440004FABFF0312284FBA6A0012284F6A680068
:1044500012284FF1670012284F98670012284F2842
:10446000670012284FFF660012284FDF64001228F1
:104470004FAB640012284F78640012284F5C640030
:1044800012284F2A630012284F8A620012284F42D6
:10449000620012284F8D600012284F0D6000122814
:1044A0004F0A600012284FFE5E0012284FCC5E00BB
:1044B00012284F095E0012284F345C0012284FE189
:1044C0005B0012284FB35B0012284FB05B0012282C
:1044D0004F90750012284F48750012284F967400AF
:1044E00012284F08740012284FFB730012284F9DAA
:1044F0005B0012284F485B0012284F375B001228E0
:104500004F2D5A0012284FF5700012284FC3590042
:1045100012284F49590012284F14590012284FB53C
:10452000580012284F576E0012284F27AF04122848
:104530004F84580012284F4C550012284F0C55003C
:1045400012284F00550012284F60540012284FA027
:10455000530012284F18510012284FA94E0012285C
:104560004F674E0012284F3B4D0012284FF04C0071
:1045700012284F2C4C0012284FFF4B0012284F37A7
:104580004B0012284F074B0012284FF0FF02122851
:104590004FCD4A0012284F206D0012284F0BAA045D
:1045A00000000080FBE4738F000100F0078700012A
:1045B00000EF0724000200B31325000200B5132604
:1045C000000200B71327000200B91328000100BB46
:1045D0001329000100BC1384000400BD13860001F0
:1045E00000C1132A000100C2132B000100C3132CC9
:1045F000000100C6132D000800DB072E000100C7D4
:10460000132F000100C81330000100C9133100014D
:1046100000CA1332000100E30733000100E407344D
:10462000000100CB1336000100E50738000100CC83
:104630001339000100C51383000200D61363000183
:1046400000EE0764000100D80765000100C4136D87
:10465000000100D5136E000200D90743000100CD10
:104660001344000200CE1345000100D0134600029F
:1046700000D11347000800E60748000100D3134BA0
:10468000000100D41304000100D813A1000100DAD6
:104690001337000100D91388000100F10700000062
:1046A0000000000001363601010001020100010393
:1046B000010001040106060502000007010034089C
:1046C00001000F090401010D0100FF0E0800001791
:1046D000020000190100FF1A0100011B0100FE1C6D
:1046E0000100081D0200001F01000120010001213E
:1046F0000200002301000F24020000260100012710
:10470000010008280200FF2A0100072B0102402CAB
:104710000100002D0100012E0100012F0100FF30DA
:10472000010B1C310800003A0100083B01000F2F6B
:1047300001000003007100300160001100700031C1
:104740000220035004800010006100000014006388
:1047500000730072006200430000001300060000B6
:10476000000000040012000000000000000000042F
:10477000000400370037003C024400000000000045
:104780000000006500000035008100000005000009
:104790000083000000010371030103010301030111
:1047A00003010322030203010310030003000300BB
:1047B0000300030003000300034203000324030675
:1047C000030003000304031203250323032503232B
:1047D0000304030403000300030003440300030075
:1047E0000323030003650321003503810300030550
:1047F0000300030003000301017101010101011124
:104800000101013101010101018001100161013B40
:10481000001400630173017201620143010001137E
:104820000106013D013500040112010001000100F3
:1048300001000104010401330133013C0144013250
:104840000136000001000165010001350081010011
:104850000105018201830100010304710402046067
:10486000041104700402040204010402041004612F
:104870000400041404630473047204620443040017
:1048800004130406040004000404041204000400D9
:104890000400040004510464000004000400044403
:1048A00004000400040004000465040004350481CD
:1048B0000464000504000483040004030271023050
:1048C0000160021102700201020202020280021063
:1048D0000261023A00410063027302720262024303
:1048E0000200021302380000020002040212020059
:1048F0000200020002000204020402370037003CFA
:104900000244020002390000020002650200023582
:104910000281020002050282028302000200007886
:104920003D1300EE3C0100783D0200763C03007C24
:104930003C0400823C0500883C0600943C3000B2F8
:104940003C3100AC3C3200BE3C3300C43C3500CAB4
:104950003C3400D03C3600D63C1100E23C1400E868
:104960003C1500A63CFFFF000036000100060000D9
:10497000000F000000000000000000000000000325
:10498000FFFF00000403FFFF0000FFFF0FF4010022
:1049900005C4040320000100000B0000000000001B
:1049A000000003010F01082F063E2F08382F0B5679
:1049B0002F10782E0A6E2F020E2F052C2F07142F82
:1049C0000CEA2E0DFC2EFF000003EAF5E5D5D5C557
:1049D000B5A59595858575756565555545453535F7
:1049E00025251515057633A6337C338233A0339401
:1049F000338E33AC33B233B833C433883370336A55
:104A00003300160F00000B150B020002220F3200BC
:104A10000006723484348A34403390343A33463357
:104A20007A327432B032B632AA326232DE34FC34B8
:104A30000235E434F034EA340C0E020B040B0A079E
:104A400008000F303016181920231A1C1E300001E0
:104A500019161816161523030000034948424D186D
:104A600017250502303017181921301B1D1F300083
:104A7000383C3E363B3B352B432CC63496349C3475
:104A8000A834A2349A33BE33F634CA33D033020486
:104A90000201010101090286328C328032BC32925D
:104AA00032A43200BE040A150004007F00E8030CA3
:104AB00000280000000000090308100C0A03080980
:104AC00000040001FF1E1E0C05040F100874F712ED
:104AD0002390E9FE1235B0EE901366F09004DE7478
:104AE0006AF0A37445F09004E07464F0A37445F098
:104AF0009004E2745EF0A37445F09004E47458F0FE
:104B0000A37445F0025C2F74F7122390E9FE900421
:104B1000D2E4F0EE9004D1F09013D11259B4125FA8
:104B2000E47CE67D077AD57B041242289013D3E01B
:104B30009004DDF0025C2F74F41223908A088B0934
:104B4000EB5480605B9004D1127469604A8E828F4E
:104B500083E0640170321266331226CBEE24121207
:104B60007F5DF50A780A1228A7124BF21228A3EEED
:104B7000240B124BEB1226CFEE2417127479123548
:104B80005C74091228D08008E06402700312449813
:104B9000EEFAEFFB123934AA08E5096480FB804580
:104BA0009007EFE060046401701CEAA2E0501790E7
:104BB00004E612647360061259B01245A5E5086454
:104BC00001FAAB09801FEA5402600C90136574016E
:104BD000F0EA6402FA800EEA54046005EA64048094
:104BE000F37A007B00024CEBEE240CF582EF1266A8
:104BF0003D22EE240FF50AEF3400F50B780A22C0AF
:104C000082C083EA4B9004E66010ECF0A3EDF0EA7A
:104C1000FCEBFD7A01125541800FE4F0A3F07A011C
:104C2000FB9004D1E0F9123A96025AB974F41223B7
:104C3000908A088B098A828B83A3A3A3E024101295
:104C40005F48FA1266B87003024CDB8E828F837461
:104C500002F0A3E41266A6A3A3A3A3E8F0A3E912BB
:104C600062F2A3A3A3A3A3A3A3F0E5082403F8E59A
:104C700009125B4D2410125DC48E828F83A3A3A3FF
:104C8000A3F0EE2409FA124CDD125F9DF5838882B1
:104C9000E0A2E58E828F83A3A3A3A3A35004740193
:104CA0008001E4F0E5082403F8888289831273C246
:104CB000EA127D09EB124BEE1266D412289F12798C
:104CC000DEEB1260028E828F83A3A312664C122841
:104CD000D0EEFAEFFB9004D11266DD800EEF3400C7
:104CE000FB8E828F83A3A3221228D07F040225BDCE
:104CF00074F21223908A088B09ECFAEDFB740E1201
:104D00002B17E0FC1235E08A0C8B0DAE0CAF0DEECC
:104D10004F6023AC08AD091235CEE96019AC08AD7F
:104D200009EEFAEFFB1235D4E97007EEFAEFFB1249
:104D300035C87900800279B40259BE74EE1223900E
:104D400074F712291B8A0A8B0BECFEEDFF750FB36B
:104D5000750E00750C00750D00800CE50C2401F536
:104D60000CE50D3400F50D904AA9E493F874019315
:104D7000F9C3E50C98E50D994003024E5BAA0CAB14
:104D80000D12362E8A088B09EA450960CE8A828B7D
:104D900083A3A3A3A3A3E0250EF50EF510C3E50A94
:104DA0009510E50B940050B37C157D007900EEFA68
:104DB000EFFB126428A3A3A3A3E50AC3950EF8E0B2
:104DC00028C333F8E433F9E50828F582E50939F515
:104DD00083A3A3A3A3A3A3126AAAA3125F6EEAFCF0
:104DE000EBFDEEFAEFFB125B5BA3E06401700A12CD
:104DF00066337401125AC98043851882851983ACC1
:104E000082AD838508828509831273C0123616E944
:104E1000602D7408122B17E0C0E0126633D0E0F06A
:104E20007408122B17E06403851882851983700CAF
:104E3000AC82AD83EE240B125AC08003125FD8857A
:104E40000882850983125B44A3A312668EC0E0EE3C
:104E50002414124BEBD0E0F0750F00A90F74091267
:104E600028D07F0A0225BD74F7122390E9FE8A82BA
:104E70008B83A3A3A3A3A3A3E0540860298A828BF6
:104E800083A3A3A3A3A3A3E0540260178A828B8306
:104E9000A3A3A3A3A3A3A3A3A3E06406600574E94B
:104EA0006E700312454C025C2F74E812239074F765
:104EB00012291B7407122B17126441E98518828589
:104EC0001983F0ECFEEDFF7424122B17780C122AD4
:104ED000BA7513008E828F831273BC8E828F83A368
:104EE000A3A3E0F91235EC8A148B15EA451570037B
:104EF0000250B2EE2410126C4AA914122D768A16B2
:104F00008B17EA451770030250B2EE2406F510EF36
:104F10003400F5117C00851082F5831251048E82D5
:104F20008F83A3A3A31250F91270C2F8A3E0F985EE
:104F30001682851783A3A3A3A3125AE71250F9A3DD
:104F4000A3A3A3126E43851682851783A3A3A3A3ED
:104F5000A3A3F0EE127D09EF12537D12289FEE12EB
:104F600079DFEF126002851682851783A3A3A3A3BE
:104F7000A3A3A3A3A312664C1228D075100002505D
:104F800032850A82850B831273C012361C85088213
:104F9000850983A3EAF0A3EB12665FA3A31263085B
:104FA0001266F4E0A2E6500F850882850983A3A368
:104FB000A3A3A3E0D2E1F0E513706385088285091D
:104FC00083A31275DD900538E0687003A3E0697073
:104FD0004D850882850983A3A3A3126C57780C1210
:104FE000289B7427122B17E0F50A780A1228A77459
:104FF00026122B171226CF9005451226CF79007462
:1050000010122B171262E212446874091228D0851C
:105010000882850983A3A3A3A3A3E04405F0740138
:105020002510FC8E828F83A3A3A3A3A3A3125104F4
:105030000510E50A450B6052851008C3E508951474
:10504000E495155045E51075F006A4F8A9F0E516AD
:1050500028F8E51739F9E8240CF508E9125B1CE497
:1050600012665564016003024F8175130185088241
:10507000850983740112665AF8A3E0F985088285D0
:105080000983A3E8F0A3E9024F98AA16AB17122DE3
:105090007C78161228A37425122B17E0FC740212D8
:1050A0002B17E0F9EEFAEFFB12455274021228D0EA
:1050B00080428E828F83A3A3A3E0C0E07404122BEE
:1050C00017D0E0125B05E0C0E07405122B17D0E0AA
:1050D000F0E514451570097406122B1774B9800792
:1050E0007406122B177401F07401122B17AA82ABED
:1050F0008312446E7409027EFAE085168285178356
:10510000A3A3A322126A938E828F83A3A3A3E0F9A1
:105110001235F28A0A8B0B2274E812239074F31270
:10512000291B8A0A8B0B89178C167425122B1712D0
:105130007F64AA0CFB122D6AE9F514AA0CAB0D12C0
:105140002D70E9F515E514700302536F7513008097
:105150000F8E828F83A3A3A3A3A3E0D2E3F0051352
:10516000E50C240BF582E50D1254FBE513C39840C2
:1051700003025366E5147003025366E51375F006E7
:10518000A4F8A9F0E50C28F8E50D39F9E8240CFE9F
:10519000E9127F4AA3A3A3A3E0A2E040C1750E00D9
:1051A0009007EFE060046401704A8E828F83E070A4
:1051B000431273C1122C388A088B09A808A909E880
:1051C00049603188828983A3A3A3A3E06401600DB1
:1051D00088828983A3A3A3A3E0640370178E828FC0
:1051E00083A3A3A3A3A3E0D2E7F0750E01E5157096
:1051F0000302515E750F00750808750900E5166019
:1052000003750F20126312E06033900588E064019B
:105210007017E50FD2E3F50F7509108E828F831298
:105220005FC3125F6974FF8024430F0C75080C8EF6
:10523000828F83A3125389127D21A38010E517600A
:1052400009E50FD2E6F50F75080A125397F07402BC
:10525000122B17E50F1270E1C0E07404122B17D067
:10526000E0F07405122B17125F5A122B17E060033F
:105270000253417408122B17125B2D8E828F83A369
:10528000A3A3A3F07408122B17125860F583E50846
:10529000F0A3E509126228E06011900588E0C0E003
:1052A0007408122B17125859D0E0F0850C82850D26
:1052B00083A3A3A3E0C0E07408122B17127B64D071
:1052C000E0127BA0C0E07408122B1712586BD0E0DC
:1052D000F07408122B17125389A3A3127B6B127060
:1052E000CB1273C0E82428F582E9126C3D1270D706
:1052F000C0E0E8242EF582E9124BEED0E0F074080D
:10530000122B171273C2850A82850B8312537424E1
:1053100024F582EB125FE1127D07E50B12537D123B
:10532000289F125FFAEA242BF582EB124BEE1266ED
:105330004C1228D0851882851983AA82AB83124427
:105340008C8E828F83A3A3A3A3A3E0D2E0F0740C7E
:10535000122B17E06003025151E50EA2E050021536
:1053600015151402515E7900AA0CAB0D1245467456
:105370000D027EFAA3A3A3A31275E1EA2212663DF1
:105380001270977512007810221275E1850A8285D5
:105390000B83A3A3A3A322A3125FC8E8F0A3E9226F
:1053A00074F212239074EB12291BEAFEEBFF8908BA
:1053B0008E828F83A3A3A3A3A3A3A3A3E0F9122D9B
:1053C000948A0A8B0BEA450B607FE50870047C0425
:1053D00080027C088E828F83A3A3A3A3A3A3A3A38D
:1053E000E0F9122D9A124BE8126473605C8882898E
:1053F000831273BE7406122B1712544E1273C274AA
:1054000008122B1712544EA3A3E0C0E07410122B05
:1054100017D0E01270EE1273C2740E122B171264C2
:10542000417411122B17E4126E2EF9780A1228A378
:10543000742059FC744059F97402122B17AA82ABDC
:105440008312455274021228D074150259BBEAF037
:10545000A3EB12545622125FADA3A3A3A3A3A322CE
:1054600074F712239074FA12291BE9FE7F018F084A
:105470007D0080047508000D125F411254FBEDC3DE
:10548000985025ED75F006A4F8A9F0EA28F8EB3954
:10549000F9E8127D02E9126A8550D9540C60D5E012
:1054A000A2E250D37F0080CF8A828B83A3A3A3A3E1
:1054B000A3A3E0703EE508A2E0400574016E7033DE
:1054C0008A828B83A3A3A3A3A3A37401127A1DE0F2
:1054D000C0E07403122B17D0E0127A15E0C0E0741C
:1054E00004122B17D0E0F07405122B17EF125FB3E4
:1054F00012446E7406025C2CF582EF126E3EF822A6
:10550000C082C0837901124546025AB9C082C08365
:10551000EA4B6018900584E064027010901365E413
:10552000F0EAFCEBFD7A021255418012901365748B
:1055300001F07A027B009004D1E0F9123A96025A07
:10554000B97B009004D1E0F9123A8A2274F2122356
:105550009074F312291BEAFEEBFF8E828F83A3A3C4
:10556000A3A3A3A3A3A3A3A3E0F50A901365E070EC
:105570000579BA025854750801750900750C007553
:105580000D007C087D007900851882851983AA8228
:10559000AB831239167405122B17740112587C5400
:1055A0000460127402122B17E0D2E612587C5408E1
:1055B0007003750803E05410600674404508F50850
:1055C000E0540860227402122B17E044C012587C89
:1055D0005420600A7403122B17E0D2E08008740391
:1055E000122B17E0D2E1F08E828F83A3A3A3A3A393
:1055F000A3A3A3E0701812302E8518828519831298
:1056000064417402122B17E0D2E2F00256B3640F29
:1056100070157402122B17E0D2E31266F5126422A1
:105620004508F5080256B38E828F83A3A3A3A3A3D4
:10563000A3A3A3E064028E828F8370051253988027
:10564000C9A3A3A3A3A3A3A3A3E064037013851812
:1056500082851983AC82AD83EEFAEFFB12450A8096
:10566000528E828F83A3A3A3A3A3A3A3A3E0640169
:105670007041900588E0601C7402122B17E0D2E3A1
:105680001266E3851882851983125FE47509107527
:105690000AFF80187402122B17E0440C127B8D74E1
:1056A000FDF0A374FFF074044508F5088E828F8323
:1056B000127F64126A7F503A7402122B17E0540C66
:1056C000701B8E828F831273C2123E14E9700579AB
:1056D000BB0258547402122B17E0D2E5F0126A7F15
:1056E00050107402122B17E0540C64047004E0D2C2
:1056F000E5F0EE2411127F5DC0E07404122B17D088
:10570000E0125F5C122B17E0600302584D74081220
:105710002B17125860125872EE2418127F5DC0E0E9
:10572000E8127CF3E9124BEED0E0F0EE2419127F80
:105730005DC0E07408122B17E02413125B25D0E043
:10574000125F7B64017011900588E0C0E07408125C
:105750002B17125859D0E0F07408122B17125D9CC9
:105760002417FAEF125DCBFCE8241CF582E9124BFA
:10577000EEECF0A3E412678EE0C0E0E82422F582AC
:10578000E9124BEED0E0F07408122B1712586BE5BB
:105790000AF07408122B17125DB12424F582E91265
:1057A0007387A3E50D1273E5FCA3E0FDE82426F55D
:1057B00082E9124BEEECF0A3ED125AEF1263EBE824
:1057C0002428F582E9124BEE1275E5C0E0E8242F9B
:1057D000F582E9124BEED0E0F0EE241B127F5DC0A3
:1057E000E07408122B17127B5DD0E0F0EE241A1241
:1057F0007F5DC0E07408122B17E0242E125B25D0C9
:10580000E0127B851266C812289FEE24111263E411
:10581000740B122B171266461228D0EE2415127F35
:105820005D5440601B9004F8126473601385188205
:10583000851983AA82AB839004F91259B01245A549
:10584000851882851983AA82AB8312448C740C124A
:105850002B17E0F9740D0259BBE02415125B2922C5
:10586000125DB5240FF582E9340022E02423125B97
:105870002922F583E508F0A3E509F022F0EE2415CE
:10588000126E3B2274F71223907E638A828B83E030
:10589000600C7905122B6CE9F87456C398FE9005DC
:1058A00030E0600CF9122B6CE9F8EEC39824F2FE9C
:1058B000EEF9025C2F74F612239074FE12291B85F8
:1058C0001882851983126441E9FEECFAEDFB740C31
:1058D000122B17E0FC9006781264736032851882F0
:1058E00085198385820885830978081228A37D019C
:1058F000EEF99006781259AD1245A574021228D01F
:105900008B09EA450960047900800679B280027942
:10591000B6025ADD74F7122390E9FE7409122B17B0
:10592000E0FF9004DE126473601AEFF50878081245
:1059300028A7EEF99004DE1259AD1245A5740112A4
:1059400028D0800279B6025C2F74F7122390890860
:10595000ECFEEDFF79B5E508245F600814602F14B4
:105960006011803F9004D3125FF2E8F0A3E9F07970
:1059700000803090067A12677F602890067A12596C
:10598000AD1245A58E828F83EAF0A3EB80E09004F0
:10599000E012758A600DEEFCEFFD9004E01259AD47
:1059A0001245A5025C2FEEFAEFFB9004F0E0F8A39D
:1059B000125B71221275E19004D3221228D07F0667
:1059C0000225BD74F512239074F812291BEAFEEB30
:1059D000FF8C088D09750A01127F2B125F85700DEF
:1059E000900538125B93E8F0A3E9F08039851882BE
:1059F000851983AA82AB8312303A85188285198370
:105A0000AC82AD83125F81700F12303485088285BD
:105A10000983EAF0A3EB80D2AC08AD09EEFAEFFB04
:105A2000122BD8E9F50AA90A740802645474F61214
:105A30002390EAFEEBFF7A0C7B001239C4EA4B603C
:105A40006BEE2420127F5D8A828B83F0EE2421127C
:105A50005AAFF0EE2422125AAFA3F0EE2423125ACA
:105A6000AFA3A312667F1270B4E8F0A3E9126E33FD
:105A70001270B5A3A3E8F0A3E9126C5D8A828B8350
:105A8000A3A3A3A3A3A3A3A3F0EE242F127F5DC01F
:105A9000E0125F41124BEED0E01264478A828B83A2
:105AA000A3A3A3A3A3A3A3A3A3125FE4025AE21296
:105AB0006E3B8A828B83A322F0D083D08202284C53
:105AC000FAEF3400FB12422822125ACD22125AD188
:105AD0002212669EA3A322126300A3E02274021284
:105AE00028D07F020225BDE8F0A3E9125B0922F06D
:105AF000EE240F12663A22F582EF12663DE422E0B0
:105B0000F912396A22125B0922F0EE2412F582EFB3
:105B1000126641221228D07F080225BD127D1C8505
:105B20000882F58322125B2922125B7E22125B77A8
:105B3000E02212669EE022C082C0831264A5125A3F
:105B4000FA025AB81262F922790102284C125F90C7
:105B500022F8EF3400F98808890922125B5F2212CB
:105B6000422885088285098322E0F8125B70A3220F
:105B7000A3E0F583888222E0240E125B7E22125B72
:105B80008222F8A3E03400F9888289832212608897
:105B90006405221275E185088285098322C082C0CE
:105BA000831264A5125BAA025AB812663D740122E0
:105BB000025B48C082C0839004EE74F8F0A3744482
:105BC000F09004F074ECF0A37444F09004F274C804
:105BD000F0A37444F09004F474F2F0A37444025AF5
:105BE000B874F7122390EAFEEBFF125C19A2E5509D
:105BF000268E828F831273C29004EE1259AD124525
:105C0000A58E828F83E0F8A3126857A31264737085
:105C100006125C19C2E5F080168E828F83125B69D2
:105C2000A3E022740C122B17E0F9740D1228D07F18
:105C3000010225BD74F5122390125D8A125DB12414
:105C400020F582E9127F60FE74035EF50A1261F4AA
:105C5000124BEE125D9C88828983F0A3A882A983EF
:105C6000E50A60097402650A6003025CFB740C5E5D
:105C7000FF601574086F601074046F701D74026506
:105C80000A7005EEA2E4402D8A828B83A3A3A3A30E
:105C9000A3A3A3A3E02423125DEC740C6F70101275
:105CA0005D852424125DD42424125D97125DEF7467
:105CB00002650A7005EEA2E44041125D85242612B9
:105CC0005DD42426125DA1A3125DFE125DA1125DBA
:105CD000FE125D97125DEFEF600F74086F600A743B
:105CE0000C6F600574046F70128A828B83A3A3A368
:105CF000A3A3A3A3A3E02422125DEC8A828B83A337
:105D0000A3A3A3A3A3A3A3125DBA7005EEA2E150BF
:105D1000178A828B83A3A3A3A3A3A3A3A3E0242E08
:105D20001261FB125DE5800E9004D2125DE59004D5
:105D3000D2E004125FADA3A882A983EEA2E750428D
:105D4000125D852421125DA1125DEF8C828D83127C
:105D50005DBA602E8A828B83A3A3A3A3A3A3A3A36C
:105D6000E02430125DECEEA2E150178A828B83A30F
:105D7000A3A3A3A3A3A3A3E02431125DC4888289B3
:105D800083F0026457125D8AE022EA2408FCEB34B7
:105D900000FD8C828D83221261FFA3221275E1EE39
:105DA00022125DA522F508A3E03400850882F58360
:105DB00022125DB5221266EEE822E024211261FF74
:105DC000E0540322FAA3E0125DCB223400FB8A8266
:105DD0008B83E022125DA5125DE5A3A882A9838CC6
:105DE000828D83E022E088828983F0221261FF1293
:105DF0005DF322E088828983F0A308A98322125DE3
:105E0000F38C828D83E0242822C082C0838A828B17
:105E100083125C1DF8740358F98A828B83A3A374E0
:105E200001F0E960057402697061740C58FC60143B
:105E300074086C600F74046C70137402697005E868
:105E4000A2E4401D8A828B83A3A37402F0740C6CBD
:105E5000700A8A828B83A3A3E02402F07402697023
:105E600005E8A2E440258A828B83A3A3E02404F002
:105E7000EC600F74086C600A740C6C600574046C40
:105E800070098A828B83A3A3E004F0E8A2E7503173
:105E90008A828B83A3A3E0041275E9F9A3E0F5835A
:105EA0008982A3A3A3E0540360178A828B83A3A3F0
:105EB000E004F0E8A2E150098A828B83A3A3E00406
:105EC000F08A828B83A3A3E004025AB8C082C08305
:105ED0008A828B83A3A3A3A3A3A3A3A3A3A31264D4
:105EE0007360098A828B83A3A3125EEF025AB9A35F
:105EF000A3A3A3A3A3A3A3126A931239CA2274F77C
:105F0000122390EAFEEBFF1275D988828983A3A33E
:105F1000A3A3A3A3A3A3E4F0A3125456A3A3A3A3F0
:105F2000F0A3F0E8127369E9125F3B1244B0EEFA95
:105F3000EFFB1244BC025C2FF582ED12663DE4F0EB
:105F400022EA240BF582EB22127CD124092212666C
:105F50003D127F68750E00780C227401125FB71233
:105F60005F6322124492740C221262D4A322A3A370
:105F7000A3A3E8F0A3E9F012302822126C6AA3E090
:105F800022EEFAEFFB125F8922124222E96401221B
:105F9000125F95E0223400F98882898322125FA47F
:105FA000F8A3E022EAF0A3EB125FADE022F08882D2
:105FB000898322125FB722F0851882851983AA820D
:105FC000AB8322A3125FC822125FCC22E0F8A3E0C9
:105FD000F9851882851983221275E1EE240BF5826A
:105FE000EF12663D1262B822AA82AB8312390A749C
:105FF00003221275E18E828F8322E50A2410F58236
:10600000E50B12663DE0FC7D002202284CC082C0F8
:10601000838A828B83A3A3A3A3A3A3A3A3E0705229
:106020008A828B83A3A3E0F8126084640160431228
:10603000607E6402603C12607E6403603512607EA4
:106040006404602E8A828B83A3A3125B8D6023126B
:10605000607E640A601C12607E640B601512607EB4
:10606000640C600E12607E640D60077904124210A9
:1060700080099004F61259AD1245A5025AB98A82D8
:106080008B83A3A312608822125B70E02274F61245
:10609000239074FA12291BEAFEEBFF7403122B17EC
:1060A000EEF0A3EFF07403122B17AA82AB83124415
:1060B000A4127F5A60030261EF85188285198374E8
:1060C00032F07405122B17C082C0838E828F83A397
:1060D000A3A3A3E0D083D082F8E028C0E07401122B
:1060E0002B17D0E012623DC0E07402122B17D0E0F3
:1060F000126222F8A3E0F9E8496026E82417F58245
:10610000E9124BEEC082C083E82416F582E9127FC3
:1061100060D083D082F8E028F87401122B17E028B1
:10612000F0851882851983AA82AB83122C988A087D
:106130008B09A808A909E84970030261E28E828FE1
:10614000831273C288828983A3A3EAF0A3EB12624D
:1061500028A3A3E0C0E0E82420F582E9124BEED0AA
:10616000E0127BA0C0E0E82421F582E9124BEED0DA
:10617000E0126237C0E0E8242AF582E9124BEED043
:10618000E0F07405122B17E0FA1261F4127F602A16
:10619000126A99E8242B12643B7405122B17E0C095
:1061A000E0E8242DF582E9124BEED0E0126222FAEB
:1061B000A3E0FBEA4B6019E8242BFAE9124CDEA3BA
:1061C000A3A3A3A3A3A3A3E024161261FB12620A54
:1061D0008E828F83A3A3A3A3A3A3A3A3E8F0A3E921
:1061E000800CEEFAEFFB1244AA124BE87410F07424
:1061F00006025ADFE8240BF582E9221261FF22FC35
:10620000A3E03400FD8C828D8322E0FC8A828B83A4
:10621000E02CFCA3E03400FD8A828B83ECF0A3ED3C
:10622000F022126792A3E022F0E8127CF3E91266F2
:106230003D74011266F522126789A3E0221262C33F
:10624000E02274F7122390EAFEEBFF127F5A701ED1
:1062500012627812647360061259A61245A5127F65
:106260005A700B1273B6122C92124BE8E9F0EEFA48
:10627000EFFB1244AA025C2F1244B68E828F83A3D6
:10628000A3A3A3A3A3A3A3A3A32274F6122390EA18
:10629000FEEBFF8C088D09123E14E9700479018031
:1062A00011AC08AD09EEFAEFFB9004F41259AD12EF
:1062B00045A5025AE2125FCCE8F0A3E9F022127B76
:1062C00091E0221262C7221262CB221266F9A3A3C6
:1062D000A3A3A322E8F0A3E91262DC221266F9A3C9
:1062E000A3221263EFEEFAEFFB22E0242B125B8273
:1062F000E022125AC91262F922E08E828F83A32211
:10630000126687A3A3A3A322E0850882850983A33D
:10631000A3227C087D007900851882851983AA82D2
:10632000AB831239168E828F832274F712239074F6
:10633000F312291BEAFEEBFF740C122B17126405F3
:106340008E828F83A3E06401600A8E828F83A3E034
:10635000640470737404122B177402F0740C122B03
:1063600017E070608E828F83E08518828519831212
:106370006E437402122B177421F07405122B17123E
:106380005F5A122B17E0703C7408122B171263F53A
:106390007408127B80AA82AB83E088828983A3126F
:1063A00075E9640270118E828F83A3A31263EBE8F8
:1063B0002402FAE9125AC2851882851983AA82AB8F
:1063C0008312448C025C238E828F83A3E06402706C
:1063D000097404122B17740A8081740C122B177421
:1063E000B3F080E0F582EF3400F5831263EF22E032
:1063F000FCA3E0FD221263FD88828983221262EAF7
:10640000F8A3E0F922E4F07C08FDF98518828519EB
:1064100083AA82AB831239162274011266F5A3A3F4
:10642000E0221262B57404221239168508828509A9
:1064300083A322E0F508A3E0F50922F582E91266BC
:106440003DEAF0A3EBF02212644B221262DC1266EA
:10645000EE22740D1228D07F030225BDC082C083B6
:1064600012646C749EF0A37444025AB81244C29031
:1064700004F622125DB5492274F7122390E9FE1248
:1064800064A5124BEE126473601888828983A3E0BE
:106490005403700EEEFB1261F4124BEE1264D6122E
:1064A00064D0025C2FEA127369EB22C082C083EAD7
:1064B000F8EBF988828983A3A3A3A3A3E0FB8882D6
:1064C0008983A3A3A3A31264D6A31264D0025AB9EA
:1064D000E0F912355622E0FA88828983A3A3227458
:1064E000E81223908A088B098C168D178914741A68
:1064F000122B17E0F50AA3E0F50B741C122B17E022
:10650000F513741D122B17780C122ABA1279DEEBD0
:10651000127F60242DFA7B0012392E8A108B11AE67
:1065200010AF11EE4F70030266218E828F837401CB
:10653000F0850810850911751200781012289F7CCB
:10654000157D00EE24181266241228D085161085B9
:106550001711781012289F7C097D00EE2402126624
:10656000241228D07418122B17125FD8850A82853E
:106570000B83E0C0E0EE240F124BEBD0E012665A22
:10658000C0E0EE2411124BEBD0E0126655C0E0EEF5
:106590002410124BEBD0E0125B05E51312667FE48A
:1065A000F0A3F0126633780C122AD8EE2417124B9F
:1065B000EBE514125AD7F8A3E0F9EE240D124BEBD9
:1065C000126679127D2E127F606025EE2426126AF3
:1065D00077242DF8126671127D0E125F4E12289FDD
:1065E000127D2C1260028A828B8312664C1228D094
:1065F000EE2419127F5D5403601D9004EC12647345
:10660000600CEEFAEFFB1259B01245A58013EEFABA
:10661000EFFB123934800AEEFAEFFB9004D11266D8
:10662000DD027EFDFAEF12662A223400FB12390ADF
:10663000740322EE241312663A22F582EF126641A9
:10664000223400F58322E0242B125B29126A931274
:10665000390A740322126668E02212665FE0221291
:10666000666322126668A322F0850A82850B83A3E3
:1066700022EF3400F98A828B831262B8E50822F097
:10668000EE242612663A22125AD1A3A3A322A3A370
:10669000A3A3A312669722125ACDA3A3E022F085EA
:1066A0000882850983221266AA22125B32F8A3E0CF
:1066B000F98E828F83A3A3227B0012392E8A0A8B44
:1066C0000BAE0AAF0BEE4F22F508A3E0F509750AF1
:1066D00000780822126433750A00780822E0F91263
:1066E000393A221266E7221266F91266EE22E0F8C3
:1066F000A3E0F922A31266F922F08E828F8322C0D2
:1067000082C083E9901367F09004E8744AF0A374A0
:1067100044F09004EA7494F0A37445F09004EC748F
:10672000E6F0A37444025AB874F7122390EAFEEB21
:10673000FF8908EE4F7003123E689004FA126473EA
:1067400070089004FA80221275DD88828983A3A3E1
:10675000A3A3A3A3A3A3A312677F88828983A3A370
:10676000A3A3A3A3A3A3A370DEEEF0A3EF12678EEF
:10677000E4F0A3126785A3A3A3E508F0025C2F123F
:106780006A93EA4B22126789221262DCA322126703
:106790009222126C6EA3A32274F71223909004FA33
:1067A000800D8E828F83A3A3A3A3A3A3A3A3A3126D
:1067B0007CEBEE4F60348E828F83A3A3A3A3A3A3AD
:1067C000A3E06970DD8E828F83A3A3A3A3E06A7028
:1067D00003A3E06B70CC8E828F83A3A3A3A3A3A398
:1067E000E06C70BEEEFAEFFB80047A007B00025C86
:1067F0002F74F71223909004FA127CEB9004FA1293
:106800005378687002EB6970171268571275DD9043
:1068100004FA125FE49004FA127CEB8030127CDE02
:10682000EE4F60298E828F83A3A3A3A3A312537478
:10683000687002EB6970E68A828B83A3A3A3A3A38B
:10684000A3A3A3A3126864A3A3A3125FE41239CA8B
:10685000EEFAEFFB025C2F125B71A3A3A3A3A3A329
:10686000A3A3A322126AAEA3A32274F012239074EE
:10687000FA12291B8A088B098A828B83A3A3A3A3FC
:10688000A3A3A3A3E0600D640160098A828B831235
:106890006A8B60057902026A72850882850983A382
:1068A000A3A3A3A3A3A3A3E0640370157404122BF2
:1068B00017AC82AD83AA08AB0912450AE9701380B0
:1068C000D38508828509831275DD7404122B171293
:1068D0005FE4127CF8127F602432126A991239C484
:1068E0008A0A8B0BAE0AAF0BEE4F7003026A707C04
:1068F000327D0079001239167402122B17AA82AB6E
:1069000083850882850983A3A3A3A3A3A3A3A3A329
:10691000E0F91235A47402122B17E0C0E0EE242D2A
:10692000124BEBD0E0F0EE242CF50AEF3400F50B1F
:106930007403122B17E0850A82850B83F07901EE30
:10694000FAEFFB12445C85080C85090D750E007882
:106950000C12289F7C1C7D00EE240B12662412284A
:10696000D0EE2430126A772432080812667124119E
:10697000F8E509127F55FCE9FD8C828D83125D9C40
:10698000242E124BEB126679126E10127D351228EE
:106990009F8C828D831263EB8A828B8312664C12EA
:1069A00028D07404122B17126AAA125FE49004D242
:1069B000126AA0F09004D2E004126E48242A1273E6
:1069C00076750D00850A82850B83E0780C1229FA12
:1069D0008A828B83E50CF0EE2429124BEBE50C1236
:1069E0007B8DE4F0E5082415F582E509126A8574CB
:1069F000015007122B1774018004122B17E4F0EEDC
:106A00002427125B51851882851983AA82AB8312D1
:106A10003586E924FE850882850983F0F508750925
:106A200000EE242E1263E4ECF8EDF9AA08AB09128B
:106A30002247E88E828F83A3A3A3A3A3A3A3A3F0DB
:106A4000ECF8EDF9AA08AB091222478B09EA4509CF
:106A5000600F8E828F83A3A3A3A3A3A3A3A3E004A9
:106A6000F0EE2420127F5D44081273ED790080025D
:106A700079107406025B14127F53FAE9FBEE22EEE2
:106A80002415F582EF126E3EA2E022126A931230B4
:106A9000D0E922E0FAA3E0FB22FAA3E03400FB22D3
:106AA0001262F9A3A3A3A3A3A322126AAE221266C1
:106AB000EE8E828F83A3A3A3A32274F4122390EA01
:106AC000FEEBFF12736E1264419013CDE0F8EE24DA
:106AD0002B127F5DC3984003026C2F12738E7015CA
:106AE000EE242B127F5D04126C5DC0E0EE242912AF
:106AF0004BEBD0E0F0EE2428127F5DFC79008001A2
:106B000009EE242C1254F8E9C39850267508017533
:106B10000900E978081229FA12738E550860E1E934
:106B20002CFC750801750900E978081229FAE0457E
:106B300008F0EE2427126C4AEE242E124BEBEC8A5E
:106B4000088AF0A4F8ABF0E42BF9E098F8A3E099F8
:106B5000F9C3E89508E99400EE403924271254F867
:106B600012738E6037EE242D124BEB126C57A3E498
:106B7000F0EC7054EE2420127F5D4420125F7BC045
:106B8000E0EE2426124BEBD0E0F0EE2430126C4AFB
:106B9000A3E080592429124BEB74FFF0900528E004
:106BA000FA9013D0E0F508EA8508F0A4ABF075F090
:106BB00064A4FAADF075F064EBA42DFB8E828F8394
:106BC000A3A3EAF0A3EB80A8EE2420127F5D54DF9C
:106BD00012667FECF08C08EE2427127F5D8508F0AA
:106BE000A4FAABF0EE2430F582EF126C41FBEE24F8
:106BF0001EF582EF126C3D126C65C0E0EE2425128A
:106C00004BEBD0E0F0EE241C124BEBE8126E4390FD
:106C100004FC126473600BECF91259B01245A5E93B
:106C20007018EE240BFAEF3400FB124534800B7B16
:106C3000E9EE2422F582EF126E1A024CEB127B78F9
:106C400022126E3E2AFAA3E03B22126C4E22F582FB
:106C5000EF126641E0FA221262F9A3F022F0EE246C
:106C60002A126E3B22126C6AE022126C6E221262B1
:106C7000CBA3A32274F41223909004FA127CEB129B
:106C80003AAE8A0A8B0B7CFF7DFF8020E0C398FA26
:106C9000A3E099FBC3EA9CEB9D500E8E828F83A3E9
:106CA000A3E0C398FCA3E099FD127CDEEE4F60598F
:106CB0001275D9E50AC398F8E50B99F98E828F838E
