:020000040000FA
:10000000021BC6022003FFFFFFFFFF02200BFFFFC2
:10001000FFFFFF022013FFFFFFFFFF02201BFFFF78
:10002000FFFFFF022023FFFFFFFFFF02202BFFFF48
:10003000FFFFFF021305FFFFFFFFFF02203BFFFF53
:10004000FFFFFF022043FFFFFFFFFF02204BFFFFE8
:10005000FFFFFF022053FFFFFFFFFF02205BFFFFB8
:10006000FFFFFF022063FFFFFFFFFF02206BFFFF88
:10007000FFFFFF022073FFFFFFFFFF02207BFFFF58
:10008000FFFFFF022083FFFFFFFFFF02208B002006
:10009000000090200000932000000100000000C834
:1000A00003000000000000000400FFFFFFFF00C28B
:1000B000010000002600FFFFFFFFFFFFFFFF04031A
:1000C00009042403540065007800610073002000D7
:1000D00049006E0073007400720075006D006500C9
:1000E0006E00740073002403540049002000430094
:1000F000430032003500330031002000550053002A
:100100004200200043004400430000035F005F0002
:100110003000580000000000000000000000000057
:1001200000000000000000000000000000000000CF
:10013000000000003031323334353637383941422F
:10014000434445467F18D418D418D418D418DC1862
:1001500074F71217BA1207A3700FA3A3E0700AA3D3
:10016000E064027002A3E060089005A47404020237
:10017000119005B6E02480600814602D14603A8068
:10018000E89005BAE070E29005B0E0600478018084
:100190000278009005BEE8F0A3E4F09005AFE060BF
:1001A000559005BEE04402804990059DE0640470CE
:1001B000B89005BEE4F0A3803C9005BAE0547FF50A
:1001C0000890059DE0640470A0E508C3940650996A
:1001D0009005BAE05480600C1202FBE06403700CDE
:1001E0007801800A1202EEE0640360F47800900562
:1001F000BEE8F0A3E4F09005A4E064046014900568
:10020000B174BEF0A37405F0A3E4F0A37402120865
:1002100002F07F02021A2674F71217BAE9FE90055F
:10022000BC1207A6701090059DE064046010900554
:10023000BA1207A660089005A474040202E89005AB
:10024000B6E0541F600814600D14602380E8900528
:10025000B8E06401600579000202EBEE9005AFF0B2
:1002600060047905800279067A001217B8807A90C6
:1002700005BAE0547FFA9005B8E070DAEAC3940654
:1002800050B4EA90620EF09005BAE05480602AEE15
:100290006004741080027440906211F0EE60047487
:1002A000038001E4C0E08A081202FBD0E0F0EE60B7
:1002B000047908802C79078028EE6004742080027D
:1002C0007480906214F0EE600474038001E4C0E076
:1002D0008A081202EED0E0F0EE6004790A8002791A
:1002E000091217B890620EE4F0790102021274A9A3
:1002F0002508F58274053400F5832274A42508F5D9
:100300008274053400F583227900120217E9700324
:100310001217A7227901120217E970031217B622E9
:10032000C082C0839005BA1207A67014A31207A654
:10033000700E9005B8E05480F8A3E0F9E849600732
:100340009005A47404801D9005B8E0906200F090C0
:10035000059D6009E06402700C74038007E064038B
:1003600070037402F0D083D0822274F51217BA9011
:1003700005B9E014600814601914604C806412130D
:100380009C120527A37B80121AEEA3F0A3E4F002CF
:1003900004DE9005B8E0FA79001213BE1205277B3F
:1003A00080E924020909EA3400FA121AEEFC19194C
:1003B000E0FAA3E92403090909EA3400FA121AEE63
:1003C000F9ECA3F0A3E980C69005B8E0F912142C6B
:1003D0009005B1EAF0A3EBF0A3E4120536A37B008D
:1003E00080A59005B1E4F0A3F0A3F0FA0204B27581
:1003F000090074037808121B91120540E493C0E0D1
:100400009005B9E0F8D0E06860030204B18A08758D
:10041000090074037808121B91120540A3E493C0ED
:10042000E09005B8E0F8D0E06860030204B18A0803
:1004300075090074037808121B91120558E493C0E3
:10044000E09005BBE0F8D0E06870668A08750900A6
:1004500074037808121B91120558A3E493C0E0902E
:1004600005BAE0F8D0E06870488A0875090074039E
:100470007808121B9112054CF988828983A3A3A3E3
:10048000A3E493F508740193F5099005B1E508F02C
:10049000A3E509F0A37480F088828983A3A3A3A3B2
:1004A000A3A3E493F8740193F99005B4E8F0A3E9E9
:1004B000F00A8A0890067A1206AC75830675827C6B
:1004C000E0C398F50AA3E099F50B7403780A121BB0
:1004D000B7C3E508950AE4950B50030203EF9005B6
:1004E000B1E0FCA3E0FDA3E0FEEC4D4E9005A4704E
:1004F000047404802CE0640460289005B41206ACF7
:100500007583057582BCC3E098A3E099500E9005F1
:10051000BC1206AC9005B4E8F0A3E9F09005A47411
:1005200001F07F04021A269005B1EAF0A3EBF0A3D4
:10053000748012053622F09005B1E0F9A3E0FA22AA
:100540001205442212054C8882F5832290067AE037
:100550002508F8A3E0350922120544A3A32274EF6D
:100560001217BA8A088B098A828B83A3A3A3A3E4F8
:1005700093602690067E1206ACE8FEE98007EE2422
:1005800004FEEF3400FF8E828F83E493F8740193AE
:10059000F9EA687002EB6970E5750C00804A9062B8
:1005A000147490F0741012069C70027940750A0160
:1005B000750B00E50E780A121B918E828F83A3A320
:1005C000A393550A6004E9D2E0F9E9906215F0EAD4
:1005D000906213F074A9250EF58274053400F5833A
:1005E000E4F090620EF0050C850882850983A3A3D0
:1005F000A3A3E493F8E50CC39840030206977A009E
:10060000790512132E8A0A8B0BEA450B60D8EA246F
:1006100002F8EB3400F9E8FCE9FD8C828D83E49369
:10062000540FF50E90620EF079008A828B83A3A39B
:10063000A3A3E4932407F510A3E4933400F5117405
:10064000037810121BB7AA108C828D8393A2E74007
:100650000302059E9062117448F0740812069C70A3
:10066000027940750A01750B00E50E780A121B919C
:100670008E828F83A3A393550A6004E9D2E0F9E93F
:10068000906212F0EA906210F0850E0A74A4250AB6
:10069000F58274050205DC7F0A021A26F0850A82BB
:1006A0008B83A3A3A3E4935403640122E0F8A3E0A3
:1006B000F922C082C0831207A37010A31207A6708C
:1006C0000AA3E064017002A3E060079005A474042B
:1006D000800C9005B1749EF0A374051207F8F00227
:1006E000036574F61217BA90059DE06402601490D9
:1006F00005BA1207A6700CA31207A670069005B9DA
:10070000E060099005A47404F00207917A00790171
:100710001217B89005B8E060637A00F91213BE8A28
:10072000088B09AE08AF09EE4F604990059D74042F
:10073000F09005B8E090059EF0750A008E828F83D8
:10074000A3A3A3A3E493F8E50AC398503D850A0840
:10075000120796E4F07A00790412132E8A828B83B2
:10076000A3A3A3E493F8120796E06870E812055E6D
:10077000050A80C89005A47404F0800E90059EF0D0
:1007800090059D7403F0F9120F5E7A00790212173A
:10079000B87F03021A26749F2508F5827405340079
:1007A000F583229005B8E0F8A3E0F9E8492274F651
:1007B0001217BA90059DE0640470199005B6E064C4
:1007C0008170111207A3700C9005BCE064017002E7
:1007D000A3E060079005A47404801A9005BAE02491
:1007E0009FF508A3E03405F5099005B1E508F0A3ED
:1007F000E5091207F8F08099F0A3E4F0A3041208C9
:100800000222F0A3E4F09005A4042274F71217BAB0
:1008100090059DE0640470109005B6E064017008D6
:100820009005BC1207A660089005A47404F08052DD
:100830009005B8E0FB9005BAE0FA90059EE0F91249
:1008400013F68A088B09AE08AF09EE4F60DA9005FF
:10085000BAE0FA79031217B89005B8E0C0E0900545
:10086000BAE0249FF8A3E03405F988828983D0E0B8
:10087000F0EEFAEFFB12055E9005BAE0FA79041289
:1008800017B802021274F81217BA74FF121B517EC5
:10089000008033900384E0F8851882851983E0682E
:1008A000700D900382E0644D7005120AD2E9FE904B
:1008B0000385E4F0900387F0851882851983E0F8BA
:1008C000900384E068F07901851882851983AA82F3
:1008D000AB831210D5E97003020983E0C0E09003F6
:1008E00087E0F8900385E0FAE82AF8E43400120C77
:1008F00086D0E0F0900387E0601114602014603E21
:1009000014604E14606414608A80AD851882851965
:1009100083E064FE70A29003877401809A90038440
:10092000E4F0851882851983E0900386F0C39480F3
:100930009003874004E40208B774020208B78518E0
:1009400082851983E0900382F09003877403020884
:10095000B7851882851983E0900383F0900386E0C1
:10096000601990038774040208B7900385E004F0CF
:10097000F8900386E06860030208B8900387740566
:100980000208B7EEF97401121B087F01021A2674DF
:10099000ED1217BA74FB121B517508047509007823
:1009A00008121B6B7402121C09120C73121B0885AF
:1009B0001882E0F47003A3E0F4600F8518828519B3
:1009C00083E0F8A3E0F9E8497003020AC674021252
:1009D0001C09E0687003A3E0697003020AA07508AF
:1009E000009005C07810121BD5800A9005C47810BD
:1009F000121B7C604A750A01750B00780A121B6B8A
:100A00007406121C09AC82AD8385100A85110BAAED
:100A10000AE50B5407FB8A0C85110D85120E851310
:100A20000F740B780C121B22A90C120C7D121B08E0
:100A3000E0F9AA08AB09120C928A088B0980089089
:100A400005C87810121BD59005CC7810121BA49005
:100A500005D07810121AB45092E4F9120C92E4F90D
:100A6000120C927402121C09EAF0A3EBF075080153
:100A70007509007808121B6B7402121C09AC82AD58
:100A8000837A247B081215D47402121B087508049B
:100A90007808121B6B7402121C09120C73121B08CB
:100AA000120C65121C09E0687003A3E069701785D9
:100AB0001882851983E0F47003A3E0F46008E84924
:100AC00060047901800279007405121B087F0C0212
:100AD0001A2674F31217BA74FC121B51900306E025
:100AE000FAA3E0F9EA2400F8F508E93408F50975F5
:100AF0000A017F007E00900383E014600C146040C4
:100B0000147003020B99020C16E5095401F9E84927
:100B10007011880C85090D7409780C121BB7A90C8B
:100B2000121638750C108E0D780C121B6B7C087D1C
:100B300003AA08AB091215D47402121B08020C1682
:100B4000880C85090D7409780C121BB7E50CC39449
:100B50007940040F020C16750A408E0B780A121B9E
:100B60006B7C097D03EAF50AE5095401F50B740273
:100B7000780A121B91AA0AAB0B74097808121BB7EA
:100B8000A908120C7D121B08900307E0A3F0900344
:100B900006E0A3F0750A43807D7508048E09780885
:100BA000121B6B7402121C09120C73121B087402C4
:100BB000121C09E0F8A3E0F9851882851983E06822
:100BC0007003A3E069603B120C65121C09E8F0A3F6
:100BD000E9F07508017808121B6B7402121C09AC4D
:100BE00082AD837A247B081215D47402121B087517
:100BF00008047808121B6B7402121C09120C731281
:100C00001B08120C65121C09E0687003A3E06970F0
:100C1000030E80027F07900305E0D2E7F0EFA3F018
:100C2000E50A900303F0744D650AF5087404250A7B
:100C3000FB7A038007120C83E062080AEAC39BA2D6
:100C4000D265D033EAF840ED120C83E508F0740168
:100C50002AF97A027B03121115EEF97404121B08AB
:100C60007F06021A26851882851983E0F8A3E0F929
:100C7000740222AC82AD837A907B00790412154F06
:100C80007402223395E0F9740228F582740339F571
:100C90008322C008C0097C088A088B09740F780871
:100CA000121BB7EAC333FAEB33FBE9A2E750047433
:100CB000014AFAE508A2E0500874216AFA74106B40
:100CC000FBE9C333F91CEC70CFD009D00822C082F5
:100CD000C0837A0079011213BE8A828B83A3A3A3F7
:100CE000A3A3A3A3E493A2E69005B05004740180EB
:100CF00001E4F09005AFE4F090620F7403F0E0A21D
:100D0000E750FB90620BE0D2E1F0D083D08222C0AA
:100D100082C08390059D7402F0A3E4F09005A4F0D6
:100D20007903120F5E75210075220080DD74F612C2
:100D300017BA90620EE0FEE4F0906211E0F50AA2AC
:100D4000E4501D7480F09005A47407F0E52145225D
:100D50006009852182852283121C1B9005A4E4F082
:100D6000E50AA2E2500B906211E4F09005A4F08035
:100D7000769005A4E064027057906216E0FF90053B
:100D8000B1121A66EFF97A207B62120F9674031281
:100D90001B088F089005B4120F33120F3EE0F8A322
:100DA000E0F9E8496004744080027448906211F0F0
:100DB000E8497014E5214522600985218285228356
:100DC000121C1B9005A4E4F0EE90620EF0020FDC02
:100DD000E064067009852182852283121C1B900520
:100DE000A4E06003020ECDE50AA2E050DB7508B670
:100DF000750905750A007808121B6779087A207B47
:100E000062120F967403121B087521007522009060
:100E100005B6E054E0601C24E07003020EA724E055
:100E2000606F24C0604524E07003020EB224E060CD
:100E30006B8030A3E014601C24FE601324FE600A63
:100E400024FC601524FE60168019120320806C12A9
:100E50000314806712030880621206E2805D1208A4
:100E60000B80589005A47404F08058A3E0600E2411
:100E7000FA600F24FE601024FE601180E61201501B
:100E8000803912036A80341206B2802F1207AE80B6
:100E90002A7521A37522171217A3801F7521A57526
:100EA00022171217A58014752140752217121740BA
:100EB000800975216E75221712176E9005A4E064E3
:100EC000047004746080027440906211F09005A474
:100ED000E06401704A750A029005B4C3E09420A34F
:100EE000E09400500A9005B4E0FF750A0A80027F82
:100EF000209005B1121A66EFF97A207B62120FBAC0
:100F00007403121B088F08120F3E120F33E50A906C
:100F10006211F0EFC394204003020DC8020DB4E04B
:100F200064056003020DC8852182852283121C1B83
:100F3000020DC8C3E09508F0A3E09400F0229005EC
:100F4000B1E0F9A3E0FAA3E0FBE92508F9EA3400EF
:100F5000FA9005B1E9F0A3EAF0A3EBF0A32274F74D
:100F60001217BA7800880874A52508F5827405124E
:100F70000F8A40F17800880874AA2508F582740564
:100F8000120F8A40F17F02021A263400F583E9F03D
:100F900008E8C394052274F61217BAEAFCEBFDE9DF
:100FA000F8740A121C09120FEC600D8C828D83E01C
:100FB000121B3B120FE170F3802274F61217BAEA8B
:100FC000FCEBFDE9F8740A121C09120FEC600D121B
:100FD0001AEE8C828D83F0120FE170F37F03021AF8
:100FE00026E9240109EA3400FA18E822E0F508A30A
:100FF000E0F509A3E0A908AA09FBE822C082C083A2
:10100000A823E8540460097823E654FBF6120D0F78
:10101000A823E8541060097823E654EFF6120D2D4A
:10102000A823E8A2E05005782354FCF690620EE075
:10103000FA7404F0906214E0A2E05042E5A8F8C20D
:10104000AF906216E0F9A3E0E9FBE8A2E792AF8077
:101050001F906228E0C0E0900391E0F8749228F5B8
:101060008274033400F583D0E0F0900391E004F043
:10107000EBFC74FF2C1B0470D8906214E4F0EA902F
:10108000620EF0E0FD7404F0906211E0A2E0403BDB
:10109000900493E0F8900492E068602F7A40900406
:1010A00092E0F8749428F58274043400F583E0909B
:1010B0006228F0900492E004F008900493E06860E5
:1010C000041AEA70D99062117401F0ED90620EF08A
:1010D000D083D0822274F81217BAE9FE7900801FFB
:1010E000900390E0FC74922CF58274033400F58335
:1010F000E08A828B83F0900390E0041211480990FB
:101100000390E0F8900391E0686005E9C39E40D049
:101110007F01021A26C082C08380228A828B83E0EC
:10112000C0E0900493E0FC74942CF58274043400C5
:10113000F583D0E0121148900493E004F0E9F874CC
:10114000FF28190470D58088F08A828B83A3AA8235
:10115000AB832212120112098FE9603112127AE96F
:10116000602B75AC00759A0053F4FEC29043FE01EB
:1011700090620FE4F0E0A2E740FB90000174CDF034
:10118000022000C2AF75C9AB75C95B80FE9005D463
:10119000780C121BD5794E1211EBD2AF850D099048
:1011A00005CC780C121BA4E5095440600AA28050BB
:1011B00004C2808002D280120FFC120885E960DC34
:1011C000C280D2919005D87808121BD5120FFC90DE
:1011D00005DC7808121BA4E5084509450A450B7093
:1011E000EBC2AF75C9AB75C95B80FE781075B60FE1
:1011F000E5B4A2E750FAE5BBC39940F118E870EDF9
:1012000022C082C08353BEFBE59DA2E650FA00785F
:10121000F8790100E824FF18E934FFF9E84970F390
:1012200075C6807480659E70FA43BE0490627074C7
:1012300008F0D28043FD01C29143FE02794A1211A7
:10124000EB90000174F5F07403F5D575D488900522
:10125000E0121BFD900594121BF1900598E4F0A399
:10126000F0A37408F0120CCE7AFF7BFF12164F53D6
:10127000F4FED29043FE010210D074F11217BA743A
:10128000FF121B519005E4780C121BD57E00D2AFE3
:101290008004C291C280120FFC79018518828519E1
:1012A00083AA82AB831210D5E96012E064F860343F
:1012B000E0640770089005D4780C121BD5A29250F8
:1012C00023A293501E850C08850D09850E0A850FF3
:1012D0000B9005DC780C121BA4E5084509450A456E
:1012E0000B70130EC2AFD280C291EEF97401121BC3
:1012F000087F08021A26850D09E50954207093D24B
:1013000080D2918091C0E074F2121820900001E028
:1013100064CD7005122033800BE064F57005121661
:101320009A8001007F010218DCD083D08222C08223
:10133000C083E9FCEAFD7A007B00800790059CE011
:1013400012138190059BE0F8A3E0F9900678E0681D
:101350007003A3E069601C1213756C700D90059BFF
:10136000E0FAA3E0FB12138180091213756D70CCB3
:10137000ED60C980B490059CE0F5838882A3E49376
:1013800022F5838882E493F890059BE028F8A3E097
:101390003400F990059BE8F0A3E9F022C082C083F5
:1013A0001213AD7A00790112132E021329900676DA
:1013B000E0F8A3E0F990059BE8F0A3E9F02274F7C8
:1013C0001217BAE9FEEAFF1213AD7A00790212137E
:1013D0002EEA4B601CEE60108A828B83A3A3A3A32A
:1013E000A3E4936E70E48009EFF874FF281F047083
:1013F000D97F02021A2674F51217BAEAFF8B087A0F
:10140000001213BE7A02790412132EEA4B60188A76
:10141000828B83A3A3E4936F70EA8A828B83A3A356
:10142000A3E493650870DD7F04021A2674F712178F
:10143000BA74F0121B51E97A007B00600C14601042
:101440001460141460180215377AF07B0502153702
:101450007AF47B050215377A187B06021537900659
:101460003CE060030215337408121C09AC82AD83A2
:101470007583057582E87408121A93750808F509D2
:101480007808121B6B7402121C09AC82AD837AE8D7
:101490007B07797F12154F7402121B087808121B04
:1014A0006B740A121C09AC82AD837402121C09AA67
:1014B00082AB831219347402121B088B09EA4509A6
:1014C000701D7509007808121B6B7C0C7D78740206
:1014D000121C09AA82AB831219E07402121B087C49
:1014E000287D008D08851882851983E5822508F5F9
:1014F00082E5833400F583E0FF8C08743C2508F80E
:1015000074063400F9EF12153F88828983F0EFC426
:1015100012153FC0E0E824FEF582E934FFF583D0E0
:10152000E0F00D74FC2CFCEDC3940840B690063C32
:10153000742AF07A3C7B067410121B080213F154D3
:101540000FFA74662AF58274063400F583E022747B
:10155000F51217BA8908740B121C09E0FEA3E0FF0C
:10156000740F5508F50A750B00740B780A121B915D
:10157000EA2400F8EB3480F9E82400E9350BF9E5BA
:10158000C7F509A2AFE433F50AC2AFE508C4540FAA
:10159000FAE5C754F84AF5C7801C88828983E08C35
:1015A000828D83F088828983A3A882A9838C828D0F
:1015B00083A3AC82AD83EEFAEFFBEA24FF1EEB348B
:1015C000FFFFEA4B70D48509C7E50AA2E092AF7F1E
:1015D00004021A2674F71217BA7409121C09E0F5EE
:1015E00008A3E0F509ED900388F0ECA3F0A3746282
:1015F000F0A37473F0A3E0541FF0E508333354FCF8
:10160000A3F074067808121BB7E50890038CF090DD
:10161000038E7412F0A37442F075D1FE75D601EA00
:10162000906271F0EBA3F0906270E0D2E1F0E0A282
:10163000E740FB7F02021A26C082C083E9C33390D1
:101640006272F0906270E0D2E0F0D083D0822274B7
:10165000F71217BA7523007524007525008A268BAA
:1016600027EA90620BF08A088B0974047808121B31
:10167000B7E508906207F08A088B097409780812A8
:101680001BB7E508543E906209F0758B00C2E84331
:10169000AC20439A027F02021A2674F71217BAE5A9
:1016A0009DA2E650FA906206E0FAA2E25035A82622
:1016B000E890620BF0F50885270974047808121B7E
:1016C000B7E508906207F085260885270974097830
:1016D00008121BB7E508543E906209F0906201E0E1
:1016E000D2E0F07823EA46F6906202E0F508750948
:1016F0000074047808121B917823E50846F608E583
:101700000946F6906204E0F5087509007409780846
:10171000121B917824E50946F6EAA2E050037525EC
:101720000174065A6003752500E58BA2E550067525
:101730008BDF7525001217B9758B00C2E80216956C
:10174000C082C0839005B7E06422700A9005A4E0CF
:10175000701A74028015E064209005A4700BE0708C
:101760000B1217959005A480E97404F08043C082A1
:10177000C0839005B7E064219005A47013E0701356
:10178000121795A37407F0A3E4F09005A404800257
:101790007404F0801C9005B17494F0A37405F0A358
:1017A000E4F02280028000C082C0839005A474040B
:1017B000F0D083D0822280EF22222518C582C0E09B
:1017C000E51934FFC583C0E0E518C3958224F910FC
:1017D000AF0885831985821880088583198582184A
:1017E000D2AFCEF0A3E520F0A37808E608F0A3DEA0
:1017F000FAEFF0A3E58124FBF8E608F0A3E608F091
:10180000A30808E608F0A3E608F0A315811581D027
:10181000E0FED0E0F815811581E8C0E0EEC0E022DE
:10182000C0D02518C582C0E0E51934FFC583C0E0EB
:10183000E518C3958224F310AF08858319858218B3
:101840008008858319858218D2AFC8F0A3E9F0A378
:10185000EAF0A3EBF0A37908E709F0A3D8FAECF0DB
:10186000A3EDF0A3EEF0A3EFF0A3D0E0F0A3D0E05F
:10187000F0A3D0E0F0A3E520F0A3E5F0F0A322125E
:10188000010002020000205104A816090001020311
:10189000010902430002010080190904000001024D
:1018A00002010005240010010424020205240600A0
:1018B00001052401000107058203400040090401DD
:1018C00000020A000000070584024000000705042A
:1018D000024000009A180000BD1800008519838599
:1018E0001882E0C0E0A3E0F9A3E0FAA3E0FBA3784C
:1018F00008E0F608A3DFFAE0FCA3E0FDA3E0FEA306
:10190000E0FFA3E0C0E0A3E0C0E0A3E0F5D0A3E0E7
:10191000F520A3E0A3F5F010AF08858319858218A0
:101920008008858319858218D2AFD082D083D0E019
:10193000F8D0E03274F81217BA7408121C09E0F8F3
:10194000A3E08015A3AA82AB838C828D83A3AC8293
:10195000AD83E824FF18E934FFF9E84960238A825F
:101960008B83E0FE8C828D83E06E8A828B8360D4D1
:10197000E0F88C828D83E0FAE8C39AFA95E0FB8068
:10198000047A007B007F01021A26121C18B900039A
:101990000219DAE479217807B800028004F709D83F
:1019A000FCE490030278BF79038002F0A3D8FCD94D
:1019B000FA9005C0AA82AB8390008E78C37901802B
:1019C00015E493A3AC82AD838A828B83F0A3AA82B1
:1019D000AB838C828D83D8E9D9E7121153121C1383
:1019E00074F71217BA7409121C09E0FEA3E0FFEAAB
:1019F000F8EBF980188C828D83E088828983F0A3CC
:101A0000A882A9838C828D83A3AC82AD838E088F3C
:101A100009E50824FF1EE50934FFFFE508450970C4
:101A2000D47F02021A26851983851882E0A3FEE07E
:101A3000A3F5207808E0A3F608DFFAE0A3FFE0A30F
:101A4000C0E0E0A3C0E0E0A3C0E0E0A3C0E010AFCE
:101A5000088582188583198008858218858319D2A4
:101A6000AFD083D0822274038000CCC0E0EDC0E010
:101A7000E518C39CCCAD1950011D10AF068C188D14
:101A80001980068C188D19D2AF121A93D0E0FDD0B0
:101A9000E0FC22CAC0E0E0A3C582CCC582C583CDEC
:101AA000C583F0A3C582CCC582C583CDC583DAE6E4
:101AB000D0E0CA22C008C3E096F50808A3E0964229
:101AC0000808A3E096420808A3E09645087001D3F1
:101AD000D008222518F58210AF08F5184002151914
:101AE0008008F51840021519D2AF85198322BB0171
:101AF00002E722C082C08389828A83BB0003E08020
:101B000002E493D083D08222C0D0251810AF08F50C
:101B100018500205198008F51850020519D2AFD0E7
:101B2000D0226016080808C6C313C618C613C61804
:101B3000C613C618C613C6D5E0EA22BB000EC08283
:101B4000C0838A838982F0D083D08222BB0101F7CF
:101B500022251810AF08F518400215198008F5184D
:101B600040021519D2AF227403800474028000C0B1
:101B7000E0F404121AD3D0E0121BE422E0667010E5
:101B800008A3E066700A08A3E066700408A3E06694
:101B900022700422600D18C6C333C608C633C6D5EA
:101BA000E0F41822E026F608A3E036F608A3E036B3
:101BB000F608A3E036F622600C08C6C313C618C6A2
:101BC00013C6D5E0F42275D00075814075180275F2
:101BD000190302198AE0F608A3E0F608A3E0F60864
:101BE000A3E0F622CAC0E0E6F0A308DAFAD0E0FAF1
:101BF00022EAF0A3EBF0A3ECF0A3EDF022E0FAA3CD
:101C0000E0FBA3E0FCA3E0FD222518F582E43519F2
:101C1000F5832200000080FB790122E473FFFFFFBF
:101C2000FFFFFFFFFFFFFFFFFFFFFFFFFFFFFFFFC4
:101C3000FFFFFFFFFFFFFFFFFFFFFFFFFFFFFFFFB4
:101C4000FFFFFFFFFFFFFFFFFFFFFFFFFFFFFFFFA4
:101C5000FFFFFFFFFFFFFFFFFFFFFFFFFFFFFFFF94
:10200000022C1002221CFFFFFFFFFFFFFFFFFFFF5C
:10201000FFFFFFFFFFFFFFFFFFFFFFFFFFFFFFFFD0
:10202000FFFFFFFFFFFFFFFFFFFFFF0229B4FFFFDE
:10203000FFFFFF02223FFFFFFFFFFFFFFFFFFFFF4A
:10204000FFFFFFFFFFFFFFFFFFFFFFFFFFFFFFFFA0
:10205000FFFFFF02214AFFFFFFFFFFFFFFFFFFFF20
:10206000FFFFFFFFFFFFFFFFFFFFFF0228CEFFFF85
:10207000FFFFFFFFFFFFFFFFFFFFFF022795FFFFAF
:10208000FFFFFF0221B101FFFFFFFFFFFFFFFFFF87
:10209000102010200101FF01010503010F10FEFFB8
:1020A00092369236923692363C3536359236BB4A67
:1020B000000000001D4B000000000C0000000C00A0
:1020C0000100002C39000000007E38463AC638BCBA
:1020D000390000B4380000FF0101001607000000BD
:1020E000E8038E07E80364006400B80102020008F8
:1020F00000000502070101051E02051E020A0A036F
:10210000B80B02803E010201FFFF0A01E002020655
:10211000FFFF00035F005F00300058000000000078
:1021200000000000000000000000000000000000AF
:10213000000000000000000000000000B7250C2691
:102140000C260C260C261426E803C0E074F2122597
:1021500058A2AFE433FED2AFE5A7FFE5A1F5085FD3
:10216000541060061242BC75A1EFE5085F54086088
:10217000081242C275A1F7802BEFA2E0C0D0E5089B
:10218000A2E092F0122B4D158182F05017906198C9
:10219000E0F8900A8DE0C398A2D265D0335002E8EF
:1021A000F075A1FE751A00EEA2E092AF7F01022643
:1021B00014C0E074F2122558A2AFE433FED2AF90FF
:1021C00061A4E0F8759B00E591585408600875918A
:1021D000F7124304802AE59158541060087591EF76
:1021E00012430A801BE8A2E0C0D0E591A2E092F081
:1021F000122B4D158182F05007E0C2E0F012445AD4
:102200009061A3E0F8E5E9585404600E124430757B
:10221000E9FB906193E0A2E640F28088C0E074F2AE
:10222000122558A2AFE433FED2AF9061A5E0F8E5E5
:10223000BF585404600675BFFB1244720221A4C04B
:10224000E074F1122558E59DA2E650FA906206E08E
:10225000FAA2E25035A82CE890620BF0F508852D23
:102260000974047808122C2FE508906207F0852C79
:1022700008852D0974097808122C2FE508543E9022
:102280006209F0906201E0D2E0F07829EA46F69027
:102290006202E0F50875090074047808122B2778AB
:1022A00029E50846F608E50946F6906204E0F508D7
:1022B00075090074097808122B27782AE50946F673
:1022C000EAA2E05003752B0174065A6003752B00D7
:1022D000E58BA2E55006758BDF752B00124616754F
:1022E0008B00C2E87F02022614C3E498F8E499F94F
:1022F00012232A8026C3E49AFAE49BFBE920E7E94B
:1023000012232AE498F8E499F922C3E498F8E499AE
:10231000F912232AE498F8E499F9C3E49AFAE49BC1
:10232000FB22EB20E7CFE920E7E0B90010BB000873
:10233000E88AF084F8AAF022E4FBC8FA22EB7022C3
:102340007B10C833C8C933C9335007C39AC3DBF203
:1023500080069A50012ADBEAC833F4C8C933F4C9AD
:10236000FA2275F008E4C833C8C933C933C99AC919
:102370009B5004C92AC93BD5F0ECFBC833F4C8E430
:10238000C9FA22080808EAC0E0EBC0E086F0E7A43A
:10239000FA180986F0E7A42AFA180986F0E7A42AB1
:1023A000FA180986F0E7A42AFA1986F0E7A4FBE5F3
:1023B000F02AFA190886F0E7A42BFBE5F03AFA199F
:1023C0000886F0E7A42BFBE5F03AFA18180986F026
:1023D000E7A4C5F02BFBE43AFA1908E7C5F0C6A458
:1023E00026F6E5F03BFBE43AFA1886F0E7A4F6E5BA
:1023F000F00826F6E43B08F6E43A08F6D0E0FBD015
:10240000E0FA22122C72B90003022466E4792178E2
:102410000DB800028004F709D8FCE49004D17815C7
:10242000790D8002F0A3D8FCD9FA781A9020867A28
:1024300001BA00028007E493A3F608DAF99010E5E8
:10244000AA82AB8390209478B779018015E493A396
:10245000AC82AD838A828B83F0A3AA82AB838C8209
:102460008D83D8E9D9E77582997583B974051229E6
:10247000967582287583497400122996E4CFC0E0CE
:10248000E4CEC0E0E4CDC0E0E4CCC0E075F020C311
:10249000E633F608E633F608E633F608E633F618D0
:1024A0001818EC33FCED33FDEE33FEEF33FFC3ECD5
:1024B0009709ED9709EE9709EF97191919400FFF42
:1024C000EC97FC09ED97FD09EE97FE191906D5F07A
:1024D000BEECF709EDF709EEF709EFF7191919D076
:1024E000E0FCD0E0FDD0E0FED0E0FF222518C58260
:1024F000C0E0E51934FFC583C0E0E518C395822428
:10250000F810AF088583198582188008858319859E
:102510008218D2AFCEF0A3E520F0A37808E608F049
:10252000A3DEFAEFF0A3E58124FAF8E608F0A3E6CB
:1025300008F0A3E608F0A30808E608F0A3E608F010
:10254000A315811581D0E0FED0E0F8158115811525
:1025500081E8C0E0EEC0E022C0D02518C582C0E00E
:10256000E51934FFC583C0E0E518C3958224F31054
:10257000AF0885831985821880088583198582189C
:10258000D2AFC8F0A3E9F0A3EAF0A3EBF0A3790877
:10259000E709F0A3D8FAECF0A3EDF0A3EEF0A3EF77
:1025A000F0A3D0E0F0A3D0E0F0A3D0E0F0A3E520CA
:1025B000F0A3E5F0F0A32212010002020000205176
:1025C00004A81609000102030109024300020100E8
:1025D0008019090400000102020100052400100115
:1025E0000424020205240600010524010001070558
:1025F000820340004009040100020A0000000705B0
:10260000840240000007050402400000D2250000BB
:10261000F5250000851983851882E0C0E0A3E0F964
:10262000A3E0FAA3E0FBA37808E0F608A3DFFAE052
:10263000FCA3E0FDA3E0FEA3E0FFA3E0C0E0A3E075
:10264000C0E0A3E0F5D0A3E0F520A3E0A3F5F010EF
:10265000AF088583198582188008858319858218BB
:10266000D2AFD082D083D0E0F8D0E03275F0108EB7
:10267000218F22858226858325851882851983E00E
:10268000CEA3E0CF852682852583EBC9EAC8EDCBB2
:10269000ECCAC3E833C8E933C9EA33CAEB33CBC366
:1026A000EA9EF524EB9FF523B35004AB23AA24EC58
:1026B00033CCED33CDD5F0DAAE21AF2222D083D0AA
:1026C00082ECC0E0EDC0E0E493A3FCE493A3FDED55
:1026D0004C600D1227D8EC24FFFCED34FFFD80EF99
:1026E000E493A3FCE493A3FDED4C600D122879EC78
:1026F00024FFFCED34FFFD80EFD0E0FDD0E0FCE4F2
:1027000093A3C0E0E493C0E022D083D082E9C0E08C
:10271000E493A3C386F0C5F095F0F908E493A3868B
:10272000F0C5F095F0700BE493A3C3994005E9045C
:102730008002A3E475F002A42582F582E5F03583DA
:10274000F583D0E0F9E493A3C0E0E493C0E02285F0
:102750001983851882E0A3FEE0A3F5207808E0A3A2
:10276000F608DFFAE0A3FFE0A3C0E0E0A3C0E0E0EA
:10277000A3C0E0E0A3C0E0E0A3C0E010AF08858202
:10278000188583198008858218858319D2AFD08374
:10279000D08202299CC0E074F2122558A2AFE43323
:1027A000FED2AFE58AA2E2500790084DE0D2E0F0F9
:1027B000E58AA2E3500790084DE0D2E1F0758A0067
:1027C000C2EB7A017B00900849E0F9123B96EEA239
:1027D000E092AF7F01022614C0E0C3E49396087430
:1027E00001939618400FE49366700808740193668D
:1027F0001870007019A3A3C3E4939608740193960C
:1028000018A3A3400DD0E0D0E0D0E00226F9A3A3A6
:10281000A3A3A3A3D0E022740480087403800474EB
:10282000028000CCC0E0EDC0E0E518C39CCCAD193F
:1028300050011D10AF068C188D1980068C188D194B
:10284000D2AF122918D0E0FDD0E0FC227402800043
:10285000CCC0E0EDC0E0E518C39CCCAD1950011D23
:1028600010AF068C188D1980068C188D19D2AF12F6
:1028700028F6D0E0FDD0E0FC22C0E0C0F088F0E413
:10288000936670080874019366187000A8F0A3A3FB
:10289000700BD0F0D0E0D0E0D0E00226F9A3A3D0B6
:1028A000F0D0E022D083D082CCC0E0E493A36006D5
:1028B0001229391470FAE493A36006122A81147065
:1028C000FAD0E0FCE493A3C0E0E493C0E022C0E0CF
:1028D00074F2122558758900C2C59010DDE0700EA3
:1028E0007A007B10900692E0F9123B968003124723
:1028F000AE7F01022614CAC0E0E493A3C582CCC512
:1029000082C583CDC583F0A3C582CCC582C583CDE6
:10291000C583DAE5D0E0CA22CAC0E0E0A3C582CC14
:10292000C582C583CDC583F0A3C582CCC582C583CE
:10293000CDC583DAE6D0E0CA22C0E0E493A3D39CFD
:102940005010E493A3C39C400AD0E0D0E0D0E00252
:1029500028C1A3A3A3D0E0227009080808226016AA
:10296000181818C6C333C608C633C608C633C60807
:10297000C633C6D5E0EA22C008C3E096F50808A32E
:10298000E096420808A3E096420808A3E0964508AE
:102990007001D3D00822C09FF59FE473D09F22D04E
:1029A00083D082C09FE493C0E0740193C0E07402BE
:1029B00093F59F22C0E0C0D0E8C0E0E5A8D2AFC246
:1029C000C7751A00A2E792AFD0E0F8D0D0D0E032BD
:1029D0002518F58210AF08F518400215198008F582
:1029E0001840021519D2AF851983227404800A7425
:1029F000038006740280027401C0E0F4041229D03E
:102A0000D0E0122C4D22BB0102E722C082C0838994
:102A1000828A83BB0003E08002E493D083D08222C9
:102A2000C0D0251810AF08F518500205198008F518
:102A30001850020519D2AFD0D0226016080808C677
:102A4000C313C618C613C618C613C618C613C6D5F0
:102A5000E0EA22C3E0C696F608A3E0C696F608A30D
:102A6000E0C696F608A3E0C696F622BB000EC0822A
:102A7000C0838A838982F0D083D08222BB0101F790
:102A800022C0E0E493A36C7009D0E0D0E0D0E00273
:102A900028C1A3A3D0E022251810AF08F5184002E2
:102AA00015198008F51840021519D2AF22E066709A
:102AB0001008A3E066700A08A3E066700408A3E0AB
:102AC0006622C3E09608A3E09608A3E09608A3E078
:102AD00096A2D265D03322E76670100809E76670C7
:102AE0000A0809E76670040809E76622C3E096F061
:102AF00008A3E096F008A3E096F008A3E096F02281
:102B0000C3E697F60809E697F60809E697F6080976
:102B1000E697F622E026F008A3E036F008A3E036B8
:102B2000F008A3E036F022700422600D18C6C3330B
:102B3000C608C633C6D5E0F41822E657F60809E6FB
:102B400057F60809E657F60809E657F622C0E0E806
:102B5000C0E0E58124FCF8E6A2E7D0E0F8D0E0226E
:102B6000E056F608A3E056F608A3E056F608A3E000
:102B700056F622E647F60809E647F60809E647F65C
:102B80000809E647F622E627F60809E637F60809B7
:102B9000E637F60809E637F622E026F608A3E0361F
:102BA000F608A3E036F608A3E036F622E056F00871
:102BB000A3E056F008A3E056F008A3E056F022E4A4
:102BC000C396F608E496F608E496F608E496F6222C
:102BD000C6F4C608C6F4C608C6F4C608C6F4C622BB
:102BE000600D08C6A2E713C618C613C6D5E0F322C7
:102BF000C3E7960809E7960809E7960809E79622C9
:102C0000C3E09608A3E09608A3E09608A3E0962206
:102C100075D0007581407518D17519040002240320
:102C2000E0F608A3E0F608A3E0F608A3E0F62260C9
:102C30000C08C6C313C618C613C6D5E0F422E6F0C6
:102C400008A3E6F008A3E6F008A3E6F022CAC0E075
:102C5000E6F0A308DAFAD0E0FA22E0FAA3E0FBA358
:102C6000E0FCA3E0FD22EAF0A3EBF0A3ECF0A3ED7F
:102C7000F022E5C754F84401F5C77901222518F57B
:102C800082E43519F58322C2AF75D69F0200002277
:102C900012299FD9A50312299F49A60312299FA291
:102CA000A60312299F1BA70312299F6EA9031229AD
:102CB0009F28AB0312299FD4AB0312299F1BAD039E
:102CC00012299FB9AF0312299FBFB20312299FCCCB
:102CD000B20312299F5AB30312299F0CB40312297D
:102CE0009F54B40312299FB4B40312299FD0B40394
:102CF00012299F04B50312299F39B50312299F1287
:102D0000B60312299FC7B60312299F1CB9031229C3
:102D10009F69BA0312299F0CBB0312299F99BB0319
:102D200012299F23BC0312299F62BC0312299FF71B
:102D3000BD0312299F2BBE0312299FA6BE03122991
:102D40009F80BF0312299F47C00312299F5FC003C2
:102D500012299FF6C00312299F67C30312299F7C83
:102D6000C50312299F9AC50312299FC1C5031229C1
:102D70009F00800212299F35800212299F5D8002E8
:102D800012299F96800212299FA8800212299FFA79
:102D9000800212299F5B810212299FE5810212297C
:102DA0009F89820212299FD1820212299F0B8302DE
:102DB00012299F28830212299F4D830212299F9F67
:102DC000830212299FB8830212299FDE83021229EF
:102DD0009F19840212299F5D840212299F84840214
:102DE00012299FD5840212299F85850212299F3DB1
:102DF000860212299F05870212299FC58702122980
:102E00009F09880212299F2E880212299F71880229
:102E100012299FBE880212299F348A0212299FBA62
:102E20008A0212299FD88A0212299F028B02122934
:102E30009F1C8B0212299F2B8B0212299F368B021B
:102E400012299FF68B0212299F4F8C0212299F1183
:102E50008D0212299F198D0212299F918D0212292C
:102E60009FE08D0212299F4D8E0212299F638E02D0
:102E700012299F588F0212299FEE8F0212299F5A02
:102E8000900212299F85910212299FAA910212296C
:102E90009FBB910212299F40920212299FCF92025A
:102EA00012299F27930212299FEB930212299F0A4E
:102EB000940212299F19950212299F37950212290F
:102EC0009F49950212299F9C950212299FAB95025A
:102ED00012299F33960212299F70960212299F7D14
:102EE000960212299FFB970212299F5A99021229D2
:102EF0009F73990212299FBC9A0212299F4E9B022E
:102F000012299F859C0212299FBE9C0212299F0AAA
:102F10009D0212299F1D9E0212299F41A002122983
:102F20009F4CA00212299F57A00212299F62A00263
:102F300012299F6CA00212299F77A00212299F914B
:102F4000A00212299F9BA00212299FA5A00212296C
:102F50009FB0A00212299FBBA00212299FE3A002EA
:102F600012299F3EA10212299F48A10212299F6C9B
:102F7000A10212299F90A10212299FEEA1021229FB
:102F80009F32A20212299F4EA20212299FC5A202BD
:102F900012299FFDA20212299F49A30212299FA66E
:102FA000A30212299F60A40212299F44A60212299B
:102FB0009F9DA60212299FCDA70212299FF3A70267
:102FC00012299F6DA90212299FF8AC0212299FCAEB
:102FD000AE0212299F93B00212299F40B10212291A
:102FE0009FB4B20212299F53B30212299FA0B302C9
:102FF00012299F0AB40212299F19B40212299F991B
:10300000B60212299FBEB70212299F52B902122995
:103010009FBFB90212299F9EBA0212299FC1BB020B
:1030200012299F29BD0212299F48BD0212299F9D86
:10303000BD0212299FA2BE0212299FCABE021229F6
:103040009F22BF0212299F01C00212299F45C00280
:1030500012299F90C00212299FFBC00212299F4093
:10306000C20212299FA4C20212299FF2C30212298E
:103070009F59C60212299F8AC60212299F42C8027E
:1030800012299F97C80212299FA9C90212299F4697
:10309000CA0212299F9FCA0212299F52CB021229EB
:1030A0009FF4CB0212299F94CC0212299F39CD02A2
:1030B00012299F31810112299F7A810112299FF2E1
:1030C000830112299F31840112299F7B84011229D7
:1030D0009FB9850112299F18860112299F4C8601EC
:1030E00012299F8A860112299FFE870112299FC1FA
:1030F0008A0112299FF48B0112299FA78C011229A2
:103100009F56950112299FEB950112299FD2980194
:1031100012299F019A0112299F629A0112299F7E0A
:103120009B0112299FC49C0112299FA39D01122972
:103130009F889F0112299F99A10112299FF1A10146
:1031400012299FC3A20112299F7AA30112299F84E9
:10315000A30112299FB2A30112299F6FA401122972
:103160009F46A50112299F0DA60112299FA8A6011D
:1031700012299F12A70112299F30A70112299F59D6
:10318000A70112299F7BA70112299FD1A90112290A
:103190009FA9AA0112299FEDAA0112299F55AB01EF
:1031A00012299F0DAC0112299F3FAC0112299F8368
:1031B000AC0112299FB9AC0112299F05AD0112295A
:1031C0009F5AAD0112299F5FAD0112299FB2AD0137
:1031D00012299FD7AD0112299FE7AE0112299F5FE7
:1031E000AF0112299FBBAF0112299F47B0011229DD
:1031F0009F35B30112299F19B40112299FB0B5015F
:1032000012299FE6B70112299F94B80112299F4401
:10321000B90112299F85BB0112299F28BC011229DF
:103220009F6FBC0112299F1BBE0112299F2FBE0157
:1032300012299F39BE0112299F61BE0112299F6D7B
:10324000BE0112299F8CBE0112299FD6C0011229EE
:103250009F0BC10112299F15C10112299F1FC10196
:1032600012299F7AC10112299FD6C10112299FEA12
:10327000C20112299F4BC30112299F9AC40112292E
:103280009FDEC40112299F86C50112299F69C601CC
:1032900012299F14C70112299F60C80112299F5E3D
:1032A000C90112299F04CA0112299F94CA01122937
:1032B0009FABCA0112299FE2CA0112299FECCA01E1
:1032C00012299FF6CA0112299F01CB0112299F1FC3
:1032D000CB0112299F63CB0112299FC0CB01122978
:1032E0009FE5CB0112299FFFCB0112299F91CC01B1
:1032F00012299FBBCD0112299F32CE0112299F199D
:10330000CF0112299F4FCF0112299FC3CF0112294C
:103310009F3ED00112299F42D10112299F38D2012C
:1033200012299FE7D20112299FFAD30112299F96F1
:10333000D40112299F18D50112299FF6D50112290F
:103340009F2ED60112299F86D60112299F4FD701A1
:1033500012299F70D70112299FF7D70112299F1BAD
:10336000D80112299F3DD80112299F86D801122920
:103370009F9CDA0112299F7FDB0112299F30DC011B
:1033800012299F66DE0112299FB6DE0112299FF6DF
:10339000DE0112299F38DF0112299F92DF011229D5
:1033A0009FC0DF0112299FE4DF0112299F37E0014E
:1033B00012299F65E00112299F9EE00112299FFDBD
:1033C000E00112299F6AE10112299FCFE20112292F
:1033D0009FF2E40112299F5BE50112299F84E50118
:1033E00012299F0FE60112299F7BE60112299FC631
:1033F000E60112299FEAE60112299F0EE701122930
:103400009F69E70112299F84E70112299F3DE80186
:1034100012299F77E80112299FE5DF0412299F1DD9
:10342000E00412299F3EE00412299F80E004122943
:103430009FE6E00412299FF0E00412299F00E104B6
:1034400012299F35E10412299F7EE40412299F2846
:10345000E60412299F28E80412299F5BC60312295B
:103460009FA1C60312299F81C70312299F83C80306
:1034700012299F86C90312299F12CB0312299F701C
:10348000CB0312299F2DCC0312299F4BCD03122968
:103490009FBCCD0312299FF8CD0312299F46CE036E
:1034A00012299F50CE0312299F94CE0312299FF018
:1034B000CE0312299F8BCF0312299F08D003122914
:1034C0009FD7D00312299F70D10312299F90D10357
:1034D00012299FC6D10312299FF7D10312299FB841
:1034E000D20312299FC8D20312299F1CD303122989
:1034F0009F37D30312299F49D30312299F52D30325
:1035000012299FACD30312299F08D40312299F5478
:10351000D40312299F6FD40312299FA0D403122928
:103520009FBDD40312299FC9D40312299F3DD603FE
:1035300012299F56D60312299FBDD60312299FD068
:10354000D60312299FDED60312299F92D703122990
:103550009F76D80312299F7CD90312299F06DA038C
:1035600012299F10DA0312299F7DDA0312299F94F2
:10357000DA0312299FC6DA0312299FFFDA03122900
:103580009F29DB0312299F8ADB0312299FAADB03F1
:1035900012299FC8DB0312299F0EDC0312299F34D6
:1035A000DD0312299F81DD0312299FB0DD0312295B
:1035B0009F26DE0312299F4EDE0312299F87DE031A
:1035C00012299F95DE0312299FEDDE0312299F3CED
:1035D000DF0312299F7BDF0312299FABDF03122930
:1035E0009FD7DF0312299FE2DF0312299F00E00328
:1035F00012299FC2E00312299FCCE00312299F07E2
:10360000E10312299F1DE10312299F26E1031229DC
:103610009F7BE10312299F8FE10312299F8CE20314
:1036200012299F9FE20312299FB6E20312299FCB22
:10363000E20312299F6DE30312299FF0E30312298D
:103640009FAEE40312299FB9E40312299FE5E50325
:1036500012299F01E60312299F53E60312299F9224
:10366000E60312299FA7E60312299F09E7031229FF
:103670009F98E70312299FE3E70312299F34EA0387
:1036800012299FB2EA0312299F27EB0312299F49AF
:10369000ED0312299F61ED0312299F64ED031229A6
:1036A0009F70ED0312299F84ED0312299F8CED0377
:1036B00012299FBFED0312299F6FEE0312299FE588
:1036C000EE0312299F58EF0312299F0CF0031229D1
:1036D0009FC1F00312299FE0F00312299F80F1039C
:1036E00012299F8CF10312299FB7F10312299FBA67
:1036F000F10312299FE9F10312299FFEF103122918
:103700009F68F20312299F90F30312299F68F40324
:1037100012299FF3F40312299F0CF60312299FC963
:10372000F60312299F02F70312299F33F703122988
:103730009FF1F70312299F21F80312299FFCF80338
:1037400012299F95F90312299F20FA0312299FD16C
:10375000FA0312299F54FB0312299F86FB031229A7
:103760009FC7FB0312299FFCFB0312299F35CB0443
:1037700012299F9ACB0412299FD2CB0412299F2190
:10378000CC0412299F43CE0412299F26D00412296B
:103790009FC5D30412299F63D40412299F98D4048F
:1037A00012299FBAD40412299F1FD50412299F55AC
:1037B000D50412299F7DD50412299FA0D504122972
:1037C0009FCDD50412299F20D60412299F6CD604C0
:1037D00012299F23BF0412299FA4BF0412299FDA34
:1037E000BF0412299F41C00412299FB4C1041229A9
:1037F0009FD0C10412299F15C20412299FA3C2049D
:1038000012299FFCC20412299F30C40412299FFE72
:10381000C40412299F76C50412299FF2C5041229F7
:103820009F34C60412299F75C60412299FA9C70494
:1038300012299FA7C80412299FD2C80412299F1DCC
:10384000C90412299F64C90412299FF6C9041229C8
:103850009FAFCA0412299F5BB10512299F6CB10565
:1038600012299FBDB10512299F02B20512299FB1ED
:10387000B20512299FEBB20512299FB9A50412299E
:103880009F4EA60412299FFCA60412299F87A70415
:1038900012299F67AA0412299F16AC0412299FCDF2
:1038A000AC0412299F22AD0412299F03B0041229EF
:1038B0009F9BB10412299F58DD0512299F80DD05C9
:1038C00012299F77DE0512299FC8940512299F4D62
:1038D000950512299F64950512299FD995051229EE
:1038E0009F39960512299F62960512299FDF96053A
:1038F00012299F7B970512299FE2970512299F4A5B
:10390000980512299F71980512299FAA98051229D6
:103910009FC8980512299FF1980512299F1F9905A4
:1039200012299F65990512299FCB990512299F5E3F
:10393000750012299F05760012299F25760012290D
:103940009F4C760012299F60760012299FB876005E
:1039500012299FE8760012299F69780012299F0F8B
:10396000790012299FF1790012299F427A001229C9
:103970009F857A0012299FC87A0012299F2E7B000A
:1039800012299F4F7B0012299FDB7B0012299F0386
:103990007C0012299F777C0012299F257E00122926
:1039A0009FFF7E0012299F597F0012299F48D4054E
:1039B00012299F52D40512299F73D40512299FE51D
:1039C000B20412299F47B50412299F82B604122916
:1039D0009F4FB80412299F9CB80412299F55B9041F
:1039E00012299F96B90412299FC6B90412299F5D16
:1039F000BA0412299FF7BA0412299F6ABB0412293C
:103A00009FE4BB0412299FE6BB0412299FE8BB0474
:103A100012299FEABB0412299F15BC0412299F6D2D
:103A2000A10312299F30BC0412299F7DBC041229D6
:103A30009FAEBC0412299F27BD0412299F3EBE04DD
:103A400012299F2DE70212299F4AE70212299F9C03
:103A5000E80212299FC7E80212299F38E9021229B9
:103A60009F5CE90212299F7CE90212299FC6E902A4
:103A700012299FF0E90212299F13EB0212299F4994
:103A8000EB0212299FB0A50312299FBAEB0212295B
:103A90009F64EC0212299F84EC0212299FD9ED0247
:103AA00012299F5BEE0212299F52EF0212299F22D8
:103AB000F00212299F92F00212299FE3F0021229CC
:103AC0009F15F10212299F77F10212299FE2F1025C
:103AD00012299F2CF20212299F62F30212299F974A
:103AE000F30212299FFEF30212299FC6F402122943
:103AF0009FEEF40212299F96F60212299F17F702F1
:103B000012299F4AF70212299F86F70212299F9FC6
:103B1000F70212299F2BF80212299FEFF8021229AF
:103B20009F99F90212299F3AFA0212299FD9FA02A3
:103B300012299F58FB0212299F8E8E0512299FDAA7
:103B40008E0512299F488F0512299F698F0512291A
:103B50009F808F0512299F30900512299F3990056B
:103B600012299F8C900512299FB5900512299F1C40
:103B7000910512299FAD910512299FEF91051229F8
:103B80009F39920512299F98920512299FC4920588
:103B900012299F55930512299F94930512299FD3AB
:103BA000930512299F08940512299F1A940512293A
:103BB0009F2C940512299F5F940512299F9F9405BD
:103BC00012299FE3A30512299FB6A40512299FD0AD
:103BD000A40512299FE1A40512299FF6A605122922
:103BE0009F15A70512299F8ED60512299FC4D605B9
:103BF00012299F0DD70512299F5DD80512299F0014
:103C0000800412299F3F810412299F7B810412297D
:103C10009F3A830412299F63830412299FF6850427
:103C200012299F3A860412299FC3870412299F5B99
:103C3000880412299FC3880412299F6489041229C9
:103C40009FA6890412299FE6890412299F718B047B
:103C500012299FE18C0412299F068F0412299F3498
:103C60008F0412299F5B8F0412299F648F041229ED
:103C70009FBF8F0412299F52900412299F709304B2
:103C800012299FF1930412299F9EEA0512299FB4DD
:103C9000EA0512299FBEEA0512299F0EEB0512299B
:103CA0009F5AFC0312299F6DFC0312299F0AFD03F2
:103CB00012299F46FD0312299F5DFD0312299F8251
:103CC000FD0312299FC4FD0312299FF5FD0312294C
:103CD0009F30FE0312299FAAFF0312299FEBFF03C7
:103CE00012299F6EE20512299FC3E20512299F1C2B
:103CF000E30512299F00EA0512299F42EA051229CD
:103D00009F84EA0512299F94EA0512299FC1E801C0
:103D100012299F19E90112299F9BE90112299F9EEF
:103D2000EA0112299F2CEB0112299FFEEB011229B7
:103D30009F13EC0112299F5DEC0112299FACEC014D
:103D400012299FF5EC0112299F08ED0112299F5DB0
:103D5000ED0112299FB6ED0112299FCAED0112292A
:103D60009FCAEF0112299FCBF00112299F06F10192
:103D700012299F4CF10112299F59F30112299FE941
:103D8000F30112299F76F40112299F85F40112296B
:103D90009F98F40112299FE7F40112299FFDF40175
:103DA00012299F14F50112299F43F50112299F54EE
:103DB000F50112299F74F50112299F7FF50112293F
:103DC0009F03F60112299F5DF60112299FB8F601A3
:103DD00012299FDDF70112299FFFF70112299F8DFC
:103DE000FA0112299FC2FA0112299F4DFB011229E3
:103DF0009FC5FB0112299FE8FB0112299F24FC01AA
:103E000012299F8CFC0112299F41FD0112299F75E7
:103E1000FD0112299F7FFD0112299F82FD011229B8
:103E20009F92FD0112299F0FFE0112299F37FE016B
:103E300012299F59FE0112299F85FE0112299FC058
:103E4000FE0112299FCFFE0112299FDAFE011229DD
:103E50009F1BFF0112299F2EFF0112299F55FF0171
:103E600012299FA2E50512299FB3E50512299F3B60
:103E7000E60512299F4A870512299F99870512296D
:103E80009F3B890512299FF78A0512299F3F8B05C1
:103E900012299F278C0512299F588D0512299F7A78
:103EA0008D0512299FD68D0512299F5A8E0512293C
:103EB0009F874E0012299FB54E0012299F00500087
:103EC00012299F47500012299F99500012299F15CF
:103ED000510012299F7E510012299FCA51001229B8
:103EE0009F4C520012299FF2520012299F7A5300D0
:103EF00012299FBC530012299FF9570012299F7C59
:103F0000590012299FBB590012299F0C5A001229EF
:103F10009F325D0012299FBD5D0012299F945F00B2
:103F200012299FD6600012299FF4610012299F6612
:103F3000620012299F32630012299F9863001229A0
:103F40009FAC630012299F60640012299F95650051
:103F500012299FD3670012299F536A0012299F08D4
:103F60006B0012299F246C0012299F7B6F0012297D
:103F70009F8B6F0012299FEC700012299F787100AF
:103F800012299FAA720012299F3C730012299F399F
:103F9000740012299FC6740012299F85CD02122930
:103FA0009F3BCE0212299FADCE0212299FBCCE02AA
:103FB00012299F36CF0212299FA5CF0212299FAC4A
:103FC000D00212299FD5D00212299F75D102122941
:103FD0009FC3D10212299F3AD20212299F2CD502E7
:103FE00012299F01D60212299F6ED60212299FEE36
:103FF000D70212299FA2D80212299F50D902122952
:104000009FABD90212299F16DA0212299F16DB02F2
:1040100012299FFEDB0212299F42DC0212299F6FA8
:10402000DC0212299F97DC0212299FCCDC021229A4
:104030009F55DD0212299FB3DE0212299F80E00204
:1040400012299F97E10212299FD4E20212299FE7C9
:10405000E30212299F80E40212299FF2E40212294E
:104060009FBAE50212299F4E940412299FD094040E
:1040700012299F5B950412299FF8950412299F1F0E
:10408000970412299F6B980412299F3599041229CD
:104090009F56990412299F84990412299FDF99043D
:1040A00012299F069A0412299FB79A0412299FCBBE
:1040B0009A0412299FE29A0412299F0C9B04122948
:1040C0009F269B0412299F469B0412299F6C9B04E8
:1040D00012299F839B0412299F669C0412299F0426
:1040E0009D0412299FDB9D0412299F339E041229EF
:1040F0009F589E0412299F839E0412299FA39E0409
:1041000012299FFF9E0412299F539F0412299F0F7B
:10411000A00412299F6AA10412299F44A204122913
:104120009F0FA30412299F68A30412299F80A30450
:1041300012299F72A40412299F08A50412299F38EE
:10414000C70512299F73C70512299F2DC80512297B
:104150009F93C80512299F04C90512299F98C90574
:1041600012299F18BA0512299F7ABB0512299F941C
:10417000E60512299FA5E60512299F45E7051229A4
:104180009FED7F0012299FE2FF0112299FBEE805E3
:1041900012299FCEE80512299FE6E80512299F53B0
:1041A000E90512299FA0E40512299F25E50512299A
:1041B0009F89E50512299F13E80512299F16E80536
:1041C00012299F4FE80512299FA0E80512299FB2E6
:1041D000E80512299FB5E80512299F2AFC02122939
:1041E0009F38FC0212299FB2FC0212299F8AFD020D
:1041F00012299F15FF0212299F7AFF0212299FDDC3
:10420000FF0212299FF87F0012299FC0D8051229AA
:104210009FDBD90512299F5FDA0512299F2ECA0557
:1042200012299FCCCA0512299F13CB0512299F562C
:10423000CB0512299F19CC0512299F4DCC051229B7
:104240009F7CCC0512299F8FCC0512299FA4CC05F9
:1042500012299FADCC0512299F829A0512299FD75A
:104260009A0512299FD39C0512299F059D051229A5
:104270009F279D0512299F409D0512299F599D0545
:1042800012299F639E0512299FFE9E0512299FFBFE
:10429000DB0512299F20DC0512299F30DC0512293D
:1042A0009F63DC0512299F94DC0512299FC2DC055F
:1042B00012299FD3DC0512299F35DD0512299F4461
:1042C000DD0512299F4EDD0512299FEFCC0512292D
:1042D0009F15CD0512299F52CD0512299F61CD054D
:1042E00012299F80CD0512299FE8CD0512299FF143
:1042F000CD0512299F50CE0512299F74CE05122993
:104300009F33CF0512299F40CF0512299F51CF051A
:1043100012299F7FEB0512299F9CEB0512299FF222
:10432000AC0512299F46AD0512299FA6AE0512299C
:104330009FB3AE0512299FC6AE0512299FE5AE05B3
:1043400012299FFBAE0512299F0FAF0512299F92DC
:10435000AF0512299FF5AF0512299F70B0051229EC
:104360009FDEB00512299F3CB10512299F4CB10573
:1043700012299F67E90512299F8BE90512299FB32E
:10438000E90512299FDBE90512299F7FCF05122934
:104390009FA6CF0512299FC7CF0512299F2CD005B4
:1043A00012299FE5D10512299FFED10512299F0AE6
:1043B000D20512299F1ED20512299F3CD20512292F
:1043C0009F46D20512299F50D20512299F63D2051C
:1043D00012299FB4D20512299FEDD20512299F1CE4
:1043E000D30512299F6AD30512299FB9D305122933
:1043F0009FD4D30512299FDED30512299FEFD30541
:1044000012299F35D40512299F85FF0112299FD6B5
:10441000FF0112299FA4D60412299FD0D604122985
:104420009FECD60412299FFFD60412299F15D704AA
:1044300012299F81D70412299FB4D70412299FE320
:10444000DB0412299F09DD0412299F3CDD04122997
:104450009F88DD0412299FC1DE0412299FE9DE0432
:1044600012299FFEDE0412299F0EDF0412299F529B
:10447000DF0412299FA7DF0412299FB7DF04122946
:104480009F3BE10512299F56E10512299F7FE10517
:1044900012299F99E10512299FBEE10512299FDD8E
:1044A000E10512299FF5E10512299F23E205122952
:1044B0009F3DE20512299F5FE70512299FA5E705A9
:1044C00012299F52BD0512299F59BD0512299F65CA
:1044D000BE0512299F95BE0512299FBBBE05122954
:1044E0009FDEBE0512299F00BF0512299F3ABF0516
:1044F00012299FA0BF0512299FD9BF0512299F2508
:10450000C00512299F52C00512299F72C0051229A9
:104510009FA8DE0512299FCADE0512299FF1DF053B
:1045200012299FF4DF0512299F8DE30512299FFFB1
:10453000E30512299F3DE40512299F7EE405122917
:104540009F75F10412299F7BF10412299FC1F10488
:1045500012299FAAF30412299FE0F30412299F3A1B
:10456000F40412299F1CF50412299F61F5041229F5
:104570009F94F50412299F1EF60412299F38F60411
:1045800012299FC4F70412299FC2F80412299F0B15
:10459000F90412299FDAE80412299FF0E80412298D
:1045A0009F85E90412299F81EA0412299F85EB0463
:1045B00012299F2AEC0412299F6EEC0412299FEB0A
:1045C000EC0412299F4CED0412299F5CED04122982
:1045D0009F83ED0412299FD5ED0412299F62EF04F9
:1045E00012299F67EF0412299F89EF0412299F6DFA
:1045F0007F0012299F9B7F0012299FD07F001229E4
:104600009FD27F0012299FD47F0012299FE57F004F
:1046100012299FE77F0012299FEA7F0012299F69D4
:10462000DA0512299FD7DA0512299FF9DA0512292E
:104630009F31DB0512299F67DB0512299F08C405FE
:1046400012299F4BC40512299F69C40512299F9AFC
:10465000C60512299FD2C60512299FF6C605122942
:104660009F9CFF0412299F00800512299FC7800587
:1046700012299FB8810512299FC9810512299FDA45
:10468000810512299F26820512299F1A8405122965
:104690009F77850512299FA7850512299F73860597
:1046A00012299FD0860512299F4BF90412299FD108
:1046B000F90412299FD7FB0412299F6DFC041229CB
:1046C0009F98FC0412299F64FD0412299FDEFD04BB
:1046D00012299F7EFE0412299FC5FE0412299F6E97
:1046E000A80512299F6FA90512299FFFAA05122963
:1046F0009F2AAB0512299F36AC0512299FA8AC054D
:1047000012299FA0B50512299FC6B50512299F152C
:10471000B60512299F31B60512299F62B6051229E6
:104720009F72B60512299F7FB60512299F8CB60588
:1047300012299F78B70512299FB6B70512299FC085
:10474000B70512299FCDB70512299FD8B8051229A0
:104750009FEAB80512299FF5B80512299F07B905E8
:1047600012299F10B90512299F1AB90512299F8F86
:10477000B90512299F3D9F0512299F5DA3051229A6
:104780009F79A30512299FD2C00512299FE8C00571
:1047900012299F6BC20512299F95C20512299FDD20
:1047A000C20512299FD9C30512299FF7DF051229D7
:1047B0009F5AEB0512299FBBEB0512299F5DA103B0
:1047C00012299F24A00312299FAB9F0312299F083F
:1047D0009F0312299FD19C0312299F5F9C031229DA
:1047E0009F179C0312299F629A0312299FE2990343
:1047F00012299FC8990312299F97990312299F7E16
:10480000990312299FDC980312299FAE980312295D
:104810009F2A980312299FDB960312299F4796032C
:1048200012299FAA950312299FA0940312299F5D24
:10483000940312299F2B940312299F689303122932
:104840009F93910312299F40910312299F12910374
:1048500012299F52A50312299FF0A40312299F74C5
:10486000A40312299FC2A30312299F00A2031229A5
:104870009F0F910312299FFC900312299FA590037B
:1048800012299F8C900312299FCCA10312299F69A2
:104890008F0312299FFF8E0312299F858E031229F1
:1048A0009F508E0312299F99A10312299F78EB0232
:1048B00012299FF18D0312299FC08D0312299F8811
:1048C0008A0312299F488A0312299F3C8A031229CE
:1048D0009F9C890312299FDC880312299F4B860322
:1048E00012299FDC830312299F9A830312299F6E4A
:1048F000820312299F23820312299F5F81031229B9
:104900009F32810312299F6A800312299FF3FF01BE
:1049100012299F3A800312299F84A10312299F0024
:10492000800312299F17BC0400000080FBE4738FF2
:104930000001001E08870001001D08240002003548
:10494000112500020037112600020039112700024C
:10495000003B11280001003D11290001003E118497
:104960000004003F118600010043112A00010044A9
:10497000112B00010045112C00010049112D0008E8
:104980000009082E0001004A112F0001004B1130D0
:104990000001004C11310001004D113200010011E5
:1049A00008330001001208340001004E11360001E6
:1049B000001308380001004F11390001004811832D
:1049C0000002005911630001001C08640001004648
:1049D000116500010047116D00010058116E0002C1
:1049E0000007084300010050114400020051114526
:1049F0000001005311460002005411470008001442
:104A0000084800010056114B000100571104000135
:104A1000005B11A10001005D11370001005C1188ED
:104A20000001001F080000000000000001363601F0
:104A30000100010201000103010001040106060555
:104A4000020000070100340801000F090401010DF4
:104A50000100FF0E08000017020000190100FF1AF4
:104A60000100011B0100FE1C0100081D0200001FC7
:104A700001000120010001210200002301000F2498
:104A80000200002601000127010008280200FF2A79
:104A90000100072B0102402C0100002D0100012E16
:104AA0000100012F0100FF30010B1C310800003A0A
:104AB0000100083B01000F2F0100000300710030CE
:104AC00001600011007000310220035004800010CA
:104AD0000061000000140063007300720062004374
:104AE0000000001300060000000000040012000097
:104AF0000000000000000004000400370037003C04
:104B000002440000000000000000006500000035C5
:104B10000081000000050000008300000001037117
:104B20000301030103010301030103220302030143
:104B3000031003000300030003000300030003004D
:104B400003420300032403060300030003040312CB
:104B500003250323032503230304030403000300A5
:104B60000300034403000300032303000365032140
:104B70000035038103000305030003000300030164
:104B80000171010101010111010101310101010165
:104B9000018001100161013B001400630173017287
:104BA00001620143010001130106013D01350004CA
:104BB00001120100010001000100010401040133A0
:104BC0000133013C0144013201360000010001655E
:104BD000010001350081010001050182018301000E
:104BE000010304710402046004110470040204024D
:104BF0000401040204100461040004140463047337
:104C00000472046204430400041304060400040054
:104C100004040412040004000400040004510464A9
:104C20000000040004000444040004000400040024
:104C30000465040004350481046400050400048351
:104C400004000403027102300160021102700201CB
:104C500002020202028002100261023A0041006375
:104C60000273027202620243020002130238000061
:104C7000020002040212020002000200020002040A
:104C8000020402370037003C0244020002390000EF
:104C90000200026502000235028102000205028262
:104CA00002830200020000D43F13004A3F0100D4F7
:104CB0003F0200D23E0300D83E0400DE3E0500E481
:104CC0003E0600F03E30000E3F3100083F32001A31
:104CD0003F3300203F3500263F34002C3F36003262
:104CE0003F11003E3F1400443F1500023FFFFF000C
:104CF0000036000100060000000F00000000000068
:104D00000000000000000003FFFF00000403FFFF9D
:104D10000000FFFF0FF4010005C4040320000100A0
:104D2000000B000000000000000003010F0104312F
:104D3000063A310834310B52311074300A6A3102AC
:104D40000A310528310710310CE6300DF830FF002C
:104D50000003EAF5E5D5D5C5B5A5959585857575A5
:104D6000656555554545353525251515059635C6D1
:104D7000359C35A235C035B435AE35CC35D235D8B5
:104D800035E435A83590358A3500160F00000B152F
:104D90000B020002220F320000065A696742656565
:104DA000416C6C69616E6365303901030507090B5D
:104DB0000D0F00020406080A0C0D000000000000A0
:104DC00000008967452301EFCDAB9236A436AA36A1
:104DD0006035B0365A356635FE361C372237043713
:104DE00010370A379A349434D034D634CA348234E3
:104DF000303017181921301B1D1F300001191618EB
:104E0000161615230300303016181920231A1C1EFD
:104E1000300C0E020B040B0A0708000F0003494870
:104E2000424D181725050200383C3E363B3B352BDA
:104E3000432CBA35DE351637EA35F035E636B63668
:104E4000BC36C836C236020402010101010902A6BD
:104E500034AC34A034DC34B234C43400BE040A159B
:104E6000000E0004007F00E8030000000028000C92
:104E70000008100C0A03080900040009FF1E1E03A5
:104E800001040C10080F05C082C083900786E4F06F
:104E9000A3F07CD57D047A027B07124538122E825E
:104EA00090081DE0700479008002790112491C12FB
:104EB0002E880263A574F51224EC74F5122A97E982
:104EC000FF8A08EBFEEF705E74026508703E900783
:104ED000197408F0750A00780A1229F7ECF50A78B7
:104EE0000A1229F7EEF50A780A1229F790113F12F3
:104EF0002817901143E0F97C147D08901159125F36
:104F000081122EAC7407122A20024FD77401650853
:104F10006003024FDC9007197408F07B00EEFAF989
:104F2000122EE8024FD774016F600874026F60039D
:104F3000024FDCEA60067403650870549007197428
:104F400002124FF6122C5A122E9AE9F890071EE020
:104F5000A2E34019E8701690078AE004F064047038
:104F60000C9080E0122C5A90113F122C667403654D
:104F700008706690078BE0F9740129F0E9C3940585
:104F800040579080E0122C5A90113F122C668049B5
:104F900074016508704674016F900719702E740AC9
:104FA000F07401122C7DE4F07402122C7D7403F075
:104FB0009080E8122C5A7404122C7D122C6674080E
:104FC000122C7DE4125DAD1231168020740A124F4E
:104FD000F6122C5A122ED0E9F8E860107CE87D0316
:104FE0007A017B00900716E0F9123CB6740B122A86
:104FF000207F0302274FF0901143E0F990113F22E8
:1050000074F61224ECE9FFEAFE7AD1F9123B72EA57
:105010004B702A7A027B00123B5AEA4B700E7A10D0
:105020007B00900716E0F9123B9680188A828B83EA
:1050300074D1F0EFA3F0EEF9123B668007EF8A829D
:105040008B83A3F00251C574F71224EC89089006F3
:105050007BE0FEA3E080248E828F83A3A3125CBC3E
:1050600060128E828F83A3A31257C6125CBCFAA96A
:1050700008123EBA8E828F83127476FFEE4F70D77D
:10508000900692E0FAA908123EBA12322A9006EA75
:105090001259B512322402729A74F11224EC890A60
:1050A0008C08740F122C7D125F6D7411122C7D12FE
:1050B00057AE750900750E00804AE50B125166F572
:1050C0000CA3E0F50DE50EC333FEE433FFEA2EF545
:1050D00082EB3FF583E0650C7004A3E0650D701969
:1050E000E509C333FEE433FFEC2EF582ED3FF58393
:1050F000E50CF0A3E50DF00509050BE50BC39508DC
:1051000040B8050EE50EC3950A5005750B0080EBFF
:10511000A90902657F74F41224EC890B740C122C1B
:105120007D125F6D750A008002050AE50AC3950BC2
:10513000502F7D0080010DEDC39C50EDE50AC33377
:10514000FEE433FFEA2EF582EB3F125176F509EDCE
:1051500012516665087004A3E0650970D979018071
:105160000279000267C9C333FEE433FFE82EF582FB
:10517000E93FF583E022F583E0F508A3E02274F629
:105180001224EC12520C7003A3E06D701775081C0A
:1051900075090778081229F3EEFA123FDA74021241
:1051A0002A20801A75080275098078081229F38C64
:1051B000088D0978081229F3125238122A20800526
:1051C0007402122A207F0202274F74F61224EC1276
:1051D000520C7003A3E06D701775082975090778E4
:1051E000081229F3EEFA123FE07402122A20801A04
:1051F00075080375098078081229F38C088D0978E1
:10520000081229F3125238122A2080B9EAFEEBFF65
:10521000125224FAA3E0F9EA2400FCE439FD9006D6
:10522000EAE06C22EE2413F582EF125D12E0F8A39F
:10523000E0F988828983E022EE12726FEF1273C365
:10524000FD7C8012644D123FFE74042274F6122419
:10525000EC74FE122A97EAFEEBFF8518828519830B
:10526000E4F0A3F012658CFA88828983A3A3E0F9A5
:105270007509007508006005C394F1400575088242
:1052800080439006EAE06A7003A3E06B7020851803
:1052900082851983AA82AB831237A0E9F5098518A4
:1052A00082851983126A39701C75088380179008EB
:1052B0001DE06004640170057508818008E06402E7
:1052C00070037508808518828519831257AEA90866
:1052D000EEFAEFFB123FE6E50960148518828519A6
:1052E00083126A396009851882851983126AF1026E
:1052F00051C074F21224ECEAFEEBFF750A00750B44
:105300000012536612322AEA65087003EB650970D1
:10531000121237B2E914F50A79017A527B07123773
:10532000B88003750B80127237F50C780C1229F7D0
:10533000750C52750D07780C1229F3780A1229F7AB
:1053400078081229F3E50BF50878081229F712629C
:105350005AF582EF1260D27A057B80123FEC740717
:10536000122A20025F8F127245125F718882898330
:105370001274B3F508E439F5092274F61224ECE945
:10538000FE7F00802F8A828B83125178F9E50824F2
:1053900000E439F509EF33F8E433F9EC28F582ED50
:1053A00039F583E508F0A3E509F0EA24020A0AEBDF
:1053B0003400FB0FEFC39E40CC0251C574E81224A9
:1053C000EC74FB122A978A168B178518828519832D
:1053D000E4F07403122C7DE4F0A3F004122C7DE4BD
:1053E000F01270A9F50AA3E0F50B850A82F5831285
:1053F00074AFFEE439FF850A82850B83A3A3E0FA2C
:10540000850A82850B83A3A3A3E0F9EAF508E439B2
:10541000F509E50A2404F50AE50B3400F50BEEFA6C
:10542000EFFB1232CCE96401702C126EE71229F7FF
:10543000E4F508F50978081229F378081229F7909D
:1054400006EA12281F75088078081229F71257CE2D
:10545000122A2002579CEEFAEFFB1232CCE9700CB4
:105460009006EAE06E7003A3E06F70BE1257B48836
:1054700014602EC333FAE433FB123BF07403122C96
:105480007D1259B57403122C7D126A3960137403AE
:10549000122C7D1257A6A914123EEA8A0A8B0B80A1
:1054A000037514001257B4880F602AC333FAE4332B
:1054B000FB123BF07401122C7D1259B57401122CB1
:1054C0007D126A39600F7401122C7D1257A6A90F44
:1054D000123EEA8003750F0090067B805D850A828C
:1054E000850B83A3A3A3A3A3A3A3A3E4F0A3F0AA80
:1054F0000AAB0B851282851383A3A31257C4125CD7
:10550000BCF9123B66851082851183E0C0E08518E6
:1055100082851983E0F8745228F582740712747238
:10552000D0E01267CE04F0E515A2E05007AA10AB58
:1055300011123BF6851282851383E0F512A3E0F584
:1055400013E51245137003025714851282851383E5
:10555000A3A3125CBC60DD851282851383A3A3A381
:10556000A3A3A3A3A3E0A2E050CA8512828513835C
:10557000A3A3A3A3126A39851282851383A3A36010
:105580001F125CBCFA7901851282851383A3A3A341
:10559000A3125CC112492D8A108B11751501800F61
:1055A0001257C4A3A3E0F510A3E0F511751500E5AB
:1055B0001045117003025527851082851183A3E0E1
:1055C00065087004A3E06509600302552785108211
:1055D000851183A3A3A3A3A3A3A312281F851082CD
:1055E000851183A3A3A3A3A3A3E0FC7405122C7DC0
:1055F000125F81A914123ECC7402122A20E9703C79
:10560000851082851183A3A3A3A3A3A3A3A3A3A30C
:1056100012281F851082851183A3A3A3A3A3A3A38C
:10562000A3A3E0FC7403122C7D125F81A90F123E2C
:10563000CC7402122A20E97003025527E50F2514C5
:10564000C333240AFA7B00123B5A8A0A8B0BEA45C1
:105650000B70030255058A828B8374D2F085168203
:10566000851783A3A3125F6D8A828B83125DB58A2F
:10567000828B83A3A3A3A3E5141274B9E50FF0E50D
:10568000146038EA2405FAEB3400FBE50A240AF832
:10569000E50B3400F98A828B83125DB77403122CF8
:1056A0007D1257EC1229EFE514C333FCE433FD8A75
:1056B000828B83126BED122A20800D8A828B83A34A
:1056C000A3A3A3A3E4F0A3F0E50F70030254DDE568
:1056D00014C333F8E433F9E50A28F8E50B39F9E89F
:1056E000240AFAE93400FB850A82850B83A3A3A36D
:1056F000A3A3A3A3A31259B57401122C7D1257ECD6
:105700001229EFE50FC333FCE433FD127313122AA1
:10571000200254EF851882851983E06027126EE716
:105720001229F775085275090778081229F37403CE
:10573000122C7D126EF11229F79006EA12281F75BD
:1057400008008029EEFAEFFB1232CCE9702A126EC3
:10575000E71229F775085275090778081229F375B9
:10576000080078081229F79006EA12281F78081214
:1057700029F71257CE122A207403122C7D126A398F
:1057800060087403122C7D126AF17401122C7D12D0
:105790006A3960087401122C7D126AF17405122AAC
:1057A000207F1002274F1257AEAA0AAB0B22E0FC53
:1057B000A3E0FD22850A82850B83E0F8A385820A97
:1057C00085830B22E0F8A3E0F5838882A322E51607
:1057D0002402FCE5173400FDE5161261EFE517120F
:1057E000645A7A067B80123FEC740722E0F50CA322
:1057F000E0F50D750E00780C2274F41224EC74F4AC
:10580000122A978A088B09ECFEEDFF740B122C7D8F
:105810007403F0122C7DAA82AB8312453812322415
:10582000EAFCEBFD7403122C7DAA82AB8312453295
:10583000E9600A1259466010E06401600B85188225
:1058400085198374840258FE8E828F83A3A3A3A339
:10585000A3A3A3A3E06017C394F15012125946709A
:1058600018EE241412723A6005C394F1400B8518A7
:105870008285198374820258FEE508240CF582E5BE
:105880000912723D64217002A3E0704F8518828571
:105890001983748CF01259391229F712595512488C
:1058A000B07401122A20E97056851882851983E4A4
:1058B000F0123E3C12594670467401122C7DAC82A7
:1058C000AD831273EBFB124892E970337D007C00CC
:1058D00079001273EBFB123FAA8024125939122966
:1058E000F712595512489E7401122A20E985188230
:1058F0008519837007E4F0123E3C80037488F0122F
:10590000726DE50912593E1229F77401122C7D853A
:10591000820A85830B780A1229F3E508240CF582A4
:10592000E50912594C4480F50B780A1229F31263E9
:1059300012122A20740C0267C6EE125F61EF127316
:10594000C3F50A780A22125A07640322125D0EE098
:10595000F50AA3E022EE240BFCEF3400FD8E828FCB
:1059600083A3A3A3A3A3A3A3A3A3125F858E828F64
:1059700083A3A3A3A3A3A3A3A3E0F922C082C0830C
:1059800074F3122A97851882851983E4F004122C87
:105990007D1259B57403122C7DAA82AB83122DBCE3
:1059A000851882851983AA82AB83122DF2740D1299
:1059B0002A200263A5EAF0A3EBF02274F61224EC8D
:1059C0001259F712716A900724E058F508A3E059BC
:1059D000F509E5084509601C78081229F39006EAE4
:1059E00012281F127237FD7C00126449123FF874AE
:1059F00004122A200251C5EAFEEBFF125A07F8A34F
:105A0000E0F98882898322127249E02274EA122422
:105A1000EC74DB122A978A148B157512007513002B
:105A2000125CB6F50E851882851983AC82AD837A37
:105A3000007B00799C122EFA7A047900122E04EA77
:105A4000F50C851882851983E0250CF0F8E50EC366
:105A5000984003025C3EE0C3950EF509C3940440F0
:105A600003750903E50975F01AA4FAABF0123BF0CF
:105A70008A128B13EA45137003025C41750D00AE68
:105A800012AF13850E08025B13125C95850A82859E
:105A90000B83A3A3A3A3E07039850A82850B83122D
:105AA0006A397012125F5A127231EE2418F582EFC1
:105AB000127472E48016125CADF090055CE014C0C4
:105AC000E0EE2418F582EF127472D0E0125CFEE46E
:105AD000803E90055CE004C0E0EE2418F582EF12F1
:105AE0007472D0E0125CF6C39403EE4003025BA331
:105AF000125F5B1274727402125CF664016003023E
:105B00005BB0125C8E127472E4F0EE2416125CB07C
:105B1000125CCAE50DC395094003025BD4E508C3D6
:105B2000950C4003025BB9A908122E768A0A8B0BEA
:105B30000508900549125CD6850A82850B83125FA1
:105B40006D125C8712715D125D17850A82850B8369
:105B5000A3A3A3A3A3A3A3A3A3A3E0C0E0EE24193C
:105B6000F582EF127472D0E0F07401122C7DE41211
:105B700070E4125F6D7402122C7D125DB774011215
:105B80002C7DAA82AB83122DE0E964016003025AE6
:105B9000897404122C7DAC82AD83EE240A125CA7BA
:105BA000025A8C125CAE125CF664037003025B0254
:105BB000EE2415125CB0025B09E50CC3950E40059E
:105BC0007508008016E50EC3950CF508800D125C73
:105BD000AD125CCAE50DC395095066740E122C7D9A
:105BE000AC82AD8385080AAA0A7B007987122EFA57
:105BF00005087418122C7D125CD6125C95EE2412E6
:105C0000F8EF3400F9740E122C7D125F81888289BE
:105C100083EAF0A3EB125CFE7403125D17741D128D
:105C20002C7DE0C0E0EE2419F582EF127472D0E012
:105C3000126A497099125F5A127472E4809375095E
:105C400000750A00780A1229F778121229F37809E8
:105C50001229F7E50EF50978091229F77405122CB7
:105C60007DE0FD7C001261DA1240347405122A20B6
:105C7000E51245136007AA12AB13123BF674251206
:105C80002A207F0E02274FEE2412F582EF22EE2407
:105C900015F582EF227C087D0079FFEE240AFAEFE9
:105CA0003400FB123B4222FAEF125CEF22EE241486
:105CB000125D0B7401221273C8125D0E125CC1E0FA
:105CC00022E0F8A3E0F583888222F0EE241AFEEFAA
:105CD0003400FF050D22125F718E828F83E8F0A3DE
:105CE000E9F07C5D7D05EE2402FAEF125CEF2234D0
:105CF00000FB124538221273FEA3A3A3E022F0EEAC
:105D00002415125D272416125D0B22F582EF125D19
:105D100012223400F58322F0EE2417125D27241896
:105D2000125D0B74FFF022F582EF125D127402F027
:105D3000EE2274F61224EC74F9122A978A088B0961
:105D4000127531851882851983122C66125DA5C0E3
:105D5000E07404122C7DD0E0127331E0FA74051265
:105D60002C7D7401F07406122C7D7401F09006F401
:105D7000F09006FD04127415A3125F6D9006F512E3
:105D80005DB7EA9006FEF0E5081261EFE5091272D0
:105D90003D9006F3125DAD122EA0E96003122EA60F
:105DA00074070251C2EE2404FE12709F2212658411
:105DB000AA82AB8322A3A3E8F0A3E9F02274F21233
:105DC00024EC74FF122A977508007E007F001231C0
:105DD000468A0A8B0B125F4E80050508125F66E843
:105DE0004970F790081DE0600764016003025ECB14
:105DF000125F4E8003125F66E849603788828983AC
:105E0000125F81900549E06A7003A3E06B600E1297
:105E10005F60E9127472125F81EA4B70D8888289E0
:105E200083125F6D900549E0687003A3E069700319
:105E3000025ECB7A167B00123BF08A0C8B0DAE0C07
:105E4000AF0DEE4F7003025ECB900549125F6D8E71
:105E5000828F83125DB790053EE08E828F83A3A36D
:105E6000F01232B4E98E828F83A3A3A3A3A3F09090
:105E70001144E08E828F83A3A3A3A3A3A3F07C5D30
