:020000040000FA
:10000000021BC6022003FFFFFFFFFF02200BFFFFC2
:10001000FFFFFF022013FFFFFFFFFF02201BFFFF78
:10002000FFFFFF022023FFFFFFFFFF02202BFFFF48
:10003000FFFFFF021305FFFFFFFFFF02203BFFFF53
:10004000FFFFFF022043FFFFFFFFFF02204BFFFFE8
:10005000FFFFFF022053FFFFFFFFFF02205BFFFFB8
:10006000FFFFFF022063FFFFFFFFFF02206BFFFF88
:10007000FFFFFF022073FFFFFFFFFF02207BFFFF58
:10008000FFFFFF022083FFFFFFFFFF02208B002006
:10009000000090200000932000000100000000C834
:1000A00003000000000000000400FFFFFFFF00C28B
:1000B000010000002600FFFFFFFFFFFFFFFF04031A
:1000C00009042403540065007800610073002000D7
:1000D00049006E0073007400720075006D006500C9
:1000E0006E00740073002403540049002000430094
:1000F000430032003500330031002000550053002A
:100100004200200043004400430000035F005F0002
:100110003000580000000000000000000000000057
:1001200000000000000000000000000000000000CF
:10013000000000003031323334353637383941422F
:10014000434445467F18D418D418D418D418DC1862
:1001500074F71217BA1207A3700FA3A3E0700AA3D3
:10016000E064027002A3E060089005A47404020237
:10017000119005B6E02480600814602D14603A8068
:10018000E89005BAE070E29005B0E0600478018084
:100190000278009005BEE8F0A3E4F09005AFE060BF
:1001A000559005BEE04402804990059DE0640470CE
:1001B000B89005BEE4F0A3803C9005BAE0547FF50A
:1001C0000890059DE0640470A0E508C3940650996A
:1001D0009005BAE05480600C1202FBE06403700CDE
:1001E0007801800A1202EEE0640360F47800900562
:1001F000BEE8F0A3E4F09005A4E064046014900568
:10020000B174BEF0A37405F0A3E4F0A37402120865
:1002100002F07F02021A2674F71217BAE9FE90055F
:10022000BC1207A6701090059DE064046010900554
:10023000BA1207A660089005A474040202E89005AB
:10024000B6E0541F600814600D14602380E8900528
:10025000B8E06401600579000202EBEE9005AFF0B2
:1002600060047905800279067A001217B8807A90C6
:1002700005BAE0547FFA9005B8E070DAEAC3940654
:1002800050B4EA90620EF09005BAE05480602AEE15
:100290006004741080027440906211F0EE60047487
:1002A000038001E4C0E08A081202FBD0E0F0EE60B7
:1002B000047908802C79078028EE6004742080027D
:1002C0007480906214F0EE600474038001E4C0E076
:1002D0008A081202EED0E0F0EE6004790A8002791A
:1002E000091217B890620EE4F0790102021274A9A3
:1002F0002508F58274053400F5832274A42508F5D9
:100300008274053400F583227900120217E9700324
:100310001217A7227901120217E970031217B622E9
:10032000C082C0839005BA1207A67014A31207A654
:10033000700E9005B8E05480F8A3E0F9E849600732
:100340009005A47404801D9005B8E0906200F090C0
:10035000059D6009E06402700C74038007E064038B
:1003600070037402F0D083D0822274F51217BA9011
:1003700005B9E014600814601914604C806412130D
:100380009C120527A37B80121AEEA3F0A3E4F002CF
:1003900004DE9005B8E0FA79001213BE1205277B3F
:1003A00080E924020909EA3400FA121AEEFC19194C
:1003B000E0FAA3E92403090909EA3400FA121AEE63
:1003C000F9ECA3F0A3E980C69005B8E0F912142C6B
:1003D0009005B1EAF0A3EBF0A3E4120536A37B008D
:1003E00080A59005B1E4F0A3F0A3F0FA0204B27581
:1003F000090074037808121B91120540E493C0E0D1
:100400009005B9E0F8D0E06860030204B18A08758D
:10041000090074037808121B91120540A3E493C0ED
:10042000E09005B8E0F8D0E06860030204B18A0803
:1004300075090074037808121B91120558E493C0E3
:10044000E09005BBE0F8D0E06870668A08750900A6
:1004500074037808121B91120558A3E493C0E0902E
:1004600005BAE0F8D0E06870488A0875090074039E
:100470007808121B9112054CF988828983A3A3A3E3
:10048000A3E493F508740193F5099005B1E508F02C
:10049000A3E509F0A37480F088828983A3A3A3A3B2
:1004A000A3A3E493F8740193F99005B4E8F0A3E9E9
:1004B000F00A8A0890067A1206AC75830675827C6B
:1004C000E0C398F50AA3E099F50B7403780A121BB0
:1004D000B7C3E508950AE4950B50030203EF9005B6
:1004E000B1E0FCA3E0FDA3E0FEEC4D4E9005A4704E
:1004F000047404802CE0640460289005B41206ACF7
:100500007583057582BCC3E098A3E099500E9005F1
:10051000BC1206AC9005B4E8F0A3E9F09005A47411
:1005200001F07F04021A269005B1EAF0A3EBF0A3D4
:10053000748012053622F09005B1E0F9A3E0FA22AA
:100540001205442212054C8882F5832290067AE037
:100550002508F8A3E0350922120544A3A32274EF6D
:100560001217BA8A088B098A828B83A3A3A3A3E4F8
:1005700093602690067E1206ACE8FEE98007EE2422
:1005800004FEEF3400FF8E828F83E493F8740193AE
:10059000F9EA687002EB6970E5750C00804A9062B8
:1005A000147490F0741012069C70027940750A0160
:1005B000750B00E50E780A121B918E828F83A3A320
:1005C000A393550A6004E9D2E0F9E9906215F0EAD4
:1005D000906213F074A9250EF58274053400F5833A
:1005E000E4F090620EF0050C850882850983A3A3D0
:1005F000A3A3E493F8E50CC39840030206977A009E
:10060000790512132E8A0A8B0BEA450B60D8EA246F
:1006100002F8EB3400F9E8FCE9FD8C828D83E49369
:10062000540FF50E90620EF079008A828B83A3A39B
:10063000A3A3E4932407F510A3E4933400F5117405
:10064000037810121BB7AA108C828D8393A2E74007
:100650000302059E9062117448F0740812069C70A3
:10066000027940750A01750B00E50E780A121B919C
:100670008E828F83A3A393550A6004E9D2E0F9E93F
:10068000906212F0EA906210F0850E0A74A4250AB6
:10069000F58274050205DC7F0A021A26F0850A82BB
:1006A0008B83A3A3A3E4935403640122E0F8A3E0A3
:1006B000F922C082C0831207A37010A31207A6708C
:1006C0000AA3E064017002A3E060079005A474042B
:1006D000800C9005B1749EF0A374051207F8F00227
:1006E000036574F61217BA90059DE06402601490D9
:1006F00005BA1207A6700CA31207A670069005B9DA
:10070000E060099005A47404F00207917A00790171
:100710001217B89005B8E060637A00F91213BE8A28
:10072000088B09AE08AF09EE4F604990059D74042F
:10073000F09005B8E090059EF0750A008E828F83D8
:10074000A3A3A3A3E493F8E50AC398503D850A0840
:10075000120796E4F07A00790412132E8A828B83B2
:10076000A3A3A3E493F8120796E06870E812055E6D
:10077000050A80C89005A47404F0800E90059EF0D0
:1007800090059D7403F0F9120F5E7A00790212173A
:10079000B87F03021A26749F2508F5827405340079
:1007A000F583229005B8E0F8A3E0F9E8492274F651
:1007B0001217BA90059DE0640470199005B6E064C4
:1007C0008170111207A3700C9005BCE064017002E7
:1007D000A3E060079005A47404801A9005BAE02491
:1007E0009FF508A3E03405F5099005B1E508F0A3ED
:1007F000E5091207F8F08099F0A3E4F0A3041208C9
:100800000222F0A3E4F09005A4042274F71217BAB0
:1008100090059DE0640470109005B6E064017008D6
:100820009005BC1207A660089005A47404F08052DD
:100830009005B8E0FB9005BAE0FA90059EE0F91249
:1008400013F68A088B09AE08AF09EE4F60DA9005FF
:10085000BAE0FA79031217B89005B8E0C0E0900545
:10086000BAE0249FF8A3E03405F988828983D0E0B8
:10087000F0EEFAEFFB12055E9005BAE0FA79041289
:1008800017B802021274F81217BA74FF121B517EC5
:10089000008033900384E0F8851882851983E0682E
:1008A000700D900382E0644D7005120AD2E9FE904B
:1008B0000385E4F0900387F0851882851983E0F8BA
:1008C000900384E068F07901851882851983AA82F3
:1008D000AB831210D5E97003020983E0C0E09003F6
:1008E00087E0F8900385E0FAE82AF8E43400120C77
:1008F00086D0E0F0900387E0601114602014603E21
:1009000014604E14606414608A80AD851882851965
:1009100083E064FE70A29003877401809A90038440
:10092000E4F0851882851983E0900386F0C39480F3
:100930009003874004E40208B774020208B78518E0
:1009400082851983E0900382F09003877403020884
:10095000B7851882851983E0900383F0900386E0C1
:10096000601990038774040208B7900385E004F0CF
:10097000F8900386E06860030208B8900387740566
:100980000208B7EEF97401121B087F01021A2674DF
:10099000ED1217BA74FB121B517508047509007823
:1009A00008121B6B7402121C09120C73121B0885AF
:1009B0001882E0F47003A3E0F4600F8518828519B3
:1009C00083E0F8A3E0F9E8497003020AC674021252
:1009D0001C09E0687003A3E0697003020AA07508AF
:1009E000009005C07810121BD5800A9005C47810BD
:1009F000121B7C604A750A01750B00780A121B6B8A
:100A00007406121C09AC82AD8385100A85110BAAED
:100A10000AE50B5407FB8A0C85110D85120E851310
:100A20000F740B780C121B22A90C120C7D121B08E0
:100A3000E0F9AA08AB09120C928A088B0980089089
:100A400005C87810121BD59005CC7810121BA49005
:100A500005D07810121AB45092E4F9120C92E4F90D
:100A6000120C927402121C09EAF0A3EBF075080153
:100A70007509007808121B6B7402121C09AC82AD58
:100A8000837A247B081215D47402121B087508049B
:100A90007808121B6B7402121C09120C73121B08CB
:100AA000120C65121C09E0687003A3E069701785D9
:100AB0001882851983E0F47003A3E0F46008E84924
:100AC00060047901800279007405121B087F0C0212
:100AD0001A2674F31217BA74FC121B51900306E025
:100AE000FAA3E0F9EA2400F8F508E93408F50975F5
:100AF0000A017F007E00900383E014600C146040C4
:100B0000147003020B99020C16E5095401F9E84927
:100B10007011880C85090D7409780C121BB7A90C8B
:100B2000121638750C108E0D780C121B6B7C087D1C
:100B300003AA08AB091215D47402121B08020C1682
:100B4000880C85090D7409780C121BB7E50CC39449
:100B50007940040F020C16750A408E0B780A121B9E
:100B60006B7C097D03EAF50AE5095401F50B740273
:100B7000780A121B91AA0AAB0B74097808121BB7EA
:100B8000A908120C7D121B08900307E0A3F0900344
:100B900006E0A3F0750A43807D7508048E09780885
:100BA000121B6B7402121C09120C73121B087402C4
:100BB000121C09E0F8A3E0F9851882851983E06822
:100BC0007003A3E069603B120C65121C09E8F0A3F6
:100BD000E9F07508017808121B6B7402121C09AC4D
:100BE00082AD837A247B081215D47402121B087517
:100BF00008047808121B6B7402121C09120C731281
:100C00001B08120C65121C09E0687003A3E06970F0
:100C1000030E80027F07900305E0D2E7F0EFA3F018
:100C2000E50A900303F0744D650AF5087404250A7B
:100C3000FB7A038007120C83E062080AEAC39BA2D6
:100C4000D265D033EAF840ED120C83E508F0740168
:100C50002AF97A027B03121115EEF97404121B08AB
:100C60007F06021A26851882851983E0F8A3E0F929
:100C7000740222AC82AD837A907B00790412154F06
:100C80007402223395E0F9740228F582740339F571
:100C90008322C008C0097C088A088B09740F780871
:100CA000121BB7EAC333FAEB33FBE9A2E750047433
:100CB000014AFAE508A2E0500874216AFA74106B40
:100CC000FBE9C333F91CEC70CFD009D00822C082F5
:100CD000C0837A0079011213BE8A828B83A3A3A3F7
:100CE000A3A3A3A3E493A2E69005B05004740180EB
:100CF00001E4F09005AFE4F090620F7403F0E0A21D
:100D0000E750FB90620BE0D2E1F0D083D08222C0AA
:100D100082C08390059D7402F0A3E4F09005A4F0D6
:100D20007903120F5E75210075220080DD74F612C2
:100D300017BA90620EE0FEE4F0906211E0F50AA2AC
:100D4000E4501D7480F09005A47407F0E52145225D
:100D50006009852182852283121C1B9005A4E4F082
:100D6000E50AA2E2500B906211E4F09005A4F08035
:100D7000769005A4E064027057906216E0FF90053B
:100D8000B1121A66EFF97A207B62120F9674031281
:100D90001B088F089005B4120F33120F3EE0F8A322
:100DA000E0F9E8496004744080027448906211F0F0
:100DB000E8497014E5214522600985218285228356
:100DC000121C1B9005A4E4F0EE90620EF0020FDC02
:100DD000E064067009852182852283121C1B900520
:100DE000A4E06003020ECDE50AA2E050DB7508B670
:100DF000750905750A007808121B6779087A207B47
:100E000062120F967403121B087521007522009060
:100E100005B6E054E0601C24E07003020EA724E055
:100E2000606F24C0604524E07003020EB224E060CD
:100E30006B8030A3E014601C24FE601324FE600A63
:100E400024FC601524FE60168019120320806C12A9
:100E50000314806712030880621206E2805D1208A4
:100E60000B80589005A47404F08058A3E0600E2411
:100E7000FA600F24FE601024FE601180E61201501B
:100E8000803912036A80341206B2802F1207AE80B6
:100E90002A7521A37522171217A3801F7521A57526
:100EA00022171217A58014752140752217121740BA
:100EB000800975216E75221712176E9005A4E064E3
:100EC000047004746080027440906211F09005A474
:100ED000E06401704A750A029005B4C3E09420A34F
:100EE000E09400500A9005B4E0FF750A0A80027F82
:100EF000209005B1121A66EFF97A207B62120FBAC0
:100F00007403121B088F08120F3E120F33E50A906C
:100F10006211F0EFC394204003020DC8020DB4E04B
:100F200064056003020DC8852182852283121C1B83
:100F3000020DC8C3E09508F0A3E09400F0229005EC
:100F4000B1E0F9A3E0FAA3E0FBE92508F9EA3400EF
:100F5000FA9005B1E9F0A3EAF0A3EBF0A32274F74D
:100F60001217BA7800880874A52508F5827405124E
:100F70000F8A40F17800880874AA2508F582740564
:100F8000120F8A40F17F02021A263400F583E9F03D
:100F900008E8C394052274F61217BAEAFCEBFDE9DF
:100FA000F8740A121C09120FEC600D8C828D83E01C
:100FB000121B3B120FE170F3802274F61217BAEA8B
:100FC000FCEBFDE9F8740A121C09120FEC600D121B
:100FD0001AEE8C828D83F0120FE170F37F03021AF8
:100FE00026E9240109EA3400FA18E822E0F508A30A
:100FF000E0F509A3E0A908AA09FBE822C082C083A2
:10100000A823E8540460097823E654FBF6120D0F78
:10101000A823E8541060097823E654EFF6120D2D4A
:10102000A823E8A2E05005782354FCF690620EE075
:10103000FA7404F0906214E0A2E05042E5A8F8C20D
:10104000AF906216E0F9A3E0E9FBE8A2E792AF8077
:101050001F906228E0C0E0900391E0F8749228F5B8
:101060008274033400F583D0E0F0900391E004F043
:10107000EBFC74FF2C1B0470D8906214E4F0EA902F
:10108000620EF0E0FD7404F0906211E0A2E0403BDB
:10109000900493E0F8900492E068602F7A40900406
:1010A00092E0F8749428F58274043400F583E0909B
:1010B0006228F0900492E004F008900493E06860E5
:1010C000041AEA70D99062117401F0ED90620EF08A
:1010D000D083D0822274F81217BAE9FE7900801FFB
:1010E000900390E0FC74922CF58274033400F58335
:1010F000E08A828B83F0900390E0041211480990FB
:101100000390E0F8900391E0686005E9C39E40D049
:101110007F01021A26C082C08380228A828B83E0EC
:10112000C0E0900493E0FC74942CF58274043400C5
:10113000F583D0E0121148900493E004F0E9F874CC
:10114000FF28190470D58088F08A828B83A3AA8235
:10115000AB832212120112098FE9603112127AE96F
:10116000602B75AC00759A0053F4FEC29043FE01EB
:1011700090620FE4F0E0A2E740FB90000174CDF034
:10118000022000C2AF75C9AB75C95B80FE9005D463
:10119000780C121BD5794E1211EBD2AF850D099048
:1011A00005CC780C121BA4E5095440600AA28050BB
:1011B00004C2808002D280120FFC120885E960DC34
:1011C000C280D2919005D87808121BD5120FFC90DE
:1011D00005DC7808121BA4E5084509450A450B7093
:1011E000EBC2AF75C9AB75C95B80FE781075B60FE1
:1011F000E5B4A2E750FAE5BBC39940F118E870EDF9
:1012000022C082C08353BEFBE59DA2E650FA00785F
:10121000F8790100E824FF18E934FFF9E84970F390
:1012200075C6807480659E70FA43BE0490627074C7
:1012300008F0D28043FD01C29143FE02794A1211A7
:10124000EB90000174F5F07403F5D575D488900522
:10125000E0121BFD900594121BF1900598E4F0A399
:10126000F0A37408F0120CCE7AFF7BFF12164F53D6
:10127000F4FED29043FE010210D074F11217BA743A
:10128000FF121B519005E4780C121BD57E00D2AFE3
:101290008004C291C280120FFC79018518828519E1
:1012A00083AA82AB831210D5E96012E064F860343F
:1012B000E0640770089005D4780C121BD5A29250F8
:1012C00023A293501E850C08850D09850E0A850FF3
:1012D0000B9005DC780C121BA4E5084509450A456E
:1012E0000B70130EC2AFD280C291EEF97401121BC3
:1012F000087F08021A26850D09E50954207093D24B
:1013000080D2918091C0E074F2121820900001E028
:1013100064CD7005122033800BE064F57005121661
:101320009A8001007F010218DCD083D08222C08223
:10133000C083E9FCEAFD7A007B00800790059CE011
:1013400012138190059BE0F8A3E0F9900678E0681D
:101350007003A3E069601C1213756C700D90059BFF
:10136000E0FAA3E0FB12138180091213756D70CCB3
:10137000ED60C980B490059CE0F5838882A3E49376
:1013800022F5838882E493F890059BE028F8A3E097
:101390003400F990059BE8F0A3E9F022C082C083F5
:1013A0001213AD7A00790112132E021329900676DA
:1013B000E0F8A3E0F990059BE8F0A3E9F02274F7C8
:1013C0001217BAE9FEEAFF1213AD7A00790212137E
:1013D0002EEA4B601CEE60108A828B83A3A3A3A32A
:1013E000A3E4936E70E48009EFF874FF281F047083
:1013F000D97F02021A2674F51217BAEAFF8B087A0F
:10140000001213BE7A02790412132EEA4B60188A76
:10141000828B83A3A3E4936F70EA8A828B83A3A356
:10142000A3E493650870DD7F04021A2674F712178F
:10143000BA74F0121B51E97A007B00600C14601042
:101440001460141460180215377AF07B0502153702
:101450007AF47B050215377A187B06021537900659
:101460003CE060030215337408121C09AC82AD83A2
:101470007583057582E87408121A93750808F509D2
:101480007808121B6B7402121C09AC82AD837AE8D7
:101490007B07797F12154F7402121B087808121B04
:1014A0006B740A121C09AC82AD837402121C09AA67
:1014B00082AB831219347402121B088B09EA4509A6
:1014C000701D7509007808121B6B7C0C7D78740206
:1014D000121C09AA82AB831219E07402121B087C49
:1014E000287D008D08851882851983E5822508F5F9
:1014F00082E5833400F583E0FF8C08743C2508F80E
:1015000074063400F9EF12153F88828983F0EFC426
:1015100012153FC0E0E824FEF582E934FFF583D0E0
:10152000E0F00D74FC2CFCEDC3940840B690063C32
:10153000742AF07A3C7B067410121B080213F154D3
:101540000FFA74662AF58274063400F583E022747B
:10155000F51217BA8908740B121C09E0FEA3E0FF0C
:10156000740F5508F50A750B00740B780A121B915D
:10157000EA2400F8EB3480F9E82400E9350BF9E5BA
:10158000C7F509A2AFE433F50AC2AFE508C4540FAA
:10159000FAE5C754F84AF5C7801C88828983E08C35
:1015A000828D83F088828983A3A882A9838C828D0F
:1015B00083A3AC82AD83EEFAEFFBEA24FF1EEB348B
:1015C000FFFFEA4B70D48509C7E50AA2E092AF7F1E
:1015D00004021A2674F71217BA7409121C09E0F5EE
:1015E00008A3E0F509ED900388F0ECA3F0A3746282
:1015F000F0A37473F0A3E0541FF0E508333354FCF8
:10160000A3F074067808121BB7E50890038CF090DD
:10161000038E7412F0A37442F075D1FE75D601EA00
:10162000906271F0EBA3F0906270E0D2E1F0E0A282
:10163000E740FB7F02021A26C082C083E9C33390D1
:101640006272F0906270E0D2E0F0D083D0822274B7
:10165000F71217BA7523007524007525008A268BAA
:1016600027EA90620BF08A088B0974047808121B31
:10167000B7E508906207F08A088B097409780812A8
:101680001BB7E508543E906209F0758B00C2E84331
:10169000AC20439A027F02021A2674F71217BAE5A9
:1016A0009DA2E650FA906206E0FAA2E25035A82622
:1016B000E890620BF0F50885270974047808121B7E
:1016C000B7E508906207F085260885270974097830
:1016D00008121BB7E508543E906209F0906201E0E1
:1016E000D2E0F07823EA46F6906202E0F508750948
:1016F0000074047808121B917823E50846F608E583
:101700000946F6906204E0F5087509007409780846
:10171000121B917824E50946F6EAA2E050037525EC
:101720000174065A6003752500E58BA2E550067525
:101730008BDF7525001217B9758B00C2E80216956C
:10174000C082C0839005B7E06422700A9005A4E0CF
:10175000701A74028015E064209005A4700BE0708C
:101760000B1217959005A480E97404F08043C082A1
:10177000C0839005B7E064219005A47013E0701356
:10178000121795A37407F0A3E4F09005A404800257
:101790007404F0801C9005B17494F0A37405F0A358
:1017A000E4F02280028000C082C0839005A474040B
:1017B000F0D083D0822280EF22222518C582C0E09B
:1017C000E51934FFC583C0E0E518C3958224F910FC
:1017D000AF0885831985821880088583198582184A
:1017E000D2AFCEF0A3E520F0A37808E608F0A3DEA0
:1017F000FAEFF0A3E58124FBF8E608F0A3E608F091
:10180000A30808E608F0A3E608F0A315811581D027
:10181000E0FED0E0F815811581E8C0E0EEC0E022DE
:10182000C0D02518C582C0E0E51934FFC583C0E0EB
:10183000E518C3958224F310AF08858319858218B3
:101840008008858319858218D2AFC8F0A3E9F0A378
:10185000EAF0A3EBF0A37908E709F0A3D8FAECF0DB
:10186000A3EDF0A3EEF0A3EFF0A3D0E0F0A3D0E05F
:10187000F0A3D0E0F0A3E520F0A3E5F0F0A322125E
:10188000010002020000205104A816090001020311
:10189000010902430002010080190904000001024D
:1018A00002010005240010010424020205240600A0
:1018B00001052401000107058203400040090401DD
:1018C00000020A000000070584024000000705042A
:1018D000024000009A180000BD1800008519838599
:1018E0001882E0C0E0A3E0F9A3E0FAA3E0FBA3784C
:1018F00008E0F608A3DFFAE0FCA3E0FDA3E0FEA306
:10190000E0FFA3E0C0E0A3E0C0E0A3E0F5D0A3E0E7
:10191000F520A3E0A3F5F010AF08858319858218A0
:101920008008858319858218D2AFD082D083D0E019
:10193000F8D0E03274F81217BA7408121C09E0F8F3
:10194000A3E08015A3AA82AB838C828D83A3AC8293
:10195000AD83E824FF18E934FFF9E84960238A825F
:101960008B83E0FE8C828D83E06E8A828B8360D4D1
:10197000E0F88C828D83E0FAE8C39AFA95E0FB8068
:10198000047A007B007F01021A26121C18B900039A
:101990000219DAE479217807B800028004F709D83F
:1019A000FCE490030278BF79038002F0A3D8FCD94D
:1019B000FA9005C0AA82AB8390008E78C37901802B
:1019C00015E493A3AC82AD838A828B83F0A3AA82B1
:1019D000AB838C828D83D8E9D9E7121153121C1383
:1019E00074F71217BA7409121C09E0FEA3E0FFEAAB
:1019F000F8EBF980188C828D83E088828983F0A3CC
:101A0000A882A9838C828D83A3AC82AD838E088F3C
:101A100009E50824FF1EE50934FFFFE508450970C4
:101A2000D47F02021A26851983851882E0A3FEE07E
:101A3000A3F5207808E0A3F608DFFAE0A3FFE0A30F
:101A4000C0E0E0A3C0E0E0A3C0E0E0A3C0E010AFCE
:101A5000088582188583198008858218858319D2A4
:101A6000AFD083D0822274038000CCC0E0EDC0E010
:101A7000E518C39CCCAD1950011D10AF068C188D14
:101A80001980068C188D19D2AF121A93D0E0FDD0B0
:101A9000E0FC22CAC0E0E0A3C582CCC582C583CDEC
:101AA000C583F0A3C582CCC582C583CDC583DAE6E4
:101AB000D0E0CA22C008C3E096F50808A3E0964229
:101AC0000808A3E096420808A3E09645087001D3F1
:101AD000D008222518F58210AF08F5184002151914
:101AE0008008F51840021519D2AF85198322BB0171
:101AF00002E722C082C08389828A83BB0003E08020
:101B000002E493D083D08222C0D0251810AF08F50C
:101B100018500205198008F51850020519D2AFD0E7
:101B2000D0226016080808C6C313C618C613C61804
:101B3000C613C618C613C6D5E0EA22BB000EC08283
:101B4000C0838A838982F0D083D08222BB0101F7CF
:101B500022251810AF08F518400215198008F5184D
:101B600040021519D2AF227403800474028000C0B1
:101B7000E0F404121AD3D0E0121BE422E0667010E5
:101B800008A3E066700A08A3E066700408A3E06694
:101B900022700422600D18C6C333C608C633C6D5EA
:101BA000E0F41822E026F608A3E036F608A3E036B3
:101BB000F608A3E036F622600C08C6C313C618C6A2
:101BC00013C6D5E0F42275D00075814075180275F2
:101BD000190302198AE0F608A3E0F608A3E0F60864
:101BE000A3E0F622CAC0E0E6F0A308DAFAD0E0FAF1
:101BF00022EAF0A3EBF0A3ECF0A3EDF022E0FAA3CD
:101C0000E0FBA3E0FCA3E0FD222518F582E43519F2
:101C1000F5832200000080FB790122E473FFFFFFBF
:101C2000FFFFFFFFFFFFFFFFFFFFFFFFFFFFFFFFC4
:101C3000FFFFFFFFFFFFFFFFFFFFFFFFFFFFFFFFB4
:101C4000FFFFFFFFFFFFFFFFFFFFFFFFFFFFFFFFA4
:101C5000FFFFFFFFFFFFFFFFFFFFFFFFFFFFFFFF94
:10200000022C10022219FFFFFFFFFFFFFFFFFFFF5F
:10201000FFFFFFFFFFFFFFFFFFFFFFFFFFFFFFFFD0
:10202000FFFFFFFFFFFFFFFFFFFFFF0229B4FFFFDE
:10203000FFFFFF02223CFFFFFFFFFFFFFFFFFFFF4D
:10204000FFFFFFFFFFFFFFFFFFFFFFFFFFFFFFFFA0
:10205000FFFFFF022147FFFFFFFFFFFFFFFFFFFF23
:10206000FFFFFFFFFFFFFFFFFFFFFF0228CEFFFF85
:10207000FFFFFFFFFFFFFFFFFFFFFF022795FFFFAF
:10208000FFFFFF0221AE01FFFFFFFFFFFFFFFFFF8A
:10209000102010200101FF01010503010F10FEFFB8
:1020A000C635C635C635C63570346A34C6351149AD
:1020B000000000007349000000000C0000000C004C
:1020C000010000603800000000B2377A39FA37F0BA
:1020D000380000E8370000FF0101000E0700000093
:1020E0008607E80364006400B801020200080000EB
:1020F00005020701051E02051E020A0A03B80B02AB
:10210000803E010201FFFF0A01E0020206FFFF001C
:10211000035F005F00300058000000000000000076
:1021200000000000000000000000000000000000AF
:10213000000000000000000000B42509260926095F
:102140002609261126E803C0E074F2122555A2AF35
:10215000E433FED2AFE5A7FFE5A1F5085F541060B8
:102160000612410C75A1EFE5085F540860081241A2
:102170001275A1F7802BEFA2E0C0D0E508A2E09293
:10218000F0122B4D158182F05017906198E0F89075
:102190000A5FE0C398A2D265D0335002E8F075A17F
:1021A000FE751A00EEA2E092AF7F01022611C0E098
:1021B00074F2122555A2AFE433FED2AF9061A4E0D1
:1021C000F8759B00E59158540860087591F7124125
:1021D00054802AE59158541060087591EF12415AC5
:1021E000801BE8A2E0C0D0E591A2E092F0122B4D56
:1021F000158182F05007E0C2E0F01242AA9061A37C
:10220000E0F8E5E9585404600E12428075E9FB904D
:102210006193E0A2E640F28088C0E074F212255596
:10222000A2AFE433FED2AF9061A5E0F8E5BF585409
:1022300004600675BFFB1242C20221A1C0E074F126
:10224000122555E59DA2E650FA906206E0FAA2E258
:102250005035A82CE890620BF0F508852D09740420
:102260007808122C2FE508906207F0852C08852D40
:102270000974097808122C2FE508543E906209F081
:10228000906201E0D2E0F07829EA46F6906202E03E
:10229000F50875090074047808122B277829E508D9
:1022A00046F608E50946F6906204E0F5087509006F
:1022B00074097808122B27782AE50946F6EAA2E085
:1022C0005003752B0174065A6003752B00E58BA231
:1022D000E55006758BDF752B00124466758B00C2C6
:1022E000E87F02022611C3E498F8E499F912232743
:1022F0008026C3E49AFAE49BFBE920E7E91223274E
:10230000E498F8E499F922C3E498F8E499F91223DF
:1023100027E498F8E499F9C3E49AFAE49BFB22EBEA
:1023200020E7CFE920E7E0B90010BB0008E88AF019
:1023300084F8AAF022E4FBC8FA22EB70227B10C8D2
:1023400033C8C933C9335007C39AC3DBF280069A36
:1023500050012ADBEAC833F4C8C933F4C9FA22753C
:10236000F008E4C833C8C933C933C99AC99B5004BB
:10237000C92AC93BD5F0ECFBC833F4C8E4C9FA223A
:10238000080808EAC0E0EBC0E086F0E7A4FA180904
:1023900086F0E7A42AFA180986F0E7A42AFA1809B1
:1023A00086F0E7A42AFA1986F0E7A4FBE5F02AFAFA
:1023B000190886F0E7A42BFBE5F03AFA190886F035
:1023C000E7A42BFBE5F03AFA18180986F0E7A4C554
:1023D000F02BFBE43AFA1908E7C5F0C6A426F6E5A7
:1023E000F03BFBE43AFA1886F0E7A4F6E5F008269D
:1023F000F6E43B08F6E43A08F6D0E0FBD0E0FA2237
:10240000122C72B90003022463E47921780DB8001C
:10241000028004F709D8FCE49004D178E7790C80B5
:1024200002F0A3D8FCD9FA781A9020867A01BA0073
:10243000028007E493A3F608DAF99010B7AA82ABFA
:102440008390209478B479018015E493A3AC82AD95
:10245000838A828B83F0A3AA82AB838C828D83D8FC
:10246000E9D9E77582C0758387740512299675824C
:102470007E7583477400122996E4CFC0E0E4CEC095
:10248000E0E4CDC0E0E4CCC0E075F020C3E633F674
:1024900008E633F608E633F608E633F6181818ECC3
:1024A00033FCED33FDEE33FEEF33FFC3EC9709ED64
:1024B0009709EE9709EF97191919400FFFEC97FC50
:1024C00009ED97FD09EE97FE191906D5F0BEECF758
:1024D00009EDF709EEF709EFF7191919D0E0FCD06B
:1024E000E0FDD0E0FED0E0FF222518C582C0E0E587
:1024F0001934FFC583C0E0E518C3958224F810AFF6
:10250000088583198582188008858319858218D2E9
:10251000AFCEF0A3E520F0A37808E608F0A3DEFA3A
:10252000EFF0A3E58124FAF8E608F0A3E608F0A3AB
:10253000E608F0A30808E608F0A3E608F0A3158172
:102540001581D0E0FED0E0F8158115811581E8C035
:10255000E0EEC0E022C0D02518C582C0E0E5193405
:10256000FFC583C0E0E518C3958224F310AF08854A
:1025700083198582188008858319858218D2AFC88F
:10258000F0A3E9F0A3EAF0A3EBF0A37908E709F0E0
:10259000A3D8FAECF0A3EDF0A3EEF0A3EFF0A3D0F4
:1025A000E0F0A3D0E0F0A3D0E0F0A3E520F0A3E5B5
:1025B000F0F0A32212010002020000205104A8162C
:1025C0000900010203010902430002010080190908
:1025D000040000010202010005240010010424028D
:1025E00002052406000105240100010705820340BD
:1025F000004009040100020A0000000705840240AF
:10260000000007050402400000CF250000F225006D
:1026100000851983851882E0C0E0A3E0F9A3E0FA01
:10262000A3E0FBA37808E0F608A3DFFAE0FCA3E050
:10263000FDA3E0FEA3E0FFA3E0C0E0A3E0C0E0A3B1
:10264000E0F5D0A3E0F520A3E0A3F5F010AF0885F6
:1026500083198582188008858319858218D2AFD0A6
:1026600082D083D0E0F8D0E0320E000975F0108EF1
:10267000218F22858226858325851882851983E00E
:10268000CEA3E0CF852682852583EBC9EAC8EDCBB2
:10269000ECCAC3E833C8E933C9EA33CAEB33CBC366
:1026A000EA9EF524EB9FF523B35004AB23AA24EC58
:1026B00033CCED33CDD5F0DAAE21AF2222D083D0AA
:1026C00082ECC0E0EDC0E0E493A3FCE493A3FDED55
:1026D0004C600D1227D8EC24FFFCED34FFFD80EF99
:1026E000E493A3FCE493A3FDED4C600D122879EC78
:1026F00024FFFCED34FFFD80EFD0E0FDD0E0FCE4F2
:1027000093A3C0E0E493C0E022D083D082E9C0E08C
:10271000E493A3C386F0C5F095F0F908E493A3868B
:10272000F0C5F095F0700BE493A3C3994005E9045C
:102730008002A3E475F002A42582F582E5F03583DA
:10274000F583D0E0F9E493A3C0E0E493C0E02285F0
:102750001983851882E0A3FEE0A3F5207808E0A3A2
:10276000F608DFFAE0A3FFE0A3C0E0E0A3C0E0E0EA
:10277000A3C0E0E0A3C0E0E0A3C0E010AF08858202
:10278000188583198008858218858319D2AFD08374
:10279000D08202299CC0E074F2122555A2AFE43326
:1027A000FED2AFE58AA2E2500790081FE0D2E0F027
:1027B000E58AA2E3500790081FE0D2E1F0758A0095
:1027C000C2EB7A017B0090081BE0F9123ACAEEA234
:1027D000E092AF7F01022611C0E0C3E49396087433
:1027E00001939618400FE49366700808740193668D
:1027F0001870007019A3A3C3E4939608740193960C
:1028000018A3A3400DD0E0D0E0D0E00226F9A3A3A6
:10281000A3A3A3A3D0E022740480087403800474EB
:10282000028000CCC0E0EDC0E0E518C39CCCAD193F
:1028300050011D10AF068C188D1980068C188D194B
:10284000D2AF122918D0E0FDD0E0FC227402800043
:10285000CCC0E0EDC0E0E518C39CCCAD1950011D23
:1028600010AF068C188D1980068C188D19D2AF12F6
:1028700028F6D0E0FDD0E0FC22C0E0C0F088F0E413
:10288000936670080874019366187000A8F0A3A3FB
:10289000700BD0F0D0E0D0E0D0E00226F9A3A3D0B6
:1028A000F0D0E022D083D082CCC0E0E493A36006D5
:1028B0001229391470FAE493A36006122A81147065
:1028C000FAD0E0FCE493A3C0E0E493C0E022C0E0CF
:1028D00074F2122555758900C2C59010AFE0700ED4
:1028E0007A007B1090068CE0F9123ACA80031246F7
:1028F000047F01022611CAC0E0E493A3C582CCC5BF
:1029000082C583CDC583F0A3C582CCC582C583CDE6
:10291000C583DAE5D0E0CA22CAC0E0E0A3C582CC14
:10292000C582C583CDC583F0A3C582CCC582C583CE
:10293000CDC583DAE6D0E0CA22C0E0E493A3D39CFD
:102940005010E493A3C39C400AD0E0D0E0D0E00252
:1029500028C1A3A3A3D0E0227009080808226016AA
:10296000181818C6C333C608C633C608C633C60807
:10297000C633C6D5E0EA22C008C3E096F50808A32E
:10298000E096420808A3E096420808A3E0964508AE
:102990007001D3D00822C09FF59FE473D09F22D04E
:1029A00083D082C09FE493C0E0740193C0E07402BE
:1029B00093F59F22C0E0C0D0E8C0E0E5A8D2AFC246
:1029C000C7751A00A2E792AFD0E0F8D0D0D0E032BD
:1029D0002518F58210AF08F518400215198008F582
:1029E0001840021519D2AF851983227404800A7425
:1029F000038006740280027401C0E0F4041229D03E
:102A0000D0E0122C4D22BB0102E722C082C0838994
:102A1000828A83BB0003E08002E493D083D08222C9
:102A2000C0D0251810AF08F518500205198008F518
:102A30001850020519D2AFD0D0226016080808C677
:102A4000C313C618C613C618C613C618C613C6D5F0
:102A5000E0EA22C3E0C696F608A3E0C696F608A30D
:102A6000E0C696F608A3E0C696F622BB000EC0822A
:102A7000C0838A838982F0D083D08222BB0101F790
:102A800022C0E0E493A36C7009D0E0D0E0D0E00273
:102A900028C1A3A3D0E022251810AF08F5184002E2
:102AA00015198008F51840021519D2AF22E066709A
:102AB0001008A3E066700A08A3E066700408A3E0AB
:102AC0006622C3E09608A3E09608A3E09608A3E078
:102AD00096A2D265D03322E76670100809E76670C7
:102AE0000A0809E76670040809E76622C3E096F061
:102AF00008A3E096F008A3E096F008A3E096F02281
:102B0000C3E697F60809E697F60809E697F6080976
:102B1000E697F622E026F008A3E036F008A3E036B8
:102B2000F008A3E036F022700422600D18C6C3330B
:102B3000C608C633C6D5E0F41822E657F60809E6FB
:102B400057F60809E657F60809E657F622C0E0E806
:102B5000C0E0E58124FCF8E6A2E7D0E0F8D0E0226E
:102B6000E056F608A3E056F608A3E056F608A3E000
:102B700056F622E647F60809E647F60809E647F65C
:102B80000809E647F622E627F60809E637F60809B7
:102B9000E637F60809E637F622E026F608A3E0361F
:102BA000F608A3E036F608A3E036F622E056F00871
:102BB000A3E056F008A3E056F008A3E056F022E4A4
:102BC000C396F608E496F608E496F608E496F6222C
:102BD000C6F4C608C6F4C608C6F4C608C6F4C622BB
:102BE000600D08C6A2E713C618C613C6D5E0F322C7
:102BF000C3E7960809E7960809E7960809E79622C9
:102C0000C3E09608A3E09608A3E09608A3E0962206
:102C100075D0007581407518D17519040002240023
:102C2000E0F608A3E0F608A3E0F608A3E0F62260C9
:102C30000C08C6C313C618C613C6D5E0F422E6F0C6
:102C400008A3E6F008A3E6F008A3E6F022CAC0E075
:102C5000E6F0A308DAFAD0E0FA22E0FAA3E0FBA358
:102C6000E0FCA3E0FD22EAF0A3EBF0A3ECF0A3ED7F
:102C7000F022E5C754F84401F5C77901222518F57B
:102C800082E43519F58322C2AF75D69F0200002277
:102C900012299FFCE20312299FB1E30312299F0628
:102CA000E60312299F53E70312299FF6E70312292F
:102CB0009FE9E80312299F28E90312299F1EEB03CD
:102CC00012299F3CEB0312299F63EB0312299F00FB
:102CD000800212299F35800212299F5D80021229ED
:102CE0009F96800212299FA8800212299FFA8002D3
:102CF00012299F5B810212299FE5810212299F8977
:102D0000820212299FD1820212299F0B830212296B
:102D10009F28830212299F4D830212299F9F8302BD
:102D200012299FB8830212299FDE830212299F195C
:102D3000840212299F5D840212299F848402122931
:102D40009FD5840212299F85850212299F3D860204
:102D500012299F05870212299FC5870212299F0900
:102D6000880212299F2E880212299F718802122937
:102D70009FBE880212299F348A0212299FBA8A02B2
:102D800012299FD88A0212299F028B0212299F1CA6
:102D90008B0212299F2B8B0212299F368B0212293C
:102DA0009FF68B0212299F4F8C0212299F118D02D0
:102DB00012299F198D0212299F9D8D0212299F0AA7
:102DC0008E0212299F208E0212299F158F0212292E
:102DD0009FAB8F0212299F17900212299F429102E6
:102DE00012299F67910212299F78910212299FFD53
:102DF000910212299F8C920212299FE492021229B9
:102E00009FA8930212299FC7930212299FD694026A
:102E100012299FF4940212299F06950212299F59A4
:102E2000950212299F68950212299FF09502122996
:102E30009F2D960212299F3A960212299FB8970257
:102E400012299F17990212299F30990212299F79FE
:102E50009A0212299F0B9B0212299F429C0212295F
:102E60009F7B9C0212299FC79C0212299FDA9D0218
:102E700012299FFE9F0212299F09A00212299F1466
:102E8000A00212299F1FA00212299F29A002122925
:102E90009F34A00212299F4EA00212299F58A0021F
:102EA00012299F62A00212299F6DA00212299F7809
:102EB000A00212299FA0A00212299FFBA0021229A2
:102EC0009F05A10212299F29A10212299F4DA1024B
:102ED00012299FABA10212299FEFA10212299F0B79
:102EE000A20212299F82A20212299FBAA2021229CB
:102EF0009F06A30212299F63A30212299F1DA40209
:102F000012299F01A60212299F5AA60212299F8AFE
:102F1000A70212299FB0A70212299F2AA9021229EB
:102F20009FB5AC0212299F87AE0212299F50B002B2
:102F300012299FFDB00212299F71B20212299F101F
:102F4000B30212299F5DB30212299FC7B30212294F
:102F50009FD6B30212299F56B60212299F7BB70251
:102F600012299F0FB90212299F7CB90212299F5B77
:102F7000BA0212299F7EBB0212299FE6BC021229C7
:102F80009F05BD0212299F5ABD0212299F5FBE02F2
:102F900012299F87BE0212299FDFBE0212299FBEFF
:102FA000BF0212299F02C00212299F4DC00212299E
:102FB0009FB8C00212299FFDC10212299F61C2025F
:102FC00012299FAFC30212299F16C60212299F47DA
:102FD000C60212299FFFC70212299F54C802122954
:102FE0009F66C90212299F03CA0212299F5CCA0266
:102FF00012299F0FCB0212299FB1CB0212299F5198
:10300000CC0212299FF6CC0212299F2D8101122990
:103010009F76810112299FEE830112299F2D840141
:1030200012299F77840112299FB5850112299F14C7
:10303000860112299F48860112299F86860112293E
:103040009FFA870112299FBD8A0112299FF08B01E7
:1030500012299FA38C0112299F52950112299FE7E3
:10306000950112299FCE980112299FFD99011229DD
:103070009F5E9A0112299F7A9B0112299FC09C0191
:1030800012299F9F9D0112299F849F0112299F95BC
:10309000A10112299FEDA10112299FBFA2011229AE
:1030A0009F76A30112299F80A30112299FAEA3013D
:1030B00012299F6BA40112299F42A50112299F0981
:1030C000A60112299FA4A60112299F0EA701122969
:1030D0009F2CA70112299F55A70112299F77A701AD
:1030E00012299FCDA90112299FA5AA0112299FE9A2
:1030F000AA0112299F51AB0112299F09AC01122983
:103100009F3BAC0112299F7FAC0112299FB5AC01F6
:1031100012299F01AD0112299F56AD0112299F5B13
:10312000AD0112299FAEAD0112299FD3AD01122925
:103130009FE3AE0112299F5BAF0112299FB7AF0138
:1031400012299F43B00112299F31B30112299F1503
:10315000B40112299FACB50112299FE2B7011229CF
:103160009F90B80112299F40B90112299F81BB018C
:1031700012299F24BC0112299F6BBC0112299F17A1
:10318000BE0112299F2BBE0112299F35BE011229B3
:103190009F5DBE0112299F69BE0112299F88BE0151
:1031A00012299FD2C00112299F07C10112299F1124
:1031B000C10112299F1BC10112299F76C101122949
:1031C0009FD2C10112299FE6C20112299F47C30164
:1031D00012299F96C40112299FDAC40112299F82E5
:1031E000C50112299F65C60112299F10C701122926
:1031F0009F5CC80112299F5AC90112299F00CA0168
:1032000012299F90CA0112299FA7CA0112299FDE85
:10321000CA0112299FE8CA0112299FF2CA01122984
:103220009FFDCA0112299F1BCB0112299F5FCB0171
:1032300012299FBCCB0112299FE1CB0112299FFBD0
:10324000CB0112299F8DCC0112299FB7CD011229E4
:103250009F2ECE0112299F15CF0112299F4BCF011E
:1032600012299FBFCF0112299F3AD00112299F3EF8
:10327000D10112299F34D20112299FE3D2011229D0
:103280009FF6D30112299F92D40112299F14D501D0
:1032900012299FF2D50112299F2AD60112299F8255
:1032A000D60112299F4BD70112299F6CD7011229F1
:1032B0009FF3D70112299F17D80112299F39D801EE
:1032C00012299F82D80112299F98DA0112299F7B27
:1032D000DB0112299F2CDC0112299F62DE011229D9
:1032E0009FB2DE0112299FF2DE0112299F34DF0115
:1032F00012299F8EDF0112299FBCDF0112299FE056
:10330000DF0112299F33E00112299F61E001122998
:103310009F9AE00112299FF9E00112299F66E101BD
:1033200012299FCBE20112299FEEE40112299F5737
:10333000E50112299F80E50112299F0BE601122960
:103340009F77E60112299FC2E60112299FE6E60156
:1033500012299F0AE70112299F65E70112299F8020
:10336000E70112299F39E80112299F5EB20512294F
:103370009F96B20512299FD8B20512299F3EB30528
:1033800012299F48B30512299F58B30512299F7C23
:10339000800312299FC2800312299FA28103122950
:1033A0009FA4820312299FA7830312299F338503B9
:1033B00012299F91850312299F4E860312299F6C23
:1033C000870312299FDD870312299F198803122979
:1033D0009F67880312299F71880312299FB588036C
:1033E00012299F11890312299FAC890312299F2951
:1033F0008A0312299FF88A0312299F918B031229AD
:103400009FB18B0312299FE78B0312299F188C030E
:1034100012299FD98C0312299FE98C0312299F3D01
:103420008D0312299F588D0312299F6A8D0312293B
:103430009F738D0312299FCD8D0312299F298E031F
:1034400012299F758E0312299F908E0312299FC106
:103450008E0312299FDE8E0312299FEA8E03122902
:103460009F5E900312299F77900312299FDE90039D
:1034700012299FF1900312299FFF900312299FB3F5
:10348000910312299F97920312299F9D930312295A
:103490009F27940312299F31940312299F9E94031E
:1034A00012299FB5940312299FE7940312299F20A4
:1034B000950312299F4A950312299FAB9503122960
:1034C0009FCB950312299FE9950312299F2F9603FD
:1034D00012299F55970312299FA2970312299FD162
:1034E000970312299F47980312299F6F9803122967
:1034F0009FA8980312299FB6980312299F0E99033B
:1035000012299F5D990312299F9C990312299FCC30
:10351000990312299FF8990312299F039A031229EC
:103520009F219A0312299FE39A0312299FED9A0380
:1035300012299F289B0312299F3E9B0312299F4714
:103540009B0312299F9C9B0312299FB09B03122966
:103550009FAD9C0312299FC09C0312299FD79C03F7
:1035600012299FEC9C0312299F8E9D0312299F1103
:103570009E0312299FCF9E0312299FDA9E031229D0
:103580009F06A00312299F22A00312299F74A00363
:1035900012299FB3A00312299FC8A00312299F2AB2
:1035A000A10312299FB9A10312299F04A203122982
:1035B0009F55A40312299FD3A40312299F48A50352
:1035C00012299F6AA70312299F82A70312299F85A8
:1035D000A70312299F91A70312299FA5A7031229C8
:1035E0009FADA70312299FE0A70312299F90A8036C
:1035F00012299F06A90312299F79A90312299F2D39
:10360000AA0312299FE2AA0312299F01AB031229E0
:103610009FA1AB0312299FADAB0312299FD8AB0327
:1036200012299FDBAB0312299F0AAC0312299F1FAB
:10363000AC0312299F89AC0312299FB1AD03122953
:103640009F89AE0312299F14AF0312299F2DB00347
:1036500012299FEAB00312299F23B10312299F5414
:10366000B10312299F12B20312299F42B2031229F9
:103670009F1DB30312299FB6B30312299F41B403C0
:1036800012299FF2B40312299F75B50312299FA72F
:10369000B50312299FE8B50312299F1DB60312290D
:1036A0009F3E990412299FA3990412299FDB990434
:1036B00012299F2A9A0412299F4C9C0412299F2F99
:1036C0009E0412299FCEA10412299F6CA2041229E4
:1036D0009FA1A20412299FC3A20412299F28A30418
:1036E00012299F5EA30412299F86A30412299FA971
:1036F000A30412299FD6A30412299F29A4041229E6
:103700009F75A40412299F2C8D0412299FAD8D044E
:1037100012299FE38D0412299F4A8E0412299FBD0E
:103720008F0412299FD98F0412299F1E90041229F9
:103730009FAC900412299F05910412299F3992048D
:1037400012299F07930412299F7F930412299FFB3C
:10375000930412299F3D940412299F7E94041229F8
:103760009FB2950412299FB0960412299FDB9604FC
:1037700012299F26970412299F6D970412299FFFF3
:10378000970412299FB8980412299F74FB041229E8
:103790009F85FB0412299FD6FB0412299F1BFC0462
:1037A00012299FCAFC0412299F04FD0412299F00BC
:1037B000800412299F95800412299F4381041229B5
:1037C0009FCE810412299FAE840412299F5D860436
:1037D00012299F14870412299F69870412299F4A7E
:1037E0008A0412299FE28B0412299F7DAE051229BB
:1037F0009FA5AE0512299F9CAF0512299F9CE3044B
:1038000012299F21E40412299F38E40412299FAD54
:10381000E40412299F0DE50412299F36E5041229BC
:103820009FB3E50412299F4FE60412299FB6E604D0
:1038300012299F1EE70412299F45E70412299F7E43
:10384000E70412299F9CE70412299FC5E704122967
:103850009FF3E70412299F39E80412299F9FE80487
:1038600012299FADA40412299F54A50412299F7404
:10387000A50412299F9BA50412299FAFA504122914
:103880009F07A60412299F37A60412299FB8A704F0
:1038900012299F5EA80412299F40A90412299F9112
:1038A000A90412299FD4A90412299F17AA04122936
:1038B0009F7DAA0412299F9EAA0412299F2AAB0465
:1038C00012299F52AB0412299FC6AB0412299F7480
:1038D000AD0412299F4EAE0412299FA8AE041229EE
:1038E0009F6DA50512299F77A50512299F98A5050B
:1038F00012299F5C730012299FBE750012299FF93F
:10390000760012299FC6780012299F137900122988
:103910009FCC790012299F0D7A0012299F3D7A00D1
:1039200012299FD47A0012299F6E7B0012299FE1F1
:103930007B0012299F5B7C0012299F5D7C0012296D
:103940009F5F7C0012299F617C0012299FA3DC03EA
:1039500012299F8E7C0012299FA77C0012299FF4B8
:103960007C0012299F257D0012299F9E7D0012292F
:103970009FB57E0012299F73E80112299F90E801EC
:1039800012299FE2E90112299F0DEA0112299F7E67
:10399000EA0112299FA2EA0112299FC2EA01122913
:1039A0009F0CEB0112299F36EB0112299F59EC0164
:1039B00012299F23E20312299FBEEC0112299F00C6
:1039C000ED0112299FAAED0112299FCAED011229CA
:1039D0009F1FEF0112299FA1EF0112299F98F0016B
:1039E00012299F68F10112299FD8F10112299F29FC
:1039F000F20112299F5BF20112299FBDF2011229E7
:103A00009F28F30112299F72F30112299FA8F40144
:103A100012299FDDF40112299F44F50112299F0C00
:103A2000F60112299F34F60112299FDCF7011229B1
:103A30009F5DF80112299F90F80112299FCCF8018F
:103A400012299FE5F80112299F71F90112299F356A
:103A5000FA0112299FDFFA0112299F80FB01122926
:103A60009F1FFC0112299F9EFC0112299F62DD0409
:103A700012299FAEDD0412299F1CDE0412299F3DEE
:103A8000DE0412299F54DE0412299F04DF04122948
:103A90009F0DDF0412299F60DF0412299F89DF0434
:103AA00012299FF0DF0412299F81E00412299FC38D
:103AB000E00412299F0DE10412299F6CE1041229F0
:103AC0009F98E10412299F29E20412299F68E204C9
:103AD00012299FA7E20412299FDCE20412299FEE1B
:103AE000E20412299F00E30412299F33E304122900
:103AF0009F73E30412299FFCED0412299FCFEE046B
:103B000012299FE9EE0412299FFAEE0412299F0F51
:103B1000F10412299F2EF10412299FB3A70512293F
:103B20009FE9A70512299F32A80512299F82A9059E
:103B300012299FEAE60212299F29E80212299F65AD
:103B4000E80212299F24EA0212299F4DEA02122953
:103B50009FE0EC0212299F24ED0212299FADEE0294
:103B600012299F45EF0212299FADEF0212299F4EA5
:103B7000F00212299F90F00212299FD0F002122920
:103B80009F5BF20212299FCBF30212299FF0F502EC
:103B900012299F1EF60212299F45F60212299F4EF6
:103BA000F60212299FA9F60212299F3CF702122958
:103BB0009F5AFA0212299FDBFA0212299F32BC0592
:103BC00012299F48BC0512299F52BC0512299FA2A9
:103BD000BC0512299F798B0512299F8C8B05122910
:103BE0009F298C0512299F658C0512299F7C8C05C5
:103BF00012299FA18C0512299FE38C0512299F147D
:103C00008D0512299F4F8D0512299FC98E051229F6
:103C10009F0A8F0512299FCDB40512299F22B50551
:103C200012299F7BB50512299F94BB0512299FD6A7
:103C3000BB0512299F18BC0512299F28BC05122913
:103C40009F81EB0312299FD9EB0312299FDEEC031E
:103C500012299FAEED0312299FC3ED0312299F0D78
:103C6000EE0312299F5CEE0312299F6FEE031229C7
:103C70009FB0EE0312299F09EF0312299F1DEF0346
:103C800012299FFCF00312299F03F20312299F3E81
:103C9000F20312299F52F40312299F61F40312299F
:103CA0009FB0F40312299FC6F40312299FDDF40389
:103CB00012299F0CF50312299F1DF50312299F3D20
:103CC000F50312299F48F50312299FA1F503122934
:103CD0009FFBF50312299F56F60312299F7BF703DA
:103CE00012299F9DF70312299F25FA0312299F5A33
:103CF000FA0312299FE3FA0312299F5BFB0312299F
:103D00009F67FB0312299FA3FB0312299F0BFC0350
:103D100012299FEDFC0312299F21FD0312299F2BDD
:103D2000FD0312299F2EFD0312299F3DFD03122939
:103D30009FBAFD0312299FD5FD0312299FF7FD03AA
:103D400012299F23FE0312299F5EFE0312299F6DF5
:103D5000FE0312299F78FE0312299FB4FE03122945
:103D60009FC7FE0312299FEEFE0312299F01B8058B
:103D700012299F12B80512299F9AB80512299FB1DE
:103D8000CF0412299F00D00412299FA2D104122926
:103D90009F5ED30412299FA6D30412299F8ED404B8
:103DA00012299FBFD50412299FE1D50412299F3DF6
:103DB000D60412299FC1D60412299FAA4C001229A9
:103DC0009FD84C0012299F234E0012299F6A4E0053
:103DD00012299FBC4E0012299F384F0012299FA123
:103DE0004F0012299FED4F0012299F6E500012299B
:103DF0009F14510012299F9C510012299FDE5100EF
:103E000012299F1B560012299F9F570012299FDEDF
:103E1000570012299F22580012299F2E5B00122959
:103E20009FB95B0012299F905D0012299FD25E000E
:103E300012299FF05F0012299F62600012299F2EB5
:103E4000610012299F9A610012299F9D6100122929
:103E50009F51620012299F86630012299FC465004A
:103E600012299F44680012299FFD680012299F199A
:103E70006A0012299F706D0012299F806D0012291F
:103E80009FE16E0012299F6E6F0012299F9D7000A6
:103E900012299F31710012299F2C720012299FC490
:103EA000720012299F42CD0212299FF8CD021229D9
:103EB0009F6ACE0212299F79CE0212299FF3CE0269
:103EC00012299F62CF0212299F69D00212299F9264
:103ED000D00212299F32D10212299F80D1021229C9
:103EE0009FF7D10212299FE9D40212299FBED50261
:103EF00012299F2BD60212299FABD70212299F5F4E
:103F0000D80212299F0DD90212299F68D9021229BD
:103F10009FD3D90212299FD3DA0212299FBBDB0259
:103F200012299FFFDB0212299F2CDC0212299F54C9
:103F3000DC0212299F89DC0212299F12DD0212295C
:103F40009F70DE0212299F3DE00212299F54E10278
:103F500012299F91E20212299FA4E30212299F3D98
:103F6000E40212299FAFE40212299F77E502122989
:103F70009F9FFD0112299FC3FD0112299FE9FD01A9
:103F800012299FEEFD0112299F42FE0112299F3343
:103F9000FF0112299F0FA30512299F40A305122993
:103FA0009FFAA30512299F60A40512299FD1A40599
:103FB00012299F3F880512299FA1890512299F1E5A
:103FC000FF0312299F2FFF0312299FCFFF031229FE
:103FD0009FF5FF0112299FE4FF0112299F52BA05A4
:103FE00012299F62BA0512299F7ABA0512299FE702
:103FF000BA0512299FFFB60512299F84B705122919
:104000009FE8B70512299FA7B90512299FAAB905EC
:1040100012299FE3B90512299F34BA0512299F4638
:10402000BA0512299F49BA0512299FF98305122959
:104030009F07840512299F81840512299F598505B0
:1040400012299FE4860512299F49870512299FACF2
:10405000870512299FF87F0012299FE5A9051229DB
:104060009F00AB0512299F84AB0512299FFD98057F
:1040700012299F9B990512299FE2990512299F25D4
:104080009A0512299FE89A0512299F1C9B0512295F
:104090009F4B9B0512299F5E9B0512299F739B05D1
:1040A00012299F7C9B0512299F38FB0212299F8DA4
:1040B000FB0212299F89FD0212299FBBFD021229D2
:1040C0009FDDFD0212299FF6FD0212299F0FFE02BD
:1040D00012299F19FF0212299FB4FF0212299F2063
:1040E000AD0512299F45AD0512299F55AD05122931
:1040F0009F88AD0512299FB9AD0512299FE7AD052F
:1041000012299FF8AD0512299F5AAE0512299F6901
:10411000AE0512299F73AE0512299FBE9B05122979
:104120009FE49B0512299F219C0512299F309C0525
:1041300012299F4F9C0512299FB79C0512299FC0E9
:104140009C0512299F1F9D0512299F439D05122939
:104150009F029E0512299F0F9E0512299F209E05F2
:1041600012299FB9FF0412299FD6FF0412299F0B21
:10417000F70412299F5FF70412299FBFF804122940
:104180009FCCF80412299FDFF80412299FFEF8043F
:1041900012299F14F90412299F28F90412299FABB0
:1041A000F90412299F0EFA0412299F89FA04122990
:1041B0009FF7FA0412299F55FB0412299F65FB04FF
:1041C00012299FFBBA0512299F1FBB0512299F4781
:1041D000BB0512299F6FBB0512299F4E9E05122910
:1041E0009F759E0512299F969E0512299FFB9E058D
:1041F00012299FB4A00512299FCDA00512299FD98D
:10420000A00512299FEDA00512299F0BA1051229D7
:104210009F15A10512299F1FA10512299F32A105F3
:1042200012299F83A10512299FBCA10512299FEB8A
:10423000A10512299F39A20512299F88A2051229DA
:104240009FA3A20512299FADA20512299FBEA20518
:1042500012299F04A30512299F9A7F0012299FEB20
:104260007F0012299FBCAE0412299FE8AE041229D8
:104270009F04AF0412299F17AF0412299F2DAF048A
:1042800012299F99AF0412299FCCAF0412299FFBDA
:10429000B30412299F21B50412299F54B504122991
:1042A0009FA0B50412299FD9B60412299F01B70413
:1042B00012299F16B70412299F26B70412299F6A54
:1042C000B70412299FBFB70412299FCFB704122940
:1042D0009F9AB30512299FB5B30512299FDEB30536
:1042E00012299FF8B30512299F1DB40512299F3C7E
:1042F000B40512299F54B40512299F82B4051229CE
:104300009F9CB40512299FF3B80512299F39B9055E
:1043100012299F178F0512299F1E8F0512299F2A88
:10432000900512299F5A900512299F809005122905
:104330009FA3900512299FC5900512299FFF900504
:1043400012299F65910512299F9E910512299FEAC6
:10435000910512299F17920512299F37920512295C
:104360009FCDAF0512299FEFAF0512299F14B1050C
:1043700012299F17B10512299FECB50512299F5EDE
:10438000B60512299F9CB60512299FDDB605122994
:104390009F98C00412299F9EC00412299FE4C00464
:1043A00012299FCDC20412299F03C30412299F5DC5
:1043B000C30412299F3FC40412299F84C4041229F4
:1043C0009FB7C40412299F41C50412299F5BC504ED
:1043D00012299FE7C60412299FE5C70412299F2EC0
:1043E000C80412299FFDB70412299F13B80412298B
:1043F0009FA8B80412299FA4B90412299FA8BA043F
:1044000012299F4DBB0412299F91BB0412299F0EB4
:10441000BC0412299F6FBC0412299F7FBC0412297F
:104420009FA6BC0412299FF8BC0412299F85BE04D4
:1044300012299F8ABE0412299FACBE0412299FCB69
:10444000BC0512299FF9BC0512299F2EBD05122912
:104450009F30BD0512299F32BD0512299F43BD051E
:1044600012299F45BD0512299F48BD0512299F8E1F
:10447000AB0512299FFCAB0512299F1EAC05122922
:104480009F56AC0512299F8CAC0512299FCD95052E
:1044900012299F10960512299F2E960512299F5FBB
:1044A000980512299F97980512299FBB98051229F4
:1044B0009F4BBD0512299F67C80412299F2EC9046E
:1044C00012299F1FCA0412299F30CA0412299F4132
:1044D000CA0412299F8DCA0412299F81CC04122973
:1044E0009FDECD0412299F0ECE0412299FDACE043E
:1044F00012299F37CF0412299FFCD60412299F82CC
:10450000D70412299F78D90412299F0EDA041229A0
:104510009F39DA0412299F05DB0412299F7FDB04EF
:1045200012299FA4DB0412299F44DC0412299F8BCB
:10453000DC0412299F87F20412299F88F3041229B0
:104540009F18F50412299F43F50412299F4FF60482
:1045500012299FC1F60412299F00800512299F2667
:10456000800512299F75800512299F9180051229C7
:104570009FC2800512299FD2800512299FDF8005E6
:1045800012299FEC800512299FD8810512299F16B8
:10459000820512299F20820512299F2D820512294A
:1045A0009F38830512299F4A830512299F55830549
:1045B00012299F67830512299F70830512299F7A0C
:1045C000830512299FEF830512299F56E9041229BA
:1045D0009F76ED0412299F92ED0412299F97920570
:1045E00012299FAD920512299F30940512299F5AD6
:1045F000940512299FA2940512299F9E95051229C0
:104600009F1AB10512299FB9BD0512299FDEBD056C
:1046100012299F05DA0312299FCED80312299F225F
:10462000D80312299F68D60312299F18D403122990
:104630009F9FD30312299F46D30312299FD6D203EB
:1046400012299FADD20312299F8DD00312299F59A1
:10465000D00312299F26D00312299F0AD0031229C2
:104660009FD8CE0312299F38CE0312299FF0CD0385
:1046700012299F3BCC0312299FBBCB0312299FB861
:10468000CB0312299FACCA0312299F7ACA031229AD
:104690009FB7C90312299FE2C70312299F8FC7033F
:1046A00012299F61C70312299FEEE10312299FBAC5
:1046B000E10312299F9EE10312299F3EE103122983
:1046C0009FF6E00312299F5EC70312299F4BC70381
:1046D00012299FF6C60312299FE5C60312299F449B
:1046E000E00312299FDBC50312299F71C50312291C
:1046F0009FF7C40312299FC2C40312299FB6DF0388
:1047000012299F8FEC0112299F63C40312299F3243
:10471000C40312299FFAC00312299FBAC0031229A9
:104720009FAEC00312299F0EC00312299F4EBF03E4
:1047300012299FC6BC0312299F57BA0312299F153D
:10474000BA0312299FE9B80312299F9EB8031229C0
:104750009FDAB70312299FADB70312299FE5B6036D
:1047600012299FF3FF0212299FB5B60312299FA9B0
:10477000DF0312299F7BB60312299F8C7C00000067
:104780000080FBE4738F000100F00787000100EF59
:10479000072400020005112500020007112600026F
:1047A000000911270002000B11280001000D11293A
:1047B0000001000E11840004000F11860001001397
:1047C000112A00010014112B00010015112C000109
:1047D0000018112D000800DB072E00010019112F11
:1047E0000001001A11300001001B11310001001CF2
:1047F0001132000100E30733000100E40734000137
:10480000001D1136000100E507380001001E1139B6
:10481000000100171183000200281163000100EE5F
:104820000764000100D8076500010016116D000142
:104830000027116E000200D907430001001F114438
:104840000002002011450001002211460002002351
:104850001147000800E6074800010025114B000140
:10486000002611040001002A11A10001002C1137BB
:104870000001002B1188000100F10700000000007A
:1048800000000136360101000102010001030100B0
:1048900001040106060502000007010034080100BA
:1048A0000F090401010D0100FF0E080000170200AE
:1048B00000190100FF1A0100011B0100FE1C01008C
:1048C000081D0200001F010001200100012102005B
:1048D000002301000F24020000260100012701002F
:1048E00008280200FF2A0100072B0102402C0100CA
:1048F000002D0100012E0100012F0100FF30010BEE
:104900001C310800003A0100083B01000F2F010094
:1049100000030071003001600011007000310220BE
:104920000350048000100061000000140063007355
:104930000072006200430000001300060000000047
:104940000004001200000000000000000004000449
:1049500000370037003C0244000000000000000067
:1049600000650000003500810000000500000083A4
:1049700000000001037103010301030103010301AE
:1049800003220302030103100300030003000300DA
:104990000300030003000342030003240306030093
:1049A0000300030403120325032303250323030445
:1049B0000304030003000300034403000300032374
:1049C0000300036503210035038103000305030091
:1049D0000300030003010171010101010111010143
:1049E000013101010101018001100161013B00144D
:1049F00000630173017201620143010001130106AA
:104A0000013D013500040112010001000100010017
:104A10000104010401330133013C01440132013638
:104A20000000010001650100013500810100010560
:104A30000182018301000103047104020460041176
:104A4000047004020402040104020410046104005E
:104A50000414046304730472046204430400041322
:104A6000040604000400040404120400040004000A
:104A70000400045104640000040004000444040021
:104A80000400040004000465040004350481046487
:104A90000005040004830400040302710230016075
:104AA000021102700201020202020280021002617F
:104AB000023A004100630273027202620243020082
:104AC0000213023800000200020402120200020077
:104AD000020002000204020402370037003C0244D4
:104AE0000200023900000200026502000235028164
:104AF00002000205028202830200020000DE3E1371
:104B000000543E0100DE3E0200DC3D0300E23D04B5
:104B100000E83D0500EE3D0600FA3D3000183E314C
:104B200000123E3200243E33002A3E3500303E342F
:104B300000363E36003C3E1100483E14004E3E1505
:104B4000000C3EFFFF000036000100060000000FD1
:104B50000000000000000000000000000003FFFF54
:104B600000000403FFFF0000FFFF0FF4010005C475
:104B7000040320000100000B000000000000000002
:104B800003010F015C30069230088C300BAA301004
:104B9000CC2F0AC2300262300580300768300C3EEC
:104BA000300D5030FF000003EAF5E5D5D5C5B5A5B9
:104BB0009595858575756565555545453535252525
:104BC000151505CA34FA34D034D634F434E834E256
:104BD00034003506350C351835DC34C434BE3400A9
:104BE000160F00000B150B020002220F3200000608
:104BF000C635D835DE359434E4358E349A34CE3328
:104C0000C83304340A34FE33B6333236503656369F
:104C1000383644363E360C0E020B040B0A070800E9
:104C20000F303016181920231A1C1E3000011916D7
:104C30001816161523030000034948424D1817257E
:104C40000502303017181921301B1D1F3000383C69
:104C50003E363B3B352B432C1A36EA35F035FC35D6
:104C6000F635EE3412354A361E352435020402017B
:104C70000101010902DA33E033D4331034E633F8AA
:104C80003300BE040A150004007F00E8030C00286E
:104C900000000000000308100C0A030809000400CB
:104CA00001FF1E1E0C05040F1008C082C083900770
:104CB0007EE4F0A3F07CD57D047AFA7B061243886B
:104CC000122DDA9007EFE07004790080027901126A
:104CD0004772122DE00268D874F51224E974F512B7
:104CE0002A97E9FF8A08EBFEEF705E740265087090
:104CF0003E9007117408F0750A00780A1229F7EC43
:104D0000F50A780A1229F7EEF50A780A1229F790BF
:104D1000110F122817901113E0F97CE67D0790110E
:104D200028125D7D122E047407122A20024DFA7497
:104D30000165086003024DFF9007117408F07B00C5
:104D4000EEFAF9122E40024DFA74016F60087402F7
:104D50006F6003024DFFEA600674036508705490AB
:104D600007117402124E19122C5A122DF2E9F89002
:104D70000716E0A2E34019E87016900782E004F0FD
:104D80006404700C9080E0122C5A90110F122C6663
:104D9000740365087066900783E0F9740129F0E9EF
:104DA000C3940540579080E0122C5A90110F122C9A
:104DB00066804974016508704674016F9007117030
:104DC0002E740AF07401122C7DE4F07402122C7D12
:104DD0007403F09080E4122C5A7404122C7D122C6F
:104DE000667408122C7DE4125BA912306E80207468
:104DF0000A124E19122C5A122E28E9F8E860107C7B
:104E0000E87D037A017B0090070EE0F9123BEA741B
:104E10000B122A207F0302274FF0901113E0F99024
:104E2000110F2274F61224E9E9FFEAFE7AD1F91291
:104E30003AA6EA4B702A7A027B00123A8EEA4B704D
:104E40000E7A107B0090070EE0F9123ACA80188A99
:104E5000828B8374D1F0EFA3F0EEF9123A9A8007B7
:104E6000EF8A828B83A3F0024FE874F71224E9895A
:104E700008900675E0FEA3E080248E828F83A3A3B2
:104E800012618660128E828F83A3A31255E812618D
:104E900086FAA908123DC48E828F83127274FFEEC7
:104EA0004F70D790068CE0FAA908123DC4123182E7
:104EB0009006E41257D812317C02708D74F11224DE
:104EC000E9890A8C08740F122C7D125D6974111225
:104ED0002C7D1255D0750900750E00804AE50B1225
:104EE0004F89F50CA3E0F50DE50EC333FEE433FF67
:104EF000EA2EF582EB3FF583E0650C7004A3E065D4
:104F00000D7019E509C333FEE433FFEC2EF582ED95
:104F10003FF583E50CF0A3E50DF00509050BE50B66
:104F2000C3950840B8050EE50EC3950A5005750BEC
:104F30000080EBA90902637074F41224E9890B74F0
:104F40000C122C7D125D69750A008002050AE50AC3
:104F5000C3950B502F7D0080010DEDC39C50EDE5F6
:104F60000AC333FEE433FFEA2EF582EB3F124F997A
:104F7000F509ED124F8965087004A3E0650970D941
:104F80007901800279000265BAC333FEE433FFE899
:104F90002EF582E93FF583E022F583E0F508A3E0F2
:104FA0002274F61224E912502F7003A3E06D7017DB
:104FB00075081475090778081229F3EEFA123EE411
:104FC0007402122A20801A75080275098078081266
:104FD00029F38C088D0978081229F312505A122AE5
:104FE0002080057402122A207F0202274F74F612D5
:104FF00024E912502F7003A3E06D70177508217516
:10500000090778081229F3EEFA123EEA7402122A0E
:1050100020801A75080375098078081229F38C0816
:105020008D0978081229F312505A122A2080B9EA01
:10503000FEEBFF125047FAA3E0F9EA2400FCE43942
:10504000FD9006E4E06C22EE12618CEF127042E0FB
:10505000F8A3E0F988828983E022EE127062EF12F1
:1050600071BDFD7C8012623E123F0874042274F60A
:105070001224E974FE122A97EAFEEBFF8518828556
:105080001983E4F0A3F012637DFA88828983A3A3D5
:10509000E0F97509007508006005C394F1400575D5
:1050A000088280439006E4E06A7003A3E06B7020FE
:1050B000851882851983AA82AB831236D4E9F50953
:1050C00085188285198312682A701C7508838017D9
:1050D0009007EFE06004640170057508818008E0C6
:1050E000640270037508808518828519831255D073
:1050F000A908EEFAEFFB123EF0E50960148518826C
:1051000085198312682A60098518828519831268B7
:10511000E6024FE374F21224E9EAFEEBFF750A009F
:10512000750B00125188123182EA65087003EB6535
:105130000970121236E6E914F50A79017A4A7B07FA
:105140001236EC8003750B8012702BF50C780C1264
:1051500029F7750C4A750D07780C1229F3780A1295
:1051600029F778081229F3E50BF50878081229F7D2
:10517000126056F582EF125ECE7A057B80123EF603
:105180007407122A20025D8B127039125D6D8882BD
:1051900089831272B1F508E439F5092274F61224F4
:1051A000E9E9FE7F00802F8A828B83124F9BF9E50D
:1051B000082400E439F509EF33F8E433F9EC28F575
:1051C00082ED39F583E508F0A3E509F0EA24020A47
:1051D0000AEB3400FB0FEFC39E40CC024FE874E8AB
:1051E0001224E974FB122A978A168B178518828578
:1051F0001983E4F07403122C7DE4F0A3F004122C64
:105200007DE4F0126E9EF50AA3E0F50B850A82F5A7
:10521000831272ADFEE439FF850A82850B83A3A356
:10522000E0FA850A82850B83A3A3A3E0F9EAF508D7
:10523000E439F509E50A2404F50AE50B3400F50B19
:10524000EEFAEFFB123224E96401702C126CDC12CE
:1052500029F7E4F508F50978081229F378081229E6
:10526000F79006E412281F75088078081229F712B3
:1052700055F0122A200255BEEEFAEFFB123224E955
:10528000700C9006E4E06E7003A3E06F70BE1255E0
:10529000D68814602EC333FAE433FB123B24740324
:1052A000122C7D1257D87403122C7D12682A6013B9
:1052B0007403122C7D1255C8A914123DF48A0A8B6E
:1052C0000B80037514001255D6880F602AC333FA79
:1052D000E433FB123B247401122C7D1257D8740165
:1052E000122C7D12682A600F7401122C7D1255C891
:1052F000A90F123DF48003750F00900675805D853F
:105300000A82850B83A3A3A3A3A3A3A3A3E4F0A36F
:10531000F0AA0AAB0B851282851383A3A31255E66C
:10532000126186F9123A9A851082851183E0C0E0F5
:10533000851882851983E0F8744A28F5827407126B
:105340007267D0E01265BF04F0E515A2E05007AA2D
:1053500010AB11123B2A851282851383E0F512A34C
:10536000E0F513E512451370030255368512828568
:105370001383A3A312618660DD851282851383A344
:10538000A3A3A3A3A3A3A3E0A2E050CA851282858E
:105390001383A3A3A3A312682A851282851383A370
:1053A000A3601F126186FA7901851282851383A397
:1053B000A3A3A31261911247838A108B1175150163
:1053C000800F1255E6A3A3E0F510A3E0F5117515C3
:1053D00000E5104511700302534985108285118341
:1053E000A3E065087004A3E06509600302534985E2
:1053F0001082851183A3A3A3A3A3A3A312281F85AF
:105400001082851183A3A3A3A3A3A3E0FC740512B8
:105410002C7D125D7DA914123DD67402122A20E95A
:10542000703C851082851183A3A3A3A3A3A3A3A388
:10543000A3A312281F851082851183A3A3A3A3A36E
:10544000A3A3A3A3E0FC7403122C7D125D7DA90F1E
:10545000123DD67402122A20E97003025349E50F67
:105460002514C333240AFA7B00123A8E8A0A8B0B66
:10547000EA450B70030253278A828B8374D2F0852E
:105480001682851783A3A3125D698A828B83125BC0
:10549000B18A828B83A3A3A3A3E5141272B7E50F8D
:1054A000F0E5146038EA2405FAEB3400FBE50A2441
:1054B0000AF8E50B3400F98A828B83125BB374031C
:1054C000122C7D12560E1229EFE514C333FCE4337F
:1054D000FD8A828B831269E2122A20800D8A828BD8
:1054E00083A3A3A3A3A3E4F0A3F0E50F70030252E8
:1054F000FFE514C333F8E433F9E50A28F8E50B397E
:10550000F9E8240AFAE93400FB850A82850B83A3B3
:10551000A3A3A3A3A3A3A31257D87401122C7D1293
:10552000560E1229EFE50FC333FCE433FD12710868
:10553000122A20025311851882851983E0602712F0
:105540006CDC1229F775084A75090778081229F3E7
:105550007403122C7D126CE61229F79006E41228CF
:105560001F7508008029EEFAEFFB123224E9702A39
:10557000126CDC1229F775084A7509077808122998
:10558000F375080078081229F79006E412281F78AE
:10559000081229F71255F0122A207403122C7D12DA
:1055A000682A60087403122C7D1268E67401122CBC
:1055B0007D12682A60087401122C7D1268E6740559
:1055C000122A207F1002274F1255D0AA0AAB0B22B5
:1055D000E0FCA3E0FD22850A82850B83E0F8A38529
:1055E000820A85830B22E0F8A3E0F5838882A32258
:1055F000E5162402FCE5173400FDE516125FEBE525
:105600001712624B7A067B80123EF6740722E0F591
:105610000CA3E0F50D750E00780C2274F41224E949
:1056200074F4122A978A088B09ECFEEDFF740B12B2
:105630002C7D7403F0122C7DAA82AB831243881256
:10564000317CEAFCEBFD7403122C7DAA82AB831241
:105650004382E9600A1257686010E06401600B85BC
:10566000188285198374840257208E828F83A3A3A6
:10567000A3A3A3A3A3A3E06017C394F150121257EE
:10568000687018EE241412702E6005C394F1400B5C
:105690008518828519837482025720E508240CF549
:1056A00082E50912703164217002A3E0704F851801
:1056B00082851983748CF012575B1229F712577880
:1056C0001247067401122A20E9705685188285193E
:1056D00083E4F0123D4612576870467401122C7D27
:1056E000AC82AD831271DEFB1246E8E970337D00B7
:1056F0007C0079001271DEFB123EB4802412575BED
:105700001229F71257781246F47401122A20E985FB
:1057100018828519837007E4F0123D46800374886F
:10572000F0127060E5091257601229F77401122C0B
:105730007D85820A85830B780A1229F3E508240CFB
:10574000F582E50912576F4480F50B780A1229F3A8
:1057500012610E122A20740C0265B7EE125D5DEF25
:105760001271BDF50A780A22127039E06403221220
:105770005B10E0F50AA3E022EE240BFCEF3400FD01
:105780008E828F83A3A3A3A3A3A3A3A3A3125D814C
:105790008E828F83A3A3A3A3A3A3A3A3E0F922C014
:1057A00082C08374F3122A97851882851983E4F0E6
:1057B00004122C7D1257D87403122C7DAA82AB835D
:1057C000122D1A851882851983AA82AB83122D5057
:1057D000740D122A200268D8EAF0A3EBF02274F6C6
:1057E0001224E912726BEF125D6688828983126F50
:1057F0006090071CE058F508A3E059F509E5084555
:1058000009601C78081229F39006E412281F127010
:105810002BFD7C0012623A123F027404122A20020D
:105820004FE874EA1224E974DB122A978A148B1564
:1058300075120075130012617FF50E8518828519A7
:1058400083AC82AD837A007B00799C122E527A045D
:105850007900122D62EAF50C851882851983E025FE
:105860000CF0F8E50EC3984003025A54E0C3950EBD
:10587000F509C394044003750903E50975F01AA4FA
:10588000FAABF0123B248A128B13EA451370030221
:105890005A57750D00AE12AF13850E080259291222
:1058A0005AAB850A82850B83A3A3A3A3E070398535
:1058B0000A82850B8312682A7012125D56127025B7
:1058C000EE2418F582EF127267E48016125AC3F0C4
:1058D000900558E014C0E0EE2418F582EF127267CC
:1058E000D0E0125B00E4803E900558E004C0E0EE9A
:1058F0002418F582EF127267D0E0125AF8C39403AD
:10590000EE40030259B9125D571272677402125ABF
:10591000F8640160030259C6125AA4127267E4F0D7
:10592000EE2416125AC6125ACCE50DC3950940034F
:105930000259EAE508C3950C40030259CFA90812A1
:105940002DCE8A0A8B0B0508900545125AD8850A78
:1059500082850B83125D69125A9D126F53125B147C
:10596000850A82850B83A3A3A3A3A3A3A3A3A3A3B5
:10597000E0C0E0EE2419F582EF127267D0E0F07417
:1059800001122C7DE4126ED9125D697402122C7D15
:10599000125BB37401122C7DAA82AB83122D3EE9F7
:1059A0006401600302589F7404122C7DAC82AD83A5
:1059B000EE240A125ABD0258A2125AC4125AF864AE
:1059C000037003025918EE2415125AC602591FE536
:1059D0000CC3950E40057508008016E50EC3950CA6
:1059E000F508800D125AC3125ACCE50DC395095023
:1059F00066740E122C7DAC82AD8385080AAA0A7BE0
:105A0000007987122E5205087418122C7D125AD86C
:105A1000125AABEE2412F8EF3400F9740E122C7DFA
:105A2000125D7D88828983EAF0A3EB125B00740328
:105A3000125B14741D122C7DE0C0E0EE2419F58277
:105A4000EF127267D0E012683A7099125D561272C6
:105A500067E48093750900750A00780A1229F778BF
:105A6000121229F378091229F7E50EF509780912BF
:105A700029F77405122C7DE0FD7C00125FD6123FE1
:105A80003E7405122A20E51245136007AA12AB13D3
:105A9000123B2A7425122A207F0E02274FEE241271
:105AA000F582EF22EE2415F582EF227C087D007945
:105AB000FFEE240AFAEF3400FB123A7622FAEF12D4
:105AC0005AF122EE2414125B0D740122F0EE241A16
:105AD000FEEF3400FF050D22125D6D8E828F83E88C
:105AE000F0A3E9F07C597D05EE2402FAEF125AF199
:105AF000223400FB124388221271F1A3A3A3E022F7
:105B0000F0EE2415125B242416125B0D22F582EFB1
:105B100012704222F0EE2417125B242418125B0D3F
:105B200074FFF022F5821270417402F0EE2274F6D6
:105B30001224E974F9122A978A088B0912732F85A7
:105B40001882851983122C66125BA1C0E0740412BE
:105B50002C7DD0E0127126E0FA7405122C7D7401C0
:105B6000F07406122C7D7401F09006EEF09006F7AA
:105B700004127208A3125D699006EF125BB3EA90FB
:105B800006F8F0E508125FEBE5091270319006EDBA
:105B9000125BA9122DF8E96003122DFE7407024F63
:105BA000E5EE2404FE126E9422126375AA82AB8382
:105BB00022A3A3E8F0A3E9F02274F21224E974FF0F
:105BC000122A977508007E007F0012309E8A0A8B89
:105BD0000B125D4A80050508125D62E84970F79076
:105BE00007EFE0600764016003025CC7125D4A8052
:105BF00003125D62E849603788828983125D7D9077
:105C00000545E06A7003A3E06B600E125D5CE9126B
:105C10007267125D7DEA4B70D888828983125D6954
:105C2000900545E0687003A3E0697003025CC77AE1
:105C3000167B00123B248A0C8B0DAE0CAF0DEE4F81
:105C40007003025CC7900545125D698E828F8312D6
:105C50005BB390053AE08E828F83A3A3F012320CDF
:105C6000E98E828F83A3A3A3A3A3F0901114E08EE7
:105C7000828F83A3A3A3A3A3A3F07C597D05EE2465
:105C80000B125ABD851882851983AA82AB8379418C
:105C9000124562851882851983E060089006E41237
:105CA0005D69800478FE79FF8E828F83A3A3A3A30E
:105CB000A3125BB1125D56127267E50AF0A3E50B01
:105CC000F08E0A8F0B05089006F8E0F8E508C398F7
:105CD00050047A008022E508C398FAC39406400273
:105CE0007A057900800DE50A125D5DE50B12576FAC
:105CF000F50B09E9C39840EE75090078091229F7F8
:105D0000780A1229F3EAF50978091229F79006F8BA
:105D1000E0F50978091229F7AD087C007AEF7B06D7
:105D20009006EDE0F9123F387405122A209007EF33
:105D3000E060046401700BEE4F6007EEFAEFFB12B7
:105D40003B2A122DFE740102518212309E8A0C8B66
:105D50000DA80CA90D22EE125D5DEF22E82414F5CA
:105D60008222125D5CE9125B10125D6D22E0F8A3E5
:105D7000E0F922AC82AD83851882851983125D819A
:105D800022E0FAA3E0FB22EEFAEFFB7F0602274FA8
:105D900074EC1224E974FF122A978A0A8B0B7E0096
:105DA0008E0E8E0F12617FFF851882851983AC825B
:105DB000AD837A007B00799D122E52851882851959
:105DC00083E0F8EFC3984003025E6CE0C39FFEC31C
:105DD000940B40027E0AEE75F007A4FAABF0123B7A
:105DE000248A088B098A0E8B0FEA450F607C750C9C
:105DF000008017850882850983A3A3A3A3A3740346
:105E0000F0E5082407125EC5050CE50CC39E505C46
:105E1000AC08AD09850C108F12E5102512FAE43498
:105E200000FB798B122E52850882850983A3A3A3D8
:105E3000A3A3E014600814601314601F80B58508E4
:105E400082850983A3A3A3A3A3E480B485088285E4
:105E50000983A3A3A3A3A3740180A5850882850950
:105E600083A3A3A3A3A3740280967E007508007881
:105E7000081229F7780E1229F3EEF508780812298E
