:020000040000FA
:10000000020D9E022003FFFFFFFFFF02200BFFFFF8
:10001000FFFFFF020523FFFFFFFFFF02201BFFFF83
:10002000FFFFFF022023FFFFFFFFFF02202BFFFF48
:10003000FFFFFF022033FFFFFFFFFF020577FFFFF7
:10004000FFFFFF022043FFFFFFFFFF02204BFFFFE8
:10005000FFFFFF022053FFFFFFFFFF02205BFFFFB8
:10006000FFFFFF022063FFFFFFFFFF02206BFFFF88
:10007000FFFFFF022073FFFFFFFFFF02207BFFFF58
:10008000FFFFFF022083FFFFFFFFFF02208B002006
:10009000000090200000932000000100000000C834
:1000A0000300380000000000260000000000FFFFF1
:1000B000FFFF0000040074F8120B1B780079008029
:1000C0001A74922EF58274031201F4900412120134
:1000D000FE4005900412E4F01201EB900412E0FEE1
:1000E000A3E06E6007C3E89CE99D40D5806D74F87D
:1000F000120B1B120153C398120153FEE8500B124E
:1001000002CB700B7800790080141202E050F57A6F
:10011000007B00803CE004F0439A041201EBC3E84A
:100120009CE99D50288A828B83E0C0E0900497E090
:10013000FE74162E120308D0E01202BC900498E45C
:10014000F0900497E0C3947F40CBE480CAE8FAE9DA
:10015000FB800C900496E0F8A3E022E8FAE9FB7F2C
:1001600001020C8074F8120B1B7800790090051BBB
:10017000E0705AA3E0705675F900C28FC284A28362
:1001800040FCA28F4004A28350F8E5F9C28FA283FD
:100190005004D2848037C0E0E0FE749B2EF5827458
:1001A0000412030CD0E0F090051C1202F440D3E4DA
:1001B000F080CF749B2EF58274041201F490051B1D
:1001C0001201FE400590051BE4F01201EB90051BA7
:1001D000E0FEA3E06E6007C3E89CE99D40D5E849D6
:1001E0007006E4F090051BF002015BE8240108E9C9
:1001F0003400F92212030CE08A828B83F022E0049F
:100200001202C0C394802274F8120B1B90059D1239
:100210000156C39890059D120156FEE85007120240
:10022000CB700B80051202E04004EC4D70077A00A1
:100230007B000202B98A828B83E0F5F9A3AA82AB24
:1002400083780179008006E004F01201EBC3E89C9A
:10025000E99D50278A828B83E0C0E090059EE0FEF6
:10026000741D2EF582740512030CD0E01202BC90AE
:10027000059EE0C3947F40CFE480CEC28FA283402E
:10028000FCC284A28F4004A28350F890059D120204
:10029000FBE0F5F9C28F90059DE0FAA3E06A9005B6
:1002A0009D70051202FB80051202F44002E4F0A2E8
:1002B0008350D0D284E8FAE9FB02015F1202C02227
:1002C000F08A828B83A3AA82AB8322C39EF895E037
:1002D000F91202D522E824FF18E934FFF9E849228F
:1002E000C39EF895E0F9E8247FF8E93400F9C3E803
:1002F0009CE99D22E004F0C3948022E0FA741D2A58
:10030000F582740512030C22F58274043400F5831F
:100310002274FF120D2D1203FA1206D8E97003029F
:1003200003D77E00900390E06401700DC2849003B7
:10033000917401F09005B38005D2AF9005B77808AD
:10034000120D8F7C017D00851882851983AA82ABEE
:10035000831204DF8B0DEA450D6012E064F8602C17
:10036000E0640770089005BB7808120D8F85080CB3
:1003700085090D850A0E850B0F9005BF7808120DB3
:100380006BE50C450D450E450F70B80E900390E0DF
:1003900064017009D284900391E4F08002C2AFEE50
:1003A000A2E05033900390E06401700C75F800C235
:1003B000AB539AF7D2EA800C758600C2AAC28B535F
:1003C0009AFBC2E990000174CDF0022000C2AF7523
:1003D000C9AB75C95B80FE1204A4C2AF75C9AB7509
:1003E000C95B80FE781075B60FE5B4A2E750FAE558
:1003F000BBC39940F118E870ED22C082C083A2927D
:1004000050047A0080027A8053BEFBE59DA2E6503C
:10041000FA0078F87901001202D570FA8AC6E59ED2
:100420006A70FB43BE049062707408F0794A12034C
:10043000E490000174F5F07403F5D575D488A2A09A
:10044000E433900390F0A2E05029D28453F3F753A1
:10045000F3EF53FDF743FD10538FF753F7DF43FCE2
:100460002043F10253F5DF75F82043F4F0D2FED2B9
:10047000AB802C53FF3F85FFFF53F1FE43F30C533A
:10048000F2F375868075C480900499E4F0A3F0754A
:10049000C2D875C50B75C402438640D2AAD2E9D032
:1004A00083D0822274F5120B1B794E1203E4900361
:1004B00090E07002D2AF1205C8E960FAE0701B90BC
:1004C00005C37808120D8F009005BF7808120D6BD8
:1004D000E5084509450A450B70ED7F04020C80C014
:1004E00082C083900390E070051200B6801E9003D6
:1004F00091E06015A28F500DE5F98A828B83F07A26
:10050000017B0080077A0080F81201648091C0822C
:10051000C083900390E070051200EE800312020782
:1005200002049FC0E074F2120B81900001E064CDE0
:100530007005122013803BE064F57035E5C1C0E022
:10054000900413E0F8749228F582740312030CD01F
:10055000E0F0900412120156687006E595900415BB
:10056000F09004131202F44002E4F0A374C6F08089
:1005700001007F01020BE0C0E074F1120B819000DA
:1005800001E064CD700512203B8038E064F57032E4
:10059000120153687009539AFBA37401F08024C2BE
:1005A000E9900496E0F50874012508F07416250812
:1005B000120308E0F5C1900496E0C394804004E47F
:1005C00080DA007F02020BE074F7120B1B74FF123B
:1005D0000D2D7E008033900384E0F8851882851904
:1005E00083E068700D900382E0644D700512081B73
:1005F000E9FE900385E4F0900387F0851882851961
:1006000083E0F8900384E068F07C017D0085188227
:10061000851983AA82AB831204DF8B09EA4509702E
:10062000030206CCE0C0E0900387E0F8900385E089
:10063000FAE82AF8E434001209D3D0E0F0900387F6
:10064000E0601114602014603E14604E1460641465
:10065000608480A7851882851983E064FE709C9071
:10066000038774018094900384E4F08518828519CF
:1006700083E0900386F0C394809003874004E402F3
:1006800005FA74020205FA851882851983E0900341
:1006900082F090038774030205FA85188285198316
:1006A000E0900383F0900386E06019900387740460
:1006B0000205FA900385E004F0F8900386E0686094
:1006C000030205FB90038774050205FAEEF9740135
:1006D000120CFA7F02020C8074ED120B1B74FB12D9
:1006E0000D2D7508047509007808120D7E7402122C
:1006F0000DC91209C0120CFA851882E0F47003A328
:10070000E0F4600F851882851983E0F8A3E0F9E82A
:1007100049700302080F7402120DC9E0687003A348
:10072000E06970030207E975080090059F781012D0
:100730000D8F800A9005A37810120D43604A750A48
:1007400001750B00780A120D7E7406120DC9AC8279
:10075000AD8385100A85110BAA0AE50B5407FB8AA5
:100760000C85110D85120E85130F740B780C120D6C
:1007700014A90C1209CA120CFAE0F9AA08AB091262
:1007800009DF8A088B0980089005A77810120D8F61
:100790009005AB7810120D6B9005AF7810120CC05D
:1007A0005092E4F91209DFE4F91209DF7402120D24
:1007B000C9EAF0A3EBF07508017509007808120D7D
:1007C0007E7402120DC9AC82AD837A247B08120AB2
:1007D000A07402120CFA7508047808120D7E7402D7
:1007E000120DC91209C0120CFA1209B2120DC9E099
:1007F000687003A3E0697017851882851983E0F497
:100800007003A3E0F46008E849600479018002798C
:10081000007405120CFA7F0C020C8074F3120B1B8F
:1008200074FC120D2D900306E0FAA3E0F9EA24000F
:10083000F8F508E93408F509750A017F007E009093
:100840000383E014600C1460401470030208E20299
:10085000095FE5095401F9E8497011880C85090D13
:100860007409780C120DADA90C120B04750C108EC6
:100870000D780C120D7E7C087D03AA08AB09120AC4
:10088000A07402120CFA02095F880C85090D740924
:10089000780C120DADE50CC3947940040F02095F8A
:1008A000750A408E0B780A120D7E7C097D03EAF5ED
:1008B0000AE5095401F50B7402780A120D58AA0AC8
:1008C000AB0B74097808120DADA9081209CA120CF5
:1008D000FA900307E0A3F0900306E0A3F0750A4343
:1008E000807D7508048E097808120D7E7402120D41
:1008F000C91209C0120CFA7402120DC9E0F8A3E083
:10090000F9851882851983E0687003A3E069603B6C
:100910001209B2120DC9E8F0A3E9F07508017808D0
:10092000120D7E7402120DC9AC82AD837A247B084D
:10093000120AA07402120CFA7508047808120D7ECF
:100940007402120DC91209C0120CFA1209B2120D6A
:10095000C9E0687003A3E06970030E80027F07900E
:100960000305E0D2E7F0EFA3F0E50A900303F0748B
:100970004D650AF5087404250AFB7A0380071209FD
:10098000D0E062080AEAC39BA2D265D033EAF840FD
:10099000ED1209D0E508F074012AFC3395E0FD7AE8
:1009A000027B0312050EEEF97404120CFA7F0602A4
:1009B0000C80851882851983E0F8A3E0F97402227F
:1009C000AC82AD837A907B007904120A1B740222F8
:1009D0003395E0F9740228F582740339F58322C057
:1009E00008C0097C088A088B09740F7808120DADBD
:1009F000EAC333FAEB33FBE9A2E7500474014AFA85
:100A0000E508A2E0500874216AFA74106BFBE9C390
:100A100033F91CEC70CFD009D0082274F5120B1BEF
:100A20008908740B120DC9E0FEA3E0FF740F55088E
:100A3000F50A750B00740B780A120D58EA2400F8B9
:100A4000EB3480F9E82400E9350BF9E5C7F509A294
:100A5000AFE433F50AC2AFE508C4540FFAE5C75452
:100A6000F84AF5C7801C88828983E08C828D83F0E8
:100A700088828983A3A882A9838C828D83A3AC8278
:100A8000AD83EEFAEFFBEA24FF1EEB34FFFFEA4BE7
:100A900070D48509C7E50AA2E092AF7F04020C80FA
:100AA00074F7120B1B7409120DC9E0F508A3E0F5E9
:100AB00009ED900388F0ECA3F0A37462F0A37473C3
:100AC000F0A3E0541FF0E508333354FCA3F07406A0
:100AD0007808120DADE50890038CF090038E741227
:100AE000F0A37442F075D1FE75D601EA906271F000
:100AF000EBA3F0906270E0D2E1F0E0A2E740FB7F70
:100B000002020C80C082C083E9C333906272F0900D
:100B10006270E0D2E0F0D083D082222518C582C076
:100B2000E0E51934FFC583C0E0E518C3958224F9D8
:100B300010AF0885831985821880088583198582FE
:100B400018D2AFCEF0A3E520F0A37808E608F0A312
:100B5000DEFAEFF0A3E58124FBF8E608F0A3E6084F
:100B6000F0A30808E608F0A3E608F0A315811581B4
:100B7000D0E0FED0E0F815811581E8C0E0EEC0E0DD
:100B800022C0D02518C582C0E0E51934FFC583C056
:100B9000E0E518C3958224F310AF08858319858298
:100BA000188008858319858218D2AFC8F0A3E9F0B0
:100BB000A3EAF0A3EBF0A37908E709F0A3D8FAECD5
:100BC000F0A3EDF0A3EEF0A3EFF0A3D0E0F0A3D0FC
:100BD000E0F0A3D0E0F0A3E520F0A3E5F0F0A3223D
:100BE000851983851882E0C0E0A3E0F9A3E0FAA3A9
:100BF000E0FBA37808E0F608A3DFFAE0FCA3E0FD41
:100C0000A3E0FEA3E0FFA3E0C0E0A3E0C0E0A3E018
:100C1000F5D0A3E0F520A3E0A3F5F010AF0885839D
:100C2000198582188008858319858218D2AFD082F1
:100C3000D083D0E0F8D0E032120DD8B90003020C16
:100C40007AE4900302789E79038002F0A3D8FCD95D
:100C5000FA90059FAA82AB8390008E782979018053
:100C600015E493A3AC82AD838A828B83F0A3AA821E
:100C7000AB838C828D83D8E9D9E7120311120DD38F
:100C8000851983851882E0A3FEE0A3F5207808E0AB
:100C9000A3F608DFFAE0A3FFE0A3C0E0E0A3C0E012
:100CA000E0A3C0E0E0A3C0E010AF08858218858310
:100CB000198008858218858319D2AFD083D082220B
:100CC000C008C3E096F50808A3E096420808A3E030
:100CD00096420808A3E09645087001D3D008222563
:100CE00018F58210AF08F518400215198008F5189C
:100CF00040021519D2AF85198322C0D0251810AF34
:100D000008F518500205198008F51850020519D287
:100D1000AFD0D0226016080808C6C313C618C61381
:100D2000C618C613C618C613C6D5E0EA2225181081
:100D3000AF08F518400215198008F518400215197A
:100D4000D2AF22E066701008A3E066700A08A3E044
:100D500066700408A3E06622700422600D18C6C302
:100D600033C608C633C6D5E0F41822E026F608A339
:100D7000E036F608A3E036F608A3E036F622740261
:100D80008000C0E0F404120CDFD0E0120DBC22E0C1
:100D9000F608A3E0F608A3E0F608A3E0F62275D073
:100DA00000758140751802751903020C38600C0833
:100DB000C6C313C618C613C6D5E0F422CAC0E0E6FF
:100DC000F0A308DAFAD0E0FA222518F582E4351902
:100DD000F5832200000080FB790122FFFFFFFFFF67
:100DE000FFFFFFFFFFFFFFFFFFFFFFFFFFFFFFFF13
:100DF000FFFFFFFFFFFFFFFFFFFFFFFFFFFFFFFF03
:100E0000FFFFFFFFFFFFFFFFFFFFFFFFFFFFFFFFF2
:100E1000FFFFFFFFFFFFFFFFFFFFFFFFFFFFFFFFE2
:10200000022AAE0221E6FFFFFFFFFFFFFFFFFFFFF7
:10201000FFFFFFFFFFFFFFFFFFFFFFFFFFFFFFFFD0
:10202000FFFFFFFFFFFFFFFFFFFFFF022868FFFF2B
:10203000FFFFFFFFFFFFFFFFFFFFFFFFFFFFFFFFB0
:10204000FFFFFF02264DFFFFFFFFFFFFFFFFFFFF28
:10205000FFFFFF022114FFFFFFFFFFFFFFFFFFFF56
:10206000FFFFFFFFFFFFFFFFFFFFFF022782FFFFD2
:10207000FFFFFFFFFFFFFFFFFFFFFFFFFFFFFFFF70
:10208000FFFFFF02217B01FFFFFFFFFFFFFFFFFFBD
:10209000102010200101FF01010503010F10FEFFB8
:1020A0004235423542354235EC33E6334235E1487C
:1020B000000000004349000000000C0000000C007C
:1020C000010000DC37000000002E37D64676376C62
:1020D00038000064370000FF01010016070000000F
:1020E000E8038E07E80364006400B80102020008F8
:1020F00000000502070101051E02051E020A0A036F
:10210000B80B02803E010201FFFF0A01E002020655
:10211000FFFFE803C0E074F212246AA2AFE433FECA
:10212000D2AFE5A7FFE5A1F5085F541060061241A4
:102130006075A1EFE5085F5408600812416675A15B
:10214000F7802BEFA2E0C0D0E508A2E092F01229C0
:10215000EB158182F05017906198E0F8900C67E0E1
:10216000C398A2D265D0335002E8F075A1FE751A6B
:1021700000EEA2E092AF7F010224C9C0E074F21227
:10218000246AA2AFE433FED2AF9061A4E0F8759B5D
:1021900000E59158540860087591F71241A8802A0B
:1021A000E59158541060087591EF1241AE801BE81C
:1021B000A2E0C0D0E591A2E092F01229EB15818255
:1021C000F05007E0C2E0F01242FE9061A3E0F8E5B3
:1021D000E9585404600E1242D475E9FB906193E013
:1021E000A2E640F28088C0E074F212246AA2AFE452
:1021F00033FED2AF9061A5E0F8E5BF585404600605
:1022000075BFFB12431602216EC3E498F8E499F9F6
:1022100012224A8026C3E49AFAE49BFBE920E7E90C
:1022200012224AE498F8E499F922C3E498F8E49970
:10223000F912224AE498F8E499F9C3E49AFAE49B83
:10224000FB22EB20E7CFE920E7E0B90010BB000854
:10225000E88AF084F8AAF022E4FBC8FA22EB7022A4
:102260007B10C833C8C933C9335007C39AC3DBF2E4
:1022700080069A50012ADBEAC833F4C8C933F4C98E
:10228000FA2275F008E4C833C8C933C933C99AC9FA
:102290009B5004C92AC93BD5F0ECFBC833F4C8E411
:1022A000C9FA22080808EAC0E0EBC0E086F0E7A41B
:1022B000FA180986F0E7A42AFA180986F0E7A42A92
:1022C000FA180986F0E7A42AFA1986F0E7A4FBE5D4
:1022D000F02AFA190886F0E7A42BFBE5F03AFA1980
:1022E0000886F0E7A42BFBE5F03AFA18180986F007
:1022F000E7A4C5F02BFBE43AFA1908E7C5F0C6A439
:1023000026F6E5F03BFBE43AFA1886F0E7A4F6E59A
:10231000F00826F6E43B08F6E43A08F6D0E0FBD0F5
:10232000E0FA22E4CFC0E0E4CEC0E0E4CDC0E0E4D7
:10233000CCC0E075F020C3E633F608E633F608E6D5
:1023400033F608E633F6181818EC33FCED33FDEEDF
:1023500033FEEF33FFC3EC9709ED9709EE9709EFD2
:1023600097191919400FFFEC97FC09ED97FD09EE3D
:1023700097FE191906D5F0BEECF709EDF709EEF74F
:1023800009EFF7191919D0E0FCD0E0FDD0E0FED03C
:10239000E0FF222518C582C0E0E51934FFC583C0DF
:1023A000E0E518C3958224F810AF0885831985826B
:1023B000188008858319858218D2AFCEF0A3E52056
:1023C000F0A37808E608F0A3DEFAEFF0A3E5812495
:1023D000FAF8E608F0A3E608F0A3E608F0A3080878
:1023E000E608F0A3E608F0A315811581D0E0FED041
:1023F000E0F8158115811581E8C0E0EEC0E02212F9
:102400002B10B90003022454E49004D178C3790F4F
:102410008002F0A3D8FCD9FA781A9020867A01BA03
:1024200000028007E493A3F608DAF9901393AA82D6
:10243000AB83902094788179018015E493A3AC82DA
:10244000AD838A828B83F0A3AA82AB838C828D8337
:10245000D8E9D9E775821F7583B7740512284A75C4
:10246000824E758347740012284AC0D02518C58251
:10247000C0E0E51934FFC583C0E0E518C3958224A8
:10248000F310AF0885831985821880088583198524
:102490008218D2AFC8F0A3E9F0A3EAF0A3EBF0A34F
:1024A0007908E709F0A3D8FAECF0A3EDF0A3EEF079
:1024B000A3EFF0A3D0E0F0A3D0E0F0A3D0E0F0A32E
:1024C000E520F0A3E5F0F0A322851983851882E0CA
:1024D000C0E0A3E0F9A3E0FAA3E0FBA37808E0F6EC
:1024E00008A3DFFAE0FCA3E0FDA3E0FEA3E0FFA366
:1024F000E0C0E0A3E0C0E0A3E0F5D0A3E0F520A3B6
:10250000E0A3F5F010AF088583198582188008854F
:102510008319858218D2AFD082D083D0E0F8D0E082
:102520003215000875F0108E218F22858226858352
:1025300025851882851983E0CEA3E0CF8526828584
:102540002583EBC9EAC8EDCBECCAC3E833C8E9334D
:10255000C9EA33CAEB33CBC3EA9EF524EB9FF523DC
:10256000B35004AB23AA24EC33CCED33CDD5F0DA51
:10257000AE21AF2222D083D082ECC0E0EDC0E0E4F7
:1025800093A3FCE493A3FDED4C600D122690EC2484
:10259000FFFCED34FFFD80EFE493A3FCE493A3FD87
:1025A000ED4C600D12272DEC24FFFCED34FFFD8077
:1025B000EFD0E0FDD0E0FCE493A3C0E0E493C0E002
:1025C00022851983851882E0A3FEE0A3F520780810
:1025D000E0A3F608DFFAE0A3FFE0A3C0E0E0A3C0B9
:1025E000E0E0A3C0E0E0A3C0E0E0A3C0E010AF08DB
:1025F0008582188583198008858218858319D2AF52
:10260000D083D082022850D083D082E9C0E0E49306
:10261000A3C386F0C5F095F0F908E493A386F0C54E
:10262000F095F0700BE493A3C3994005E904800290
:10263000A3E475F002A42582F582E5F03583F583E5
:10264000D0E0F9E493A3C0E0E493C0E022C0E074DA
:10265000F212246AA2AFE433FED2AFC2C090128B52
:10266000E0700BE5D1A2E4501D1240C48018E5D102
:10267000A2E3500675D1F712409AE5D1A2E45006C4
:1026800075D1EF1240A0EEA2E092AF7F010224C903
:10269000C0E0C3E49396087401939618400FE49346
:1026A00066700808740193661870007019A3A3C3BC
:1026B000E49396087401939618A3A3400DD0E0D03C
:1026C000E0D0E00225B1A3A3A3A3A3A3D0E022748A
:1026D00004800474028000CCC0E0EDC0E0E518C3C3
:1026E0009CCCAD1950011D10AF068C188D198006B9
:1026F0008C188D19D2AF1227CCD0E0FDD0E0FC228F
:1027000074028000CCC0E0EDC0E0E518C39CCCAD05
:102710001950011D10AF068C188D1980068C188D6C
:1027200019D2AF1227AAD0E0FDD0E0FC22C0E0C051
:10273000F088F0E4936670080874019366187000DE
:10274000A8F0A3A3700BD0F0D0E0D0E0D0E0022539
:10275000B1A3A3D0F0D0E022D083D082CCC0E0E4FB
:1027600093A3600612280C1470FAE493A360061277
:1027700029351470FAD0E0FCE493A3C0E0E493C0E0
:10278000E022C0E074F212246A758900C2C590127A
:102790008BE0700E7A007B10900692E0F9123A3AC4
:1027A00080031245DA7F010224C9CAC0E0E493A382
:1027B000C582CCC582C583CDC583F0A3C582CCC5F7
:1027C00082C583CDC583DAE5D0E0CA22CAC0E0E085
:1027D000A3C582CCC582C583CDC583F0A3C582CCF9
:1027E000C582C583CDC583DAE6D0E0CA22C008C35E
:1027F000E096F50808A3E096420808A3E096420890
:1028000008A3E09645087001D3D00822C0E0E49305
:10281000A3D39C5010E493A3C39C400AD0E0D0E023
:10282000D0E0022775A3A3A3D0E02270090808080E
:10283000226016181818C6C333C608C633C608C6A1
:1028400033C608C633C6D5E0EA22C09FF59FE473BD
:10285000D09F22D083D082C09FE493C0E0740193C4
:10286000C0E0740293F59F22C0E0C0D0E8C0E0E56C
:10287000A8D2AFC2C7751A00A2E792AFD0E0F8D0D5
:10288000D0D0E0322518F58210AF08F518400215B7
:10289000198008F51840021519D2AF8519832274E2
:1028A00004800A74038006740280027401C0E0F49C
:1028B00004122884D0E0122AEB22BB0102E722C0D6
:1028C00082C08389828A83BB0003E08002E493D0C4
:1028D00083D08222C0D0251810AF08F51850020509
:1028E000198008F51850020519D2AFD0D022601611
:1028F000080808C6C313C618C613C618C613C618D8
:10290000C613C6D5E0EA22C3E0C696F608A3E0C621
:1029100096F608A3E0C696F608A3E0C696F622252A
:102920001810AF08F518400215198008F518400274
:102930001519D2AF22C0E0E493A36C7009D0E0D0A7
:10294000E0D0E0022775A3A3D0E022C3E09608A35D
:10295000E09608A3E09608A3E096A2D265D03322C1
:10296000E066701008A3E066700A08A3E0667004D1
:1029700008A3E06622E76670100809E766700A0897
:1029800009E76670040809E76622C3E697F60809B6
:10299000E697F60809E697F60809E697F622C3E0F7
:1029A00096F008A3E096F008A3E096F008A3E0965E
:1029B000F022E627F60809E637F60809E637F608B2
:1029C00009E637F622E026F608A3E036F608A3E08B
:1029D00036F608A3E036F622E026F008A3E036F04B
:1029E00008A3E036F008A3E036F022C0E0E8C0E03B
:1029F000E58124FCF8E6A2E7D0E0F8D0E0227004FC
:102A000022600D18C6C333C608C633C6D5E0F41815
:102A100022E657F60809E657F60809E657F60809C8
:102A2000E657F622E056F608A3E056F608A3E0566D
:102A3000F608A3E056F622E056F008A3E056F008A8
:102A4000A3E056F008A3E056F022E647F60809E6B0
:102A500047F60809E647F60809E647F622E4C39672
:102A6000F608E496F608E496F608E496F622C3E73C
:102A7000960809E7960809E7960809E79622C6F43A
:102A8000C608C6F4C608C6F4C608C6F4C622600D59
:102A900008C6A2E713C618C613C6D5E0F322C3E0E2
:102AA0009608A3E09608A3E09608A3E0962275D0C6
:102AB000007581407518D1751904000223FFE0F6F6
:102AC00008A3E0F608A3E0F608A3E0F622600C08ED
:102AD000C6C313C618C613C6D5E0F422E6F008A391
:102AE000E6F008A3E6F008A3E6F022CAC0E0E6F0AC
:102AF000A308DAFAD0E0FA22E0FAA3E0FBA3E0FCB4
:102B0000A3E0FD22EAF0A3EBF0A3ECF0A3EDF022AA
:102B1000E5C754F84401F5C77901222518F582E488
:102B20003519F58322C2AF75D69F02000022122804
:102B300053F0A40312285352A503122853B0A5033F
:102B4000122853D9A50312285349A603122853A2C9
:102B5000A6031228531BA7031228536EA903122899
:102B60005328AB03122853D4AB031228531BAD03D5
:102B7000122853B9AF03122853BFB203122853CC03
:102B8000B2031228535AB3031228530CB403122869
:102B90005354B403122853B4B403122853D0B403CB
:102BA00012285304B50312285339B50312285312BF
:102BB000B603122853C7B6031228531CB9031228B0
:102BC0005369BA031228530CBB0312285399BB0351
:102BD00012285323BC0312285362BC03122853F754
:102BE000BD031228532BBE03122853A6BE0312287E
:102BF0005380BF0312285347C0031228535FC003FA
:102C0000122853F6C00312285367C3031228537CBB
:102C1000C5031228539AC503122853C1C5031228AD
:102C2000530080021228533580021228535D80021F
:102C3000122853968002122853A88002122853FAB1
:102C400080021228535B8102122853E58102122868
:102C500053898202122853D182021228530B830215
:102C60001228532883021228534D83021228539F9F
:102C70008302122853B88302122853DE83021228DB
:102C8000531984021228535D84021228538484024B
:102C9000122853D584021228538585021228533DE9
:102CA0008602122853058702122853C5870212286C
:102CB000530988021228532E880212285371880261
:102CC000122853BE8802122853348A02122853BA9B
:102CD0008A02122853D88A02122853028B02122821
:102CE000531C8B021228532B8B02122853368B0253
:102CF000122853F68B021228534F8C0212285311BC
:102D00008D02122853198D02122853918D02122818
:102D100053E08D021228534D8E02122853638E0207
:102D2000122853588F02122853EE8F021228535A3A
:102D30009002122853859102122853AA9102122858
:102D400053BB9102122853409202122853CF920291
:102D5000122853279302122853EB93021228530A86
:102D600094021228531995021228533795021228FB
:102D7000534995021228539C9502122853AB950291
:102D80001228533396021228537096021228537D4C
:102D90009602122853FB97021228535A99021228BE
:102DA00053739902122853BC9A021228534E9B0265
:102DB000122853859C02122853BE9C021228530AE3
:102DC0009D021228531D9E0212285341A002122870
:102DD000534CA00212285357A00212285362A0029B
:102DE0001228536CA00212285377A0021228539184
:102DF000A0021228539BA002122853A5A002122859
:102E000053B0A002122853BBA002122853E3A00221
:102E10001228533EA10212285348A1021228536CD3
:102E2000A10212285390A102122853EEA1021228E7
:102E30005332A2021228534EA202122853C5A202F4
:102E4000122853FDA20212285349A302122853A6A6
:102E5000A30212285360A40212285344A602122887
:102E6000539DA602122853CDA702122853F3A7029E
:102E70001228536DA902122853F8AC02122853CA23
:102E8000AE0212285393B00212285340B102122806
:102E900053B4B20212285353B302122853A0B30200
:102EA0001228530AB40212285319B4021228539953
:102EB000B602122853BEB70212285352B902122882
:102EC00053BFB9021228539EBA02122853C1BB0243
:102ED00012285329BD0212285348BD021228539DBF
:102EE000BD02122853A2BE02122853CABE021228E3
:102EF0005322BF0212285301C00212285345C002B8
:102F000012285390C002122853FBC00212285340CB
:102F1000C202122853A4C202122853F2C30212287A
:102F20005359C6021228538AC60212285342C802B5
:102F300012285397C802122853A9C90212285346CF
:102F4000CA021228539FCA0212285352CB021228D7
:102F500053F4CB0212285394CC0212285339CD02D9
:102F6000122853D180011228531A8101122853923A
:102F70008301122853D183011228531B8401122884
:102F800053598501122853B88501122853EC850145
:102F90001228532A86011228539E87011228536152
:102FA0008A01122853948B01122853478C0112284E
:102FB00053F694011228538B9501122853729801ED
:102FC000122853A19901122853029A011228531E64
:102FD0009B01122853649C01122853439D0112281F
:102FE00053289F0112285339A10112285391A1019E
:102FF00012285363A2011228531AA3011228532442
:10300000A30112285352A3011228530FA40112281E
:1030100053E6A401122853ADA50112285348A60176
:10302000122853B2A601122853D0A601122853F930
:10303000A6011228531BA70112285371A9011228B7
:103040005349AA011228538DAA01122853F5AA0147
:10305000122853ADAB01122853DFAB0112285323C2
:10306000AC0112285359AC01122853A5AC01122807
:1030700053FAAC01122853FFAC0112285352AD0190
:1030800012285377AD0112285387AE01122853FF3F
:10309000AE011228535BAF01122853E7AF0112288B
:1030A00053D5B201122853B9B30112285350B501B8
:1030B00012285386B70112285334B801122853E45A
:1030C000B80112285325BB01122853C8BB0112288E
:1030D000530FBC01122853BBBD01122853CFBD01B1
:1030E000122853D9BD0112285301BE011228530DD5
:1030F000BE011228532CBE0112285376C00112289B
:1031000053ABC001122853B5C001122853BFC001F0
:103110001228531AC10112285376C1011228538A6A
:10312000C201122853EBC2011228533AC4011228DB
:10313000537EC40112285326C50112285309C60123
:10314000122853B4C60112285300C801122853FE96
:10315000C801122853A4C90112285334CA011228E5
:10316000534BCA0112285382CA011228538CCA0138
:1031700012285396CA01122853A1CA01122853BF1C
:10318000CA0112285303CB0112285360CB01122825
:103190005385CB011228539FCB0112285331CC0108
:1031A0001228535BCD01122853D2CD01122853B9F6
:1031B000CE01122853EFCE0112285363CF011228FB
:1031C00053DECF01122853E2D001122853D8D10187
:1031D00012285387D2011228539AD301122853364A
:1031E000D401122853B8D40112285396D5011228BD
:1031F00053CED50112285326D601122853EFD601FB
:1032000012285310D70112285397D701122853BB05
:10321000D701122853DDD70112285326D8011228CE
:10322000533CDA011228531FDB01122853D0DB0173
:1032300012285306DE0112285356DE011228539637
:10324000DE01122853D8DE0112285332DF01122882
:103250005360DF0112285384DF01122853D7DF01A6
:1032600012285305E0011228533EE0011228539D15
:10327000E0011228530AE1011228536FE2011228DB
:103280005392E401122853FBE40112285324E50170
:10329000122853AFE5011228531BE601122853668A
:1032A000E6011228538AE601122853AEE6011228DD
:1032B0005309E70112285324E701122853DDE701DF
:1032C00012285317E80112285393DE04122853CB17
:1032D000DE04122853ECDE041228532EDF041228D9
:1032E0005394DF041228539EDF04122853AEDF04E8
:1032F000122853E3DF041228532CE304122853D678
:10330000E404122853D6E6041228535BC60312289D
:1033100053A1C60312285381C70312285383C8033D
:1033200012285386C90312285312CB031228537054
:10333000CB031228532DCC031228534BCD03122854
:1033400053BCCD03122853F8CD0312285346CE03A5
:1033500012285350CE0312285394CE03122853F050
:10336000CE031228538BCF0312285308D003122800
:1033700053D7D00312285370D10312285390D1038E
:10338000122853C6D103122853F7D103122853B879
:10339000D203122853C8D2031228531CD303122875
:1033A0005337D30312285349D30312285352D3035C
:1033B000122853ACD30312285308D40312285354B1
:1033C000D4031228536FD403122853A0D403122815
:1033D00053BDD403122853C9D4031228533DD60336
:1033E00012285356D603122853BDD603122853D0A1
:1033F000D603122853DED60312285392D70312287D
:103400005376D8031228537CD90312285306DA03C3
:1034100012285310DA031228537DDA03122853942A
:10342000DA03122853C6DA03122853FFDA031228EC
:103430005329DB031228538ADB03122853AADB0328
:10344000122853C8DB031228530EDC03122853340E
:10345000DD0312285381DD03122853B0DD03122847
:103460005326DE031228534EDE0312285387DE0351
:1034700012285395DE03122853EDDE031228533C25
:10348000DF031228537BDF03122853ABDF0312281C
:1034900053D7DF03122853E2DF0312285300E0035F
:1034A000122853C2E003122853CCE003122853071A
:1034B000E1031228531DE10312285326E1031228C9
:1034C000537BE1031228538FE1031228538CE2034C
:1034D0001228539FE203122853B6E203122853CB5B
:1034E000E2031228536DE303122853F0E30312287A
:1034F00053AEE403122853B9E403122853E5E5035D
:1035000012285301E60312285353E603122853925C
:10351000E603122853A7E60312285309E7031228EB
:103520005398E703122853E3E70312285334EA03BE
:10353000122853B2EA0312285327EB0312285349E7
:10354000ED0312285361ED0312285364ED03122892
:103550005370ED0312285384ED031228538CED03AE
:10356000122853BFED031228536FEE03122853E5C0
:10357000EE0312285358EF031228530CF0031228BD
:1035800053C1F003122853E0F00312285380F103D3
:103590001228538CF103122853B7F103122853BA9F
:1035A000F103122853E9F103122853FEF103122804
:1035B0005368F20312285390F30312285368F4035C
:1035C000122853F3F4031228530CF603122853C99C
:1035D000F60312285302F70312285333F703122875
:1035E00053F1F70312285321F803122853FCF80370
:1035F00012285395F90312285320FA03122853D1A5
:10360000FA0312285354FB0312285386FB03122893
:1036100053C7FB03122853FCFB0312285384BE0438
:10362000122853E9BE0412285321BF0412285370F4
:10363000BF0412285392C10412285375C3041228E0
:103640005314C704122853B2C704122853E7C704FF
:1036500012285309C8041228536EC804122853A410
:10366000C804122853CCC804122853EFC8041228E7
:10367000531CC9041228536FC904122853BBC90430
:1036800012285381730012285302740012285338F1
:1036900074001228539F74001228531276001228C7
:1036A000532E7600122853737600122853017700A8
:1036B0001228535A77001228538E78001228535C30
:1036C0007900122853D47900122853507A00122816
:1036D00053927A00122853D37A00122853077C00A1
:1036E000122853057D00122853307D001228537B89
:1036F0007D00122853C27D00122853547E001228E8
:10370000530D7F00122853E1AE05122853F2AE0587
:1037100012285343AF0512285388AF051228533798
:10372000B00512285371B005122853B9A504122808
:10373000534EA604122853FCA60412285387A7044C
:1037400012285367AA0412285316AC04122853CD2A
:10375000AC0412285322AD0412285303B0041228DB
:10376000539BB1041228535DD30512285385D3050A
:103770001228537CD405122853928C051228531713
:103780008D051228532E8D05122853A38D0512285E
:1037900053038E051228532C8E05122853A98E052B
:1037A000122853458F05122853AC8F051228531445
:1037B00090051228533B9005122853749005122847
:1037C00053929005122853BB9005122853E9900597
:1037D0001228532F9105122853959105122853E56D
:1037E000B2041228538CB304122853ACB304122829
:1037F00053D3B304122853E7B30412285343B40439
:1038000012285373B404122853F4B5041228539A9F
:10381000B60412285378B704122853C9B7041228E3
:10382000530DB80412285350B804122853BDB804DD
:10383000122853DEB8041228536AB9041228531A06
:10384000BB041228538EBB041228533CBD0412281B
:103850005316BE0412285370BE04122853C6CB055B
:10386000122853D0CB05122853F1CB05122853F35D
:10387000C90412285349CC0412285384CD041228B9
:103880005351CF041228539CCF04122853AB9F03EB
:10389000122853AAD004122853DAD0041228539BBA
:1038A000D1041228530ED20412285310D204122825
:1038B0005312D20412285314D2041228533FD204B4
:1038C00012285341D2041228535AD204122853A763
:1038D000D204122853DDD20412285356D3041228DE
:1038E000536DD4041228532DE70212285374A403F5
:1038F0001228539CE802122853C7E80212285338B2
:10390000E9021228535CE9021228537CE9021228CA
:1039100053C6E902122853F0E90212285313EB02AE
:1039200012285349EB0212285378EB02122853BA9B
:10393000EB0212285364EC0212285384EC02122882
:1039400053D9ED021228535BEE0212285352EF02B4
:1039500012285322F00212285392F002122853E345
:10396000F00212285315F10212285377F10212289F
:1039700053E2F1021228532CF20212285362F3028E
:1039800012285397F302122853FEF302122853C64B
:10399000F402122853EEF40212285396F60212286B
:1039A0005317F7021228534AF70212285386F702D8
:1039B0001228539FF7021228532BF802122853EFB4
:1039C000F80212285399F9021228533AFA021228DF
:1039D00053D9FA0212285358FB021228535886056D
:1039E000122853A486051228531287051228533330
:1039F00087051228534A8705122853FA870512288B
:103A0000530388051228535688051228537F8805CA
:103A1000122853E68805122853778905122853B9CE
:103A20008905122853038A05122853628A05122831
:103A3000538E8A051228531F8B051228535E8B055F
:103A40001228539D8B05122853D28B05122853E45C
:103A50008B05122853F68B05122853298C05122842
:103A600053698C051228535CA1051228532FA20517
:103A700012285349A2051228535AA2051228536F3F
:103A8000A4051228538EA4051228530CCE05122823
:103A90005342CE051228538BCE05122853DBCF0597
:103AA0001228530080041228533F81041228537BAC
:103AB00081041228533A8304122853638304122882
:103AC00053F685041228533A8604122853C38704F8
:103AD0001228535B8804122853C3880412285364A5
:103AE0008904122853A68904122853E6890412284F
:103AF00053718B04122853E18C04122853068F044F
:103B0000122853348F041228535B8F0412285364F5
:103B10008F04122853BF8F04122853529004122886
:103B200053709304122853F19304122853B1DD0506
:103B3000122853C7DD05122853D1DD051228532161
:103B4000DE051228535AFC031228536DFC03122879
:103B5000530AFD0312285346FD031228535DFD034B
:103B600012285382FD03122853C4FD03122853F573
:103B7000FD0312285330FE03122853AAFF03122814
:103B800053EBFF0312285373D805122853C8D805E6
:103B900012285321D90512285362DC05122853B587
:103BA000DC05122853F7DC0512285307DD0512281F
:103BB0005361E801122853B6E80112285338E9018D
:103BC0001228533BEA01122853C9EA011228539BD9
:103BD000EB01122853B0EB01122853FAEB01122823
:103BE0005349EC0112285392EC01122853A5EC0121
:103BF000122853FAEC0112285353ED0112285353A3
:103C0000EF0112285354F0011228538FF0011228AB
:103C100053D5F001122853E2F20112285372F30136
:103C2000122853FFF3011228530EF40112285321D6
:103C3000F40112285370F40112285386F40112285B
:103C4000539DF401122853CCF401122853DDF401E2
:103C5000122853FDF40112285308F5011228538C41
:103C6000F501122853E6F50112285341F6011228F6
:103C70005366F7011228537FF7011228530DFA01FA
:103C800012285339FA01122853BBFA011228533370
:103C9000FB0112285356FB0112285392FB011228F4
:103CA00053FAFB01122853AFFC01122853E3FC0125
:103CB000122853EDFC01122853F0FC011228530086
:103CC000FD011228537DFD01122853A5FD01122884
:103CD00053C7FD01122853F3FD011228532EFE0194
:103CE0001228533DFE0112285348FE011228538921
:103CF000FE011228539CFE01122853C3FE01122814
:103D000053A5DA05122853B6DA051228533EDB050F
:103D1000122853F2F70412285341F804122853E3EF
:103D2000F9041228539FFB04122853E7FB041228BE
:103D300053CFFC0412285300FE0412285322FE0421
:103D40001228537EFE0412285302FF04122853AA9D
:103D50004C00122853D84C00122853234E0012282E
:103D6000536A4E00122853BC4E00122853384F009D
:103D7000122853A14F00122853ED4F001228536F01
:103D800050001228531551001228539D510012283B
:103D900053DF51001228531C56001228539F57001E
:103DA000122853DE57001228532F5800122853555B
:103DB0005B00122853E05B00122853B75D00122805
:103DC00053F95E00122853176000122853896000CF
:103DD000122853556100122853BB6100122853CF9B
:103DE0006100122853836200122853B8630012281E
:103DF00053F665001228537668001228532B690089
:103E0000122853476A001228539E6D00122853AEA1
:103E10006D001228530F6F001228539B6F00122859
:103E200053CD70001228535F71001228535C72004A
:103E3000122853E9720012285385CD021228533BF1
:103E4000CE02122853ADCE02122853BCCE02122845
:103E50005336CF02122853A5CF02122853ACD002FA
:103E6000122853D5D00212285375D102122853C3F9
:103E7000D1021228533AD2021228532CD50212280A
:103E80005301D6021228536ED602122853EED702DF
:103E9000122853A2D80212285350D902122853AB29
:103EA000D90212285316DA0212285316DB021228FE
:103EB00053FEDB0212285342DC021228536FDC024D
:103EC00012285397DC02122853CCDC0212285355D7
:103ED000DD02122853B3DE0212285380E0021228BA
:103EE0005397E102122853D4E202122853E7E30267
:103EF00012285380E402122853F2E402122853BA23
:103F0000E5021228534E9404122853D09404122828
:103F1000535B9504122853F895041228531F9704F5
:103F20001228536B980412285335990412285356BB
:103F30009904122853849904122853DF99041228F3
:103F400053069A04122853B79A04122853CB9A04A2
:103F5000122853E29A041228530C9B041228532669
:103F60009B04122853469B041228536C9B0412286E
:103F700053839B04122853669C04122853049D0407
:103F8000122853DB9D04122853339E0412285358E1
:103F90009E04122853839E04122853A39E041228C1
:103FA00053FF9E04122853539F041228530FA0045A
:103FB0001228536AA10412285344A2041228530F52
:103FC000A30412285368A30412285380A3041228C0
:103FD0005372A40412285308A5041228536DC10576
:103FE000122853A8C10512285362C205122853C8CB
:103FF000C20512285339C305122853CDC305122810
:10400000539CB705122853FEB80512285397DB05B9
:10401000122853A8DB0512285348DC05122853F553
:10402000FF01122853EAFF021228534ADE05122824
:10403000535ADE051228536FDE05122853C0DE05E1
:10404000122853F3FE0112285378FF01122853DC83
:10405000FF01122853F07F00122853F37F0012282B
:104060005361DF0512285371DF0512285374DF05F1
:1040700012285377DF05122853F87F001228533E89
:10408000D00512285379D105122853FDD1051228E5
:104090005338DF0512285341DF051228534ADF0544
:1040A00012285358DF051228534C9205122853B892
:1040B00092051228537F93051228538994051228DC
:1040C000536B9605122853C696051228531B970565
:1040D0001228532C97051228533E9705122853A8EF
:1040E0009705122853BC9705122853C79705122825
:1040F00053D59705122853E79705122853FB9705C8
:104100001228535098051228534C9A051228537EB2
:104110009A05122853A09A05122853B99A05122815
:1041200053D29A05122853DC9B05122853779C051D
:1041300012285300D20512285325D20512285335D0
:10414000D20512285368D20512285399D205122895
:1041500053C7D205122853D8D2051228533AD30593
:1041600012285349D30512285353D3051228536DEF
:10417000C40512285393C405122853D0C40512282D
:1041800053DFC405122853FEC40512285366C50523
:104190001228536FC505122853CEC505122853F2B5
:1041A000C505122853B1C605122853BEC6051228EC
:1041B00053CFC605122853CFDE05122853ECDE0577
:1041C0001228536BAA05122853BFAA051228532C94
:1041D000AC0512285339AC051228534CAC051228F3
:1041E000536BAC0512285381AC0512285395AC05CE
:1041F00012285318AD051228537BAD05122853F62B
:10420000AD0512285364AE05122853C2AE0512281C
:1042100053D2AE0512285318DD051228533CDD0594
:1042200012285364DD051228538CDD05122853FD36
:10423000C60512285324C70512285345C70512285E
:1042400053AAC70512285363C9051228537CC90510
:1042500012285388C9051228539CC905122853BA3D
:10426000C905122853C4C905122853CEC9051228FE
:1042700053E1C90512285332CA051228536BCA05E7
:104280001228539ACA05122853E8CA051228533730
:10429000CB0512285352CB051228535CCB051228AC
:1042A000536DCB05122853B3CB05122853937F00CF
:1042B000122853E47F0012285352D5041228537E4B
:1042C000D5041228539AD504122853ADD5041228C8
:1042D00053C3D5041228532FD60412285362D60490
:1042E00012285391DA04122853B7DB04122853EA38
:1042F000DB0412285336DC041228536FDD04122825
:104300005397DD04122853ACDD04122853BCDD049E
:1043100012285300DE0412285355DE041228536578
:10432000DE0412285340D7051228535BD705122804
:104330005384D7051228539ED705122853C3D70597
:10434000122853E2D705122853FAD705122853280A
:10435000D80512285342D80512285336FF041228D4
:10436000538CFF04122853D6BA05122853DDBA0520
:10437000122853E9BB0512285319BC051228533FD4
:10438000BC0512285362BC0512285384BC051228B0
:1043900053BEBC0512285324BD051228535DBD052C
:1043A000122853A9BD05122853D6BD05122853F66D
:1043B000BD05122853ADD405122853CFD4051228B9
:1043C00053F6D505122853F9D50512285392D9056D
:1043D00012285304DA0512285342DA0512285383AF
:1043E000DA0512285323F00412285329F004122866
:1043F000536FF00412285358F2041228538EF2041B
:10440000122853E8F204122853CAF3041228530F57
:10441000F40412285342F404122853CCF404122852
:1044200053E6F40412285372F60412285370F7046A
:10443000122853B9F70412285388E7041228539E10
:10444000E70412285333E8041228532FE9041228F2
:104450005333EA04122853D8EA041228531CEB04FD
:1044600012285399EB04122853FAEB041228530A2A
:10447000EC0412285331EC0412285383EC04122864
:104480005310EE0412285315EE0412285337EE048D
:104490001228530780051228538D80051228539344
:1044A00082051228532983051228535483051228A4
:1044B000532084051228539A84051228533A8505FF
:1044C000122853818505122853E7A505122853E8C1
:1044D000A60512285378A805122853A3A805122868
:1044E00053AFA90512285321AA0512285326B30554
:1044F0001228534CB3051228539BB305122853B707
:10450000B305122853E8B305122853F8B30512284F
:104510005305B40512285312B405122853FEB405EE
:104520001228533CB50512285346B505122853539B
:10453000B5051228535EB60512285370B605122829
:10454000537BB6051228538DB60512285396B6052F
:10455000122853A0B60512285315B705122853B6D2
:104560009C05122853D6A005122853F2A005122844
:10457000532AFC0212285340FC02122853E2FD0287
:104580001228532DFE0212285398FE021228538A35
:10459000FF02122853B9FF02122853CBFF02122840
:1045A00053FCD50512285356BE05122853B2BE053A
:1045B000122853F2BE05122853E3BF0512285307F1
:1045C000C0051228531CC0051228533CC0051228F0
:1045D0005373C00512285384C0051228539BC0058D
:1045E000122853C0C0051228534AC1051228530B84
:1045F000DF05122853089F03122853D19C03122869
:10460000535F9C03122853179C03122853629A038A
:10461000122853E29903122853C89903122853977A
:1046200099031228537E9903122853DC9803122809
:1046300053AE98031228532A9803122853DB96038B
:10464000122853479603122853AA9503122853A001
:1046500094031228535D94031228532B94031228B9
:1046600053689303122853939103122853409103E4
:104670001228531291031228530F9103122853C288
:10468000A30312285300A203122853CCA10312281B
:104690005399A10312285384A103122853FC9003B9
:1046A000122853A590031228538C900312285369A3
:1046B0008F031228536DA103122853FF8E03122873
:1046C00053858E03122853508E03122853F18D0305
:1046D0001228535DA1031228534AE702122853C03F
:1046E0008D03122853888A03122853488A031228FC
:1046F000533C8A031228539C8903122853DC8803F5
:104700001228534B8603122853DC83031228539A32
:1047100083031228536E8203122853238203122824
:10472000535F81031228533281031228536A800396
:104730001228533A80031228537ADF0512285300B7
:10474000800312285324A00312285369D0040000C8
:104750000080FBE4738F0001001E08870001001D2C
:104760000824000200E31325000200E513260002DE
:1047700000E71327000200E91328000100EB1329CA
:10478000000100EC1384000400ED1386000100F129
:10479000132A000100F2132B000100F3132C000177
:1047A00000F7132D00080009082E000100F8132F50
:1047B000000100F91330000100FA1331000100FB81
:1047C0001332000100110833000100120834000107
:1047D00000FC1336000100130838000100FD1339F6
:1047E000000100F613830002000714630001001C9F
:1047F0000864000100F41365000100F5136D000169
:104800000006146E000200070843000100FE134476
:10481000000200FF134500010001144600020002DF
:10482000144700080014084800010004144B00015C
:10483000000514040001000914A10001000B143745
:104840000001000A14880001001F08000000000099
:1048500000000136360101000102010001030100E0
:1048600001040106060502000007010034080100EA
:104870000F090401010D0100FF0E080000170200DE
:1048800000190100FF1A0100011B0100FE1C0100BC
:10489000081D0200001F010001200100012102008B
:1048A000002301000F24020000260100012701005F
:1048B00008280200FF2A0100072B0102402C0100FA
:1048C000002D0100012E0100012F0100FF30010B1E
:1048D0001C310800003A0100083B01000F2F0100C5
:1048E00000030071003001600011007000310220EF
:1048F0000350048000100061000000140063007386
:104900000072006200430000001300060000000077
:104910000004001200000000000000000004000479
:1049200000370037003C0244000000000000000097
:1049300000650000003500810000000500000083D4
:1049400000000001037103010301030103010301DE
:10495000032203020301031003000300030003000A
:1049600003000300030003420300032403060300C3
:104970000300030403120325032303250323030475
:1049800003040300030003000344030003000323A4
:1049900003000365032100350381030003050300C1
:1049A0000300030003010171010101010111010173
:1049B000013101010101018001100161013B00147D
:1049C00000630173017201620143010001130106DA
:1049D000013D013500040112010001000100010048
:1049E0000104010401330133013C01440132013669
:1049F0000000010001650100013500810100010591
:104A000001820183010001030471040204600411A6
:104A1000047004020402040104020410046104008E
:104A20000414046304730472046204430400041352
:104A3000040604000400040404120400040004003A
:104A40000400045104640000040004000444040051
:104A500004000400040004650400043504810464B7
:104A600000050400048304000403027102300160A5
:104A700002110270020102020202028002100261AF
:104A8000023A0041006302730272026202430200B2
:104A900002130238000002000204021202000200A7
:104AA000020002000204020402370037003C024404
:104AB0000200023900000200026502000235028194
:104AC00002000205028202830200020000723E130D
:104AD00000E83D0100723E0200703D0300763D0497
:104AE000007C3D0500823D06008E3D3000AC3D312E
:104AF00000A63D3200B83D3300BE3D3500C43D3414
:104B000000CA3D3600D03D1100DC3D1400E23D15E9
:104B100000A03DFFFF000036000100060000000F6E
:104B20000000000000000000000000000003FFFF84
:104B300000000403FFFF0000FFFF0FF4010005C4A5
:104B4000040320000100000B000000000000000032
:104B500003010F01B42F06EA2F08E42F0B023010D7
:104B6000242F0A1A3002BA2F05D82F07C02F0C960F
:104B70002F0DA82FFF000003EAF5E5D5D5C5B5A593
:104B80009595858575756565555545453535252555
:104B9000151505463476344C345234703464345E22
:104BA000347C34823488349434583440343A340079
:104BB000160F00000B150B020002220F3200000638
:104BC0005A6967426565416C6C69616E636530392D
:104BD00001030507090B0D0F00020406080A0C0D5E
:104BE00000000000000000008967452301EFCDAB05
:104BF000423554355A35103460350A341634AE35E2
:104C0000CC35D235B435C035BA354A334433803328
:104C100086337A333233303017181921301B1D1F79
:104C20003000011916181616152303003030161817
:104C30001920231A1C1E300C0E020B040B0A070845
:104C4000000F00034948424D181725050200383C63
:104C50003E363B3B352B432C6A348E34C6359A3472
:104C6000A034963566356C3578357235020402010C
:104C7000010101090256335C3350338C33623374C3
:104C80003300BE040A0E0004007F00E803000000A9
:104C90000028000C00100C0A03080900040009FF9A
:104CA0001E1E0301040C10080F05C082C08390076C
:104CB00086E4F0A3F07CD57D047A027B071243DC06
:104CC000122D3290081DE0700479008002790112E3
:104CD000473C122D380261C874F512239374F51203
:104CE000291FE9FF8A08EBFEEF705E740265087009
:104CF0003E9007197408F0750A00780A1228ABEC88
:104D0000F50A780A1228ABEEF50A780A1228AB9059
:104D100013ED1226CF9013F1E0F97C147D08901466
:104D200007125DA4122D5C74071228D4024DFA7488
:104D30000165086003024DFF9007197408F07B00BD
:104D4000EEFAF9122D98024DFA74016F60087402A0
:104D50006F6003024DFFEA600674036508705490AB
:104D600007197402124E19122AF8122D4AE9F89006
:104D7000071EE0A2E34019E8701690078AE004F0ED
:104D80006404700C908094122AF89013ED122B0496
:104D900074036508706690078BE0F9740129F0E9E7
:104DA000C394054057908094122AF89013ED122B6B
:104DB00004804974016508704674016F900719708A
:104DC0002E740AF07401122B1BE4F07402122B1BD8
:104DD0007403F0908084122AF87404122B1B122B97
:104DE000047408122B1BE4125BD0122FC6802074AF
:104DF0000A124E19122AF8122D80E9F8E860107C88
:104E0000E87D037A017B00900716E0F9123B5A74A3
:104E10000B1228D47F030225C1F09013F1E0F99022
:104E200013ED2274F6122393E9FFEAFE7AD1F91208
:104E30003A16EA4B702A7A027B001239FEEA4B706E
:104E40000E7A107B00900716E0F9123A3A80188A21
:104E5000828B8374D1F0EFA3F0EEF9123A0A800747
:104E6000EF8A828B83A3F0024FE874F712239389B1
:104E70000890067BE0FEA3E080248E828F83A3A3AC
:104E8000125ADF60128E828F83A3A31255E9125A41
:104E9000DFFAA908123D588E828F83127299FFEEB5
:104EA0004F70D7900692E0FAA908123D581230DAF6
:104EB0009006EA1257D81230D40270BD74F1122352
:104EC00093890A8C08740F122B1B125D90741112B7
:104ED0002B1B1255D1750900750E00804AE50B1287
:104EE0004F89F50CA3E0F50DE50EC333FEE433FF67
:104EF000EA2EF582EB3FF583E0650C7004A3E065D4
:104F00000D7019E509C333FEE433FFEC2EF582ED95
:104F10003FF583E50CF0A3E50DF00509050BE50B66
:104F2000C3950840B8050EE50EC3950A5005750BEC
:104F30000080EBA9090263A274F4122393890B7415
:104F40000C122B1B125D90750A008002050AE50AFF
:104F5000C3950B502F7D0080010DEDC39C50EDE5F6
:104F60000AC333FEE433FFEA2EF582EB3F124F997A
:104F7000F509ED124F8965087004A3E0650970D941
:104F80007901800279000265ECC333FEE433FFE867
:104F90002EF582E93FF583E022F583E0F508A3E0F2
:104FA0002274F612239312502F7003A3E06D701732
:104FB00075081C75090778081228A7EEFA123E78C2
:104FC00074021228D4801A750802750980780812B4
:104FD00028A78C088D0978081228A712505B122880
:104FE000D4800574021228D47F020225C174F612FF
:104FF000239312502F7003A3E06D70177508297565
:10500000090778081228A7EEFA123E7E74021228C9
:10501000D4801A75080375098078081228A78C08AF
:105020008D0978081228A712505B1228D480B9EA9B
:10503000FEEBFF125047FAA3E0F9EA2400FCE43942
:10504000FD9006EAE06C22EE2413F582EF125B3548
:10505000E0F8A3E0F988828983E022EE127092EFF3
:105060001271E6FD7C80126270123E9C7404227400
:10507000F612239374FE12291FEAFEEBFF851882B5
:10508000851983E4F0A3F01263AFFA88828983A3C1
:10509000A3E0F97509007508006005C394F14005A7
:1050A00075088280439006EAE06A7003A3E06B70A3
:1050B00020851882851983AA82AB83123650E9F5C0
:1050C0000985188285198312685C701C75088380B5
:1050D0001790081DE0600464017005750881800860
:1050E000E064027003750880851882851983125563
:1050F000D1A908EEFAEFFB123E84E5096014851889
:105100008285198312685C6009851882851983126B
:105110006914024FE374F2122393EAFEEBFF750A5F
:1051200000750B001251891230DAEA65087003EB42
:1051300065097012123662E914F50A79017A527B18
:10514000071236688003750B8012705AF50C780CC4
:105150001228AB750C52750D07780C1228A7780A27
:105160001228AB78081228A7E50BF5087808122852
:10517000AB12607DF582EF125EF57A057B80123E00
:105180008A74071228D4025DB2127068125D948886
:105190008289831272D6F508E439F5092274F61271
:1051A0002393E9FE7F00802F8A828B83124F9BF925
:1051B000E5082400E439F509EF33F8E433F9EC2885
:1051C000F582ED39F583E508F0A3E509F0EA24025C
:1051D0000A0AEB3400FB0FEFC39E40CC024FE87489
:1051E000E812239374FB12291F8A168B17851882E5
:1051F000851983E4F07403122B1BE4F0A3F004126E
:105200002B1BE4F0126ECCF50AA3E0F50B850A82A5
:10521000F5831272D2FEE439FF850A82850B83A3DF
:10522000A3E0FA850A82850B83A3A3A3E0F9EAF53C
:1052300008E439F509E50A2404F50AE50B3400F51C
:105240000BEEFAEFFB12317CE96401702C126D0A4F
:105250001228ABE4F508F50978081228A778081297
:1052600028AB9006EA1226D375088078081228AB7E
:105270001255F11228D40255BFEEFAEFFB12317C21
:10528000E9700C9006EAE06E7003A3E06F70BE1246
:1052900055D78814602EC333FAE433FB123A947462
:1052A00003122B1B1257D87403122B1B12685C605D
:1052B000137403122B1B1255C9A914123D888A0AB4
:1052C0008B0B80037514001255D7880F602AC333E7
:1052D000FAE433FB123A947401122B1B1257D87460
:1052E00001122B1B12685C600F7401122B1B1255EC
:1052F000C9A90F123D888003750F0090067B805D61
:10530000850A82850B83A3A3A3A3A3A3A3A3E4F08D
:10531000A3F0AA0AAB0B851282851383A3A31255AF
:10532000E7125ADFF9123A0A851082851183E0C02C
:10533000E0851882851983E0F8745228F582740795
:10534000127295D0E01265F104F0E515A2E0500765
:10535000AA10AB11123A9A851282851383E0F512D6
:10536000A3E0F513E5124513700302553785128249
:10537000851383A3A3125ADF60DD85128285138310
:10538000A3A3A3A3A3A3A3A3E0A2E050CA85128270
:10539000851383A3A3A3A312685C8512828513835C
:1053A000A3A3601F125ADFFA790185128285138345
:1053B000A3A3A3A3125AE41247538A108B117515A5
:1053C00001800F1255E7A3A3E0F510A3E0F51175D6
:1053D0001500E5104511700302534A8510828511AE
:1053E00083A3E065087004A3E06509600302534AE3
:1053F000851082851183A3A3A3A3A3A3A31226D3FD
:10540000851082851183A3A3A3A3A3A3E0FC740545
:10541000122B1B125DA4A914123D6A74021228D427
:10542000E9703C851082851183A3A3A3A3A3A3A342
:10543000A3A3A31226D3851082851183A3A3A3A3BC
:10544000A3A3A3A3A3E0FC7403122B1B125DA4A9C6
:105450000F123D6A74021228D4E9700302534AE520
:105460000F2514C333240AFA7B001239FE8A0A8BF3
:105470000BEA450B70030253288A828B8374D2F0A7
:10548000851682851783A3A3125D908A828B83126F
:105490005BD88A828B83A3A3A3A3E5141272DCE5F5
:1054A0000FF0E5146038EA2405FAEB3400FBE50A56
:1054B000240AF8E50B3400F98A828B83125BDA74D4
:1054C00003122B1B12560F1228A3E514C333FCE45E
:1054D00033FD8A828B83126A101228D4800D8A824F
:1054E0008B83A3A3A3A3A3E4F0A3F0E50F700302AF
:1054F0005300E514C333F8E433F9E50A28F8E50B63
:1055000039F9E8240AFAE93400FB850A82850B831D
:10551000A3A3A3A3A3A3A3A31257D87401122B1B65
:1055200012560F1228A3E50FC333FCE433FD1271AA
:10553000361228D4025312851882851983E0602719
:10554000126D0A1228AB75085275090778081228DF
:10555000A77403122B1B126D141228AB9006EA12CB
:1055600026D37508008029EEFAEFFB12317CE97032
:105570002A126D0A1228AB750852750907780812AD
:1055800028A775080078081228AB9006EA1226D3DF
:1055900078081228AB1255F11228D47403122B1B71
:1055A00012685C60087403122B1B126914740112D8
:1055B0002B1B12685C60087401122B1B1269147497
:1055C000051228D47F100225C11255D1AA0AAB0BAF
:1055D00022E0FCA3E0FD22850A82850B83E0F8A38C
:1055E00085820A85830B22E0F8A3E0F5838882A3F5
:1055F00022E5162402FCE5173400FDE516126012C0
:10560000E51712627D7A067B80123E8A740722E0DB
:10561000F50CA3E0F50D750E00780C2274F412233E
:105620009374F412291F8A088B09ECFEEDFF740BAA
:10563000122B1B7403F0122B1BAA82AB831243DCC8
:105640001230D4EAFCEBFD7403122B1BAA82AB834D
:105650001243D6E9600A1257696010E06401600BDA
:1056600085188285198374840257218E828F83A3C3
:10567000A3A3A3A3A3A3A3E06017C394F1501212A2
:1056800057697018EE241412705D6005C394F140E0
:105690000B8518828519837482025721E508240C32
:1056A000F582E50912706064217002A3E0704F85F5
:1056B0001882851983748CF012575C1228AB12572C
:1056C000781246CA74011228D4E97056851882856A
:1056D0001983E4F0123CDA12576970467401122BF8
:1056E0001BAC82AD8312720EFB1246B8E970337D9B
:1056F000007C00790012720EFB123E488024125783
:105700005C1228AB1257781246C474011228D4E9EF
:105710008518828519837007E4F0123CDA800374DF
:1057200088F0127090E5091257611228AB740112CB
:105730002B1B85820A85830B780A1228A7E508248B
:105740000CF582E50912576F4480F50B780A122890
:10575000A71261351228D4740C0265E9EE125D843B
:10576000EF1271E6F50A780A2212582A640322120F
:105770005B31E0F50AA3E022EE240BFCEF3400FDE0
:105780008E828F83A3A3A3A3A3A3A3A3A3125DA825
:105790008E828F83A3A3A3A3A3A3A3A3E0F922C014
:1057A00082C08374F312291F851882851983E4F05F
:1057B00004122B1B1257D87403122B1BAA82AB8323
:1057C000122C6C851882851983AA82AB83122CA2B5
:1057D000740D1228D40261C8EAF0A3EBF02274F62B
:1057E00012239312581A126F8D900724E058F5086F
:1057F000A3E059F509E5084509601C78081228A7B7
:105800009006EA1226D312705AFD7C0012626C12C6
:105810003E9674041228D4024FE8EAFEEBFF1258B9
:105820002AF8A3E0F9888289832212706CE022743E
:10583000EA12239374DB12291F8A148B1575120048
:10584000751300125AD9F50E851882851983AC821A
:10585000AD837A007B00799C122DAA7A047900121C
:105860002CB4EAF50C851882851983E0250CF0F834
:10587000E50EC3984003025A61E0C3950EF509C3D3
:1058800094044003750903E50975F01AA4FAABF016
:10589000123A948A128B13EA45137003025A647504
:1058A0000D00AE12AF13850E08025936125AB88594
:1058B0000A82850B83A3A3A3A3E07039850A82859E
:1058C0000B8312685C7012125D7D127054EE241806
:1058D000F582EF127295E48016125AD0F090055CB2
:1058E000E014C0E0EE2418F582EF127295D0E012B9
:1058F0005B21E4803E90055CE004C0E0EE2418F5F6
:1059000082EF127295D0E0125B19C39403EE40034C
:105910000259C6125D7E1272957402125B196401FF
:1059200060030259D3125AB1127295E4F0EE2416B4
:10593000125AD3125AEDE50DC3950940030259F7E7
:10594000E508C3950C40030259DCA908122D268AEC
:105950000A8B0B0508900549125AF9850A82850BB6
:1059600083125D90125AAA126F80125B3A850A82E6
:10597000850B83A3A3A3A3A3A3A3A3A3A3E0C0E036
:10598000EE2419F582EF127295D0E0F07401122B1B
:105990001BE4126F07125D907402122B1B125BDA6C
:1059A0007401122B1BAA82AB83122C90E964016054
:1059B000030258AC7404122B1BAC82AD83EE240A94
:1059C000125ACA0258AF125AD1125B1964037003FB
:1059D000025925EE2415125AD302592CE50CC39511
:1059E0000E40057508008016E50EC3950CF508807D
:1059F0000D125AD0125AEDE50DC395095066740E7A
:105A0000122B1BAC82AD8385080AAA0A7B0079871A
:105A1000122DAA05087418122B1B125AF9125AB823
:105A2000EE2412F8EF3400F9740E122B1B125DA451
:105A300088828983EAF0A3EB125B217403125B3A3C
:105A4000741D122B1BE0C0E0EE2419F582EF1272D8
:105A500095D0E012686C7099125D7D127295E480A9
:105A600093750900750A00780A1228AB781212287B
:105A7000A778091228ABE50EF50978091228AB744E
:105A800005122B1BE0FD7C00125FFD123ED2740557
:105A90001228D4E51245136007AA12AB13123A9AE2
:105AA00074251228D47F0E0225C1EE2412F582EF50
:105AB00022EE2415F582EF227C087D0079FFEE248A
:105AC0000AFAEF3400FB1239E622FAEF125B1222D7
:105AD000EE2414125B2E7401221271EB125B311250
:105AE0005AE4E022E0F8A3E0F583888222F0EE2475
:105AF0001AFEEF3400FF050D22125D948E828F8313
:105B0000E8F0A3E9F07C5D7D05EE2402FAEF125B7C
:105B100012223400FB1243DC22127221A3A3A3E061
:105B200022F0EE2415125B4A2416125B2E22F58217
:105B3000EF125B35223400F58322F0EE2417125B5E
:105B40004A2418125B2E74FFF022F582EF125B35A7
:105B50007402F0EE2274F612239374F912291F8A4C
:105B6000088B09127354851882851983122B04122D
:105B70005BC8C0E07404122B1BD0E0127154E0FA31
:105B80007405122B1B7401F07406122B1B7401F0A8
:105B90009006F4F09006FD04127238A3125D909006
:105BA00006F5125BDAEA9006FEF0E508126012E5EF
:105BB000091270609006F3125BD0122D50E9600359
:105BC000122D567407024FE5EE2404FE126EC22217
:105BD0001263A7AA82AB8322A3A3E8F0A3E9F02271
:105BE00074F212239374FF12291F7508007E007F40
:105BF00000122FF68A0A8B0B125D718005050812C0
:105C00005D89E84970F790081DE060076401600352
:105C1000025CEE125D718003125D89E8496037888D
:105C2000828983125DA4900549E06A7003A3E06B4A
:105C3000600E125D83E9127295125DA4EA4B70D872
:105C400088828983125D90900549E0687003A3E023
:105C5000697003025CEE7A167B00123A948A0C8B10
:105C60000DAE0CAF0DEE4F7003025CEE90054912C5
:105C70005D908E828F83125BDA90053EE08E828F7C
:105C800083A3A3F0123164E98E828F83A3A3A3A31D
:105C9000A3F09013F2E08E828F83A3A3A3A3A3A308
:105CA000F07C5D7D05EE240B125ACA851882851999
:105CB00083AA82AB8379411244F6851882851983C1
:105CC000E060089006EA125D90800478FE79FF8E0D
:105CD000828F83A3A3A3A3A3125BD8125D7D12724C
:105CE00095E50AF0A3E50BF08E0A8F0B05089006E8
:105CF000FEE0F8E508C39850047A008022E508C366
:105D000098FAC3940640027A057900800DE50A12DC
:105D10005D84E50B12576FF50B09E9C39840EE75EA
:105D2000090078091228AB780A1228A7EAF5097841
:105D3000091228AB9006FEE0F50978091228ABADF0
:105D4000087C007AF57B069006F3E0F9123ECC74ED
:105D5000051228D490081DE060046401700BEE4F1A
:105D60006007EEFAEFFB123A9A122D5674010251B7
:105D700083122FF68A0C8B0DA80CA90D22EE125D52
:105D800084EF22E82414F58222125D83E9125B314C
:105D9000125D9422E0F8A3E0F922AC82AD8385186D
:105DA00082851983125DA822E0FAA3E0FB22EEFAB5
:105DB000EFFB7F060225C174EC12239374FF1229B6
:105DC0001F8A0A8B0B7E008E0E8E0F125AD9FF850A
:105DD0001882851983AC82AD837A007B00799D128D
:105DE0002DAA851882851983E0F8EFC39840030235
:105DF0005E93E0C39FFEC3940B40027E0AEE75F0F3
:105E000007A4FAABF0123A948A088B098A0E8B0F1A
:105E1000EA450F607C750C00801785088285098330
:105E2000A3A3A3A3A37403F0E5082407125EEC0563
:105E30000CE50CC39E505CAC08AD09850C108F12AC
:105E4000E5102512FAE43400FB798B122DAA85089F
:105E500082850983A3A3A3A3A3E01460081460139D
:105E600014601F80B5850882850983A3A3A3A3A31B
:105E7000E480B4850882850983A3A3A3A3A3740146
:105E800080A5850882850983A3A3A3A3A3740280A8
:105E9000967E0075080078081228AB780E1228A7A5
:105EA000EEF50878081228ABEFF50878081228AB51
:105EB0007405122B1BE0FD7C00E50A2402FAE50BB9
:105EC0003400FBE50A126012E50B125EF5123ED8B3
:105ED00074051228D4E50E450F6007AA0EAB0F1209
:105EE0003A9A74011228D47F0C0225C1F508E509FD
:105EF0003400F5092212627D2274EA12239374FEA3
:105F000012291F8A148B15750A00750B00125AD9B5
:105F1000F508851882851983AC82AD837A007B00F1
:105F200079A31246BE85080C851882851983125DF7
:105F300090C3E50C98E499507F851882851983E019
:105F4000C3950CFEA3E09400FFC3EE9404EF94000D
:105F500040067E037F008004EE4F605CEEFAEFFBAC
:105F6000EA75F015A4FAA8F075F015EBA428FB1259
:105F70003A948A0C8B0D8A0A8B0BEA450B603975B3
:105F80000900750E00850E10C3E5109EE49F502D8C
:105F9000AC0CAD0D850E12850810E5122510FAE443
:105FA0003400FB79A21246BEE50C2415F50CE50D74
:105FB0003400F50D050E80CD75098B7E00750C0043
:105FC000780C1228AB780A1228A7EEF50C780C1280
:105FD00028AB78081228AB7405122B1BE0FDAC0926
:105FE000125FFD123EDE74051228D4E50A450B60EF
:105FF00007AA0AAB0B123A9A7402025AA2E51424B9
:1060000002FAE5153400FBE514126012E515126280
:106010007D22240FF5822274F612239374FF122935
:106020001FEAFEEBFF127064125DA48A828B83A3C9
:10603000A3A3A3A3A3A3A3E0F9122D74E985188257
:10604000851983F075080078081228AB7401122BAB
:106050001B85820885830978081228A7750835757D
:10606000098078081228A71260721228D4740102DD
:106070004FE5790112607DFAEF12614C22EE2402A5
:10608000FCEF3400FDEE240F2274F412239374FA13
:1060900012291F8A088B09126F88FAEFFB122C72E3
:1060A000E960131230D4EAFCEBFDEEFAEFFB124389
:1060B000D6E96401700A7401122B1BE4F0A3800975
:1060C0007401122B1BEEF0A3EF126860A3A3A3A32D
:1060D000A3A3E0F8A2E650087403122B1B7401F08E
:1060E000E8A2E750087404122B1B7401F074051227
:1060F0002B1BE4F004122B1BAA82AB83122D9EE90A
:10610000851882851983F0750A00780A1228AB7405
:1061100001122B1B85820A85830B780A1228A7752A
:106120000A34750B80780A1228A71261351228D418
:1061300074060265E97901E5082402FCE5093400EA
:10614000FDE508240FFAE50912614C223400FB1228
:106150003E3C74052274F612239374FF12291F1219
:10616000581AE0F509A3E0F508A909122D62E9859E
:106170001882851983F090081DE0700B7401650882
:106180007005A909123F62EE240B12705D7029752B
:10619000080078081228AB7401122B1B8582088531
:1061A000830978081228A7750836750980780812BF
:1061B00028A71260721228D402606DC082C083903A
:1061C000081DE07003123F68D083D082022850740B
:1061D000F412239374EF12291FEAFEEBFF12518988
:1061E0009006EAE065087004A3E065097058851818
:1061F0008285198385820A85830B780A1228A77500
:106200000A11750B00780A1228A77C007D007A819C
:106210007B00123B1E74041228D4E97029750A0011
:10622000780A1228AB7401122B1B85820A85830B16
:10623000780A1228A7AC08AD0912626C123E90745D
:10624000031228D48021750A11750B80780A122850
:10625000A778081228A712705AFD7C8412626C126B
:106260003E9C74041228D474110265E912627022F3
:10627000EE2402FAEF3400FBEE126012EF125B35EF
:10628000E0F92274F112239374EB12291FEAFEEB5A
:10629000FF1263AF2400F508E43BF5099006EAE03D
:1062A00065087004A3E06509600302634B88828976
:1062B00083A3A3E09410500F88828983A3A3E08571
:1062C000188285198380088518828519837410F0D7
:1062D000E0C0E07404122B1BD0E01270A0A3A3A9AD
:1062E00082AA83890C8A0D750E00780C1228A3747B
:1062F00007122B1BE0FC7D007408122B1BAA82AB3B
:10630000831271361228D47404122B1B85820A85DD
:10631000830B780A1228A7750A11750B00780A12E8
:1063200028A77C007D007A817B00123B1874041240
:1063300028D47404122B1BE090071C6005E0D2E403
:106340008003E0C2E41263A7E480088518828519FF
:10635000837484F0E0C0E07401122B1BD0E0F07471
:1063600002122B1BE508F07403122B1BE508F0EE5C
:10637000127092EF126D111228AB7402122B1B8552
:10638000820885830978081228A775081475098082
:1063900078081228A779031260741228D474151291
:1063A00028D47F070225C1F085188285198322121F
:1063B0005047FCA3E0FBEC2274F412239374E01228
:1063C000291F8A088B09851882851983AC82AD83C1
:1063D000123E2A90081DE0640270337402122B1BD7
:1063E000AE82AF831230D4EEFCEFFD1243D6E960EB
:1063F0001D1230DA8A0A8B0BA80AA90B8518828530
:106400001983E0687003A3E06970030265E7123244
:106410009C7402122B1B125D9A1231A6E964017062
:10642000030265E77418122B1BAA82AB831230E6B5
:106430007402122B1BAC82AD837418122B1BAA8220
:10644000AB831243D6E960321230E08A0A8B0BA884
:106450000AA90B851882851983E0687003A3E06997
:106460006018851882851983125D9090053F125B34
:10647000DA7A3F7B05794B1244FC90081DE06007F7
:106480006401600302650D12728DC082C0831230F8
:10649000DA8A088B09D083D082E065087004A3E013
:1064A0006509603E7402122B1BAA82AB83122CE496
:1064B0008A088B09A808A909E84960268882898387
:1064C000A3A3A3A3E06401600D88828983A3A3A38F
:1064D000A3E06402700C7402122B1BAA82AB83121D
:1064E0002CF01230DA8A088B09A808A909851882CD
:1064F000851983E0687003A3E06960117402122BB0
:106500001B125D9A122CC6E96003123CDA74021267
:106510002B1B125D9A12327E7900125D9E122EE2C2
:10652000740B122B1BE41265F1F8A3E0F9740C1242
:106530002B1B125BDA740B122B1BAA82AB83122C5F
:1065400090E9604B7C087D0079007418122B1BAA1F
:1065500082AB831239E6740E122B1BAC82AD8374AE
:1065600018122B1BAA82AB831243D6E96021740256
:10657000122B1BAC82AD83740E122B1BAA82AB8331
:10658000122C6C740B122B1BAA82AB83122CA274DC
:1065900002122B1BAC82AD83740E122B1BAA82AB92
:1065A00083122C6C740B122B1BAA82AB83122C96B9
:1065B000E96034740C122B1B125D908518828519CA
:1065C00083E0687003A3E069601D851882851983E4
:1065D000125D90740C122B1B125BDA740B122B1BC6
:1065E000AA82AB83122CA274201228D47F04022525
:1065F000C11263A7E02274F112239374F612291FCB
:10660000EAFEEBFF75080090078812685C70407A1C
:10661000377B0012681FEAF0A3EB126D7C60197CD7
:10662000377D0079001239E6EEFCEFFD9007881205
:106630005DA4123DFAE9700B851882851983748870
:106640000267811268267401F0126CBA0268141293
:1066500068267402F0EEFCEFFD126CA0123DFAE920
:10666000700C8518828519837488F0750801750A85
:1066700052750B07780A1228A7900788E024291280
:106680006CEE1226D3900788E02428126830241577
:1066900012684424141268391228D4E9C0E0900723
:1066A00088E02431126CEED0E0F0126D40603C12B4
:1066B0006819E024321268656025750C52750D0763
:1066C000750E00780C1228A3126D40C333FCE4331E
:1066D000FD900788E02432126A0C1228D4800C85C1
:1066E00018828519837488F0750801780A1228A722
:1066F000900788E02412126CEE1226D3900788E0EF
:106700002411126830242C126844242B1268391288
:1067100028D4E9C0E0900788E02434126CEED0E081
:10672000F0127077602E126819E0243512686560E7
:106730003F750C52750D07750E00780C1228A312C8
:106740007077C333FCE433FD900788E02435126A88
:106750000C1228D4E508A2E0401F126D407005120B
:10676000684C60157B007A007900123E00026814C4
:106770008518828519837488F08518828519837439
:1067800086F07409122B1B7402126860126D3A12A3
:106790002B1B125BDA8E828F83A3126D141228AB2F
:1067A0007401122B1B85820885830978081228A79B
:1067B00075082075098078081228A77901740612D7
:1067C0002B1BAC82AD83EEFAEFFB126CD61228D4F1
:1067D000126D26703C7409122B1B7402F0126D327C
:1067E000122B1B126D831228AB7401122B1B858296
:1067F0000885830978081228A7750820750980780C
:10680000081228A779017406122B1B126CC81228D3
:10681000D4123DF4740A02639FC333FAE433FB12CB
:106820003A9490078822900788E0242E126CF22276
:10683000126D4AFC900788E02218126D4BF9123D48
:1068400064740422126922900788E022900788E08D
:106850002434080808126D4B22126CF2126A3F228F
:10686000127154A322126CF2EAF0A3EB1270C6F874
:10687000A3E0F9E84922C082C08390078812685CCF
:10688000700302690A900788E0243512685960098C
:10689000900788E0243512691B900788E0243212A3
:1068A00068596009900788E0243212691B900788B4
:1068B000E024121268596009900788E024121269D6
:1068C0001B900788E024151268596009900788E03A
:1068D000241512691B900788E02429126859600961
:1068E000900788E0242912691B900788E0242C1265
:1068F00068596009900788E0242C12691B9007886A
:10690000126914900788E4F0A3F00261C8F582EFE1
:106910003400F583125DA8123A9A22126922123AC3
:106920009A22F8126D4FFAA3E0FB2274F11223931E
:10693000EAFEEBFF8C088D09750A018C0C8D0D7534
:106940000E00780C1228A37C177D001271361228D5
:10695000D4125AAA126E86125AB1126E922411F5EE
:1069600082E509127060602AEE2412126A17601F15
:10697000E5082412126A001228A3E50824111269FE
:10698000F5125AAB127295126A101228D480037550
:106990000A00E508125D84E5091270606025EE24A6
:1069A00015126A17604AE5082415126A001228A316
:1069B000E50824141269F5125AB2127295126A107F
:1069C0001228D4E50AA2E04022125AAA12729512A5
:1069D000685C6006EE241212690D125AB1127295AB
:1069E00012685C6006EE241512690DA90A0263A202
:1069F000750A0080D41271E2C333FCE433FDEE2249
:106A00001271E2F50CA3E0F50D780C2208126CF37C
:106A1000125DA812713622F8EF3400F9880C890D46
:106A2000E0C333FAE433FB123A94850C82850D837C
:106A3000EAF0A3EBF0850C82850D83126A3F22E019
:106A4000F8A3E0F9E8492274EE12239374ED1229B9
:106A50001F890A8A0E8B0F750C00750D00750BFFD0
:106A60007510FF7511FF750800750900851882857E
:106A70001983E4126D7C70057900026C96740365CD
:106A80000A60067402650A700D900788E0243012CF
:106A9000707D650F70E27C067D3E7A007B001247B8
:106AA000247401650A700B8518828519837485F03A
:106AB0008043E50A60067403650A7019900788121E
:106AC0006D01F07403650A7028E50E602885188250
:106AD00085198380DA7402650A701AE50E900788BA
:106AE0007005126D0180C8E0242F126CEE740280D4
:106AF000BEE50A6019126D1A7014900788E02431FF
:106B0000080812707E700512684C600214F0126D55
:106B1000409007886014124F9B126CDC2432126D77
:106B20005A241D126CAD2425802012684F602090DD
:106B30000788E02417F508A3E03400126CDC243544
:106B4000126D5A2406126CAD240E12707DF50B7472
:106B500009122B1B74021265F16003026C08E50830
:106B600045097003026C08126D1A70047E228002BF
:106B70007E21850882850983126D38122B1B125BDA
:106B8000DA90078CE0C0E0900788E02430126CEEC9
:106B9000D0E0F07412122B1B7403F0AC0CAD0D742A
:106BA0000A122B1BAA82AB831243DC85088285095B
:106BB00083A3E0F50C780C1228AB780B1228AB7489
:106BC0000C122B1B85820C85830D780C1228A7785C
:106BD000101228A7E5082406F50CE5093400F50D88
:106BE000780C1228A7127090E509125EF57409124C
:106BF0002B1BAC82AD83EEFA7B00123EA874081208
:106C000028D4126CBA026C94126D32122B1B126DC6
:106C1000831228AB7401122B1B85820885830978A7
:106C2000081228A775082075098078081228A77906
:106C3000017406122B1B126CC81228D4126D267018
:106C400050900788E02419126CEE126D3A122B1B3B
:106C5000125BDA900788E02418126CEE126D1412A1
:106C600028AB7401122B1B858208858309780812D2
:106C700028A775082075098078081228A77901745B
:106C800006122B1BAC82AD83126CA0126CD612289C
:106C9000D4123DF4790174131228D47F0A0225C15D
:106CA000900788E02417FAA3E03400FB22F50CA338
:106CB000E03400F50D900788E0227C067D3E9004CC
