:020000040000FA
:10000000020D9E022003FFFFFFFFFF02200BFFFFF8
:10001000FFFFFF020523FFFFFFFFFF02201BFFFF83
:10002000FFFFFF022023FFFFFFFFFF02202BFFFF48
:10003000FFFFFF022033FFFFFFFFFF020577FFFFF7
:10004000FFFFFF022043FFFFFFFFFF02204BFFFFE8
:10005000FFFFFF022053FFFFFFFFFF02205BFFFFB8
:10006000FFFFFF022063FFFFFFFFFF02206BFFFF88
:10007000FFFFFF022073FFFFFFFFFF02207BFFFF58
:10008000FFFFFF022083FFFFFFFFFF02208B002006
:10009000000090200000932000000100000000C834
:1000A0000300380000000000260000000000FFFFF1
:1000B000FFFF0000040074F8120B1B780079008029
:1000C0001A74922EF58274031201F4900412120134
:1000D000FE4005900412E4F01201EB900412E0FEE1
:1000E000A3E06E6007C3E89CE99D40D5806D74F87D
:1000F000120B1B120153C398120153FEE8500B124E
:1001000002CB700B7800790080141202E050F57A6F
:10011000007B00803CE004F0439A041201EBC3E84A
:100120009CE99D50288A828B83E0C0E0900497E090
:10013000FE74162E120308D0E01202BC900498E45C
:10014000F0900497E0C3947F40CBE480CAE8FAE9DA
:10015000FB800C900496E0F8A3E022E8FAE9FB7F2C
:1001600001020C8074F8120B1B7800790090051BBB
:10017000E0705AA3E0705675F900C28FC284A28362
:1001800040FCA28F4004A28350F8E5F9C28FA283FD
:100190005004D2848037C0E0E0FE749B2EF5827458
:1001A0000412030CD0E0F090051C1202F440D3E4DA
:1001B000F080CF749B2EF58274041201F490051B1D
:1001C0001201FE400590051BE4F01201EB90051BA7
:1001D000E0FEA3E06E6007C3E89CE99D40D5E849D6
:1001E0007006E4F090051BF002015BE8240108E9C9
:1001F0003400F92212030CE08A828B83F022E0049F
:100200001202C0C394802274F8120B1B90059D1239
:100210000156C39890059D120156FEE85007120240
:10022000CB700B80051202E04004EC4D70077A00A1
:100230007B000202B98A828B83E0F5F9A3AA82AB24
:1002400083780179008006E004F01201EBC3E89C9A
:10025000E99D50278A828B83E0C0E090059EE0FEF6
:10026000741D2EF582740512030CD0E01202BC90AE
:10027000059EE0C3947F40CFE480CEC28FA283402E
:10028000FCC284A28F4004A28350F890059D120204
:10029000FBE0F5F9C28F90059DE0FAA3E06A9005B6
:1002A0009D70051202FB80051202F44002E4F0A2E8
:1002B0008350D0D284E8FAE9FB02015F1202C02227
:1002C000F08A828B83A3AA82AB8322C39EF895E037
:1002D000F91202D522E824FF18E934FFF9E849228F
:1002E000C39EF895E0F9E8247FF8E93400F9C3E803
:1002F0009CE99D22E004F0C3948022E0FA741D2A58
:10030000F582740512030C22F58274043400F5831F
:100310002274FF120D2D1203FA1206D8E97003029F
:1003200003D77E00900390E06401700DC2849003B7
:10033000917401F09005B38005D2AF9005B77808AD
:10034000120D8F7C017D00851882851983AA82ABEE
:10035000831204DF8B0DEA450D6012E064F8602C17
:10036000E0640770089005BB7808120D8F85080CB3
:1003700085090D850A0E850B0F9005BF7808120DB3
:100380006BE50C450D450E450F70B80E900390E0DF
:1003900064017009D284900391E4F08002C2AFEE50
:1003A000A2E05033900390E06401700C75F800C235
:1003B000AB539AF7D2EA800C758600C2AAC28B535F
:1003C0009AFBC2E990000174CDF0022000C2AF7523
:1003D000C9AB75C95B80FE1204A4C2AF75C9AB7509
:1003E000C95B80FE781075B60FE5B4A2E750FAE558
:1003F000BBC39940F118E870ED22C082C083A2927D
:1004000050047A0080027A8053BEFBE59DA2E6503C
:10041000FA0078F87901001202D570FA8AC6E59ED2
:100420006A70FB43BE049062707408F0794A12034C
:10043000E490000174F5F07403F5D575D488A2A09A
:10044000E433900390F0A2E05029D28453F3F753A1
:10045000F3EF53FDF743FD10538FF753F7DF43FCE2
:100460002043F10253F5DF75F82043F4F0D2FED2B9
:10047000AB802C53FF3F85FFFF53F1FE43F30C533A
:10048000F2F375868075C480900499E4F0A3F0754A
:10049000C2D875C50B75C402438640D2AAD2E9D032
:1004A00083D0822274F5120B1B794E1203E4900361
:1004B00090E07002D2AF1205C8E960FAE0701B90BC
:1004C00005C37808120D8F009005BF7808120D6BD8
:1004D000E5084509450A450B70ED7F04020C80C014
:1004E00082C083900390E070051200B6801E9003D6
:1004F00091E06015A28F500DE5F98A828B83F07A26
:10050000017B0080077A0080F81201648091C0822C
:10051000C083900390E070051200EE800312020782
:1005200002049FC0E074F2120B81900001E064CDE0
:100530007005122013803BE064F57035E5C1C0E022
:10054000900413E0F8749228F582740312030CD01F
:10055000E0F0900412120156687006E595900415BB
:10056000F09004131202F44002E4F0A374C6F08089
:1005700001007F01020BE0C0E074F1120B819000DA
:1005800001E064CD700512203B8038E064F57032E4
:10059000120153687009539AFBA37401F08024C2BE
:1005A000E9900496E0F50874012508F07416250812
:1005B000120308E0F5C1900496E0C394804004E47F
:1005C00080DA007F02020BE074F7120B1B74FF123B
:1005D0000D2D7E008033900384E0F8851882851904
:1005E00083E068700D900382E0644D700512081B73
:1005F000E9FE900385E4F0900387F0851882851961
:1006000083E0F8900384E068F07C017D0085188227
:10061000851983AA82AB831204DF8B09EA4509702E
:10062000030206CCE0C0E0900387E0F8900385E089
:10063000FAE82AF8E434001209D3D0E0F0900387F6
:10064000E0601114602014603E14604E1460641465
:10065000608480A7851882851983E064FE709C9071
:10066000038774018094900384E4F08518828519CF
:1006700083E0900386F0C394809003874004E402F3
:1006800005FA74020205FA851882851983E0900341
:1006900082F090038774030205FA85188285198316
:1006A000E0900383F0900386E06019900387740460
:1006B0000205FA900385E004F0F8900386E0686094
:1006C000030205FB90038774050205FAEEF9740135
:1006D000120CFA7F02020C8074ED120B1B74FB12D9
:1006E0000D2D7508047509007808120D7E7402122C
:1006F0000DC91209C0120CFA851882E0F47003A328
:10070000E0F4600F851882851983E0F8A3E0F9E82A
:1007100049700302080F7402120DC9E0687003A348
:10072000E06970030207E975080090059F781012D0
:100730000D8F800A9005A37810120D43604A750A48
:1007400001750B00780A120D7E7406120DC9AC8279
:10075000AD8385100A85110BAA0AE50B5407FB8AA5
:100760000C85110D85120E85130F740B780C120D6C
:1007700014A90C1209CA120CFAE0F9AA08AB091262
:1007800009DF8A088B0980089005A77810120D8F61
:100790009005AB7810120D6B9005AF7810120CC05D
:1007A0005092E4F91209DFE4F91209DF7402120D24
:1007B000C9EAF0A3EBF07508017509007808120D7D
:1007C0007E7402120DC9AC82AD837A247B08120AB2
:1007D000A07402120CFA7508047808120D7E7402D7
:1007E000120DC91209C0120CFA1209B2120DC9E099
:1007F000687003A3E0697017851882851983E0F497
:100800007003A3E0F46008E849600479018002798C
:10081000007405120CFA7F0C020C8074F3120B1B8F
:1008200074FC120D2D900306E0FAA3E0F9EA24000F
:10083000F8F508E93408F509750A017F007E009093
:100840000383E014600C1460401470030208E20299
:10085000095FE5095401F9E8497011880C85090D13
:100860007409780C120DADA90C120B04750C108EC6
:100870000D780C120D7E7C087D03AA08AB09120AC4
:10088000A07402120CFA02095F880C85090D740924
:10089000780C120DADE50CC3947940040F02095F8A
:1008A000750A408E0B780A120D7E7C097D03EAF5ED
:1008B0000AE5095401F50B7402780A120D58AA0AC8
:1008C000AB0B74097808120DADA9081209CA120CF5
:1008D000FA900307E0A3F0900306E0A3F0750A4343
:1008E000807D7508048E097808120D7E7402120D41
:1008F000C91209C0120CFA7402120DC9E0F8A3E083
:10090000F9851882851983E0687003A3E069603B6C
:100910001209B2120DC9E8F0A3E9F07508017808D0
:10092000120D7E7402120DC9AC82AD837A247B084D
:10093000120AA07402120CFA7508047808120D7ECF
:100940007402120DC91209C0120CFA1209B2120D6A
:10095000C9E0687003A3E06970030E80027F07900E
:100960000305E0D2E7F0EFA3F0E50A900303F0748B
:100970004D650AF5087404250AFB7A0380071209FD
:10098000D0E062080AEAC39BA2D265D033EAF840FD
:10099000ED1209D0E508F074012AFC3395E0FD7AE8
:1009A000027B0312050EEEF97404120CFA7F0602A4
:1009B0000C80851882851983E0F8A3E0F97402227F
:1009C000AC82AD837A907B007904120A1B740222F8
:1009D0003395E0F9740228F582740339F58322C057
:1009E00008C0097C088A088B09740F7808120DADBD
:1009F000EAC333FAEB33FBE9A2E7500474014AFA85
:100A0000E508A2E0500874216AFA74106BFBE9C390
:100A100033F91CEC70CFD009D0082274F5120B1BEF
:100A20008908740B120DC9E0FEA3E0FF740F55088E
:100A3000F50A750B00740B780A120D58EA2400F8B9
:100A4000EB3480F9E82400E9350BF9E5C7F509A294
:100A5000AFE433F50AC2AFE508C4540FFAE5C75452
:100A6000F84AF5C7801C88828983E08C828D83F0E8
:100A700088828983A3A882A9838C828D83A3AC8278
:100A8000AD83EEFAEFFBEA24FF1EEB34FFFFEA4BE7
:100A900070D48509C7E50AA2E092AF7F04020C80FA
:100AA00074F7120B1B7409120DC9E0F508A3E0F5E9
:100AB00009ED900388F0ECA3F0A37462F0A37473C3
:100AC000F0A3E0541FF0E508333354FCA3F07406A0
:100AD0007808120DADE50890038CF090038E741227
:100AE000F0A37442F075D1FE75D601EA906271F000
:100AF000EBA3F0906270E0D2E1F0E0A2E740FB7F70
:100B000002020C80C082C083E9C333906272F0900D
:100B10006270E0D2E0F0D083D082222518C582C076
:100B2000E0E51934FFC583C0E0E518C3958224F9D8
:100B300010AF0885831985821880088583198582FE
:100B400018D2AFCEF0A3E520F0A37808E608F0A312
:100B5000DEFAEFF0A3E58124FBF8E608F0A3E6084F
:100B6000F0A30808E608F0A3E608F0A315811581B4
:100B7000D0E0FED0E0F815811581E8C0E0EEC0E0DD
:100B800022C0D02518C582C0E0E51934FFC583C056
:100B9000E0E518C3958224F310AF08858319858298
:100BA000188008858319858218D2AFC8F0A3E9F0B0
:100BB000A3EAF0A3EBF0A37908E709F0A3D8FAECD5
:100BC000F0A3EDF0A3EEF0A3EFF0A3D0E0F0A3D0FC
:100BD000E0F0A3D0E0F0A3E520F0A3E5F0F0A3223D
:100BE000851983851882E0C0E0A3E0F9A3E0FAA3A9
:100BF000E0FBA37808E0F608A3DFFAE0FCA3E0FD41
:100C0000A3E0FEA3E0FFA3E0C0E0A3E0C0E0A3E018
:100C1000F5D0A3E0F520A3E0A3F5F010AF0885839D
:100C2000198582188008858319858218D2AFD082F1
:100C3000D083D0E0F8D0E032120DD8B90003020C16
:100C40007AE4900302789E79038002F0A3D8FCD95D
:100C5000FA90059FAA82AB8390008E782979018053
:100C600015E493A3AC82AD838A828B83F0A3AA821E
:100C7000AB838C828D83D8E9D9E7120311120DD38F
:100C8000851983851882E0A3FEE0A3F5207808E0AB
:100C9000A3F608DFFAE0A3FFE0A3C0E0E0A3C0E012
:100CA000E0A3C0E0E0A3C0E010AF08858218858310
:100CB000198008858218858319D2AFD083D082220B
:100CC000C008C3E096F50808A3E096420808A3E030
:100CD00096420808A3E09645087001D3D008222563
:100CE00018F58210AF08F518400215198008F5189C
:100CF00040021519D2AF85198322C0D0251810AF34
:100D000008F518500205198008F51850020519D287
:100D1000AFD0D0226016080808C6C313C618C61381
:100D2000C618C613C618C613C6D5E0EA2225181081
:100D3000AF08F518400215198008F518400215197A
:100D4000D2AF22E066701008A3E066700A08A3E044
:100D500066700408A3E06622700422600D18C6C302
:100D600033C608C633C6D5E0F41822E026F608A339
:100D7000E036F608A3E036F608A3E036F622740261
:100D80008000C0E0F404120CDFD0E0120DBC22E0C1
:100D9000F608A3E0F608A3E0F608A3E0F62275D073
:100DA00000758140751802751903020C38600C0833
:100DB000C6C313C618C613C6D5E0F422CAC0E0E6FF
:100DC000F0A308DAFAD0E0FA222518F582E4351902
:100DD000F5832200000080FB790122FFFFFFFFFF67
:100DE000FFFFFFFFFFFFFFFFFFFFFFFFFFFFFFFF13
:100DF000FFFFFFFFFFFFFFFFFFFFFFFFFFFFFFFF03
:100E0000FFFFFFFFFFFFFFFFFFFFFFFFFFFFFFFFF2
:100E1000FFFFFFFFFFFFFFFFFFFFFFFFFFFFFFFFE2
:10200000022AC20221FDFFFFFFFFFFFFFFFFFFFFCC
:10201000FFFFFFFFFFFFFFFFFFFFFFFFFFFFFFFFD0
:10202000FFFFFFFFFFFFFFFFFFFFFF02287CFFFF17
:10203000FFFFFFFFFFFFFFFFFFFFFFFFFFFFFFFFB0
:10204000FFFFFF022661FFFFFFFFFFFFFFFFFFFF14
:10205000FFFFFF02212BFFFFFFFFFFFFFFFFFFFF3F
:10206000FFFFFFFFFFFFFFFFFFFFFF022796FFFFBE
:10207000FFFFFFFFFFFFFFFFFFFFFFFFFFFFFFFF70
:10208000FFFFFF02219201FFFFFFFFFFFFFFFFFFA6
:10209000102010200101FF01010503010F10FEFFB8
:1020A000EC35EC35EC35EC3596349034EC353B4B77
:1020B00000000000C34C000000000C0000000C00F9
:1020C000010000863800000000D8379A3920381601
:1020D0003900000E380000FF0101001A070000005F
:1020E000E803920703E80364006400B801020200F9
:1020F0000800000502070401051E02051E020A0A67
:1021000003B80B02803E010201FFFF0A01E0020258
:1021100006FFFFFF000810E8030A0901000500019F
:10212000E08001DA800AB712AD1400C0E074F21248
:102130002481A2AFE433FED2AFE5A7FFE5A1F50805
:102140005F5410600612429475A1EFE5085F5408D1
:10215000600812429A75A1F7802BEFA2E0C0D0E58B
:1021600008A2E092F01229FF158182F050179061C9
:1021700098E0F8900CF6E0C398A2D265D0335002F4
:10218000E8F075A1FE751A00EEA2E092AF7F0102A1
:1021900024E0C0E074F2122481A2AFE433FED2AF97
:1021A0009061A4E0F8759B00E591585408600875AB
:1021B00091F71242DC802AE591585410600875911D
:1021C000EF1242E2801BE8A2E0C0D0E591A2E092CB
:1021D000F01229FF158182F05007E0C2E0F01244AE
:1021E000329061A3E0F8E5E9585404600E12440807
:1021F00075E9FB906193E0A2E640F28088C0E0744C
:10220000F2122481A2AFE433FED2AF9061A5E0F8D0
:10221000E5BF585404600675BFFB12444A0221858D
:10222000C3E498F8E499F91222618026C3E49AFA8B
:10223000E49BFBE920E7E9122261E498F8E499F9CC
:1022400022C3E498F8E499F9122261E498F8E49939
:10225000F9C3E49AFAE49BFB22EB20E7CFE920E7FD
:10226000E0B90010BB0008E88AF084F8AAF022E484
:10227000FBC8FA22EB70227B10C833C8C933C933BC
:102280005007C39AC3DBF280069A50012ADBEAC8E2
:1022900033F4C8C933F4C9FA2275F008E4C833C866
:1022A000C933C933C99AC99B5004C92AC93BD5F05F
:1022B000ECFBC833F4C8E4C9FA22080808EAC0E015
:1022C000EBC0E086F0E7A4FA180986F0E7A42AFA42
:1022D000180986F0E7A42AFA180986F0E7A42AFA72
:1022E0001986F0E7A4FBE5F02AFA190886F0E7A4BE
:1022F0002BFBE5F03AFA190886F0E7A42BFBE5F092
:102300003AFA18180986F0E7A4C5F02BFBE43AFA6C
:102310001908E7C5F0C6A426F6E5F03BFBE43AFA57
:102320001886F0E7A4F6E5F00826F6E43B08F6E4A4
:102330003A08F6D0E0FBD0E0FA22E4CFC0E0E4CEE9
:10234000C0E0E4CDC0E0E4CCC0E075F020C3E633EB
:10235000F608E633F608E633F608E633F6181818FA
:10236000EC33FCED33FDEE33FEEF33FFC3EC9709A6
:10237000ED9709EE9709EF97191919400FFFEC97A0
:10238000FC09ED97FD09EE97FE191906D5F0BEEC94
:10239000F709EDF709EEF709EFF7191919D0E0FC85
:1023A000D0E0FDD0E0FED0E0FF222518C582C0E0DD
:1023B000E51934FFC583C0E0E518C3958224F81001
:1023C000AF0885831985821880088583198582184E
:1023D000D2AFCEF0A3E520F0A37808E608F0A3DEA4
:1023E000FAEFF0A3E58124FAF8E608F0A3E608F096
:1023F000A3E608F0A30808E608F0A3E608F0A31592
:10240000811581D0E0FED0E0F8158115811581E8B5
:10241000C0E0EEC0E022122B24B9000302246BE4DA
:102420009004D1785879108002F0A3D8FCD9FA78BA
:102430001A9020867A01BA00028007E493A3F60876
:10244000DAF9901428AA82AB8390209478987901C5
:102450008015E493A3AC82AD838A828B83F0A3AA18
:1024600082AB838C828D83D8E9D9E77582A375838B
:1024700090740612285E7582A8758349740012282C
:102480005EC0D02518C582C0E0E51934FFC583C001
:10249000E0E518C3958224F310AF0885831985827F
:1024A000188008858319858218D2AFC8F0A3E9F097
:1024B000A3EAF0A3EBF0A37908E709F0A3D8FAECBC
:1024C000F0A3EDF0A3EEF0A3EFF0A3D0E0F0A3D0E3
:1024D000E0F0A3D0E0F0A3E520F0A3E5F0F0A32224
:1024E000851983851882E0C0E0A3E0F9A3E0FAA390
:1024F000E0FBA37808E0F608A3DFFAE0FCA3E0FD28
:10250000A3E0FEA3E0FFA3E0C0E0A3E0C0E0A3E0FF
:10251000F5D0A3E0F520A3E0A3F5F010AF08858384
:10252000198582188008858319858218D2AFD082D8
:10253000D083D0E0F8D0E03275F0108E218F228564
:102540008226858325851882851983E0CEA3E0CF76
:10255000852682852583EBC9EAC8EDCBECCAC3E8A2
:1025600033C8E933C9EA33CAEB33CBC3EA9EF52457
:10257000EB9FF523B35004AB23AA24EC33CCED330B
:10258000CDD5F0DAAE21AF2222D083D082ECC0E0EC
:10259000EDC0E0E493A3FCE493A3FDED4C600D12C9
:1025A00026A4EC24FFFCED34FFFD80EFE493A3FCB4
:1025B000E493A3FDED4C600D122741EC24FFFCEDEC
:1025C00034FFFD80EFD0E0FDD0E0FCE493A3C0E059
:1025D000E493C0E022851983851882E0A3FEE0A37E
:1025E000F5207808E0A3F608DFFAE0A3FFE0A3C037
:1025F000E0E0A3C0E0E0A3C0E0E0A3C0E0E0A3C04F
:10260000E010AF08858218858319800885821885B7
:102610008319D2AFD083D082022864D083D082E9DC
:10262000C0E0E493A3C386F0C5F095F0F908E49305
:10263000A386F0C5F095F0700BE493A3C399400511
:10264000E9048002A3E475F002A42582F582E5F096
:102650003583F583D0E0F9E493A3C0E0E493C0E0D0
:1026600022C0E074F2122481A2AFE433FED2AFC2E2
:10267000C0901320E0700BE5D1A2E4501D1241F888
:102680008018E5D1A2E3500675D1F71241CEE5D10D
:10269000A2E4500675D1EF1241D4EEA2E092AF7FD2
:1026A000010224E0C0E0C3E49396087401939618F5
:1026B000400FE49366700808740193661870007008
:1026C00019A3A3C3E49396087401939618A3A34097
:1026D0000DD0E0D0E0D0E00225C5A3A3A3A3A3A31F
:1026E000D0E0227404800474028000CCC0E0EDC00D
:1026F000E0E518C39CCCAD1950011D10AF068C1835
:102700008D1980068C188D19D2AF1227E0D0E0FD0C
:10271000D0E0FC2274028000CCC0E0EDC0E0E518FF
:10272000C39CCCAD1950011D10AF068C188D1980BB
:10273000068C188D19D2AF1227BED0E0FDD0E0FC78
:1027400022C0E0C0F088F0E493667008087401933A
:1027500066187000A8F0A3A3700BD0F0D0E0D0E012
:10276000D0E00225C5A3A3D0F0D0E022D083D08250
:10277000CCC0E0E493A360061228201470FAE4931E
:10278000A360061229491470FAD0E0FCE493A3C0B8
:10279000E0E493C0E022C0E074F212248175890065
:1027A000C2C5901320E0700E7A007B10900696E070
:1027B000F9123AEA80031248347F010224E0CAC0C9
:1027C000E0E493A3C582CCC582C583CDC583F0A3C5
:1027D000C582CCC582C583CDC583DAE5D0E0CA22E7
:1027E000CAC0E0E0A3C582CCC582C583CDC583F055
:1027F000A3C582CCC582C583CDC583DAE6D0E0CA45
:1028000022C008C3E096F50808A3E096420808A392
:10281000E096420808A3E09645087001D3D008224C
:10282000C0E0E493A3D39C5010E493A3C39C400A5C
:10283000D0E0D0E0D0E0022789A3A3A3D0E02270AB
:1028400009080808226016181818C6C333C608C637
:1028500033C608C633C608C633C6D5E0EA22C09FD1
:10286000F59FE473D09F22D083D082C09FE493C0B1
:10287000E0740193C0E0740293F59F22C0E0C0D0E1
:10288000E8C0E0E5A8D2AFC2C7751A00A2E792AFD0
:10289000D0E0F8D0D0D0E0322518F58210AF08F59E
:1028A00018400215198008F51840021519D2AF8595
:1028B0001983227404800A740380067402800274EF
:1028C00001C0E0F404122898D0E0122AFF22BB01D4
:1028D00002E722C082C08389828A83BB0003E08032
:1028E00002E493D083D08222C0D0251810AF08F51F
:1028F00018500205198008F51850020519D2AFD0FA
:10290000D0226016080808C6C313C618C613C61816
:10291000C613C618C613C6D5E0EA22C3E0C696F6AB
:1029200008A3E0C696F608A3E0C696F608A3E0C69C
:1029300096F622251810AF08F518400215198008E0
:10294000F51840021519D2AF22C0E0E493A36C70D1
:1029500009D0E0D0E0D0E0022789A3A3D0E022C3D1
:10296000E09608A3E09608A3E09608A3E096A2D21A
:1029700065D03322E066701008A3E066700A08A3F1
:10298000E066700408A3E06622E76670100809E7B5
:1029900066700A0809E76670040809E76622C3E65C
:1029A00097F60809E697F60809E697F60809E69704
:1029B000F622C3E096F008A3E096F008A3E096F0B4
:1029C00008A3E096F022E627F60809E637F608099C
:1029D000E637F60809E637F622E026F608A3E036E1
:1029E000F608A3E036F608A3E036F622E026F00863
:1029F000A3E036F008A3E036F008A3E036F022C0EA
:102A0000E0E8C0E0E58124FCF8E6A2E7D0E0F8D0F9
:102A1000E022700422600D18C6C333C608C633C650
:102A2000D5E0F41822E657F60809E657F60809E655
:102A300057F60809E657F622E056F608A3E056F6E0
:102A400008A3E056F608A3E056F622E056F008A3E5
:102A5000E056F008A3E056F008A3E056F022E6475F
:102A6000F60809E647F60809E647F60809E647F6D4
:102A700022E4C396F608E496F608E496F608E4968F
:102A8000F622C3E7960809E7960809E7960809E7DA
:102A90009622C6F4C608C6F4C608C6F4C608C6F42C
:102AA000C622600D08C6A2E713C618C613C6D5E035
:102AB000F322C3E09608A3E09608A3E09608A3E0FB
:102AC000962275D0007581407518D17519040002E1
:102AD0002416E0F608A3E0F608A3E0F608A3E0F663
:102AE00022600C08C6C313C618C613C6D5E0F4226C
:102AF000E6F008A3E6F008A3E6F008A3E6F022CA91
:102B0000C0E0E6F0A308DAFAD0E0FA22E0FAA3E0A7
:102B1000FBA3E0FCA3E0FD22EAF0A3EBF0A3ECF0C2
:102B2000A3EDF022E5C754F84401F5C77901222549
:102B300018F582E43519F58322C2AF75D69F0200DD
:102B4000002212286731A50212286779A5021228EF
:102B500067A4A5021228677FA602122867B6A802FA
:102B600012286759A902122867D2A9021228673FC2
:102B7000AB021228674FAB0212286766AB0212281D
:102B8000678CAB02122867BFAB02122867F3AB0257
:102B9000122867B5AD021228676AAE02122867E6EE
:102BA000AE021228673DAF021228679CAF021228BE
:102BB00067FAAF0212286723B00212286793B002A7
:102BC000122867ECB00212286765B102122867BAB2
:102BD000B30212286774B50212286720B6021228C1
:102BE0006767B70212286705BA021228670BBD0291
:102BF00012286718BD02122867A6BD02122867585E
:102C0000BE02122867A0BE0212286700BF02122867
:102C1000671CBF0212286750BF0212286785BF02D7
:102C20001228675EC00212286713C1021228676863
:102C3000C302122867B5C40212286758C5021228B9
:102C400067E5C502122867FFC50212286758C60249
:102C50001228670AC702122867DCC7021228679782
:102C6000C90212286721CA0212286760CA02122804
:102C700067F5CB0212286729CC02122867A4CC0280
:102C80001228677ECD0212286745CE021228678A75
:102C9000CE02122867A2CE0212286739CF0212286C
:102CA00067AAD102122867BFD302122867DDD302B8
:102CB000122867FBD302122867D5D402122867F3C3
:102CC000D702122867008003122867358003122874
:102CD000675D8003122867968003122867A8800327
:102CE000122867FA80031228675B8103122867E5C0
:102CF0008103122867898203122867D18203122870
:102D0000670B83031228672883031228674D830308
:102D10001228679F8303122867B88303122867DE8F
:102D20008303122867FD830312286738840312285F
:102D3000677C8403122867A38403122867F4840342
:102D4000122867A485031228675C8603122867246B
:102D50008703122867E4870312286728880312284C
:102D6000674D8803122867908803122867DD88035F
:102D7000122867538A03122867D98A03122867F733
:102D80008A03122867218B031228673B8B031228C2
:102D9000674A8B03122867558B03122867158C032B
:102DA0001228676E8C03122867308D03122867384B
:102DB0008D03122867B08D03122867FF8D03122838
:102DC000676C8E03122867828E03122867778F0341
:102DD0001228670D9003122867799003122867A4C0
:102DE0009103122867C99103122867DA9103122808
:102DF000675F9203122867EE9203122867469303D7
:102E00001228670A94031228672994031228673846
:102E100095031228675695031228676895031228B0
:102E200067BB9503122867CA950312286752960359
:102E30001228678F96031228679C96031228671A38
:102E40009803122867799903122867929903122828
:102E500067DB9A031228676D9B03122867A49C0303
:102E6000122867DD9C03122867299D031228673CFE
:102E70009E0312286760A0031228676BA003122824
:102E80006776A00312286781A0031228678BA0032E
:102E900012286796A003122867B0A003122867BA09
:102EA000A003122867C4A003122867CFA00312282A
:102EB00067DAA00312286702A1031228675DA10345
:102EC00012286767A1031228678BA103122867AF36
:102ED000A1031228670DA20312286751A20312282A
:102EE000676DA203122867E4A2031228671CA303DC
:102EF00012286768A303122867C5A3031228677FF7
:102F0000A40312286763A603122867BCA60312282D
:102F100067ECA70312286712A8031228678CA9037D
:102F200012286717AD03122867E9AE03122867B2AB
:102F3000B0031228675FB103122867D3B2031228C7
:102F40006772B303122867BFB30312286729B4035B
:102F500012286738B403122867B8B603122867DD51
:102F6000B70312286771B903122867DEB903122864
:102F700067BDBA03122867E0BB0312286748BD0388
:102F800012286767BD03122867BCBD03122867C1FA
:102F9000BE03122867E9BE0312286741BF03122847
:102FA0006720C00312286764C003122867AFC003FC
:102FB0001228671AC1031228675FC203122867C369
:102FC000C20312286711C40312286778C6031228A7
:102FD00067A9C60312286761C803122867B6C80329
:102FE000122867C8C90312286765CA03122867BE7A
:102FF000CA0312286771CB0312286713CC03122867
:1030000067B3CC0312286758CD03122867E3800109
:103010001228672C8101122867A48301122867E314
:1030200083011228672D84011228676B85011228FD
:1030300067CA8501122867FE85011228673C860150
:10304000122867B08701122867738A01122867A6C1
:103050008B01122867598C011228670895011228E4
:10306000679D9501122867849801122867B399011A
:10307000122867149A01122867309B01122867767C
:103080009C01122867559D011228673A9F0112285A
:10309000674BA101122867A3A10112286775A2013D
:1030A0001228672CA30112286736A301122867642F
:1030B000A30112286721A401122867F8A40112288D
:1030C00067BFA5011228675AA601122867C4A60186
:1030D000122867E2A6011228670BA7011228672DA4
:1030E000A70112286783A9011228675BAA01122889
:1030F000679FAA0112286707AB01122867BFAB01BF
:10310000122867F1AB0112286735AC011228676BF2
:10311000AC01122867B7AC011228670CAD01122868
:103120006711AD0112286764AD0112286789AD01EE
:1031300012286799AE0112286711AF011228676D36
:10314000AF01122867F9AF01122867E7B201122810
:1031500067CBB30112286762B50112286798B701DF
:1031600012286746B801122867F6B8011228673797
:10317000BB01122867DABB0112286721BC011228A3
:1031800067CDBD01122867E1BD01122867EBBD01C3
:1031900012286713BE011228671FBE011228673E5E
:1031A000BE0112286788C001122867BDC00112281D
:1031B00067C7C001122867D1C0011228672CC1015E
:1031C00012286788C1011228679CC201122867FD76
:1031D000C2011228674CC40112286790C40112284A
:1031E0006738C5011228671BC601122867C6C601C9
:1031F00012286712C80112286710C901122867B681
:10320000C90112286746CA011228675DCA0112283F
:103210006794CA011228679ECA01122867A8CA01CA
:10322000122867B3CA01122867D1CA01122867158C
:10323000CB0112286772CB0112286797CB011228A5
:1032400067B1CB0112286743CC011228676DCD010D
:10325000122867E4CD01122867CBCE01122867013E
:10326000CF0112286775CF01122867F0CF0112280D
:1032700067F4D001122867EAD10112286799D201B8
:10328000122867ACD30112286748D401122867CAF4
:10329000D401122867A8D501122867E0D5011228A9
:1032A0006738D60112286701D70112286722D70193
:1032B000122867A9D701122867CDD701122867EF16
:1032C000D70112286738D8011228674EDA01122870
:1032D0006731DB01122867E2DB0112286718DE0183
:1032E00012286768DE01122867A8DE01122867EA43
:1032F000DE0112286744DF0112286772DF011228FD
:103300006796DF01122867E9DF0112286717E001DD
:1033100012286750E001122867AFE0011228671CED
:10332000E10112286781E201122867A4E401122852
:10333000670DE50112286736E501122867C1E5012E
:103340001228672DE60112286778E6011228679C8B
:10335000E601122867C0E6011228671BE701122860
:103360006736E701122867EFE70112286729E801AD
:10337000122867A5C305122867DDC305122867FE5A
:10338000C30512286740C405122867A6C405122881
:1033900067B0C405122867C0C405122867F5C405C4
:1033A0001228673EC805122867E8C905122867E891
:1033B000CB051228677C8004122867C2800412287B
:1033C00067A28104122867A48204122867A78304D5
:1033D0001228673385041228679185041228674EE6
:1033E00086041228676C8704122867DD8704122878
:1033F000671988041228676788041228677188048F
:10340000122867B58804122867118904122867AC4E
:103410008904122867298A04122867F88A04122866
:1034200067918B04122867B18B04122867E78B041D
:10343000122867188C04122867D98C04122867E9AF
:103440008C041228673D8D04122867588D041228B9
:10345000676A8D04122867738D04122867CD8D0466
:10346000122867298E04122867758E041228679027
:103470008E04122867C18E04122867DE8E0412287B
:1034800067EA8E041228675E90041228677790041A
:10349000122867DE9004122867F19004122867FF53
:1034A0009004122867B39104122867979204122897
:1034B000679D9304122867279404122867319404A7
:1034C0001228679E9404122867B59404122867E7AF
:1034D00094041228672095041228674A950412283C
:1034E00067AB9504122867CB9504122867E9950409
:1034F0001228672F9604122867559704122867A28E
:103500009704122867D19704122867479804122855
:10351000676F9804122867A89804122867B6980461
:103520001228670E99041228675D99041228679C77
:103530009904122867CC9904122867F89904122874
:1035400067039A04122867219A04122867E39A04F1
:10355000122867ED9A04122867289B041228673EF8
:103560009B04122867479B041228679C9B0412281F
:1035700067B09B04122867AD9C04122867C09C04A6
:10358000122867D79C04122867EC9C041228678EC7
:103590009D04122867119E04122867CF9E041228EA
:1035A00067DA9E0412286706A00412286722A00486
:1035B00012286774A004122867B3A004122867C8F1
:1035C000A0041228672AA104122867B9A1041228AE
:1035D0006704A20412286755A404122867D3A40420
:1035E00012286748A5041228676AA7041228678270
:1035F000A70412286785A70412286791A704122838
:1036000067A5A704122867ADA704122867E0A704DE
:1036100012286790A80412286706A904122867795F
:10362000A9041228672DAA04122867E2AA04122806
:103630006701AB04122867A1AB04122867ADAB0485
:10364000122867D8AB04122867DBAB041228670A7C
:10365000AC041228671FAC0412286789AC04122836
:1036600067B1AD0412286789AE0412286714AF044D
:103670001228672DB004122867EAB00412286723C5
:10368000B10412286754B10412286712B204122838
:103690006742B2041228671DB304122867B6B30448
:1036A00012286741B404122867F2B404122867751F
:1036B000B504122867A7B504122867E8B5041228D4
:1036C000671DB60412286736B8051228679BB8052F
:1036D000122867D3B80512286722B9051228674453
:1036E000BB0512286727BD05122867C6C00512282A
:1036F0006764C10512286799C105122867BBC10517
:1037000012286720C20512286756C2051228677E54
:10371000C205122867A1C205122867CEC205122869
:103720006721C3051228676DC30512286785A005A8
:1037300012286706A1051228673CA105122867A375
:10374000A10512286716A30512286732A3051228BF
:103750006777A30512286705A4051228675EA405EC
:1037600012286792A50512286760A605122867D857
:10377000A60512286754A70512286796A7051228E0
:1037800067D7A7051228670BA90512286709AA059C
:1037900012286734AA051228677FAA05122867C66F
:1037A000AA0512286758AB0512286711AC05122824
:1037B00067768406122867878406122867D88406ED
:1037C0001228671D8506122867CC85061228670611
:1037D00086061228675DEF03122867F2EF031228AE
:1037E00067A0F0031228672BF1031228670BF4037C
:1037F000122867BAF50312286771F603122867C604
:10380000F603122867A7F9031228673FFB03122863
:1038100067A6AB06122867CEAB06122867C5AC06B2
:10382000122867CEF90212286753FA021228676A33
:10383000FA02122867DFFA021228673FFB021228F9
:103840006768FB02122867E5FB0212286781FC0209
:10385000122867E8FC0212286750FD0212286777D9
:10386000FD02122867B0FD02122867CEFD02122861
:1038700067F7FD0212286725FE021228676BFE0219
:10388000122867D1FE0212286797AC051228673EFE
:10389000AD051228675EAD0512286785AD051228B3
:1038A0006799AD05122867F5AD0512286725AE05A5
:1038B000122867A6AF051228674CB0051228672AA0
:1038C000B1051228677BB105122867BFB105122820
:1038D0006702B2051228676FB20512286790B20519
:1038E0001228671CB305122867CCB405122867405C
:1038F000B505122867EEB605122867C8B705122865
:103900006722B805122867D1A506122867DBA5062D
:10391000122867FCA5061228674E94051228670036
:1039200097051228673B98051228671A9A051228EE
:1039300067659A051228672D9B051228676E9B05FF
:103940001228679E9B051228675F9C05122867D284
:103950009C05122867D49C05122867D69C0512285E
:1039600067D89C05122867039D05122867059D05E9
:103970001228671E9D051228676B9D05122867A1F6
:103980009D051228671A9E05122867319F05122887
:103990006706A005122867D4EA04122867F1EA0432
:1039A00012286743EC041228676EEC04122867DFC4
:1039B000EC0412286703ED0412286723ED04122893
:1039C0006748A00212286797ED04122867BAEE0430
:1039D000122867F0EE041228671FEF0412286761AF
:1039E000EF041228670BF0041228672BF00412284A
:1039F0006780F10412286702F204122867F9F204C2
:103A0000122867C9F30412286739F4041228678A58
:103A1000F404122867BCF4041228671EF504122867
:103A20006778A302122867D3F50412286709F70400
:103A30001228673EF704122867A5F7041228676D5D
:103A4000F80412286795F8041228673DFA04122832
:103A500067BEFA04122867F1FA041228672DFB04E6
:103A600012286746FB04122867D2FB0412286796C7
:103A7000FC0412286740FD04122867E1FD041228A7
:103A80006780FE04122867FFFE0412286748E405D9
:103A900012286794E40512286702E50512286723B7
:103AA000E5051228673AE505122867EAE5051228B8
:103AB00067F3E50512286746E6051228676FE605F5
:103AC000122867D6E60512286767E705122867A956
:103AD000E705122867F3E70512286752E805122860
:103AE000677EE8051228670FE9051228674EE90589
:103AF0001228678DE905122867C2E905122867D4E4
:103B0000E905122867E6E90512286719EA0512286F
:103B10006759EA0512286792F90512286765FA05C0
:103B20001228677FFA0512286790FA05122867A500
:103B3000FC05122867C4FC0512286717A80612287E
:103B4000674DA80612286796A806122867E6A906F8
:103B50001228670080051228673F81051228677BBD
:103B600081051228673A83051228676383051228A6
:103B700067F685051228673A8605122867C3870508
:103B80001228675B8805122867C3880512286764B6
:103B90008905122867A68905122867E68905122873
:103BA00067718B05122867E18C05122867068F055F
:103BB000122867348F051228675B8F051228676407
:103BC0008F05122867BF8F051228675290051228AB
:103BD00067709305122867F193051228675AB60695
:103BE00012286770B6061228677AB606122867CAC6
:103BF000B6061228675A94061228676D9406122892
:103C0000670A95061228674695061228675D95068D
:103C1000122867829506122867C49506122867F550
:103C20009506122867309606122867AA970612286A
:103C300067EB9706122867BCB00612286716B10614
:103C40001228676FB106122867ABB506122867FE07
:103C5000B50612286740B60612286750B606122825
:103C60006773E801122867C8E8011228674AE9016A
:103C70001228674DEA01122867ECEA01122867BE94
:103C8000EB01122867D3EB011228671DEC01122803
:103C9000676CEC01122867B5EC01122867C8EC01CB
:103CA0001228671DED0112286776ED01122867764C
:103CB000EF0112286777F001122867B2F00112288D
:103CC0006706F10112286713F301122867A3F301B5
:103CD00012286730F4011228673FF4011228675256
:103CE000F401122867A1F401122867B7F401122821
:103CF00067CEF401122867FDF4011228670EF50162
:103D00001228672EF50112286739F501122867BDC0
:103D1000F50112286717F60112286772F6011228BA
:103D20006797F701122867B0F7011228673EFA017A
:103D30001228676AFA01122867ECFA0112286764F0
:103D4000FB0112286787FB01122867C3FB011228B9
:103D5000672BFC01122867E0FC0112286714FD01A3
:103D60001228671EFD0112286721FD011228673104
:103D7000FD01122867AEFD01122867D6FD01122849
:103D800067F8FD0112286724FE011228675FFE0113
:103D90001228676EFE0112286779FE01122867BAA1
:103DA000FE01122867CDFE01122867F4FE011228D9
:103DB00067F5B30612286706B4061228678EB406A4
:103DC00012286704DD0512286753DD05122867F500
:103DD000DE05122867B1E005122867F9E005122810
:103DE00067E1E10512286712E30512286734E3054D
:103DF00012286790E30512286714E4051228673F2C
:103E00004F001228676D4F00122867B85000122823
:103E100067FF5000122867515100122867CD5100EA
:103E2000122867365200122867825200122867044F
:103E30005300122867AA5300122867325400122830
:103E400067745400122867B15800122867345A006A
:103E5000122867735A00122867C45A00122867EAAA
:103E60005D00122867755E001228674C60001228FA
:103E7000678E6100122867AC62001228671E63001B
:103E8000122867EA630012286750640012286764EA
:103E900064001228671865001228674D6600122812
:103EA000678B68001228670B6B00122867C06B00D5
:103EB000122867DC6C0012286733700012286743F1
:103EC0007000122867A4710012286730720012284F
:103ED00067627300122867F47300122867F1740098
:103EE0001228677E75001228672CD104122867E219
:103EF000D10412286754D20412286763D20412280E
:103F000067DDD2041228674CD30412286753D40407
:103F10001228677CD4041228671CD5041228676A0B
:103F2000D504122867E1D504122867D3D8041228D3
:103F300067A8D90412286715DA0412286795DB04EC
:103F400012286749DC04122867F7DC04122867523C
:103F5000DD04122867BDDD04122867BDDE041228C7
:103F600067A5DF04122867E9DF0412286716E0045A
:103F70001228673EE00412286773E004122867FCE9
:103F8000E0041228675AE20412286727E404122882
:103F9000673EE5041228677BE6041228678EE70473
:103FA00012286727E80412286799E8041228676135
:103FB000E90412286711D80212286786D80212284D
:103FC00067F8D8021228674CD902122867E7D9028D
:103FD00012286710DB0212286758DB02122867BD1F
:103FE000DB02122867F1DB0212286793DC02122839
:103FF000670ADD0212286797DD0212286782DE0257
:10400000122867E9DE02122867EADF021228671C1D
:10401000E1021228679EE10212286774E202122868
:1040200067A3E202122867D1E20212286730E30296
:1040300012286753E30212286709E4021228671D59
:10404000E40212286740E4021228675EE4021228A4
:104050006786E402122867A7E402122867CEE4020A
:10406000122867E6E402122867A3E502122867C651
:10407000E60212286779E70212286707E902122888
:104080006756E9021228677AE90212286720EA02D5
:1040900012286746EA021228678CEB02122867B0E2
:1040A000EB0212286735EC021228678DEC02122809
:1040B00067DBEC0212286760ED02122867A4ED02AC
:1040C00012286742EE0212286709F002122867B729
:1040D000F00212286716F20212286743F302122830
:1040E00067D5F40212286704F502122867DEF5028C
:1040F000122867AEF60212286707F7021228671F18
:10410000F7021228670FF8021228671DF902122819
:1041100067789B06122867B39B061228676D9C067A
:10412000122867D39C06122867449D06122867D878
:104130009D0612286720910612286782920612288F
:104140006724FF0112286735FF01122867D5FF0198
:10415000122867EFFF03122867DCFF03122867F3BA
:10416000B60612286703B70612286718B706122882
:104170006769B706122867F3B20612286778B30694
:10418000122867DCB306122867DFFF05122867E2F2
:10419000FF05122867E5FF02122867F5FF021228C3
:1041A00067F8FF02122867FBFF02122867F87F00FA
:1041B0001228671DFE0512286758FF05122867DCC4
:1041C000FF0512286778B70612286781B7061228FC
:1041D000678AB70612286798B70612286782EA0529
:1041E000122867EEEA05122867B5EB05122867BFAB
:1041F000EC05122867A1EE05122867FCEE051228CF
:104200006751EF0512286762EF0512286774EF0502
:10421000122867DEEF05122867F2EF05122867FD06
:10422000EF051228670BF0051228671DF00512280C
:104230006731F00512286786F00512286782F205BB
:10424000122867B4F205122867D6F205122867EF24
:10425000F20512286708F30512286712F4051228E0
:1042600067ADF40512286749AA061228676EAA06E8
:104270001228677EAA06122867B1AA06122867E2EA
:10428000AA0612286710AB0612286721AB0612286F
:104290006783AB0612286792AB061228679CAB06B1
:1042A000122867789E061228679E9E06122867DBF2
:1042B0009E06122867EA9E06122867099F061228A2
:1042C00067719F061228677A9F06122867D99F0692
:1042D000122867FD9F06122867BCA006122867C92E
:1042E000A006122867DAA006122867A0FF0312288A
:1042F00067BDFF03122867008006122867548006F6
:10430000122867C18106122867CE8106122867E14C
:104310008106122867008206122867168206122874
:10432000672A8206122867AD820612286710830664
:104330001228678B8306122867F9830612286757AD
:1043400084061228676784061228675E7F00122899
:1043500067827F00122867AA7F00122867D27F0039
:1043600012286708A1061228672FA1061228675095
:10437000A106122867B5A1061228676EA3061228A7
:104380006787A30612286793A306122867A7A306C8
:10439000122867C5A306122867CFA306122867D97B
:1043A000A306122867ECA3061228673DA40612286C
:1043B0006776A406122867A5A406122867F3A40648
:1043C00012286742A5061228675DA50612286767AE
:1043D000A50612286778A506122867BEA50612282A
:1043E0006788FF02122867D9FF0212286716760035
:1043F0001228674276001228675E760012286771DD
:104400007600122867877600122867F37600122854
:1044100067267700122867557B001228677B7C008F
:10442000122867AE7C00122867FA7C0012286733D6
:104430007E001228675B7E00122867707E001228BB
:1044400067807E00122867C47E00122867197F00EB
:10445000122867297F0012286789AF06122867A4EF
:10446000AF06122867CDAF06122867E7AF061228FD
:10447000670CB0061228672BB00612286743B006F7
:1044800012286771B0061228678BB006122867E7FA
:10449000B4061228673DB506122867F89706122859
:1044A00067FF97061228670B99061228673B990643
:1044B000122867619906122867849906122867A650
:1044C0009906122867E09906122867469A0612286C
:1044D000677F9A06122867CB9A06122867F89A0611
:1044E000122867189B06122867F6AC061228671870
:1044F000AD061228673FAE0612286742AE061228A4
:1045000067E0B10612286752B20612286790B20619
:10451000122867D1B20612286735D5051228673BE5
:10452000D50512286781D5051228676AD705122894
:1045300067A0D705122867FAD705122867DCD805C7
:1045400012286721D90512286754D905122867DE79
:10455000D905122867F8D90512286784DB051228C7
:104560006782DC05122867CBDC051228679ACC0528
:10457000122867B0CC0512286745CD05122867417F
:10458000CE0512286745CF05122867EACF05122805
:10459000672ED005122867ABD0051228670CD1050D
:1045A0001228671CD10512286743D1051228679588
:1045B000D10512286722D30512286727D3051228B0
:1045C0006749D305122867A4CD031228672DCE03AF
:1045D000122867A3CE0312286729CF031228672C5D
:1045E000D1031228672CD3031228673DD403122865
:1045F00067F6D403122867B8D903122867A8DA032C
:104600001228673EDB031228676DDB031228673927
:10461000DC031228674FDC0312286772DC031228C0
:1046200067ECDC031228670BDD0312286759DE03F1
:10463000122867F9DE0312286740DF03122867B2E9
:10464000DF031228671EE00312286782E0031228A6
:104650006740E103122867B7E103122867F3E1031B
:104660001228675BE20312286759E303122867EBFD
:10467000E40312286798E503122867B9E5031228B6
:1046800067A0E70312286743E9031228673FEA039C
:1046900012286786EE031228677BB6041228671675
:1046A000B704122867ABB704122867ACB804122805
:1046B0006791B90412286703BA041228674CBA0438
:1046C000122867EFBA04122867BABB041228670AD7
:1046D000BC0412286758BC0412286721BD041228A4
:1046E0006766BF041228671BC004122867FEC20455
:1046F000122867EAC3041228678DC504122867AA26
:10470000C60412286758C70412286722C904122851
:104710006787CB04122867B2CB04122867DACB0470
:10472000122867E6CC0412286758CD041228679B2C
:10473000CD04122867CCCD041228678ACE04122833
:104740006745D004122867BB8806122867E18806EF
:104750001228673089061228674C89061228677D5F
:1047600089061228678D89061228679A89061228F9
:1047700067A78906122867938A06122867D18A06D6
:10478000122867DB8A06122867E88A06122867F370
:104790008B06122867058C06122867108C061228D3
:1047A00067228C061228672B8C06122867358C0628
:1047B000122867AA8C06122867ECF4051228670CE9
:1047C000F90512286728F905122867B48C06122803
:1047D00067CA8C06122867938E06122867DE8E063B
:1047E000122867498F0612286743900612286772BD
:1047F000900612286784900612286745AE06122894
:104800006789FC03122867E5FC0312286725FD036E
:1048100012286716FE031228673AFE031228674F14
:10482000FE031228676FFE03122867A6FE031228F4
:1048300067B7FE03122867CEFE03122867F3FE0354
:104840001228677DFF03122867D1FF04122867F939
:104850009E02122867609E02122867C39D021228DA
:1048600067B99C02122867769C02122867449C0252
:10487000122867819B02122867AC99021228675997
:1048800099021228672B9902122867289902122888
:1048900067A69702122867A79602122867719502E9
:1048A000122867B594021228672B940212286731E8
:1048B00093021228678D9202122867D4910212285F
:1048C00067979102122867F5900212286764900298
:1048D000122867539002122867F8A202122867D0A4
:1048E000A202122867A4A20212286780A20212283C
:1048F00067C0A102122867C08F02122867568F0274
:10490000122867FD8E021228678B8E0212286736E6
:10491000A102122867568E02122867F78D0212280C
:1049200067C68D021228678E8A02122867F4A002D9
:1049300012286789F504122867488A021228673C02
:104940008A021228679C8902122867DC88021228D2
:10495000674B8602122867DC83021228679A83025B
:104960001228676E82021228672382021228675F6C
:1049700081021228673281021228676A8002122897
:10498000673A8002122867008002122867F3FF014D
:10499000122867EFFF01122867F1FF01122867CC88
:1049A000A0021228676DED0400000080FBE4738F05
:1049B000000100AD0887000100AC08240002007966
:1049C00014250002007B14260002007D142700023B
:1049D000007F142800010081142900010082148442
:1049E00000040083148600010087142A0001008857
:1049F000142B00010089142C0001008D142D0008D7
:104A00000098082E0001008E142F0001008F143032
:104A1000000100901431000100911432000100A047
:104A20000833000100A1083400010092143600018F
:104A300000A208380001009314390001008C14838F
:104A40000002009D1463000100AB08640001008AAD
:104A500014650001008B146D0001009C146E0002AF
:104A60000096084300010094144400020095144588
:104A7000000100971446000200981447000800A3A4
:104A800008480001009A144B0001009B1404000127
:104A9000009F14A1000100A11437000100A0148898
:104AA000000100AE080000000000000001363601E1
:104AB00001000102010001030100010401060605D5
:104AC000020000070100340801000F090401010D74
:104AD0000100FF0E08000017020000190100FF1A74
:104AE0000100011B0100FE1C0100081D0200001F47
:104AF00001000120010001210200002301000F2418
:104B00000200002601000127010008280200FF2AF8
:104B10000100072B0102402C0100002D0100012E95
:104B20000100012F0100FF30010B1C310800003A89
:104B30000100083B01000F2F01000003007100304D
:104B40000160001100700031022003500480001049
:104B500000610000001400630073007200620043F3
:104B60000000001300060000000000040012000016
:104B70000000000000000004000400370037003C83
:104B80000244000000000000000000650000003545
:104B90000081000000050000008300000001017199
:104BA0000101010101110101013101010101018036
:104BB00001100161013B0014006301730172016285
:104BC0000143010001130106013D013500040112FA
:104BD000010001000100010001040104013301335F
:104BE000013C014401320136000001000165010071
:104BF00001350081010001050182018301000103EB
:104C0000047104020460041104700402040204012B
:104C100004020410046104000414046304730472A5
:104C200004620443040004130406040004000404A2
:104C30000412040004000400040004510464000091
:104C4000040004000444040004000400040004659B
:104C50000400043504810464000504000483040096
:104C600004030271023001600211027002010202AB
:104C70000202028002100261023A004100630273E4
:104C800002720262024302000213023800000200B4
:104C900002040212020002000200020002040204E6
:104CA00002370037003C02440200023900000200D3
:104CB00002650200023502810200020502820283BF
:104CC0000200020103710301030103010301030157
:104CD0000322030203010310030003000300030087
:104CE0000300030003000342030003240306030040
:104CF00003000304031203250323032503230304F2
:104D00000304030003000300034403000300032320
:104D1000030003650321003503810300030503003D
:104D200003000300030000223F1300983E0100220D
:104D30003F0200203E0300263E04002C3E050032C8
:104D40003E06003E3E30005C3E3100563E3200687A
:104D50003E33006E3E3500743E34007A3E360080AD
:104D60003E11008C3E1400923E1500503EFFFF00A5
:104D70000036000100060000000F000000000000E7
:104D80000000000000000003FFFF00000403FFFF1D
:104D90000000FFFF0FF4010005C404032000010020
:104DA000000B000000000000000003010F5A4678CD
:104DB000466046904666467E4666468A466C469003
:104DC0004666467E4600000000000000000000002D
:104DD0000000000000000000007246904600000045
:104DE0000000000000015E30069430088E300BACED
:104DF0003010CE2F0AC430026430058230076A308A
:104E00000C40300D5230FF000003EAF5E5D5D5C562
:104E1000B5A59595858575756565555545453535B2
:104E20002525151505F0342035F634FC341A350ED9
:104E300035083526352C3532353E350235EA34E431
:104E40003400160F00000B150B020002220F320077
:104E5000000601030507090B0D0F00020406080AEE
:104E60000C0D00000000000000008967452301EFE1
:104E7000CDAB5A6967426565416C6C69616E63656B
:104E80003039EC35FE350436BA340A36B434C03421
:104E9000583676367C365E366A366436F433EE3310
:104EA0002A3430342434DC33303017181921301BC5
:104EB0001D1F3000034948424D18172505023030A8
:104EC00016181920231A1C1E300001191618161660
:104ED000152303000C0E020B040B0A0708000F0039
:104EE000383C3E363B3B352B432C4036103616368D
:104EF00022361C3614353835703644354A350204AE
:104F00000201010101090200340634FA3336340C7F
:104F1000341E3400BE040A15000E0004007F000099
:104F200000000028000C00E803100C0A0308090028
:104F3000040008FF1E1E09030401100C080F05C021
:104F400082C08390078AE4F0A3F07CD57D047A06C2
:104F50007B07124510122DDC9008ACE0700479003C
:104F600080027901124984122DE202645D74F51207
:104F700023AA74F5122933E9FF8A08EBFEEF705E6D
:104F800074026508703E90071D7408F0750A007879
:104F90000A1228BFECF50A780A1228BFEEF50A7843
:104FA0000A1228BF9014831226E3901487E0F97C3C
:104FB000A37D0890149D126039122E0674071228E2
:104FC000E802508F74016508600302509490071D39
:104FD0007408F07B00EEFAF9122E4202508F740131
:104FE0006F600874026F6003025094EA60067403F5
:104FF0006508705490071D74021250AE122B0C12EB
:105000002DF4E9F8900722E0A2E34019E870169029
:10501000078EE004F06404700C908096122B0C90C4
:105020001483122B1874036508706690078FE0F9DB
:10503000740129F0E9C394054057908096122B0C17
:10504000901483122B18804974016508704674010E
:105050006F90071D702E740AF07401122B2FE4F06C
:105060007402122B2F7403F0908086122B0C7404A0
:10507000122B2F122B187408122B2FE4125E6512BC
:1050800030708020740A1250AE122B0C122E2AE9B6
:10509000F8E860107CE87D037A017B0090071AE055
:1050A000F9123C0A740B1228E87F030225D5F09010
:1050B0001487E0F99014832274F61223AAE9FFEA18
:1050C000FE7AD1F9123AC6EA4B702A7A027B0012B4
:1050D0003AAEEA4B700E7A107B0090071AE0F91294
:1050E0003AEA80188A828B8374D1F0EFA3F0EEF94C
:1050F000123ABA8007EF8A828B83A3F002527D7442
:10510000F71223AA890890067FE0FEA3E080248E90
:10511000828F83A3A3125D7460128E828F83A3A3F8
:1051200012587E125D74FAA908123E088E828F838F
:1051300012752EFFEE4F70D7900696E0FAA908126E
:105140003E081231849006EE125A6D12317E0273BF
:105150005274F11223AA890A8C08740F122B2F1291
:1051600060257411122B2F125866750900750E00F8
:10517000804AE50B12521EF50CA3E0F50DE50EC3B7
:1051800033FEE433FFEA2EF582EB3FF583E0650C56
:105190007004A3E0650D7019E509C333FEE433FF25
:1051A000EC2EF582ED3FF583E50CF0A3E50DF0055F
:1051B00009050BE50BC3950840B8050EE50EC39530
:1051C0000A5005750B0080EBA90902663774F412CA
:1051D00023AA890B740C122B2F126025750A0080EC
:1051E00002050AE50AC3950B502F7D0080010DEDE5
:1051F000C39C50EDE50AC333FEE433FFEA2EF5828B
:10520000EB3F12522EF509ED12521E65087004A3F1
:10521000E0650970D9790180027900026881C333A1
:10522000FEE433FFE82EF582E93FF583E022F583C3
:10523000E0F508A3E02274F61223AA1252C4700308
:10524000A3E06D701775082075090778081228BB50
:10525000EEFA123F2874021228E8801A75080275C7
:10526000098078081228BB8C088D0978081228BBA1
:105270001252F01228E8800574021228E87F020218
:1052800025D574F61223AA1252C47003A3E06D70E0
:105290001775082D75090778081228BBEEFA123F1A
:1052A0002E74021228E8801A7508037509807808A0
:1052B0001228BB8C088D0978081228BB1252F012F4
:1052C00028E880B9EAFEEBFF1252DCFAA3E0F9EA23
:1052D0002400FCE439FD9006EEE06C22EE2413F588
:1052E00082EF125DCAE0F8A3E0F988828983E022A8
:1052F000EE127327EF12747BFD7C80126505123F5E
:105300004C74042274F61223AA74FE122933EAFEA6
:10531000EBFF851882851983E4F0A3F0126644FA46
:1053200088828983A3A3E0F97509007508006005E8
:10533000C394F1400575088280439006EEE06A70E0
:1053400003A3E06B7020851882851983AA82AB8342
:105350001236FAE9F509851882851983126AF17007
:105360001C75088380179008ACE060046401700528
:105370007508818008E064027003750880851882D2
:10538000851983125866A908EEFAEFFB123F34E53F
:10539000096014851882851983126AF160098518DD
:1053A00082851983126BA902527874F21223AAEA39
:1053B000FEEBFF750A00750B0012541E123184EAD1
:1053C00065087003EB6509701212370CE914F50AD1
:1053D00079017A567B071237128003750B8012729F
:1053E000EFF50C780C1228BF750C56750D07780C6C
:1053F0001228BB780A1228BF78081228BBE50BF5E3
:105400000878081228BF126312F582EF12618A7AB7
:10541000057B80123F3A74071228E8026047127237
:10542000FD1260298882898312756BF508E439F5CD
:10543000092274F61223AAE9FE7F00802F8A828B4C
:1054400083125230F9E5082400E439F509EF33F806
:10545000E433F9EC28F582ED39F583E508F0A3E5AE
:1054600009F0EA24020A0AEB3400FB0FEFC39E4066
:10547000CC02527D74E81223AA74FB1229338A16D7
:105480008B17851882851983E4F07403122B2FE49F
:10549000F0A3F004122B2FE4F0127161F50AA3E0DF
:1054A000F50B850A82F583127567FEE439FF850ADC
:1054B00082850B83A3A3E0FA850A82850B83A3A3CD
:1054C000A3E0F9EAF508E439F509E50A2404F50A48
:1054D000E50B3400F50BEEFAEFFB123226E964011E
:1054E000702C126F9F1228BFE4F508F50978081296
:1054F00028BB78081228BF9006EE1226E7750880B0
:1055000078081228BF1258861228E8025854EEFA7A
:10551000EFFB123226E9700C9006EEE06E7003A3EA
:10552000E06F70BE12586C8814602EC333FAE433F7
:10553000FB123B447403122B2F125A6D7403122B6F
:105540002F126AF160137403122B2F12585EA914E4
:10555000123E388A0A8B0B800375140012586C882F
:105560000F602AC333FAE433FB123B447401122B5D
:105570002F125A6D7401122B2F126AF1600F7401F1
:10558000122B2F12585EA90F123E388003750F00A0
:1055900090067F805D850A82850B83A3A3A3A3A3C6
:1055A000A3A3A3E4F0A3F0AA0AAB0B851282851390
:1055B00083A3A312587C125D74F9123ABA85108243
:1055C000851183E0C0E0851882851983E0F8745660
:1055D00028F582740712752AD0E012688604F0E577
:1055E00015A2E05007AA10AB11123B4A8512828522
:1055F0001383E0F512A3E0F513E5124513700302DF
:1056000057CC851282851383A3A3125D7460DD8558
:105610001282851383A3A3A3A3A3A3A3A3E0A2E061
:1056200050CA851282851383A3A3A3A3126AF185AE
:105630001282851383A3A3601F125D74FA7901851A
:105640001282851383A3A3A3A3125D791249AD8AA5
:10565000108B11751501800F12587CA3A3E0F51073
:10566000A3E0F511751500E510451170030255DF33
:10567000851082851183A3E065087004A3E06509A5
:1056800060030255DF851082851183A3A3A3A3A322
:10569000A3A31226E7851082851183A3A3A3A3A346
:1056A000A3E0FC7405122B2F126039A914123E1AC4
:1056B00074021228E8E9703C851082851183A3A347
:1056C000A3A3A3A3A3A3A3A31226E78510828511F6
:1056D00083A3A3A3A3A3A3A3A3A3E0FC7403122BFC
:1056E0002F126039A90F123E1A74021228E8E970CD
:1056F000030255DFE50F2514C333240AFA7B001299
:105700003AAE8A0A8B0BEA450B70030255BD8A82BA
:105710008B8374D2F0851682851783A3A31260252C
:105720008A828B83125E6D8A828B83A3A3A3A3E5F7
:1057300014127571E50FF0E5146038EA2405FAEBF0
:105740003400FBE50A240AF8E50B3400F98A828B61
:1057500083125E6F7403122B2F1258A41228B7E520
:1057600014C333FCE433FD8A828B83126CA51228A8
:10577000E8800D8A828B83A3A3A3A3A3E4F0A3F004
:10578000E50F7003025595E514C333F8E433F9E5EA
:105790000A28F8E50B39F9E8240AFAE93400FB8510
:1057A0000A82850B83A3A3A3A3A3A3A3A3125A6D69
:1057B0007401122B2F1258A41228B7E50FC333FC23
:1057C000E433FD1273CB1228E80255A785188285B1
:1057D0001983E06027126F9F1228BF75085675095C
:1057E0000778081228BB7403122B2F126FA91228F6
:1057F000BF9006EE1226E77508008029EEFAEFFB4F
:10580000123226E9702A126F9F1228BF750856754A
:10581000090778081228BB75080078081228BF907D
:1058200006EE1226E778081228BF1258861228E8DA
:105830007403122B2F126AF160087403122B2F12BB
:105840006BA97401122B2F126AF160087401122BDC
:105850002F126BA974051228E87F100225D5125863
:1058600066AA0AAB0B22E0FCA3E0FD22850A828532
:105870000B83E0F8A385820A85830B22E0F8A3E07E
:10588000F5838882A322E5162402FCE5173400FD87
:10589000E5161262A7E5171265127A067B80123FA1
:1058A0003A740722E0F50CA3E0F50D750E00780CB4
:1058B0002274F41223AA74F41229338A088B09EC97
:1058C000FEEDFF740B122B2F7403F0122B2FAA8204
:1058D000AB8312451012317EEAFCEBFD7403122BF0
:1058E0002FAA82AB8312450AE9600A1259FE6010A2
:1058F000E06401600B85188285198374840259B6AF
:105900008E828F83A3A3A3A3A3A3A3A3E06017C343
:1059100094F150121259FE7018EE24141272F260B3
:1059200005C394F1400B851882851983748202594E
:10593000B6E508240CF582E5091272F564217002BF
:10594000A3E0704F851882851983748CF01259F189
:105950001228BF125A0D12491874011228E8E97072
:1059600056851882851983E4F0123D8A1259FE701B
:10597000467401122B2FAC82AD831274A3FB124824
:10598000FAE970337D007C0079001274A3FB123EAB
:10599000F880241259F11228BF125A0D12491274BC
:1059A000011228E8E98518828519837007E4F0124E
:1059B0003D8A80037488F0127325E5091259F612A6
:1059C00028BF7401122B2F85820A85830B780A1257
:1059D00028BBE508240CF582E509125A044480F539
:1059E0000B780A1228BB1263CA1228E8740C0268EA
:1059F0007EEE126019EF12747BF50A780A22125AB1
:105A0000BF640322125DC6E0F50AA3E022EE240B78
:105A1000FCEF3400FD8E828F83A3A3A3A3A3A3A3D3
:105A2000A3A312603D8E828F83A3A3A3A3A3A3A3EA
:105A3000A3E0F922C082C08374F31229338518824F
:105A4000851983E4F004122B2F125A6D7403122B64
:105A50002FAA82AB83122D10851882851983AA8202
:105A6000AB83122D4C740D1228E802645DEAF0A39A
:105A7000EBF02274F61223AA125AAF127222900788
:105A800028E058F508A3E059F509E5084509601C28
:105A900078081228BB9006EE1226E71272EFFD7C02
:105AA00000126501123F4674041228E802527DEA92
:105AB000FEEBFF125ABFF8A3E0F988828983221215
:105AC0007301E02274EA1223AA74DB1229338A14C8
:105AD0008B15751200751300125D6EF50E85188218
:105AE000851983AC82AD837A007B00799C122E5499
:105AF0007A047900122D5EEAF50C851882851983E7
:105B0000E0250CF0F8E50EC3984003025CF6E0C314
:105B1000950EF509C394044003750903E50975F072
:105B20001AA4FAABF0123B448A128B13EA451370A5
:105B300003025CF9750D00AE12AF13850E08025B0F
:105B4000CB125D4D850A82850B83A3A3A3A3E070CE
:105B500039850A82850B83126AF170121260121263
:105B600072E9EE2418F582EF12752AE48016125DB0
:105B700065F0900560E014C0E0EE2418F582EF12A5
:105B8000752AD0E0125DB6E4803E900560E004C066
:105B9000E0EE2418F582EF12752AD0E0125DAEC354
:105BA0009403EE4003025C5B12601312752A7402C8
:105BB000125DAE64016003025C68125D4612752AD4
:105BC000E4F0EE2416125D68125D82E50DC39509BE
:105BD0004003025C8CE508C3950C4003025C71A98C
:105BE00008122DD08A0A8B0B050890054D125D8E88
:105BF000850A82850B83126025125D3F1272151291
:105C00005DCF850A82850B83A3A3A3A3A3A3A3A32C
:105C1000A3A3E0C0E0EE2419F582EF12752AD0E0CC
:105C2000F07401122B2FE412719C12602574021281
:105C30002B2F125E6F7401122B2FAA82AB83122DB1
:105C40003AE964016003025B417404122B2FAC82B9
:105C5000AD83EE240A125D5F025B44125D66125D45
:105C6000AE64037003025BBAEE2415125D68025B3A
:105C7000C1E50CC3950E40057508008016E50EC3FE
:105C8000950CF508800D125D65125D82E50DC395DA
:105C9000095066740E122B2FAC82AD8385080AAAB8
:105CA0000A7B007987122E5405087418122B2F12C4
:105CB0005D8E125D4DEE2412F8EF3400F9740E1271
:105CC0002B2F12603988828983EAF0A3EB125DB62C
:105CD0007403125DCF741D122B2FE0C0E0EE241967
:105CE000F582EF12752AD0E0126B017099126012E2
:105CF00012752AE48093750900750A00780A122843
:105D0000BF78121228BB78091228BFE50EF5097872
:105D1000091228BF7405122B2FE0FD7C001262923D
:105D2000123F8274051228E8E51245136007AA1293
:105D3000AB13123B4A74251228E87F0E0225D5EEDC
:105D40002412F582EF22EE2415F582EF227C087DE5
:105D50000079FFEE240AFAEF3400FB123A9622FA99
:105D6000EF125DA722EE2414125DC3740122127497
:105D700080125DC6125D79E022E0F8A3E0F5838829
:105D80008222F0EE241AFEEF3400FF050D2212608D
:105D9000298E828F83E8F0A3E9F07C617D05EE24F3
:105DA00002FAEF125DA7223400FB12451022127492
:105DB000B6A3A3A3E022F0EE2415125DDF24161291
:105DC0005DC322F582EF125DCA223400F58322F012
:105DD000EE2417125DDF2418125DC374FFF022F564
:105DE00082EF125DCA7402F0EE2274F61223AA74D6
:105DF000F91229338A088B091275E98518828519E9
:105E000083122B18125E5DC0E07404122B2FD0E0B9
:105E10001273E9E0FA7405122B2F7401F074061264
:105E20002B2F7401F09006F8F0900701041274CD46
:105E3000A31260259006F9125E6FEA900702F0E562
:105E4000081262A7E5091272F59006F7125E651254
:105E50002DFAE96003122E00740702527AEE240430
:105E6000FE1271572212663CAA82AB8322A3A3E8DA
:105E7000F0A3E9F02274F21223AA74FF12293375F9
:105E800008007E007F001230A08A0A8B0B12600689
:105E90008005050812601EE84970F79008ACE060C4
:105EA0000764016003025F83126006800312601EB4
:105EB000E84960378882898312603990054DE06A2D
:105EC0007003A3E06B600E126018E912752A12606D
:105ED00039EA4B70D88882898312602590054DE09D
:105EE000687003A3E0697003025F837A167B001277
:105EF0003B448A0C8B0DAE0CAF0DEE4F7003025F6E
:105F00008390054D1260258E828F83125E6F9005FF
:105F100042E08E828F83A3A3F012320EE98E828F2D
:105F200083A3A3A3A3A3F0901488E08E828F83A3FE
:105F3000A3A3A3A3A3F07C617D05EE240B125D5FF8
:105F4000851882851983AA82AB83794112475085CF
:105F50001882851983E060089006EE12602580049F
:105F600078FE79FF8E828F83A3A3A3A3A3125E6D15
:105F700012601212752AE50AF0A3E50BF08E0A8F63
:105F80000B0508900702E0F8E508C39850047A0072
:105F90008022E508C398FAC3940640027A05790086
:105FA000800DE50A126019E50B125A04F50B09E998
:105FB000C39840EE75090078091228BF780A1228A4
:105FC000BBEAF50978091228BF900702E0F50978C5
:105FD000091228BFAD087C007AF97B069006F7E02D
:105FE000F9123F7C74051228E89008ACE060046464
:105FF00001700BEE4F6007EEFAEFFB123B4A122ED8
:106000000074010254181230A08A0C8B0DA80CA940
:106010000D22EE126019EF22E82414F5822212609C
:1060200018E9125DC612602922E0F8A3E0F922AC5B
:1060300082AD8385188285198312603D22E0FAA320
:10604000E0FB22EEFAEFFB7F060225D574EC12236B
:10605000AA74FF1229338A0A8B0B7E008E0E8E0FD4
:10606000125D6EFF851882851983AC82AD837A003C
:106070007B00799D122E54851882851983E0F8EFF4
:10608000C3984003026128E0C39FFEC3940B400203
:106090007E0AEE75F007A4FAABF0123B448A088B37
:1060A000098A0E8B0FEA450F607C750C00801785FE
:1060B0000882850983A3A3A3A3A37403F0E508249E
:1060C00007126181050CE50CC39E505CAC08AD095C
:1060D000850C108F12E5102512FAE43400FB798B41
:1060E000122E54850882850983A3A3A3A3A3E014D9
:1060F000600814601314601F80B5850882850983C9
:10610000A3A3A3A3A3E480B4850882850983A3A3E2
:10611000A3A3A3740180A5850882850983A3A3A3F3
:10612000A3A3740280967E0075080078081228BF29
:10613000780E1228BBEEF50878081228BFEFF50894
:1061400078081228BF7405122B2FE0FD7C00E50AA9
:106150002402FAE50B3400FBE50A1262A7E50B12F4
:10616000618A123F8874051228E8E50E450F600722
:10617000AA0EAB0F123B4A74011228E87F0C0225CD
:10618000D5F508E5093400F509221265122274EAF2
:106190001223AA74FE1229338A148B15750A00750E
:1061A0000B00125D6EF508851882851983AC82ADEF
:1061B000837A007B0079A312490685080C85188232
:1061C000851983126025C3E50C98E499507F8518E2
:1061D00082851983E0C3950CFEA3E09400FFC3EE13
:1061E0009404EF940040067E037F008004EE4F602D
:1061F0005CEEFAEFFBEA75F015A4FAA8F075F0155D
:10620000EBA428FB123B448A0C8B0D8A0A8B0BEA09
:10621000450B6039750900750E00850E10C3E51039
:106220009EE49F502DAC0CAD0D850E12850810E537
:10623000122510FAE43400FB79A2124906E50C2479
:1062400015F50CE50D3400F50D050E80CD75098BA7
:106250007E00750C00780C1228BF780A1228BBEE5D
:10626000F50C780C1228BF78081228BF7405122B81
:106270002FE0FDAC09126292123F8E74051228E8DD
:10628000E50A450B6007AA0AAB0B123B4A740202EF
:106290005D37E5142402FAE5153400FBE5141262BB
:1062A000A7E51512651222240FF5822274F6122337
:1062B000AA74FF122933EAFEEBFF1272F912603959
:1062C0008A828B83A3A3A3A3A3A3A3A3E0F9122E83
:1062D0001EE9851882851983F07508007808122850
:1062E000BF7401122B2F8582088583097808122834
:1062F000BB75083575098078081228BB1263071230
:1063000028E8740102527A7901126312FAEF1263DB
:10631000E122EE2402FCEF3400FDEE240F2274F49F
:106320001223AA74FA1229338A088B0912721DFAF1
:10633000EFFB122D16E9601312317EEAFCEBFDEE45
:10634000FAEFFB12450AE96401700A7401122B2F5F
:10635000E4F0A380097401122B2FEEF0A3EF126A70
:10636000F5A3A3A3A3A3A3E0F8A2E6500874031225
:106370002B2F7401F0E8A2E750087404122B2F743D
:1063800001F07405122B2FE4F004122B2FAA82AB1C
:1063900083122E48E9851882851983F0750A0078E2
:1063A0000A1228BF7401122B2F85820A85830B786D
:1063B0000A1228BB750A34750B80780A1228BB12A2
:1063C00063CA1228E8740602687E7901E50824028F
:1063D000FCE5093400FDE508240FFAE5091263E144
:1063E000223400FB123EEC74052274F61223AA74C8
:1063F000FF122933125AAFE0F509A3E0F508A90905
:10640000122E0CE9851882851983F09008ACE07093
:106410000B740165087005A909124054EE240B1293
:1064200072F2702975080078081228BF7401122BC7
:106430002F85820885830978081228BB7508367570
:10644000098078081228BB1263071228E802630249
:10645000C082C0839008ACE0700312405AD083D051
:106460008202286474F41223AA74EF122933EAFE1C
:10647000EBFF12541E9006EEE065087004A3E06581
:1064800009705885188285198385820A85830B785F
:106490000A1228BB750A11750B00780A1228BB7CFA
:1064A000007D007A817B00123BCE74041228E8E95B
:1064B0007029750A00780A1228BF7401122B2F85E3
:1064C000820A85830B780A1228BBAC08AD091265D5
:1064D00001123F4074031228E88021750A11750BE0
:1064E00080780A1228BB78081228BB1272EFFD7C54
:1064F00084126501123F4C74041228E8741102687A
:106500007E12650522EE2402FAEF3400FBEE1262E1
:10651000A7EF125DCAE0F92274F11223AA74EB12FC
:106520002933EAFEEBFF1266442400F508E43BF54C
:10653000099006EEE065087004A3E06509600302B7
:1065400065E088828983A3A3E09410500F88828934
:1065500083A3A3E085188285198380088518828526
:1065600019837410F0E0C0E07404122B2FD0E012F5
:106570007335A3A3A982AA83890C8A0D750E0078AE
:106580000C1228B77407122B2FE0FC7D0074081240
:106590002B2FAA82AB831273CB1228E87404122B20
:1065A0002F85820A85830B780A1228BB750A11751C
:1065B0000B00780A1228BB7C007D007A817B0012D8
:1065C0003BC874041228E87404122B2FE0900720B3
:1065D0006005E0D2E48003E0C2E412663CE4800897
:1065E0008518828519837484F0E0C0E07401122B51
:1065F0002FD0E0F07402122B2FE508F07403122B59
:106600002FE508F0EE127327EF126FA61228BF7461
:1066100002122B2F85820885830978081228BB7502
:10662000081475098078081228BB790312630912CF
:1066300028E874151228E87F070225D5F08518820E
:10664000851983221252DCFCA3E0FBEC2274F412C5
:1066500023AA74E01229338A088B098518828519C8
:1066600083AC82AD83123EDA9008ACE064027033F2
:106670007402122B2FAE82AF8312317EEEFCEFFD3F
:1066800012450AE9601D1231848A0A8B0BA80AA9F7
:106690000B851882851983E0687003A3E069700395
:1066A00002687C1233467402122B2F12602F1232B2
:1066B00050E96401700302687C7418122B2FAA82BF
:1066C000AB831231907402122B2FAC82AD837418FD
:1066D000122B2FAA82AB8312450AE9603212318A4B
:1066E0008A0A8B0BA80AA90B851882851983E06892
:1066F0007003A3E0696018851882851983126025EC
:10670000900543125E6F7A437B05794B1247569092
:1067100008ACE06007640160030267A2127522C042
:1067200082C0831231848A088B09D083D082E065CD
:10673000087004A3E06509603E7402122B2FAA8240
:10674000AB83122D8E8A088B09A808A909E8496035
:106750002688828983A3A3A3A3E06401600D8882B5
:106760008983A3A3A3A3E06402700C7402122B2FED
:10677000AA82AB83122D9A1231848A088B09A80849
:10678000A909851882851983E0687003A3E0696010
:10679000117402122B2F12602F122D70E960031258
:1067A0003D8A7402122B2F12602F123328790012A7
:1067B0006033122F8C740B122B2FE4126886F8A30F
:1067C000E0F9740C122B2F125E6F740B122B2FAA90
:1067D00082AB83122D3AE9604B7C087D007900740E
:1067E00018122B2FAA82AB83123A96740E122B2FFB
:1067F000AC82AD837418122B2FAA82AB8312450A88
:10680000E960217402122B2FAC82AD83740E122B1F
:106810002FAA82AB83122D10740B122B2FAA82ABDE
:1068200083122D4C7402122B2FAC82AD83740E1286
:106830002B2FAA82AB83122D10740B122B2FAA823E
:10684000AB83122D40E96034740C122B2F1260259B
:10685000851882851983E0687003A3E069601D854F
:106860001882851983126025740C122B2F125E6F0B
:10687000740B122B2FAA82AB83122D4C742012287A
:10688000E87F040225D512663CE02274F11223AAA7
:1068900074F6122933EAFEEBFF75080090078C129C
:1068A0006AF170407A377B00126AB4EAF0A3EB1207
:1068B000701160197C377D007900123A96EEFCEF7A
:1068C000FD90078C126039123EAAE9700B85188280
:1068D0008519837488026A16126ABB7401F0126FFC
:1068E0004F026AA9126ABB7402F0EEFCEFFD126F50
:1068F00035123EAAE9700C8518828519837488F0D8
:10690000750801750A56750B07780A1228BB90079F
:106910008CE02429126F831226E790078CE024284C
:10692000126AC52415126AD92414126ACE1228E8F4
:10693000E9C0E090078CE02431126F83D0E0F012C0
:106940006FD5603C126AAEE02432126AFA60257597
:106950000C56750D07750E00780C1228B7126FD5FE
:10696000C333FCE433FD90078CE02432126CA11297
:1069700028E8800C8518828519837488F0750801D1
:10698000780A1228BB90078CE02412126F8312261B
:10699000E790078CE02411126AC5242C126AD924CE
:1069A0002B126ACE1228E8E9C0E090078CE024346C
:1069B000126F83D0E0F012730C602E126AAEE024E6
:1069C00035126AFA603F750C56750D07750E007822
:1069D0000C1228B712730CC333FCE433FD90078C00
:1069E000E02435126CA11228E8E508A2E0401F124D
:1069F0006FD57005126AE160157B007A007900128C
:106A00003EB0026AA98518828519837488F08518BA
:106A1000828519837486F07409122B2F7402126A0E
:106A2000F5126FCF122B2F125E6F8E828F83A312FF
:106A30006FA91228BF7401122B2F85820885830944
:106A400078081228BB75082075098078081228BBC1
:106A500079017406122B2FAC82AD83EEFAEFFB1294
:106A60006F6B1228E8126FBB703C7409122B2F74E5
:106A700002F0126FC7122B2F1270181228BF740168
:106A8000122B2F85820885830978081228BB750888
:106A90002075098078081228BB79017406122B2F03
:106AA000126F5D1228E8123EA4740A026634C333E2
:106AB000FAE433FB123B4490078C2290078CE024CD
:106AC0002E126F8722126FDFFC90078CE0221812C3
:106AD0006FE0F9123E14740422126BB790078CE039
:106AE0002290078CE02434080808126FE022126F0D
:106AF00087126CD4221273E9A322126F87EAF0A3E3
:106B0000EB12735BF8A3E0F9E84922C082C08390DE
:106B1000078C126AF17003026B9F90078CE024359A
:106B2000126AEE600990078CE02435126BB0900772
:106B30008CE02432126AEE600990078CE024321255
:106B40006BB090078CE02412126AEE600990078CFB
:106B5000E02412126BB090078CE02415126AEE60EC
:106B60000990078CE02415126BB090078CE0242963
:106B7000126AEE600990078CE02429126BB090072E
:106B80008CE0242C126AEE600990078CE0242C1211
:106B90006BB090078C126BA990078CE4F0A3F00205
:106BA000645DF582EF3400F58312603D123B4A22AA
:106BB000126BB7123B4A22F8126FE4FAA3E0FB22F1
:106BC00074F11223AAEAFEEBFF8C088D09750A0105
:106BD0008C0C8D0D750E00780C1228B77C177D007B
:106BE0001273CB1228E8125D3F12711B125D461220
:106BF00071272411F582E5091272F5602AEE24123C
:106C0000126CAC601FE5082412126C951228B7E5CF
:106C1000082411126C8A125D4012752A126CA5129A
:106C200028E88003750A00E508126019E509127268
:106C3000F56025EE2415126CAC604AE508241512A7
:106C40006C951228B7E5082414126C8A125D47125D
:106C5000752A126CA51228E8E50AA2E04022125D0E
:106C60003F12752A126AF16006EE2412126BA2120C
:106C70005D4612752A126AF16006EE2415126BA2A7
:106C8000A90A026637750A0080D4127477C333FCF0
:106C9000E433FDEE22127477F50CA3E0F50D780CC9
:106CA0002208126F8812603D1273CB22F8EF340075
:106CB000F9880C890DE0C333FAE433FB123B4485B9
